:020000040800F2
:10F80000E07F002015FC0008CD2501081B2201081F
:10F8100000000000000000000000000000000000E8
:10F820000000000000000000000000002931010875
:10F83000000000000000000021270108C13101087C
:10F840000000000027FC000827FC000827FC000837
:10F8500027FC000827FC000827FC000827FC0008FC
:10F8600027FC000827FC000827FC000827FC0008EC
:10F8700027FC000827FC000827FC00087933010852
:10F8800027FC000827FC000827FC000827FC0008CC
:10F890000000000027FC000827FC00087D17010875
:10F8A00027FC000827FC000800000000A13D01081B
:10F8B000A33D010827FC000827FC000827FC0008DE
:10F8C0000000000000000000000000000000000038
:10F8D0000000000000000000000000000000000028
:10F8E0000000000000000000000000000000000018
:10F8F0000000000000000000000000000000000008
:10FC00000348854600F0A8F800480047A9410108CC
:10FC1000E07F00200448804704480047FEE7FEE7F5
:10FC2000FEE7FEE7FEE7FEE7A532010801FC00085B
:10FC3000F0B51FB40646002082B00546402401916D
:10FC400000901BE0019922460F46304600F073F801
:10FC5000049A059B801A994110D3104619462246F2
:10FC600000F059F8361A8F410197224601200021F1
:10FC7000009F00F050F838184D4100902046641E57
:10FC80000028DFDC019B00982946324607B0F0BD12
:10FC900003460B439B0703D009E008C9121F08C0A5
:10FCA000042AFAD203E00B780370401C491C521E50
:10FCB000F9D27047D2B201E00270401C491EFBD25B
:10FCC00070470022F6E710B513460A460446194667
:10FCD000FFF7F0FF204610BD70B50446002903D0A1
:10FCE00000202022012310E0002801D00020C04382
:10FCF000C046C0460DE02546D5408D4205D30D4691
:10FD00009540641B1D46954040191546521E002D16
:10FD1000F1DC214670BD10B5202A04DB0146203AF3
:10FD20009140002010BD914020239C1A0346E340DF
:10FD30001943904010BD10B5202A04DB0846203A34
:10FD4000D040002110BD0B46D340D0402024A21A41
:10FD500091400843194610BD064C0125064E05E0AA
:10FD6000E36807CC2B430C3C98471034B442F7D3DC
:10FD7000FFF74AFFC4470108F447010880B503486C
:10FD80005A21017003F004FA80BDC046F17F0020C3
:10FD9000704780B502F042FA02F0C4FA80BDB0B5F7
:10FDA00003460020082B16D30B78F0241C40102C9F
:10FDB00011D14C781B071B0D1B1908D1891C00247D
:10FDC00023460D5D1B025B19641C042CF9D1082B22
:10FDD00001D313600120B0BDB0B503460020022B53
:10FDE00003D30C7825062D0F00D0B0BD0F252C4075
:10FDF000092B09D3002CF8D14C78611E3D29F4D889
:10FE0000591EA14206D2F0E7591E8C42EDD8611E60
:10FE10000629EAD814600120B0BD0000F0B587B013
:10FE2000054605AE00243480542006AF31463A46DC
:10FE300002F012F9387800282BD130880C2828D30A
:10FE400006AF009754200C2102AA05AE334602F0FB
:10FE500037F9387800281CD130880C2819D102A82D
:10FE6000818806AF0097AF4E32461032542005AB62
:10FE700002F026F9387800280BD105A801880398EC
:10FE8000884206D10299B1602870049803F042FBC1
:10FE90000124204607B0F0BDF0B587B0074605A89D
:10FEA00000260680002928D00C460192522005A980
:10FEB00006AD2A4602F0A8F8287800281DD105A82A
:10FEC000008821460C31814217D8002604960394FD
:10FED0000297522002A90C2206AD2B4603F024F80B
:10FEE0002878002809D1522006AD019922462B46D8
:10FEF00003F01AF8287846424641304607B0F0BD74
:10FF0000F0B583B00E460546434B9888002810D0C4
:10FF10002F7A0024002F12D0287801280FD0697A78
:10FF200020290FD258A004F03DFC00203070062498
:10FF300005E05E4804F036FC0020307003242046C3
:10FF400003B0F0BD6A689B68934226D1F020084058
:10FF5000202827D10F2001402F4B1878814226D12D
:10FF600002909A89781EC0B21118D889814223D292
:10FF700001924349088A002830D05A7890422DD8FF
:10FF8000488B0978FFF7A8FE234B3E49086098800C
:10FF90000720307099892F7A30E020A0194604F0AC
:10FFA000A7F902E029A004F0A3F90924C7E72EA0CD
:10FFB00004F0F8FB0424C2E71146821A1C461034F0
:10FFC00060180A3529461D4602F05EFAA868E989DC
:10FFD0002246FFF761FF00243470B0E7C88B097830
:10FFE000FFF77AFE0C4B9880264908600298401C67
:10FFF000C1B20F29019900D900201870581810308B
:020000040801F1
:1000000029460A317A1E1E4602F03EFAB089297A44
:100010000818401EB08192E7701200204D736720CF
:10002000494420696E76616C696420696E2043469C
:10003000212046205258204944203D2025582C207C
:100040005258204944203D2025580A004D7367200E
:100050007479706520696E76616C696420696E20C0
:100060004346202558210A004D736720534E2069CE
:100070006E76616C696420696E2043462100000041
:10008000F44B0108901D0020496E2072656365697C
:1000900076652070726F677265737365733A20724C
:1000A0006563656976656420534600006A4E010801
:1000B000F0B583B001910646DD4DA87B02A908701A
:1000C000B120C7004648002421463A4602F04CFAC7
:1000D000284621463A4602F047FAF6480460204690
:1000E00003F018FA307800280BD002A8FFF796FE2C
:1000F000012813D102A80078E881072809D9062031
:100100000AE0707A0009012805D0002806D10120F4
:1001100002E0052000E0022001990870002003B0F1
:10012000F0BDC046F8170020F0B581B005460024A8
:100130000094007A0927002835D00E462978012935
:1001400031D0697AF0220A40102A27D12946093194
:100150006A46FFF724FE012822D1214F0098F8813A
:100160006868B860D249488B0978FFF7B5FDB88058
:10017000D04908602A7A3846103029460B31921E41
:1001800002F082F9B889297A0818801EB881072000
:1001900030702C726C600120287005E004A000E033
:1001A00007A004F0FFFA3C46204601B0F0BDC0466F
:1001B0005265636569766564206E6F7420464600FB
:1001C00046463A47657452584672616D654D73678D
:1001D0004C656E677468206661696C656421000017
:1001E0007012002070B50D46214EB188002923D031
:1001F000017A0024002938D00178012935D0417ACC
:10020000F0220A40302A1ED10F22114002291CD0B0
:1002100001291ED0002925D1817A7170C07A154933
:1002200008801549888B0978FFF756FDB08013497F
:1002300008600820287018E011A004F0B3FA00202C
:100240002870032411E009240FE0002028700824FE
:100250000BE00949088B0978FFF73EFD0749086064
:10026000B08002E0002028700524204670BDC04602
:10027000F8170020841D0020F44B0108901D002079
:100280005761697420666C6F7720636F6E74726F4C
:100290006C2074696D656F75742E0000F0B581B0C7
:1002A000064600240094007A092700281DD00D4638
:1002B0003178012919D0717A0F2916D831460931C0
:1002C0006A46FFF789FD01280AD1684601887068EF
:1002D0000A363246FFF7E0FD002803D02C7005E017
:1002E00004A000E00DA004F05DFA3C46204601B0F9
:1002F000F0BDC04653463A43414E5F54505F416E95
:10030000616C797A6553696E676C654672616D657B
:100310004C656E206661696C65642100436F70797D
:100320002064617461206572726F722100000000A8
:1003300010B572B60948017862B6022909D00129C0
:100340000BD1074C2068002807D080470020206090
:1003500010BD034900220A60027010BD8C1D0020F0
:10036000881D0020F0B585B0002003900290E54F75
:100370007A88002A59D1B88800282CD0019102200F
:1003800002AE314600F0BEFA3078F02101403878F4
:1003900008433070FC89BD89032000F0BBFA254872
:1003A00000F0AAFA641BE5B2B88939181031701C44
:1003B000072D13D3072202F067F8B868E7490A6AE5
:1003C00000924C6A082102AAD04BA047012822D1F2
:1003D000B889C01D13E00220002525E02A4602F05E
:1003E00053F8B868DD490A6A00924E6A611CC9B2C6
:1003F00002AAC64BB04701280DD1B8894019B8816F
:10040000D649888A0978FFF767FCB880D249086026
:100410000020092507E0022000F07CFA002528468C
:1004200000F06AFA092001990D7005B0F0BDC046D0
:10043000F81700203904010870B5B24DE889A98980
:10044000814220D219480088C44E34782146FFF7F3
:1004500043FC68806878002803D0401E687000065E
:1004600018D0AF4808210170B08B2146FFF734FC4B
:10047000A880B94908602878401CC1B20F2900D96A
:100480000020287070BD0024204603F04BF8A448DB
:10049000047070BDA24803210170308B2146FFF724
:1004A0001BFCA880AC49086070BDC046841D0020BC
:1004B000F44B0108901D0020F0B585B00E460025D4
:1004C000039502958F4CE089082832D301200196CC
:1004D00002AE314600F016FAE0897178014371707E
:1004E0003178F0220A40000A10433070032000F0F7
:1004F00011FA164800F000FAB01C2146103106220D
:1005000001F0C2FFA068954C216A0091676A08213A
:100510007E4B3246019EB84701280DD1A08A217832
:10052000FFF7DAFB8C4908607649888000200925AE
:1005300009E00820052506E0022000F0EBF9284636
:1005400000F0DAF90920357005B0F0BD5105010859
:1005500080B5E64803210170E549088B0978FFF76B
:10056000BBFB684988808A89921D8A817A4A10601B
:100570000878401CC2B20F2A00D90020087080BD44
:10058000F0B585B0002503950295234FB888002863
:1005900003D022A004F006F93BE00C46032002AD94
:1005A000294600F0AFF9D24E308A6870002802D098
:1005B0007878401C7870B07C02ADA870F08A3178F1
:1005C000FFF78AFBB880E64908603878401CC1B262
:1005D0000F2900D900203870032000F09BF918483B
:1005E00000F08AF9306A0090F068766A0821474B7B
:1005F0002A46B047012803D109202070002508E0D1
:10060000022000F087F90025284600F075F92570D2
:100610000925284605B0F0BD701200200A20576158
:100620006974696E67207472616E736D69742046B7
:1006300043206E6F742074696D656F7574210000BE
:100640004506010810B5AF20C000C34CE1898142C6
:1006500009D8A749C88B0978FFF73EFBC049086055
:10066000A080042000E00020A049087010BDC04612
:10067000F0B585B0002603960296B848C0890925D2
:10068000072801D9062639E0002837D00191002635
:1006900002AF3046394600F035F90F20029C844302
:1006A000AE49CA8914433C70781C103101F0ECFE4D
:1006B000032000F02FF9144800F01EF9A7488068C5
:1006C0008B4A116A0091611CC9B2546A0F4B3A46B9
:1006D000A04701280BD18649888A0978FFF7FCFAE0
:1006E0009F4908609D4988800025092605E0022071
:1006F00000F010F9304600F0FFF801990E7028461E
:1007000005B0F0BDF81700201107010865090108C0
:1007100010B50024204602F005FF7448047010BD97
:100720006C120020B0B58E480068002811D10C462C
:100730006F48C06A002800D080470225284602F092
:10074000F1FE284600F0E6F80025284600F0D4F82F
:1007500025700020B0BDC046901D0020F44B01085C
:1007600010B582B01B48522101AC224601F086FF31
:100770002078002803D018A004F014F8FEE73220F7
:10078000542101AC224601F079FF2078002803D0E3
:1007900017A004F007F8FEE74B208000722101AC9F
:1007A000224601F06BFF2078002803D017A003F049
:1007B000F9FFFEE76420742101AC224601F05EFFE0
:1007C0002078002803D01AA003F0ECFFFEE702B067
:1007D00010BDC046DC0500004170706C79204649B0
:1007E000464F205258206572726F7221000000003F
:1007F0004170706C79204649464F205458206572EC
:10080000726F7220636F6465210000004170706C2C
:1008100079205258204649464F2066726F6D20421B
:100820005553206572726F7220636F6465210000FA
:100830004170706C79205458204649464F20544FDF
:1008400020425553206572726F7220636F64652178
:100850000000000070B586B01FA001A90CC80CC133
:100860001CC81CC1214C2078092811D001AA101DD8
:100870001146083109321E4B9B6A9847012807D15F
:10088000029803F071FB012802D101A80021017038
:100890000020184D0646F1006A5C2378934204D18B
:1008A0006818426801A821469047C1B2002905D0C6
:1008B000062901D1002602E000212170761C0A2EB3
:1008C000E9D301A800210172012202700291FFF711
:1008D0002FFD06B070BDC046010000000000000002
:1008E0000000000000000000000000006C1200206A
:1008F000F44B0108684D0108014908607047C04683
:10090000881D00200A780F23134000011818087072
:1009100070470000154908707047C0460E4841886E
:10092000002901D0491E41808188002901D0491E3B
:1009300081800A484188002901D0491E4180818870
:10094000002901D0491E818005480168002901D095
:10095000491E01607047C04670120020F817002041
:10096000901D002001480121017070478C1D00205E
:1009700070B500290ED00023DB43084C0578DEB2A9
:100980006E40B50065591B0A6B40401C491EF5D1ED
:10099000D84300E00020106070BDC046F447010855
:1009A00080B5FFF7E5FF80BD80B5FFF7E1FF80BDB3
:1009B00001207047F0B589B002920391074607AD58
:1009C00000242C80742008AE2946324601F044FBF6
:1009D000307800282BD128880D2828D308AE00961F
:1009E00074200C2104AA07AD2B4601F069FB307876
:1009F00000281CD128880C2819D108AC0094B9B261
:100A0000742007AB039A01F05BFB207801240028D7
:100A10000DD107A80088B84209D10598B84206D878
:100A200004A8029D0EC80EC56248069901602046C2
:100A300009B0F0BDF0B595B0054601A800240480CA
:100A4000082901D9204629E00E460092722001A90A
:100A500014AF3A4601F0D8FA3978012000291DD1A7
:100A600001A90988324608328A4217D802960395AE
:100A7000722002A9082214AD2B4602F055FA2878FC
:100A8000002820460AD102A80288722014AD0099DD
:100A90002B4602F049FA29784842484115B0F0BD8A
:100AA000F0B599B015460391029017A80024048070
:100AB00016AE348004A84821FFF703F9722018AF5E
:100AC00031463A4601F0C8FA33883A78002A32D1E2
:100AD000082B30D318AE00967220082104AA17AB59
:100AE00001F0EEFA16A8317800292CD100880828E8
:100AF00029D304AA118818A800900832722016ABD6
:100B000001F0DEFA059E304603F02EFA01281AD1D4
:100B1000029806600498039908700124002812D0F6
:100B200000210A4604AB5B181B7A6B54521CD1B2ED
:100B30008842F7D807E0002A01D1002B03D00348F0
:100B400003A103F0D5FB204619B0F0BD8A4E010881
:100B500043616E547052656365697665496E666F70
:100B600000000000124908607047C04680B509A027
:100B700003F018FE0E480068002803D080470D4897
:100B80000021016000F0ECFD012802D00AA003F072
:100B900009FE80BD43616E54705472616E736D695D
:100BA0007441626F7274436F6E74656E74000000FE
:100BB000801D0020E411002043616E547054726166
:100BC0006E736D697441626F7274436F6E74656E9B
:100BD000743A20436C65617220545820425553206A
:100BE0004649464F206661696C656421000000003B
:100BF000F0B58BB00D4600270997089707A90F801D
:100C0000082D33D8019302900392742007AE0AACEA
:100C10003146224601F0F8F920780124002826D137
:100C20003088142823D30198069008200590029854
:100C3000049008A803992A4601F026FC742004A910
:100C40000C220AAD2B4602F06FF92878002809D152
:100C5000742008A908220AAD2B4602F065F928780D
:100C6000002804D074200AA903F00CFA3C46204660
:100C70000BB0F0BD01228A40D823C0581040C840B4
:100C8000704701228A40CC23C0581040C8407047AA
:100C9000016570473F290AD898301F2903D80122DF
:100CA0008A4002607047203901228A4042607047C2
:100CB000192803D30F3000090B307047092802D3DD
:100CC000C01C8008801D7047F0B585B004900029D5
:100CD0003CD00F46029303921720000108180190A0
:100CE0001120000108183F21CC4321462031421831
:100CF00020230025D554491CF9D3132000013E18A8
:100D0000049800F093F8311940228D54641CFAD3F2
:100D100001990D704D700006029901D10C480760D1
:100D2000039A3A6079600720C105002A03D004982D
:100D300000F01BF802E0049800F00CF817200F21D7
:100D400001F094FC18200E2101F090FC05B0F0BDDC
:100D5000B4210020426D8A434265704701228A40D7
:100D6000E0214358934343507047C26D012313431E
:100D7000C365826D8A438265426D0A43426570474E
:100D800001228A40E021435813434350704700003A
:100D9000044801680122914301600168C907FCD041
:100DA0007047C0461864004070B5002910D0144642
:100DB0001F2A0DD80D4606462146FFF7CFFF3046C5
:100DC000214600F022FC2819112109010022425479
:100DD00070BDB0B500290ED014463F2A0BD80D4681
:100DE0002146FFF757FFA00028180021816028192D
:100DF000132212018154B0BDB0B5002A14D014469C
:100E00000D46012903D0002D0ED1012100E0102153
:100E1000FFF7A0FFA80020182121C900002242509E
:100E20006019172109014254B0BD000010B500221D
:100E30008B4B14462146984203D00124D207224608
:100E4000F8D0084610BDC0463F2901D900207047A0
:100E5000AC3002695205520F052A02D392000A3AB9
:100E600000E0121D4A4391000068254A024088189C
:100E70007047C0460146A031CB6907221A40052AB7
:100E800003D39200074BD21800E0121DA023C058D4
:100E900049688904890E51438900194A024088181B
:100EA0007047C046F6FFFF3F0146B031CA685206A0
:100EB000520F052A02D392000A3A00E0121DB02315
:100EC000C05849688909FC230B4053430C49014031
:100ED000581870471F2901D900207047C030836817
:100EE00007221A40052A02D392000A3A00E0121D96
:100EF0004A4391000068024A024088187047C04681
:100F0000FCFF0000F0B583B00191054600260824DF
:100F10000290F7B22846394600F0A6F8002818D00B
:100F2000686D000315D5019D2A590298394600F0D5
:100F3000ABF8029829463A46FFF74BFF2F68029D0F
:100F4000002F06D0019948680090032228463346B6
:100F5000B847241D761C402EDBD103B0F0BD000045
:100F6000F0B581B00D46044600F023F9A87A0128B7
:100F70000BD1A06980210143A161A0692021014317
:100F8000A1612069102101432161E87A012807D17C
:100F9000A06980210143A1612069102101432161E1
:100FA0002E460E36287B012803D1A069202101435B
:100FB000A1612046314600F07DF9287A012804D14C
:100FC00001200002A1690143A161687A01282CD1A6
:100FD00001273802A1690143A1617802A169014397
:100FE000A1612046314600F08BF9A87A00281CD177
:100FF000E87A002819D1F805E1680143E160A16CA5
:101000000B480140A164E97D891CAA8A531C4B430B
:101010007F210A02A16C7E2B05D8014018021040E6
:101020000843A06401E01143A16401B0F0BDC046D3
:10103000FF80FFFF80B5012A0CD0052A0CD100F0FB
:10104000C5F8064B7B48186005480021054A00F0AA
:101050008DF880BD00F02AFB80BDC046E011002065
:1010600000640040A40500203F2901D900207047FA
:1010700098301F2901D8026801E020394268CA402F
:10108000012010407047000070B5002A1AD01446A5
:10109000FFF7DAFEF0494258226041184868606064
:1010A000A0790F220240644B985C00280CD00831D4
:1010B0000834002005464E5D66559E5C6D1CB542A9
:1010C000F9D370BD012070BD002070BD70B514460D
:1010D00002460120012947D8002C45D01546A435E9
:1010E000002920D0296949063ED01046FFF7DCFED2
:1010F000D94942582260401841686160A2790F21A5
:1011000011404D4A535C002B08D0083008340023AE
:10111000C65CE654565C5B1CB342F9D32869800474
:10112000800E68611FE0296849061DD01046FFF750
:10113000A1FEC94942582260401841686160A27905
:101140000F2111403C4A535C002B08D00830083472
:101150000023C65CE654565C5B1CB342F9D3286896
:101160008004800E6860002070BDC046F0B581B07C
:10117000012401291AD8002A18D0002B16D055189E
:1011800017263601AF5D002F10D1AC19052525704B
:101190008C0012192124E4001B681351012901D18C
:1011A000102100E00121FFF7E0FD0024204601B0FE
:1011B000F0BD816901220A4382618169C907FCD0BF
:1011C000816902220A43826170470000F0B593B042
:1011D00001A808304021FEF774FD164DA8790F21B3
:1011E00001401548445C01942E6814480068400092
:1011F00003D507204007864301E0F000460D029624
:10120000002C13D0304601F0F7F801280ED101AFC1
:1012100008370835384629462246FEF739FD30465C
:1012200021463A4602F08AF9012801D113B0F0BDF7
:10123000FEE7C0469811002005040020E8110020B8
:10124000F0B581B00124002931D01646002A2ED0F5
:10125000054630793F282AD80F46081811210A017F
:10126000815C002923D180183168096889000092C7
:1012700001D5042100E0032101703268317928464C
:1012800000F0C8F93179002804D078180021009ABC
:1012900081540CE02846FFF773FD012041022846E7
:1012A000FFF763FD3179284600F0AAF900242046B3
:1012B00001B0F0BDB0B500291FD00022C2610B798A
:1012C0007F221340C4699443E318C361CB78FF24A1
:1012D0002402C569A5431B02EB18C3610B88C469CE
:1012E000064D2540DB05DB095B19C3618978520691
:1012F000C369934349065918C161B0BDFFFF00FEA1
:10130000F0B500282ED000292CD00F26F443C26857
:101310002240C260F022D543C2682A40C260C2683F
:10132000114B1A40C260C768104A1740C7600F7A55
:101330003740C6682640F419C4608C7AC6682E40CF
:101340002407240E3419C4604C7AC5681D40E30696
:10135000DB0C5B19C360C988C3681340C906C90A9E
:10136000C918C160F0BDC046FFE0FFFFFFFFE0FF0E
:1013700070B54A7A0C7A8023C3588030002C11D083
:1013800001242240A3439A1802608A7A03680C243D
:10139000A3439207120F9A1802607F2212040830AA
:1013A000114B10E00224A343D207920F9A18026057
:1013B0008A7A03683024A3439207920E9A1804C0D5
:1013C000FF221204094B0C683D4D254004683D4E38
:1013D00026407419046049680904114002681A40E3
:1013E0000A43026070BDC046FFFF80FFFFFF00FFA1
:1013F00070B50A68324B1340A0228458314D254005
:10140000EB1883504B6884587F252E04B4435B0649
:101410005B0AE31883508B6884582D06AC435B0647
:101420005B08E31883500B7B84580125ED07AC4320
:10143000DB07E3188350497B07221140A030C369C2
:1014400093435918C16170BD9200964BD218096838
:10145000006811507047C046005C0040B0B54A6853
:101460008B689A18202A29D8C0300A68144B134078
:101470000268144C1440E21802604A683F231C04BE
:101480000568A5439206920AAA1802608A681B069C
:1014900004689C4392069208A21802600A7B01230A
:1014A0009B0704689C43D207520812190260497BCB
:1014B000072211408368934359188160B0BDC0462C
:1014C000FCFF00000300FFFFF0B589B0002900D148
:1014D00091E00C4605462120C000081802902846DD
:1014E000C0300890286D01210391490204910595AF
:1014F00006940721CE05064014D010220792059DC0
:1015000028463146FFF7C4FB2768002F06D06068E5
:10151000009028462146079A3346B847286D002890
:10152000E7D168E0049E304211D1C10735D10107EF
:10153000082200291646E1D4C1063DD401064BD449
:1015400001034CD42D49084011220646D6E70898DD
:1015500000688002800E039AD0D000242746059DA3
:10156000FEB228463146FFF785FB002809D00898CF
:10157000006AE040C00704D0284606993246FFF7CB
:1015800013FC7F1CFCB2089800688002800E844225
:10159000E6D3039A049E069CB0E7029802680026F0
:1015A00028463146FFF792FD284631462246FFF78E
:1015B00023FC01260522A1E7029842680126059D29
:1015C00028463146FFF782FD284631462246FFF77E
:1015D00013FC10260A2291E780260D228EE70120B7
:1015E000C604059D28462146FFF78CFC2846314657
:1015F000FFF74EFB92E709B0F0BDC04666FD77FCF1
:1016000001228A40D0214250704701228A40D421D1
:1016100042507047F0B593B014460E46074603A8F3
:101620004021FEF74EFB0125002C38D038463146CC
:10163000FFF727FB002832D138463146FFF74AFC36
:101640002168184A8150801861684160A2790F2191
:101650000A40154B9B5C002B20D002910830257B63
:1016600000221746AF42164601D2A668F65D03A9CE
:10167000CE557F1CBB42F5D1002B0FD0002603AB0B
:101680000196029F084D02CB02C0A1793940695CE6
:10169000321DD6B28E42F6D3019D00E000252846C9
:1016A00013B0F0BD005C00400504002010B5044CF0
:1016B000A068002802D080470020A06010BDC0466E
:1016C0003804002010B582B000240194009401A8D1
:1016D000694600F087F9CC21084A5158019B99428C
:1016E00008D3D023D2585118009A914202D2401EFA
:1016F00044424441204602B010BDC0468004002050
:1017000080B503480021017001F042FD80BDC04654
:10171000F07F0020B0B5064C0649D02520462A4669
:10172000FEF7B6FA002021462A4602F07FFDB0BD42
:1017300018070020244C0108B0B50446064D28685F
:101740000268064920469047002803D1286841686E
:1017500020468847C0B2B0BD581200205AA55AA5ED
:1017600010B582B001AC002020707420214602F038
:1017700089FC21784842484102B010BD80B5034839
:1017800001680348FFF7A0FE80BDC046B4210020D9
:101790000064004010B507480021074ACB430124EC
:1017A000E406046042608160C1600161416183615F
:1017B00010BDC04688050020409C0000F0B585B0F3
:1017C00014460D46074600260496039603A904AA6C
:1017D00000F0A2F800282AD0384600F049F8A842C4
:1017E00025D90498002822D00194012800D801208E
:1017F00002900021039A3B4B0F46CC0016591E4223
:1018000000D07F1C0B48064014196468A64205D21C
:10181000BD4209D09E19761C7F1CF7E7491C02982F
:101820008142EAD1002602E0019806600126304696
:1018300005B0F0BD00FEFFFFB0B500280BD0074992
:10184000074A084B084C094D056044608360C2603C
:1018500001610120B0BD0020B0BDC046E9180108FB
:10186000BD19010831190108F91901080D190108FC
:10187000F0B583B000240294019402A901AA00F0FB
:101880004BF800280FD0019D002D0CD00026029FA0
:10189000344603CF091A083F00F008F80419083746
:1018A000761CAE42F5D3204603B0F0BD10B502461B
:1018B0000C4B04461C40581C81420BD9480A194263
:1018C00000D0401C002C0AD0891819408C4200D04E
:1018D000401C10BD6018991C884201D3022010BD25
:1018E000012010BDFF01000080B5024802A102F0F6
:1018F000FFFC80BD6A4F0108464C4153485F484198
:101900004C5F4465696E69740000000080B500F0AA
:101910000DFD012080BD0000002801D0002070478F
:1019200001201060014A0A607047C0460C4D010852
:10193000F0B585B015460E460024E14303910291AF
:10194000072117460F4072B60CD0082D0DD9019112
:10195000194A2A403146044602F03EFB002818D0BE
:10196000002013E0AAB231460BE0002D07D021463B
:10197000325D02AB1A55491CCCB2AC42F8D302A975
:10198000082202F029FB01464042484162B605B0F8
:10199000F0BD01988543002001464219B25C02ABBC
:1019A0001A54491CC8B28742F7D8281902A908223C
:1019B00002F012FB0120E9E7F8FF000080B50348C0
:1019C00003A102F095FC012080BDC0466A4F0108CA
:1019D000464C4153485F48414C5F526561644461E5
:1019E000746100000122530703600248086010463A
:1019F0007047C0460004002080B54902FFF79CFEF6
:101A00004142484180BD000080B574484121FEF745
:101A100058F980BDB0B5FFB081B00FA002F0C2FE92
:101A2000012040026C462146024602F0FFFB104DA9
:101A30001048E864284602F03CFBA8645022204687
:101A40002946FEF725F9204602F07CFB0AA002F0A9
:101A5000A9FE7FB001B0B0BD6661756C745F736143
:101A600076655F746F5F666C6173680D00000000DF
:101A700004120020544C55466661756C745F7361A6
:101A800076655F746F5F666C6173682066696E6906
:101A900073680D0070B584B01848002101701848B3
:101AA0000124047002F03CFB002801D102F006FB87
:101AB0006002144C5022214602F0B8FB204602F08E
:101AC000F8FAA16C884204D00FA002F06BFE1C480B
:101AD000E0644320235C4220225C4120215C4020C2
:101AE000205C4625655D4426A45B00900195029428
:101AF000144802F0FDFB04B070BDC0460012002087
:101B000034040020041200204661756C743A2043AE
:101B10005243206D69736D617463682C206B656539
:101B20007020646174612C20726570616972206F2D
:101B30006E206E65787420666C7573680000000016
:101B4000544C5546254F0108F0B581B0034600249A
:101B5000E0431F4EB3420BDC01256F02BB4215D0A0
:101B60001D4FBB421DD0B34230D1157041201EE045
:101B7000184DAB4218D07D256D02AB421BD08A4D6B
:101B8000AB4223D101201070432010E002201070DE
:101B900012480246443252780A704422805C4870EF
:101BA00013E01570462002E00120107042200B4A1D
:101BB000105C087009E04020084B185C8000107031
:101BC000C2B208461946FEF763F8204601B0F0BDE0
:101BD000EDF10000EEF1000001020000041200200F
:101BE000411E8841014908707047C04634040020F6
:101BF000F0B581B015460C460027FE436749884280
:101C000041DC6749411819294FD8880001A10858BB
:101C10008746C0467D1C01087D1D0108DB1C0108AC
:101C20007D1D01087D1D01087D1D01087D1D010828
:101C3000E51C0108EF1C0108F91C01081F1D010823
:101C4000291D0108451D01087D1D01087D1D010894
:101C50007D1D01084F1D0108591D01087D1D01084A
:101C60007D1D01087D1D01087D1D01087D1D0108E8
:101C7000631D01086D1D0108831D01080A222A60E9
:101C80004C491D3176E047494118022911D3464994
:101C900088420ED0FF21090288426FD104202860BB
:101CA0003B204449085C3B3144E04049411802294B
:101CB0000BD26A46002717702146FFF745FF002820
:101CC0005CD168460078286057E03949884255D190
:101CD0000A222A60374931314CE00A222A6035490C
:101CE000273147E013222A6032493F3142E0132274
:101CF0002A6030490A313DE00A20286000262D4F35
:101D00002DA5B95D284602F0F3FA761C0A2EF8D10B
:101D100028490A222046FDF7BBFF00262EE00622B6
:101D20002A602449623125E004202860A32021494B
:101D3000085CA3314A78CB788978A170E370207071
:101D400062701AE01E222A601A49853112E01122BF
:101D50002A601849A7310DE01D222A601549683113
:101D600008E010222A601349523103E010222A6051
:101D70001049B8312046FDF78BFF3E46304601B092
:101D8000F0BD04202860C8200A4908582070010EC0
:101D9000E170010CA170000A6070EEE7ECF1000048
:101DA000800EFFFF130EFFFF19FA000000FEFFFF79
:101DB00050F100001807002030782578200000003E
:101DC000F0B581B0684600240470E5202C4E315CEB
:101DD0004F1E032F3AD8B90001A251588F46C04672
:101DE000F11D0108FB1D0108131E0108511E010809
:101DF0006846047000F056FD04E068460121017059
:101E000000F0E4FFCA21705468460078012807D02A
:101E10001CE068460121017000F02EFFCA217054B9
:101E2000E8257159002903D0CA20305C88477451D5
:101E3000022F05D8CA20305C012801D000F0E2FC56
:101E4000FF2200200146034601F08AF901B0F0BDEF
:101E50000C490A78022A06D0012AF7D1012232540D
:101E6000FF200870D0E708480470FF250D7000F0CF
:101E7000C9FC204621462A46234601F071F9C3E7F2
:101E800080040020470400207D040020F0B581B0CC
:101E900005460B200404204600F07CF800280FD1F2
:101EA000264E306802273843306075603068402124
:101EB00001433160204600F06DF83168B94331606C
:101EC00001B0F0BD1D48016880220A4302607047DE
:101ED000F0B583B015460E46029001277C032046DC
:101EE00000F058F8002827D10194144C206838439A
:101EF0002060206812490840B107890A4018206014
:101F0000606802986060B0000EA108582146303128
:101F1000002208CD08C1521C8242FAD32068402119
:101F200001432160019800F035F82168044A11400E
:101F300021602168B943216003B0F0BD1020024048
:101F4000FFFFCFFF020000000400000008000000B7
:101F50001000000008480068410707D4C10607D4F4
:101F6000C10707D1810B0420084070470220704749
:101F700003207047012070470C20024002480349AB
:101F80000160034901607047042002402301674556
:101F9000AB89EFCD70B5451EAE04FFF7DBFF0446FD
:101FA000002E01D100F060FA00206D1E4041012C8E
:101FB00001D10028F0D1681C00D30524204670BD53
:101FC000B0B584B00124204601F01EF8204601F08F
:101FD00013F801A90020887008813F200880094873
:101FE0000290A507284601F0B3FA2846214601F0E1
:101FF000EEFA0F20014600F039FB284601F0E2FA24
:1020000004B0B0BDE703000070B582B000260196B1
:10201000002A1FD014460D46002915D001A92246DA
:1020200001F084F82078002814D10198017A002961
:102030000DD0012931460BD1C18882888A4201D84E
:1020400040888218511A03E00420207002E0418881
:102050002980267002B070BD70B582B0002601964E
:10206000002A21D014460D46002915D001A9224688
:1020700001F05CF82078002816D10198017A022935
:102080000DD0012931460DD1C1888288914208D2F4
:10209000891A4088091805E00420207004E041886E
:1020A00000E0891A2980267002B070BD94487047FC
:1020B000004870474C070000004870475C0700006C
:1020C000F0B585B00E4607460021049103A80180B3
:1020D0000A9C002C42D0002E3ED01546002A3BD050
:1020E000002B39D0019103A9384622460293FFF70D
:1020F000B3FF2078002831D104A93846224601F0E8
:1021000015F8029A2078002828D103A80188B14246
:1021100000D80E4616800680002E12D004988188C2
:1021200089B2C268515C29708188491C81804288CB
:102130008BB2934201D3891A8180761E6D1C002ECA
:10214000EED172B604988188C288511A4A1E914114
:10215000017262B6019800E00420207005B0F0BD65
:1021600010B582B00020019004480E2101AC224637
:10217000FEF71AFC208802B010BDC046F07F002098
:1021800081627047F0B50022134601259D400C88FE
:10219000254226D003249440E4438E78761E012EF7
:1021A0000FD88668264086600E7996408768374348
:1021B00087604668AE434660CD789D4046682E43B2
:1021C00046600568254005608D78954006682E4379
:1021D0000660C5682540C5604C799440C5682543B4
:1021E000C560921C5B1C202ACFD1F0BDB0B5082978
:1021F00001D3242300E02023C5588C00082901D3F3
:102200001C210C400F21A1408D43C550C158A24054
:102210000A43C250B0BD816170477047F0B58FB0BE
:102220000124204600F0D6FE600600F0E5FE6004C2
:1022300000F0DAFE0920C5060C21042628463246A5
:10224000FFF7D4FF0B2128463246FFF7CFFF01AE40
:1022500002200090707170802848B4303080284689
:102260003146FFF78FFF264821303080284631461F
:10227000FFF788FF234D24492846FEF771FE2349C6
:10228000234A002728463B46FEF71EFDE10221486F
:10229000FDF717FD0CAE0098B072200230810C974C
:1022A0000D9428463146FFF763F81B480B900BA9A5
:1022B00030463A46FFF7C8F80726300207A988815A
:1022C00009970894102007902846FFF791F8069781
:1022D00003A94E7305970494602003902846FFF7E6
:1022E000BDF8FEF755FD0D4B0D48186028463946E0
:1022F000064AFEF73BFF0FB0F0BDC0464C0F000092
:10230000DF0700000064004018040020A40500203E
:1023100035100108005C0040DF074C0FE011002081
:102320009811002080B5FFF735FA80BDB0B582B0B6
:1023300000200190009001A86946FFF753FB019C23
:102340000098021B0125900A00D0AA020A482146E3
:10235000FDF79EFC094805702068001920600420E4
:102360002158019A89182150001D1028F8D10448DD
:102370000199016002B0B0BD9C1D0020981D002095
:1023800058120020B0B582B00125680400F02CFE80
:1023900069460D714120800200900920C406204644
:1023A000FFF7F0FEA9022046FFF7EAFE02B0B0BD3B
:1023B00070B582B00125A80500F016FE6C462571A7
:1023C0000B4800900B4D28462146FFF7DBFE2021ED
:1023D0002846FFF720FF1026268028462146FFF7D3
:1023E000D1FE28463146FFF716FF02B070BDC04649
:1023F000200001000014004810B50146074802788B
:102400000020002A07D0064B1C688C4204D0521EC4
:102410000C33002AF8D110BD012010BD644D010815
:10242000F44C0108014908607047C0460430004080
:10243000014908607047C046083000400C48014917
:1024400001607047CCCC0000094801490160704729
:1024500055550000034909680140481E814108465E
:102460007047C0460C300040014802490160704787
:1024700000300040AAAA00000248016820224A4019
:102480000260704714140048F0B581B0082A06D9DC
:10249000431ADC070DD1C30716D1002417E0002A28
:1024A0005FD003460C781C70491C5B1C521EF9D18E
:1024B00057E09B0729D003460C781C70521E5B1C0A
:1024C000491C002AF8D14CE00B78037001240B1949
:1024D0000619141B62081D4600961746298831808C
:1024E000AD1CB61C7F1EF9D10321C943891C514381
:1024F0000C1936D051005A18009B591813780B70DC
:10250000521C491C641EF9D12BE083070DD04342B5
:1025100000240D5D055503251E462E40641C2540F4
:10252000B542F6D10319009301E000240090091987
:10253000141BA20806D00D46009E174608CD08C6FB
:102540007F1EFBD10323DB4353431C1909D09200A8
:102550008918009B9A180B781370491C521C641E32
:10256000F9D101B0F0BD0000F0B581B016460D46BE
:102570000446062A0CD9A0070FD0032020400421CE
:102580000F1A204639462A46FDF794FBE01906E06B
:10259000002E15D0204631460FE000272046F11BC3
:1025A0008A0806D0084B6B430646174608C67F1EAE
:1025B000FCD19200891A03D080182A46FDF77AFBD5
:1025C000204601B0F0BDC04601010101F0B583B065
:1025D000224C206880013FD4E16A60688002000FCD
:1025E0001F4A42431F4810180F273940491CFDF766
:1025F00073FBA16809062FD50126F205216889031E
:1026000027D4029275063206019221689143216017
:10261000310462688A4362601349FDF75DFB800400
:102620000721C9044018B904084062688A43101899
:102630006060206801990843206020682842FCD02F
:10264000606802210143B1436160A06802990843B8
:1026500001E0A0681043A06003B0F0BD001002408C
:102660000024F4000048E80100093D0010B50446CC
:1026700001F0D2FC204601F0C3FC10BDF0B589B0DA
:1026800000260896002A45D00792069122490A881A
:102690009B21090103918C1A20490F1903231F4024
:1026A0000590054614357919914202D907980370AF
:1026B00030E001920494029608A90698079C2246ED
:1026C00000F034FD2078002822D0019EF01B002F5E
:1026D000029A03D081B2039B591A049106990F4BB9
:1026E000049C1953002F05990B4B00D00646701B14
:1026F00018800A48049BC01842604180027201465B
:102700001431C16002610890079900F00BF801E0F4
:102710000520207009B0F0BD36040020E807002035
:102720007047000010B500291ED0002810D00F4BB4
:102730001A68002A0ED01369002B0ED0824211D0E5
:102740001C461B69002B2246F8D11034224605E0B6
:10275000042208E01860002205E010321060002218
:10276000026100E005220A7010BDC046B0210020C1
:1027700080B500F001F880BD70B586B00124A004DA
:1027800000F032FCA00300F03FFC1B4D06210024AA
:1027900028462246FFF72AFD072128462246FFF752
:1027A00025FDFF20043004AEB08014480490284674
:1027B0003146FFF7E7FC8020308028463146FFF79E
:1027C000E1FC69468C810C2088720C81E12040027A
:1027D000009001940A4C204601F0E4FA20212046A2
:1027E00001F049FB1B200221FFF740FF204601F0CA
:1027F0003DFB06B070BDC04600040048400002002A
:1028000000380140F0B581B0C820E74D00242C54B9
:10281000C920295C012900D12C542148047020468C
:1028200000F0BEFCFF26204621463246234600F03B
:1028300097FCF020194F2F50F435142228462146DA
:10284000FFF792FE242238463146FFF78DFE1448EA
:10285000047001B0F0BDC046F0B581B0C820D24EC2
:1028600000243452204600F09BFCFF2520462146E0
:102870002A46234600F074FCF020ED4F3750F43622
:10288000142230462146FFF76FFE2422384629469F
:10289000FFF76AFE0248047001B0F0BD5804002042
:1028A0007E040020F0B589B00646002508950795FE
:1028B00001F0F8F90D21FDF70FFA0746C920BA49D2
:1028C000085C01284DD100253570B84C20780228CD
:1028D00037D0012848D0002840D1BA4C2560C04FDD
:1028E000294601253D70B64E3160B7480160BD48AC
:1028F0000570D1A001F056FF3878401EC0B22146C5
:102900003246FFF709F8012829D1D0A001F04AFF8B
:10291000D3480078002811D1D348007801280DD180
:10292000D0480068002809D0D04B23603560D049DA
:1029300009680A1806C3CF4801F0DAFC9B48057005
:102940000DE09BA001F02EFF01F01AFB9C480560F2
:102950009C4805609C480560012030702570A148A6
:102960000578284609B0F0BD98A001F01BFF9548F6
:1029700001680029029606D003C9814203D9091AC9
:10298000FEF794FF05E096480078401EC0B2FEF7BF
:102990006FFFB8420195039000D880E004978A4DFC
:1029A0002F680121009149020691874200D3C0E0BF
:1029B00083480068002800D1BBE001F0E1FA2968F3
:1029C00087480078401EC0B208AAFEF7F7FE01282B
:1029D00000D0ABE07B4800680768089EBE4200D28A
:1029E000A4E04468B44200D8A0E02868049D2946C9
:1029F000FDF772F9681A0590A11B08973846FEF793
:102A000055FFA84205D905998842674C0ED829463A
:102A10000CE005998842644C08D8694A1168491E3F
:102A20001160684A1168083111600146F827E059C1
:102A30000028654D00D179E0059100291BD0009850
:102A40000599461A01F09CFA72B6E25908980121DC
:102A500090476449087062B60878012807D1089841
:102A6000069940180890761C012EEBD103E07142C4
:102A70005DA001F03DFC5B480078012859D1286831
:102A8000059947182F6038460499FDF725F90398F2
:102A900087428AD2002988D10198029948E04848A3
:102AA0000068002845D04748006801214902069186
:102AB0004C4D01684068461A01F062FA414C2068AA
:102AC00000683146FEF7F2FE0146F8263648805986
:102AD000002866D02068076808970029059113D060
:102AE0000C4601F04DFA72B62F4882590121384642
:102AF0009047287062B6287801281AD106983F18A6
:102B00000897641EEDD102E02878012811D12E49E2
:102B10000868059A801808602A4908680830086023
:102B2000274A1168491E1160C3D102E001982D495E
:102B30000870254D28682B490C78029909780029DE
:102B4000039911D1012C0FD188420DD2E520042127
:102B5000154B1954EC201A58002A00D1FFE6CB205F
:102B6000185C34499047FAE6484001267440044313
:102B700001D02AA000E028480C4F01F013FE60426B
:102B800060412B4C6070A670019E2670202107AA20
:102B90002046FDF709FF2E6002203870079820625A
:102BA000DDE601982870C4E7800400207D04002041
:102BB000457261736520454E445F535445500D0086
:102BC0004C0400205004002054040020457261731E
:102BD000652045524153494E475F535445500D00BF
:102BE0004804002004040020466C6173682065726C
:102BF00061736564206661696C656420616E642040
:102C000052656D696E6420736563746F72733A30D8
:102C10007825780D0A0000003E4E0108466C61736D
:102C200068206572617365206661696C0D00000043
:102C300058040020AD31010845726173652042459A
:102C400047494E5F5354455020310D004572617322
:102C50006520424547494E5F5354455020320D0090
:102C60007C040020A4210020AC2100209C21002015
:102C7000A8210020E84D0108F0B581B0002400949F
:102C800001F07EF9FEF71EFD01280CD1D820284A5C
:102C90001158D42010586A46FDF782FE009935A0DD
:102CA00001F026FB17E0C920214D285C01280FD137
:102CB00028A001F077FDD426A859D827E9596A46FB
:102CC000FDF76EFEE859EC51A9590818A85102E029
:102CD00018A001F067FD01F053F9DC20144D2858CD
:102CE0000099884218D131A001F05CFDFEF7EAFCA2
:102CF000012815D1C9260124AC55324801F052FDF6
:102D00002846F430FEF798FD01280DD1F42029580B
:102D1000002906D0884704E01FA001F043FD00E031
:102D20000124204601B0F0BD0020A8552648F4E754
:102D3000800400204E6F206669726D776172652095
:102D40006461746120746F20766572696679210D03
:102D5000000000005665726966794644446F776EDC
:102D60006C6F61646564466C6167206F6B20310D28
:102D7000000000004352435F48414C5F437265616D
:102D8000744877206F6B212063726356616C7565A0
:102D90003A307825780D0A0063726356616C756568
:102DA000206661696C20330D000000007265636568
:102DB00069766564435243203D2063726356616CBB
:102DC00075650D00214E0108024E0108F0B585B071
:102DD00000250495C921444F795C012902903AD11C
:102DE000E02579598029039539D30024474E2021C5
:102DF00004AA3046FDF7D8FD306A0499884268D1AC
:102E000070780025012868D1B078012865D101F0DB
:102E1000B7F8FC21785800285FD072B6CC26B85994
:102E20007B58E1B2C90179188022984762B601281F
:102E300053D1D020395880393950039D7959803980
:102E40007951B8598030B851641C7F292F4ECED8A3
:102E5000E0B2C40104E025A001F0A4FC3DE00024A0
:102E6000002929D008193818494207260E40FF21A9
:102E70003246FFF779FB785980197851FC21785850
:102E80002A460025002828D072B6BA58CC200190D6
:102E900038587B583919984762B601281DD1039AD2
:102EA000B8580021B950019AB9580918B950D02121
:102EB0007A58301A80187850144E01253570002049
:102EC0000490202104AA3046FDF76EFD049830627C
:102ED00003E00FA001F066FC0025012002990870B4
:102EE000284605B0F0BDC0468004002056657269D2
:102EF00066794644446F776E6C6F61646564466CB6
:102F00006167206661696C20340D00005804002060
:102F1000617070496E666F5661722E6372632066CF
:102F200061696C200D000000F0B583B00E460746C5
:102F30000021029101A80180002B14D01C46002E14
:102F40000FD01546009101A938462246FFF75CF8DC
:102F50002078002807D101A80088A84205D20320C4
:102F600000E00420207003B0F0BD02A938462246DC
:102F700000F0DCF820780028F5D1002D13D002985D
:102F8000C188C068327889B242540298C188491C0D
:102F9000C18042888BB2934201D3891AC1806D1ED1
:102FA000761C002DEDD172B602988188C2888A42C3
:102FB00001D0012100E00221017262B60098D1E740
:102FC0000120000602490A6802430A607047C046B1
:102FD00024100240012109034D4A13688B43C007A6
:102FE000C00C18181060704702490A6802430A6052
:102FF0007047C0461410024002490A6802430A6042
:103000007047C0461C10024002490A6802430A6029
:103010007047C0461810024080B500F039F80449E6
:1030200009680906090F03A2515CC84080BDC0466B
:103030000410024000000000000000000102030430
:103040000607080980B5FFF7E7FF04490968490545
:10305000490F03A2515CC84080BDC0460410024025
:103060000000000001020304010A032906D002291E
:1030700007D0002907D1A349096804E0A149496B99
:1030800001E0A049496AC0B2C14001200840704730
:1030900010B51048026803211140022903D001290C
:1030A0000CD10D4810BD01680268806A8902090FC1
:1030B0008C1CD10304D40948604310BD154810BDD1
:1030C0000F210840411C0448FCF706FE44432046FB
:1030D00010BDC046041002400024F40000093D0069
:1030E00080B50B490968002800D0890803200840F2
:1030F000032806D0012806D0002807D1FFF7A2FF39
:1031000080BD044880BDFFF7C3FF80BD002080BDA7
:103110003010024000127A007D20800101490880B1
:103120007047C0465E1200207047000010B5002AAC
:103130000ED000290AD0094B1B68002B04D01C8834
:10314000844206D01B69F8E7022000E004201070DA
:1031500010BD002010700B6010BDC046B0210020D3
:10316000B0B5E824104D2951E5216854EC202B50CE
:10317000CB202A54B0BDC04680B504490870012850
:1031800002D10120FEF72CFD80BDC0464404002082
:1031900080B5FEF7E5FF0149088080BDFE7F002075
:1031A000E421014A5054704780040020002801D0D7
:1031B000022000E001200149087070474704002008
:1031C00070470000F0B582B0E04A531C4D480168DA
:1031D00000931943016001214C040368234203D189
:1031E000531E002A1A46F8D106682A4B1A68102581
:1031F00015431D601A680A430E25AA431A601A680F
:10320000022501952A430D25AA431A604268F0233E
:103210009A43426007231A024568954345600F06AA
:103220004D064268264219D10C04A243426042680E
:10323000194C2240DB041343436002683A430260A6
:1032400002682A42FCD04268019B1A438A434260CA
:1032500041680C220A40082AFAD118E0009B1A4360
:10326000426042680C4B1A40CB041343436002682F
:103270003A43026002682A42FCD04268019B1A432A
:103280008A43426041680C220A40082AFAD102B0FF
:10329000F0BDC04600200240FFFFC3FF80B5FFF72E
:1032A00091FF80BDB0B5174C2068012528432060F0
:1032B000606815490140616020681449014021603F
:1032C000A8042168814321603F2000046168814394
:1032D000616060680F2188436060FF205430216B7B
:1032E00081432163606BA84360630020A060FFF707
:1032F000D5FFE804216801432160E806044908601D
:10330000B0BDC046001002400CB8FF08FFFFF6FE3B
:1033100008ED00E0174801884A1C130400D011464C
:1033200001800D4801884A1C130400D01146018019
:103330007047C04680B5FEF743FE80BD0648018851
:103340000A46632900D9643A0280632901D8002023
:10335000704701207047C046681200200549088860
:10336000002801D1024600E0421E0A80411E884129
:103370007047C0466A12002010B501218C07204614
:1033800000F029F9012805D10121204600F0DAF8E2
:10339000FFF7C0FF10BDF0B587B001931646074692
:1033A00005A800240480049102970392150400F0FC
:1033B00091F8002D24D0B84222D1542005A906AF9F
:1033C0003A46FEF721FE3878002819D130460C30F5
:1033D00005A90988884213D8542002A90C2206AFF7
:1033E0003B46FFF7A1FD3878002809D1B2B254203E
:1033F00006AC01992346FFF797FD207844424441EB
:10340000204607B0F0BD0000F0B589B01746039123
:10341000029007AD00242C80522008AE2946324687
:10342000FEF71AFE307800282ED128880C282BD3DE
:1034300008AE009652200C2104AA07AD2B46FEF7D9
:103440003FFE307800281AD128880C2817D104A80C
:10345000818808AD0095522007AB3A46FEF730FE52
:10346000287800280DD107A801880598884208D13E
:103470000499029A116003990860012404E004A0F1
:1034800000E009A001F08EF9204609B0F0BDC04669
:10349000526561642064617461206C656E206572A0
:1034A000726F7221000000005265616420646174D3
:1034B00061206572726F72210000000080B500F01B
:1034C00095F880BD80B5FEF7F1FD80BD80B5FEF7B3
:1034D000EFFD80BD80B5FEF7EFFD80BD80B5FDF747
:1034E0003FF980BD80B5FDF7B5F980BDB0B584B0BA
:1034F0001C46154601AAFDF75DFA012803D1019982
:1035000029600299216004B0B0BD80B5FDF72AFBA7
:1035100080BD0000084908607047C04680B5FDF7CF
:10352000FDF980BD10B5044C2168002902D0884700
:103530000020206010BDC0465412002080B5FDF769
:1035400079FA80BD014A4A4002617047FFFF0000DE
:1035500010B5184A90421ED0174A90421BD0174A05
:10356000904218D08A7803681024A343D207D20E61
:103570009A1802608A78120160231A4004689C43FA
:10358000A21802600A7A03231B0204689C43920774
:10359000920D121902604A68C2620A888262084A61
:1035A000904201D1497A1163416901220A43426183
:1035B00010BDC046001000400040014000440140E2
:1035C000002C0140016801220A4302607047C26872
:1035D0000A43C260704702690A4204D0C0680842C8
:1035E00001D00120704700207047000010B5044C46
:1035F0002068002802D080470020206010BDC0460F
:10360000E411002070B51546134E3268824220D175
:103610001C460846FDF74CFB104908220A738D60D2
:103620000F4A0023137111600123DB070D681D4051
:103630000C4BEB180B600F2303408879C025054025
:10364000E818887172B608480849FDF7F9FD62B6B6
:10365000B460002070BDC04638040020E81100208E
:10366000F81100200000701D00640040A405002037
:1036700002480168491C01607047C046941D002043
:10368000A34800887047C046A54800887047C046D8
:10369000A74800887047C046A94800887047C046C0
:1036A000917250727F2010720320506070470000AA
:1036B000C44908707047C0460E480078411E484211
:1036C00048417047034909780840411A4842484137
:1036D0007047C0465C120020954801884842484126
:1036E0007047C046034909780840411A484248419A
:1036F0007047C0464404002070B50C4605461AA029
:1037000001F050F86168032905D8384800F0F0FD51
:103710002878132124E0607A0004A17A09020818AD
:10372000E17A461817A0314600F0E2FD1C488642B7
:1037300010D1FEF769F9287878212246FFF7B0FF0B
:103740000B20C0012749215000F086FA264801F0DD
:1037500029F870BD13A0314600F0CAFD2878312148
:103760002246FFF79DFF70BD307831343A20436C1C
:103770006561722044544320496E666F726D6174B6
:10378000696F6E00307831343A20445443204772D8
:103790006F7570203D203078253036580A000000C3
:1037A000FFFFFF00307831343A20556E737570702A
:1037B0006F72746564204454432067726F75702083
:1037C00030782530365820286F6E6C792030784656
:1037D000464646464620737570706F72746564295C
:1037E0000A000000D5390108FC4E0108D44E01083A
:1037F00080B50A46497A7F290ADC002915D00329B9
:103800000ED1022151600078403010720BA012E0FE
:10381000802901D0832903D100205060107280BD1F
:1038200000781221FFF73CFF80BD02215160007833
:103830004030107207A000F0B5FF80BD0D0A30784F
:10384000323820307830332064697361626C6520CF
:1038500054580D000D0A307832382030783030203E
:10386000656E61626C652054580D000070B50C46A1
:103870000546497A02290DD0012918D10126304682
:10388000FEF7AEF902206060287866724030207240
:1038900016A009E00020FEF7A3F902206060297855
:1038A0006072403121720BA000F07CFF70BD0846B1
:1038B0007F30C0B2012807D8813948424841FEF71D
:1038C0008FF90020606070BD287812212246FFF732
:1038D000E7FE70BD0D0A3078383520307830322060
:1038E000636C6F7365204454430D00000D0A3078FB
:1038F00038352030783031206F70656E6420445444
:10390000430D0000D3480188491E01807047C0461E
:1039100062120020D8480188491E01807047C046C5
:103920006412002002480188491E01807047C04689
:103930005E12002002480188491E01807047C0467F
:1039400060120020C821C1700021817032224270B3
:103950000170704780B5FFF79BFE002801D0FFF78C
:10396000E1FFFFF799FE002801D0FFF7E3FFFFF723
:1039700087FE002801D0FFF7C5FFFFF785FE00286E
:1039800001D0FFF7C7FF80BD80B50A46497A0029FC
:1039900004D0802908D10020506080BD02215160F0
:1039A00000784030107280BD00781221FFF778FE59
:1039B00080BD0000034909780140091A4842484186
:1039C0007047C04646040020062101700048704739
:1039D000B84D010880B582B00021019154210091B9
:1039E00000280DD1FEF716F800F03EF9FFF772FD42
:1039F000002101226B46FFF7CEFC02A000F0D2FEB0
:103A000002B080BD307831343A20416C6C2044548F
:103A1000437320636C65617265642C2030783534A3
:103A20002073656E7400000080B5002800D080BD52
:103A3000012000060249086000F0C0FAFEE7C04617
:103A400024100240F0B581B00C46054648680228B3
:103A500005D820A000F0A6FE2878132116E0261D28
:103A6000287840302072A07A617A0902081887B25B
:103A70000DA0394600F03CFC21460B313846324659
:103A8000FEF7B6F8002805D0287831212246FFF746
:103A900007FE06E03068C01C306008A0394600F020
:103AA00027FC01B0F0BDC04630783232207265612B
:103AB00064203078253034580D0A000030783232D6
:103AC000207265616420307825303458204F4B0DCA
:103AD0000A00000030783232206572726F72206CFA
:103AE000656E202C204E524320307831330D00007B
:103AF000B0B5FFB0FFB0E4B00B20C50101AC20466B
:103B00002946FCF7DEF8FFF7E5FC00216151FF22B2
:103B10005232228101900222029208342346FFF79A
:103B20003AFC7FB07FB064B0B0BD000070B50C4609
:103B3000054600F08BF8287840302072667A2046DF
:103B40000A30FFF7FFFE06206060802E06DC012EA3
:103B50000AD0022E20D0032E11D03AE0832E0ED0B0
:103B6000822E19D0812E34D10120FFF705FB31A020
:103B700000F018FE812E31D10020606070BD04205D
:103B8000FFF7FAFA16A000F00DFE832E01D10020F7
:103B90006060FFF7C1FA70BD0220FFF7EDFA16A0D2
:103BA00000F000FE822E01D100206060FFF7B4FA21
:103BB000FCF7E4F80B20C001144921502878782143
:103BC0002246FFF76DFD00F047F811A000F0EAFD76
:103BD00070BD287812212246FFF762FD70BDC046F5
:103BE000696E74657220455854454E4445445F5390
:103BF0004553530D00000000696E746572205052E9
:103C00004F4752414D5F534553530D00293A010828
:103C1000417070205265717565737420456E7465CE
:103C20007220626F6F746C6F61646572206D6F6477
:103C300065210D00696E7465722042415349435FEE
:103C400053455353494F4E0D0000000001483221A7
:103C500001807047621200200648012101707D201A
:103C600000010549088070470248002101700248A0
:103C700001807047661200206412002010B50446CF
:103C8000FFF724FCA04201D1012005E0FFF71AFC58
:103C9000001B4142414148000149087010BDC04627
:103CA0005C120020E120400170477047F0B5FFB082
:103CB000FFB0E5B002A83949FCF703F801A80027D6
:103CC0000770FFF7D5FCFFF707FD012808D1012495
:103CD0002046FFF751FA2046FFF7EAFCFEF792FD77
:103CE00002A8011D044608342246FFF78DFB012877
:103CF0004CD1FFF7E1FC012801D0FFF70DFA029843
:103D0000FFF7BCFF01AE3046FFF75EFE054602A896
:103D1000007A002D09D03178002906D02A78904207
:103D200006D07F1C08358F42F8D3112102AA1DE06E
:103D3000A878FFF7C7FC012815D16878FFF7D2FCF7
:103D4000012810D1E878FFF735FE012822D10B2099
:103D5000C00102A900220A506A68002A03D002A901
:103D60002846904704E002AA107A1121FFF798FC38
:103D7000039800280AD0FFF7ADFB02900B21C90180
:103D800002AA5158039A2346FFF705FB7FB07FB084
:103D900065B0F0BD02AA107A3321E7E78405000080
:103DA00070477047F0B581B00D46044600680126A3
:103DB000B0432060206829490140A87A0843298936
:103DC0000143A88808432060606825490140E888CD
:103DD00008436060A06823490140A8890843A060A7
:103DE0002148844204D0EF48844205D1002000E0FD
:103DF0000120FFF775F901E0FFF724F921680904B4
:103E0000009601D5324600E002222968914019222D
:103E100042431046FBF760FF074664263146FBF736
:103E20005BFF05466320C0436843C0190099C9037E
:103E300027680F4001D0032100E004218840323080
:103E40003146FBF749FF002F01D0072100E00F2189
:103E5000084029014018E06001B0F0BDF3E900001E
:103E6000FFCF0000FFFC0000004400400168012279
:103E70000A430260704701229202914203D0402916
:103E800003D0012903D1083001E0001D4021026860
:103E90000A4302607047C0690840411E884170476C
:103EA000014A0A4082627047FF01000010B500F02D
:103EB0003FF8012808D1FDF723FCFFF719FE04465F
:103EC000012803D00CA002E0002010BD03A000F0E8
:103ED00069FC611E4842484110BDC0460A446F77E4
:103EE0006E6C616F6420415050207375636365731D
:103EF0007366756C6C7921000A456E746572204199
:103F00005050206D6F646520616E64207472616E24
:103F1000736D697420636F6E6669726D206D657371
:103F200073616765206661696C656421000000004B
:103F300080B500F00DF8012805D104480178A539B5
:103F40004842484180BD002080BDC046F07F00202F
:103F500080B5FEF705F903490988091A4842484126
:103F600080BDC046FE7F00200449421A534253419F
:103F70009331411A48424841184370474C070000AA
:103F800080B5FEF771FA80BD80B50A48FFF76CF87E
:103F9000002801D0FFF714F8FEF756FA0420FEF7C8
:103FA00041FA0548FEF744FAFEF75EFAFEF746FAD4
:103FB00080BDC0461D020000E204000080B5FEF78F
:103FC00043FA0220FEF746FA0128FAD00020FEF755
:103FD0002FFAFEF749FA80BD70B50B460446074D2F
:103FE00028688668204611461A46B047002803D143
:103FF0002868C16820468847C0B270BD58120020AA
:10400000002805D41F21084001218140014801609A
:104010007047C04600E100E0002805D403220346B3
:1040200093430C4A9A1806E00F220240083A0323F1
:104030009A43074BD2188007C00E8901C9B281404C
:10404000FF23834010689843084310607047C046C0
:104050001CED00E000E400E0B0B500290ED0002225
:10406000D243074B0478D5B26540AC001C59120A04
:104070006240401C491EF5D1D043B0BD0020B0BD08
:10408000F4470108B0B582B00025019500290ED093
:104090000C4601A92246FFF749F82078002806D1EE
:1040A00072B601980572C188818062B6257002B02F
:1040B000B0BD80B54821FFF7CFFF80BDB0B5FFB0E0
:1040C00081B06C46204650301B210901FF22FBF7CE
:1040D000F1FD094D502220462946FBF7D9FD28461F
:1040E000FFF7E7FF1290204600F02CF803A000F045
:1040F00059FB7FB001B0B0BD144D01084661756C2D
:10410000743A20506167653120666F726D61747416
:104110006564202866697273742074696D6529006E
:1041200080B582B09320800001A9042200F07EF8BF
:104130000348019909184842484102B080BDC04671
:10414000ACB3AAB970B50446FFF71AFFFDF716FF26
:10415000FFF716FF0A4D2846FDF798FE0826FFF7E1
:104160000FFF032128462246FDF7B2FE761E40349B
:104170004035002EF3D1FDF7A5FEFFF701FF70BD1E
:1041800000020408B0B5044681B2064D2846FFF788
:1041900087FE80212846FFF77EFE0028F9D02046C2
:1041A000B0BDC0460038014086B0002503951148D7
:1041B0001149016002951148114900F069F8FDF7B5
:1041C000A9FAFDF767FC0FA000F0ECFA164C00F01E
:1041D0003BF8082004A903AA02ABFFF787F90128DE
:1041E000F5D102A801780398009504AA2346FFF7A9
:1041F00009FAECE708ED00E000F8000893FD00087C
:1042000091FD0008456E746572204170705F412019
:104210005375636365737366756C6C792121212016
:104220002D2D2D0D00000000BD340108002A08D0FE
:10423000044BC01803780B70521E491C401C002A06
:10424000F8D170470000040880B5FFF787F8002810
:104250000FD0FFF763F9FFF77DFB0C480188491C7D
:104260008AB2FA2A00D100210180080401D1FEF7A8
:1042700003F9FFF763F8002801D0FFF781FEFFF78D
:1042800031F9FFF713FDFDF79BFD80BDB82100203C
:10429000B0B50C460546FEF775F8FEF789F8002D17
:1042A00000D0A847FEF764FAFCF782FB002802D191
:1042B00009A000F077FAFFF73DF8FFF765FEFFF77A
:1042C0000DF9FFF7F2FCFFF7F1FD2046FFF71DF9AE
:1042D000FEF7C2FAB0BDC0460A4352435F48414CA4
:1042E0005F496E6974206661696C65642100000035
:1042F0000FB410B503A9044B044A029800F018F853
:1043000010BC08BC04B01847854101080004002017
:1043100002E008C8121F08C1002AFAD1704770478E
:10432000002001E001C1121F002AFBD170470000EC
:10433000FFB591B00F460546002606E025280AD0B5
:10434000149A139990476D1C761C28780028F5D193
:10435000304615B0F0BD002400940121F34A0294C8
:1043600000E004436D1C2B780846203B9840104227
:10437000F7D128782A280ED0022128780246303A30
:10438000092A15D8009A0A235A43303A80180C4358
:104390006D1C0090F1E701CF0090002805DA0120A4
:1043A00040030443009840420090022004436D1CE7
:1043B00028782E2815D10420044368786D1C2A28FB
:1043C0000AD101CF6D1C02900BE002990A225143E1
:1043D000303940186D1C029028780146303909297F
:1043E000F3D928786C2810D006DC4C281AD068281D
:1043F0000ED06A2817D104E0742813D07A2812D17D
:1044000010E00120400504430CE00121090501E012
:10441000032109050C436978814203D1012000057D
:1044200024186D1C6D1C287803906E281ED00CDC9F
:10443000632831D004DC00288AD0582811D1B2E09A
:1044400064287BD069280CD178E073282DD004DC57
:104450006F2870D0702804D1A7E075286CD0782818
:104460006BD0149A13999047761C62E06002400F5B
:10447000022807D003280AD0042838680AD006602A
:104480003F1D56E03868F11706604160F8E738686C
:104490000680F5E70670F3E738786946087400206F
:1044A000487404A80390012003E0386803900020BA
:1044B000C0433F1D61070FD5002101E00199491C50
:1044C000029A0191914213DA8142F7DB019A039932
:1044D000895C0029F2D10BE0002101E00199491C1F
:1044E00001918142FADB019A0399895C0029F5D197
:1044F00001990098139A401A00902146149B00F0ED
:104500003BF901998019461807E003980399007850
:10451000491C0391149A139990470198401E0190E9
:10452000401CF2D12146149B139A009800F014F914
:1045300086196D1C09E741E033E034E00A200021D0
:10454000049005916002410F022905D001CFC217E6
:104550009446032905D007E0FF1DFF08FF0003CFA5
:1045600006E000B2C2179446042902D140B2C11736
:104570008C4600226146944506DA0A4600214042F4
:1045800091418C462D2102E0210504D52B216A465C
:104590001176012103E0E10701D02021F7E7019125
:1045A00054E00A200BE0102009E0102004900021C4
:1045B0000420044308200591029003E00820002114
:1045C000059104906002410F022905D001CF00221D
:1045D0009446032906D006E0FF1DFF08FF0003CF25
:1045E0008C4603E080B2042900D1C0B200210191C1
:1045F00021072BD50399702906D0049A1021059B19
:104600004A401A4305D00EE040216A461176012146
:1046100008E06146014306D030216A4611760399CD
:10462000517602210191049A0821059B4A401A43C0
:104630000CD16146014301D1610707D530216A469B
:104640001176012101910299491E0291039958297D
:1046500004D037A103910FA90F910DE039A1F9E71B
:104660006146059B049AFBF7E3FA039B8C469B5C2F
:104670000F9A521E0F92137061460143F0D10F98AA
:1046800007A9081A20300390600704D50120000410
:104690008443029801E0012002900399884201DDE1
:1046A000401A00E000204118029001980918009873
:1046B000401A0090E00306D42146149B139A0098F8
:1046C00000F05AF886190020049008E006A9085C5A
:1046D000149A139990470498401C761C04900199F1
:1046E0008842F3DBE0030CD52146149B139A009813
:1046F00000F042F8861904E0149A3020139990478C
:10470000761C0299481E02900029F5DC08E00F98FB
:104710000F990078491C0F91149A13999047761CB1
:104720000399481E03900029F1DCFBE609280100EB
:104730003031323334353637383961626364656617
:1047400000000000303132333435363738394142D9
:104750004344454600000000F8B5044600251E46C7
:104760001746880404D405E039462020B0476D1C64
:10477000641EF9D52846F8BDFFB50446002581B072
:104780001E46C80301D5302700E02027880404D541
:1047900005E038460399B0476D1C641EF9D52846DC
:1047A00005B0F0BD10B5044601E0FFF7EBFC207842
:1047B000641C03490028F8D10A20FFF7E3FC10BD70
:1047C00000040020704F0108000400204800000091
:1047D00010430108B84F010848040020741D000070
:1047E00020430108B84F0108E077002000080000CE
:1047F0002043010800000000963007772C610EEE80
:10480000BA51099919C46D078FF46A7035A563E927
:10481000A395649E3288DB0EA4B8DC791EE9D5E04E
:1048200088D9D2972B4CB609BD7CB17E072DB8E74D
:10483000911DBF906410B71DF220B06A4871B9F3A2
:10484000DE41BE847DD4DA1AEBE4DD6D51B5D4F4DB
:10485000C785D38356986C13C0A86B647AF962FD40
:10486000ECC9658A4F5C0114D96C0663633D0FFA8D
:10487000F50D088DC8206E3B5E10694CE44160D593
:10488000727167A2D1E4033C47D4044BFD850DD27D
:104890006BB50AA5FAA8B5356C98B242D6C9BBDB90
:1048A00040F9BCACE36CD832755CDF45CF0DD6DC8B
:1048B000593DD1ABAC30D9263A00DE518051D7C832
:1048C0001661D0BFB5F4B42123C4B3569995BACFBD
:1048D0000FA5BDB89EB802280888055FB2D90CC6DE
:1048E00024E90BB1877C6F2F114C6858AB1D61C157
:1048F0003D2D66B69041DC760671DB01BC20D29876
:104900002A10D5EF8985B1711FB5B606A5E4BF9F02
:1049100033D4B8E8A2C9077834F9000F8EA80996F5
:1049200018980EE1BB0D6A7F2D3D6D08976C649160
:10493000015C63E6F4516B6B62616C1CD830658579
:104940004E0062F2ED95066C7BA5011BC1F4088256
:1049500057C40FF5C6D9B06550E9B712EAB8BE8B97
:104960007C88B9FCDF1DDD62492DDA15F37CD38C20
:10497000654CD4FB5861B24DCE51B53A7400BCA31E
:10498000E230BBD441A5DF4AD795D83D6DC4D1A450
:10499000FBF4D6D36AE96943FCD96E34468867AD27
:1049A000D0B860DA732D0444E51D03335F4C0AAAC6
:1049B000C97C0DDD3C710550AA41022710100BBEC9
:1049C00086200CC925B56857B3856F2009D466B910
:1049D0009FE461CE0EF9DE5E98C9D9292298D0B045
:1049E000B4A8D7C7173DB359810DB42E3B5CBDB7F2
:1049F000AD6CBAC02083B8EDB6B3BF9A0CE2B60373
:104A00009AD2B1743947D5EAAF77D29D1526DB0427
:104A10008316DC73120B63E3843B64943E6A6D0D72
:104A2000A85A6A7A0BCF0EE49DFF099327AE000ABD
:104A3000B19E077D44930FF0D2A3088768F2011E50
:104A4000FEC206695D5762F7CB67658071366C19E7
:104A5000E7066B6E761BD4FEE02BD3895A7ADA1008
:104A6000CC4ADD676FDFB9F9F9EFBE8E43BEB717E9
:104A7000D58EB060E8A3D6D67E93D1A1C4C2D83873
:104A800052F2DF4FF167BBD16757BCA6DD06B53FD9
:104A90004B36B248DA2B0DD84C1B0AAFF64A033618
:104AA000607A0441C3EF60DF55DF67A8EF8E6E3197
:104AB00079BE69468CB361CB1A8366BCA0D26F25E0
:104AC00036E2685295770CCC03470BBBB91602222D
:104AD0002F260555BE3BBAC5280BBDB2925AB42B42
:104AE000046AB35CA7FFD7C231CFD0B58B9ED92C57
:104AF0001DAEDE5BB0C2649B26F263EC9CA36A75BC
:104B00000A936D02A906099C3F360EEB8567077272
:104B100013570005824ABF95147AB8E2AE2BB17BD9
:104B2000381BB60C9B8ED2920DBED5E5B7EFDC7C60
:104B300021DFDB0BD4D2D38642E2D4F1F8B3DD68B7
:104B40006E83DA1FCD16BE815B26B9F6E177B06FB2
:104B50007747B718E65A0888706A0FFFCA3B06669F
:104B60005C0B0111FF9E658F69AE62F8D3FF6B612C
:104B700045CF6C1678E20AA0EED20DD75483044ECE
:104B8000C2B30339612667A7F71660D04D4769495C
:104B9000DB776E3E4A6AD1AEDC5AD6D9660BDF406F
:104BA000F03BD83753AEBCA9C59EBBDE7FCFB24722
:104BB000E9FFB5301CF2BDBD8AC2BACA3093B35307
:104BC000A6A3B4240536D0BA9306D7CD2957DE5410
:104BD000BF67D9232E7A66B3B84A61C4021B685DE9
:104BE000942B6F2A37BE0BB4A18E0CC31BDF055A62
:104BF0008DEF022D01000000DF0700004C070000D0
:104C00005C07000000000100190019004B000000C3
:104C10006400960032000000F10B0108A10A0108AF
:104C20006D0B0108312E30312E30312020204C50B8
:104C30002D4550533035312D41412020202020205A
:104C400000322E30312E3030202020312E30302EC8
:104C50003030202020312E30322E303120202002E2
:104C60000103024C502D4550533035312D41412D1B
:104C700030312020200048582D47413332312D411A
:104C80004120202020203346412020200000000029
:104C90000000000000000000000000000000000014
:104CA0000000000000000000000000000000000004
:104CB00000000000000000000000000000000000F4
:104CC0000000000000000020230508000000000094
:104CD00000000000000000000000000000000000D4
:104CE00000000000000000000000000000000000C4
:104CF00000000000DF070000FFFFFFFF00000000D2
:104D00004C070000FFFFFFFF0000000000F6000856
:104D10000064020800000000000000000000000025
:104D20000000000000000000000000000000000083
:104D30000000000000000000000000000000000073
:104D40000000000000000000000000000000000063
:104D50000000000000000000000000000000000053
:104D6000544C55460200000000000000B10001084C
:104D7000010000009D020108020000002901010855
:104D800007000000810501080400000001FF000881
:104D9000050000007106010806000000B9040108C2
:104DA00003000000E5010108080000006503010898
:104DB0000900000025070108100703012D3B010829
:104DC00014070301F936010822070301453A0108D7
:104DD00028070301F1370108850703016D38010831
:104DE0003E070301893901084572617365207261CC
:104DF0006E67652030782578202D20307825780D55
:104E00000A005665726966794644446F776E6C6F26
:104E100061646564466C6167206661696C20310D70
:104E2000005665726966794644446F776E6C6F61AF
:104E3000646564466C6167206F6B20320D00466CC0
:104E4000617368206572617365206F6B206170709B
:104E5000496E666F5661722E666C61736845726149
:104E600073654F6B466C61670D0057616974206311
:104E70006F6E7365637574697665206672616D65C2
:104E80002074696D656F757421000A202573207781
:104E900072697465206D65737361676520696E2042
:104EA0004649464F206661696C65642120737461D0
:104EB000747573203D2025642C204649464F20619F
:104EC00076616C6961626C65204C656E6774683DE3
:104ED00025640A00307831343A20496E76616C6975
:104EE00064206C656E6774682025642C206578707A
:104EF0006563746564203E3D20340A0030783134A7
:104F00003A204454432052414D20636C65617265E0
:104F1000642C204E52432030783738207468656EF8
:104F2000204E564D004661756C743A20496E697486
:104F300020663165643D3078253032582066316511
:104F4000653D30782530325820666131393D307802
:104F500025303258206474633D2564206174743DAB
:104F60002564206F6B3D25640A000A2025730A0022
:104F700000000000010001020304050607080C10F0
:104F8000141820304000000020A1070080841E007B
:104F900001010000000001000C310C000100020BB7
:104FA000020000000100B0095C07000000000000E2
:084FB00000000000010001FFF8
:040000050800FC01F2
:00000001FF
