:020000040800F2
:10000000E07F002015040008D5320008852D000887
:1000100000000000000000000000000000000000E0
:10002000000000000000000000000000DD400008AB
:1000300000000000000000001D340008E941000835
:100040000000000027040008270400082704000817
:1000500027040008270400082704000827040008D4
:1000600027040008270400082704000827040008C4
:10007000270400082704000827040008B5430008E7
:1000800027040008270400082704000827040008A4
:10009000000000002704000827040008A923000826
:1000A0002704000827040008000000002962000857
:1000B0002B62000827040008270400082704000812
:1000C0000000000000000000000000000000000030
:1000D0000000000000000000000000000000000020
:1000E0000000000000000000000000000000000010
:1000F0000000000000000000000000000000000000
:100400000348854600F0CEF8004800471170000808
:10041000E07F00200448804704480047FEE7FEE7ED
:10042000FEE7FEE7FEE7FEE7DD4200080104000804
:10043000F0B51FB40646002082B005464024019165
:1004400000901BE0019922460F46304600F098F8D4
:10045000049A059B801A994110D3104619462246EA
:1004600000F07EF8361A8F410197224601200021C4
:10047000009F00F075F838184D4100902046641E2A
:100480000028DFDC019B00982946324607B0F0BD0A
:1004900030B5434351435C18010C130C0D465D43CA
:1004A0002C1980B292B20546554351430A0C0904F7
:1004B0004D1962415843010C00044019514130BDAF
:1004C00003460B439B0703D009E008C9121F08C06D
:1004D000042AFAD203E00B780370401C491C521E18
:1004E000F9D27047D2B201E00270401C491EFBD223
:1004F00070470022F6E710B513460A46044619462F
:10050000FFF7F0FF204610BD30B50446002003463B
:1005100000E05B1C934203D2E05CCD5C401BF8D052
:1005200030BD70B50446002903D0002020220123ED
:1005300010E0002801D00020C043C046C0460DE0B6
:100540002546D5408D4205D30D469540641B1D467A
:10055000954040191546521E002DF1DC214670BD14
:1005600010B5202A04DB0146203A9140002010BD3E
:10057000914020239C1A0346E3401943904010BD4C
:1005800010B5202A04DB0846203AD040002110BDD7
:100590000B46D340D0402024A21A9140084319466C
:1005A00010BD0000064C0125064E05E0E36807CCAF
:1005B0002B430C3C98471034B442F7D3FFF724FF89
:1005C000F877000828780008704780B502F0DCFB57
:1005D00002F070FC80BD10B503460020082B1CD330
:1005E0000B78F0241C40102C17D148781B071B0DEA
:1005F0001B1808D1881C00210B46445C1B021B19E8
:10060000491C0429F9D1072B03D80020082B04D357
:1006100002E00120082B00D3136010BDB0B50346E3
:100620000020022B03D30C7825062D0F00D0B0BD7F
:100630000F200440092B0DD30020002C11D14C7841
:10064000611E3D290DD8581EA04209D30120002863
:10065000EDD008E0601E062802D8581E844204D956
:1006600000200028E3D01460B0BD01200028DED0B7
:10067000F9E70000F0B587B0054605AE00243480E8
:10068000542006AF31463A4602F077FA387800280F
:100690002BD130880C2828D306AF009754200C218A
:1006A00002AA05AE334602F0BBFA387800281CD106
:1006B00030880C2819D102A8818806AF0097C54E52
:1006C00032461032542005AB02F0AAFA38780028DE
:1006D0000BD105A801880398884206D10299B16020
:1006E0002870049803F016FF0124204607B0F0BDDF
:1006F000F0B587B0074605A800260680002928D057
:100700000C460192522005A906AD2A4602F00AFACB
:10071000287800281DD105A8008821460C31814287
:1007200017D80026049603940297522002A90C229F
:1007300006AD2B4603F0F4F92878002809D15220A1
:1007400006AD019922462B4603F0EAF92878464285
:100750004641304607B0F0BDF0B581B00D460446C5
:10076000794FB888002809D0217A0026002902D0C4
:100770002078012807D1304601B0F0BD0020287054
:10078000032001B0F0BD627A202A04D20020287034
:10079000062001B0F0BDF02313400920202BF0D13A
:1007A00063680093BB68009FBB42EAD10F20024000
:1007B000654F3B789A4217D1B889491EC9B2421891
:1007C000F9898A4213D2D949088A002820D07A7838
:1007D00090421DD8488B0978FFF7A3FED4490860E2
:1007E000B8800720287021E0042001B0F0BD0A1A6B
:1007F0003E46103630180A34214602F0C1FCB86873
:10080000F9893246FFF774FF0020287001B0F0BD6F
:10081000C88B09781D46FFF784FEB880E44908605C
:10082000681CC1B20F2900D900203870B889381867
:100830001030227A21460A31521E02F0A1FCB889FA
:10084000217A0818401EB88195E7C046F0B583B0FC
:1008500001910646D44DA87B02A90870B120C700BB
:100860003948002421463A4602F0FEFC284621463B
:100870003A4602F0F9FCCE480460204603F04AFEF6
:10088000307800280DD002A8FFF7F4FE012819D116
:1008900002A80078E88107280DD906200199087080
:1008A00010E0707A0009012809D000280AD101203F
:1008B0000199087006E005200199087002E0022005
:1008C00001990870002003B0F0BDC046F0B581B0BA
:1008D000044600270097007A0926002830D00D46EC
:1008E000217801292CD0617AF0220A40102A27D1E0
:1008F000214609316A46FFF76EFE012820D1124ECB
:100900000098F0816068B060DC49488B0978FFF797
:1009100008FEB080DB490860227A3046103021465C
:100920000B31921E02F02CFCB089217A0818801E2F
:10093000B0810720287027726760012020703E4632
:10094000304601B0F0BDC046DC1B002070B50D463E
:10095000CB4EB188002924D0017A0024002923D06D
:100960000178012920D0417AF0220A40302A1DD195
:100970000F22114002291BD001291DD0002925D1A9
:10098000817A7170C07A89490880E649888B097834
:10099000FFF7C7FDB080E4490860082028702046B2
:1009A00070BD002028700324204670BD092070BD52
:1009B00000202870082070BDE849088B0978FFF7EF
:1009C000B0FDE7490860B080204670BD0020287067
:1009D000052070BD64210020F0B581B006460027D7
:1009E0000097007A0924002818D00D463178012993
:1009F00014D0717A0F2911D8314609316A46FFF7B0
:100A00000DFE01280AD16846018870680A36324610
:100A1000FFF76EFE002801D02F703C46204601B043
:100A2000F0BD000010B572B60948017862B602291F
:100A300009D001290BD1074C2068002807D0804736
:100A40000020206010BD034900220A60027010BD22
:100A5000F8260020F4260020F0B585B00020039091
:100A60000290E64F7A88002A01D005B0F0BDB88820
:100A700000282CD00191022002AE314600F070FA1D
:100A80003078F0210140387808433070FC89BD8906
:100A9000032000F06DFA244800F05CFA641BE5B214
:100AA000B88939181031701C072D13D3072202F0B2
:100AB00067FBB868E8490A6A00924C6A082102AAF2
:100AC000D04BA047012822D1B889C01D13E00220D5
:100AD000002525E02A4602F053FBB868DE490A6A81
:100AE00000924E6A611CC9B202AAC64BB0470128E7
:100AF0000DD1B8894019B881D749888A0978FFF79C
:100B000010FDB880D34908600020092507E00220C5
:100B100000F02EFA0025284600F01CFA0920019961
:100B20000D7005B0F0BDC046350B0008787C00089C
:100B3000FC26002070B5B14DE889A989814220D2F8
:100B40001A480088C44E34782146FFF7EAFC6880D2
:100B50006878002803D0401E6870000618D0AE48A0
:100B600008210170B08B2146FFF7DBFCA880B94952
:100B700008602878401CC1B20F2900D900202870D5
:100B800070BD0024204603F0CDFCEF48047070BD1A
:100B9000ED4803210170308B2146FFF7C2FCA8808D
:100BA000AC49086070BDC04664210020F0260020DA
:100BB000FC260020F0B585B00E4600250395029571
:100BC0008E4CE089082832D30120019602AE3146CE
:100BD00000F0C6F9E0897178014371703178F02234
:100BE0000A40000A10433070032000F0C1F9164893
:100BF00000F0B0F9B01C21461031062202F0C0FA14
:100C0000A068D24C216A0091676A08217D4B324668
:100C1000019EB84701280DD1A08A2178FFF781FCF9
:100C2000E6490860E44988800020092509E0082099
:100C3000052506E0022000F09BF9284600F08AF91D
:100C40000920357005B0F0BD4D0C000880B5BE48D8
:100C500003210170BD49088B0978FFF762FCD64972
:100C600088808A89921D8A81D44A10600878401C45
:100C7000C2B20F2A00D90020087080BD787C00081D
:100C800064210020FC260020F0B585B000250395E6
:100C90000295C84CA088002841D10191032002ADE3
:100CA000294600F05DF9A94F388A6870002802D003
:100CB0006078401C6070B87C02AEB0702078401C38
:100CC000C1B200250F29294600D801462170F01C29
:100CD0005521052202F0C8FAF88A3978FFF721FC7D
:100CE000A080B6490860032000F042F90F4800F0E8
:100CF00031F9386A0090F8687C6A0821414B324625
:100D0000A047012801D1092607E0022000F030F9B0
:100D10000026304600F01EF9092501980670284685
:100D200005B0F0BD787C0008FC260020310D0008DD
:100D300010B5AF20C0009F4CE189814209D883499A
:100D4000C88B0978FFF7EDFB9C490860A080042060
:100D500000E000207C49087010BDC046787C000887
:100D6000FC260020F0B585B0002603960296924836
:100D7000C0890925072801D906263AE0002838D07D
:100D80000191002602AF3046394600F0E9F80F2005
:100D9000029C84438849CA8914433C70781C1031F2
:100DA00002F0EEF9032000F0E3F8154800F0D2F865
:100DB00081488068654A116A0091611CC9B2546A11
:100DC000104B3A46A04701280CD16049888A09781F
:100DD000FFF7A7FB79490860774988800025092635
:100DE000019906E0022000F0C3F8304600F0B2F8A6
:100DF00001990E70284605B0F0BDC0466421002060
:100E0000090E0008C10F000810B50024204603F0A9
:100E100089FB4D48047010BDDA1B0020B0B567484F
:100E20000068002801D00020B0BD0C464748C06AC9
:100E3000002800D080470225284603F073FB28468F
:100E400000F096F80025284600F084F82570002070
:100E5000B0BDC046FC260020787C000810B582B0EA
:100E60001548522101AC224602F08EFA2078002863
:100E700000D0FEE73220542101AC224602F084FA71
:100E80002078002800D0FEE74B208000722101ACC2
:100E9000224602F079FA2078002800D0FEE764208C
:100EA000742101AC224602F06FFA2078002800D0AD
:100EB000FEE702B010BDC046DC05000070B586B08C
:100EC000204801A90CC80CC11CC81CC11E4C2078AC
:100ED000092811D001AA101D1146083109321B4BF7
:100EE0009B6A9847012807D1029805F083FA0128E8
:100EF00002D101A8002101700020154D064605E031
:100F000000212170761CF1B20A2911D2F1B2C90078
:100F10006A5C2378934204D16818426801A821468C
:100F20009047C1B20029EDD00629E9D10026EAE7B1
:100F300001A800210172012202700291FFF772FDE7
:100F400006B070BD28780008DA1B0020787C000805
:100F5000007F0008014908607047C046F426002061
:100F60000A780F231340000118180870704700001A
:100F7000154908707047C0460E484188002901D0C5
:100F8000491E41808188002901D0491E81800A487C
:100F90004188002901D0491E41808188002901D063
:100FA000491E818005480168002901D0491E016061
:100FB0007047C046DC1B002064210020FC26002076
:100FC0000148012101707047F826002070B5002902
:100FD0000FD00023DB43084C0578DEB26E40B5002D
:100FE00065591B0A6B40401C491EF5D1D84310605F
:100FF00070BD0020106070BD3C78000880B5FFF720
:10100000E5FF80BD80B5FFF7E1FF80BD012070479F
:10101000F0B589B002920391074607AC00262680FE
:10102000742008AD21462A4601F0A7FD2878002843
:101030002FD120880D282CD308AE009674200C24C4
:1010400004AA07AD21462B4601F0EAFD288860403E
:10105000317801434E424E4100291AD108AC009428
:10106000B9B2742007AB039A01F0DAFD20780028AA
:101070000FD107A80088B8420BD10598B84208D80C
:1010800004980699059A029B05C319604E480160B1
:101090000126304609B0F0BDF0B595B0054601A86F
:1010A00000240480082902D9204615B0F0BD0E4660
:1010B0000092722001A914AF3A4601F033FD39784D
:1010C0000120002901D015B0F0BD01A909883246E0
:1010D00008328A42F7D802960395722002A90822A4
:1010E00014AD2B4602F01CFD287800282046EAD1DA
:1010F00002A80288722014AD00992B4602F010FD60
:1011000029784842484115B0F0BDF0B599B0154670
:101110000391029017A80024048016AE348004A81E
:101120004821FFF7E6F9722018AF31463A4601F040
:1011300024FD3878002832D1308808282FD318AE03
:1011400000967220082104AA17AB01F069FD16A8C9
:101150003178002923D10088082820D304AA1188D7
:1011600018A800900832722016AB01F059FD059EB8
:10117000304605F03FF9012811D102980660049825
:10118000039908700124002809D000210A4604AB05
:101190005B181B7A6B54521CD1B28842F7D8204698
:1011A00019B0F0BD074908607047C04680B50548D2
:1011B0000068002803D0804703480021016001F047
:1011C000D7F880BDEC260020241B0020F0B58BB0A2
:1011D000039316460D46029008A8552108273A4663
:1011E00002F042F807A800240480082D38D80196A0
:1011F0000094742007AE0AAC3146224601F092FCFE
:101200002078012400282BD13088142828D3039873
:10121000069005970298049008A801992A4601F0C3
:10122000AFFF742004A90C220AAD2B4602F078FC13
:101230002878002805D074200AA905F077FD009CC5
:101240000EE0742008A908220AAD2B4602F068FCC3
:101250002878002804D074200AA905F067FD009CB6
:1012600020460BB0F0BD01228A40D823C058104060
:10127000C840704701228A40CC23C0581040C84063
:101280007047016570473F290AD898301F2903D855
:1012900001228A4002607047203901228A40426060
:1012A0007047192803D30F3000090B307047092805
:1012B00002D3C01C8008801D70470000F0B585B0C7
:1012C000049000293CD00F4602930392172000019E
:1012D000081801901120000108183F21CC43214635
:1012E0002031421820230025D554491CF9D313205E
:1012F00000013E18049800F093F8311940228D54F3
:10130000641CFAD301990D704D700006029901D149
:101310000C480760039A3A6079600720C105002AEB
:1013200003D0049800F01BF802E0049800F00CF8D9
:1013300017200F2102F020F818200E2102F01CF8CF
:1013400005B0F0BD60300020426D8A4342657047B1
:1013500001228A40E0214358934343507047C26DB5
:1013600001231343C365826D8A438265426D0A433C
:101370004265704701228A40E0214358134343509D
:101380007047000004480168012291430160016830
:10139000C907FCD07047C0461864004070B50029EA
:1013A00010D014461F2A0DD80D4606462146FFF7D9
:1013B000CFFF3046214600F038FC281911210901E1
:1013C0000022425470BDB0B500290ED014463F2A09
:1013D0000BD80D462146FFF756FFA0002818002124
:1013E00081602819132212018154B0BDB0B5002AC2
:1013F00014D014460D46012903D0002D0ED1012131
:1014000000E01021FFF7A0FFA80020182121C9004B
:10141000002242506019172109014254B0BD00005A
:1014200010B500228D4B14462146984203D001246A
:10143000D2072246F8D0084610BDC0463F2901D940
:1014400000207047AC3002695205520F052A02D3C2
:1014500092000A3A00E0121D4A4391000068254AB2
:10146000024088187047C0460146A031CB69072268
:101470001A40052A03D39200074BD21800E0121D30
:10148000A023C05849688904890E51438900194A2C
:10149000024088187047C046F6FFFF3F0146B03152
:1014A000CA685206520F052A02D392000A3A00E097
:1014B000121DB023C05849688909FC230B405343CF
:1014C0000C490140581870471F2901D90020704766
:1014D000C030836807221A40052A02D392000A3AD4
:1014E00000E0121D4A4391000068024A0240881839
:1014F0007047C046FCFF0000F0B583B0019105467F
:1015000000260824029003E0241D761C402E20D0E3
:10151000F7B22846394600F0A5F80028F4D0686DE7
:101520000003F1D5019D2A590298394600F0AAF826
:10153000029829463A46FFF746FF2F68029D002F82
:10154000E2D0019948680090032228463346B84704
:10155000DAE703B0F0BD0000F0B581B00D460446F7
:1015600000F034F9A87A01280BD1A0698021014349
:10157000A161A06920210143A161206910210143DB
:101580002161E87A012807D1A06980210143A16186
:1015900020691021014321612E460E36287B012847
:1015A00003D1A06920210143A1612046314600F00A
:1015B00089F9287A012804D101200002A169014398
:1015C000A161687A01280FD101273802A16901437E
:1015D000A1617802A1690143A1612046314600F072
:1015E00097F9A87A002801D001B0F0BDE87A002868
:1015F000FAD1F805E1680143E160A16C0B480140B4
:10160000A164E97D891CAA8A531C4B437F210A02ED
:10161000A16C7E2B06D80140180210400843A0643C
:1016200001B0F0BD1143A16401B0F0BDFF80FFFF28
:1016300080B5012A0CD0052A0CD100F0D3F8064B56
:101640008148186005480021054A00F099F880BDDE
:1016500000F044FB80BDC046201B00200064004019
:10166000D00E00203F2901D90020704798301F2953
:1016700001D8026801E020394268CA4001201040C8
:101680007047000070B5002A1ED01446FFF7D6FE42
:10169000C049411800200A582250001D0828FAD1DC
:1016A000A3790F200340694AD35C002B0ED0A379A5
:1016B000034008310834002005464E5D6655D65C6F
:1016C0006D1CB542F9D370BD012070BD002070BD06
:1016D00070B514460246012001292AD8002C28D0D2
:1016E0001546A435002925D02969490621D0104680
:1016F000FFF7D4FEA7494018002142586250091D47
:101700000829FAD1A2790F231A4050498A5C002A8D
:101710000AD0A2791A40083008340023C65CE65487
:101720008E5C5B1CB342F9D328698004800E68612B
:10173000002070BD29684906FBD01046FFF794FED3
:1017400094494018002142586250091D0829FAD1D5
:10175000A2790F231A403D498A5C002A0AD0A27957
:101760001A40083008340023C65CE6548E5C5B1CCB
:10177000B342F9D328688004800E6860002070BDF1
:10178000F0B581B0012401291DD8002A1BD0002BFF
:1017900019D0551817263601AF5D002F13D1AC199B
:1017A000052525708C0012192124E4001B681351B3
:1017B000012904D11021FFF7D2FD002403E001210B
:1017C000FFF7CDFD0024204601B0F0BD8169012264
:1017D0000A4382618169C907FCD0816902220A43F8
:1017E00082617047F0B593B001A84821FEF781FEF1
:1017F000154DA8790F2101401448445C01942868D4
:10180000410003D507214907884301E0C000400D8E
:101810000290002C14D0029E304601F005FC0128F5
:101820000ED101AF08370835384629462246FEF763
:1018300047FE304621463A4602F080FE012801D19B
:1018400013B0F0BDFEE7C046D81A002005080020FE
:10185000F0B581B00124002931D01646002A2ED0DF
:10186000054630793F282AD80F46081811210A0169
:10187000815C002923D180183168096889000092B1
:1018800001D5042100E00321017032683179284636
:1018900000F0D0F93179002804D078180021009A9E
:1018A00081540CE02846FFF765FD012041022846DF
:1018B000FFF755FD3179284600F0B2F900242046A3
:1018C00001B0F0BDB0B500291FD00022C2610B7974
:1018D0007F221340C4699443E318C361CB78FF248B
:1018E0002402C569A5431B02EB18C3610B88C469B8
:1018F000064D2540DB05DB095B19C361897852067B
:10190000C369934349065918C161B0BDFFFF00FE8A
:10191000F0B500282ED000292CD00F26F443C26841
:101920002240C260F022D543C2682A40C260C26829
:10193000114B1A40C260C768104A1740C7600F7A3F
:101940003740C6682640F419C4608C7AC6682E40B9
:101950002407240E3419C4604C7AC5681D40E30680
:10196000DB0C5B19C360C988C3681340C906C90A88
:10197000C918C160F0BDC046FFE0FFFFFFFFE0FFF8
:101980000068D20010180A68D24BC250C0184968CB
:1019900041607047005C004070B54A7A0C7A802341
:1019A000C3588030002C11D001242240A3439A1840
:1019B00002608A7A03680C24A3439207120F9A18D4
:1019C00002607F2212040830114B10E00224A3436E
:1019D000D207920F9A1802608A7A03683024A343D0
:1019E0009207920E9A1804C0FF221204094B0C6849
:1019F000384D25400468384E264074190460496803
:101A00000904114002681A400A43026070BDC046D2
:101A1000FFFF80FFFFFF00FF70B50A682D4B1340EA
:101A2000A02284582C4D2540EB1883504B688458D5
:101A30007F252E04B4435B065B0AE31883508B6852
:101A400084582D06AC435B065B08E31883500B7B80
:101A500084580125ED07AC43DB07E3188350497B2D
:101A600007221140A030C36993435918C16170BD6A
:101A7000B0B54A688B689A18202A29D8C0300A68FD
:101A8000144B13400268144C1440E21802604A6878
:101A90003F231C040568A5439206920AAA18026017
:101AA0008A681B0604689C4392069208A21802608A
:101AB0000A7B01239B0704689C43D2075208121932
:101AC0000260497B07221140836893435918816063
:101AD000B0BDC046FCFF00000300FFFFF0B587B0BB
:101AE0000591002900D196E005462120C000059906
:101AF000081801902846C0300690286D0122510236
:101B000003910292D104049103E0286D002800D1D2
:101B100081E00721CF050024074015D01026002CB6
:101B2000049900D139462846FFF7ABFB002CECD1D5
:101B300005980468002CE8D005994868009028466C
:101B400032463B46A047E0E7039F384211D1C10728
:101B500036D101070826002941D4C10641D4010627
:101B60004ED4049908424ED12C490840112607460C
:101B7000D5E7069800688002800E029ECFD000262E
:101B8000374607E07F1CFEB2069800688002800E90
:101B9000864211D2FCB228462146FFF764FB00289A
:101BA000F0D00698006AF040C007EBD028460599AF
:101BB0002246FFF7F3FBE5E70024029E039FAEE712
:101BC00001980268002428462146FFF781FD284637
:101BD0002146059AFFF70AFC012705269FE73746AD
:101BE0009DE701984268012728463946FFF770FDB6
:101BF00028463946059AFFF7F9FB10270A268EE793
:101C000080270D268BE728460599FFF775FC0027EE
:101C10000326012483E707B0F0BDC04666FD77FCCC
:101C200001228A40D0214250704701228A40D421AB
:101C300042507047F0B593B014460E46074603A8CD
:101C40004021FEF756FC0125002C40D03846314695
:101C5000FFF710FB00283AD138463146FFF734FC35
:101C60001C494118084608300022A3588B50121D09
:101C7000082AFAD1A2790F2102910A4016498B5CF9
:101C8000002B0ED0257B0022174604E003A9CE5579
:101C90007F1CBB4205D0AF421646F7D2A668F65D60
:101CA000F4E7A179029F39400B4D695C00290DD002
:101CB000002603AB019602CB02C0A1793940695CD2
:101CC000321DD6B28E42F6D3019D00E00025284693
:101CD00013B0F0BD005C00400508002010B5044CB6
:101CE000A068002802D080470020A06010BDC04638
:101CF0003808002010B582B000240194009401A897
:101D0000694600F0A1FCCC21084A5158019B994238
:101D100008D3D023D2585118009A914202D2401EC3
:101D200044424441204602B010BDC046AC0D0020E4
:101D300080B503480021017002F034FA80BDC0462E
:101D4000F17F002080B50648002101600548016050
:101D5000054801600548016002F024FA80BDC046D4
:101D6000FC7F0020F87F0020F47F0020F07F00201F
:101D700070B586B00124A00401F046FFA00301F075
:101D800053FF1B4D062100242846224600F0E3FFA6
:101D900007212846224600F0DEFFFF20043004AE73
:101DA000B080144804902846314600F09DFF802002
:101DB00030802846314600F097FF69468C810C2020
:101DC00088720C81E1204002009001940A4C204668
:101DD00004F02CFA2021204604F095FA1B20022161
:101DE00001F0CAFA204604F089FA06B070BDC04678
:101DF000000400484000020000380140B0B50B4D1F
:101E00002878012809D100241E49E422204600F048
:101E10009FF8002802D0002805D0B0BD00F088F857
:101E2000C0B20028F9D12C70B0BDC0466B30002084
:101E30001448704770B5134C2C4DE42620462946B3
:101E40003246FEF73DFB00202146324600F064F8A2
:101E5000CF20012121541D341D350A222046294658
:101E6000FEF752FB00280CD00A26204629463246AF
:101E7000FEF726FB1D202146324600F069F800F0EF
:101E800057F870BD44100020B0B584B021480390CD
:101E9000002469460A22204600F03EF820462546E6
:101EA00003E0411C0928084609D26946095CFF295C
:101EB00004D030390A29F4D20125F2E72546002062
:101EC0000A49E42200F044F8280604D000206946BC
:101ED0000A2200F03DF800F02BF87D20800003A9D5
:101EE000042200F035F804B0B0BDC046A87C00085C
:101EF00080B582B07D20800001A9042200F00CF89A
:101F000004480199814201D0FFF7BEFF002002B0D2
:101F100080BDC046214D564E002A08D02F4BC01818
:101F200003780B70521E491C401C002AF8D17047E0
:101F300010B582B07D2084002848214604F0E0FEE0
:101F40000190201D01A9042200F002F802B010BD8A
:101F5000F0B5FFB084B000292AD00E46054610180F
:101F600001277902884224D801200192420202AF5F
:101F70001A4C38462146FEF7A3FA78193146019AE1
:101F8000FEF79EFA72B600F087FD00F0CBFA20460D
:101F900000F006FD411E07468F4100280DD000F0DD
:101FA0001DFD62B6002082A90422FFF7B5FF00E004
:101FB0000127F8B27FB004B0F0BD082602AD04E0FE
:101FC000761E40354034002EE9D0032120462A46B3
:101FD00000F00AFD0028F3D07F1CF1E700000408A0
:101FE000F0B581B015460C460027FE43564988429D
:101FF00000DDB6E0554941189F2900D9C8E04900E5
:102000007944898849008F44A30065016501650111
:102010006501650165016501650165016501650190
:102020006501650165016501650165016501650180
:102030006501650165016501650165016501650170
:102040006501650165016501650165016501650160
:102050006501650165016501650165016501650150
:102060006501650165016501D600650165016501D0
:1020700065016501DF00E600EF00F80000010E01D8
:102080001D016501650165016501260165012F01DD
:1020900065013801650141014A015301650165018E
:1020A0006501650165016501650165016501650100
:1020B00065016501650165016501650165016501F0
:1020C00065016501650165016501650165016501E0
:1020D00065016501650165016501650165016501D0
:1020E00065016501650165016501650165016501C0
:1020F00065016501650165016501650165016501B0
:10210000650165016501650165016501650165019F
:10211000650165016501650165016501650165018F
:10212000650165016501650165016501650165017F
:10213000650165016501650165016501650165016F
:102140006501C800C800610118FA0000B00EFFFF69
:102150000A222A607A4931312046FEF7B1F93E461B
:10216000B8E05E49884218D0FF210902884200D0B9
:10217000B0E0042028603B207149085C3B314A787C
:10218000CB788978A170E370207062703E46A1E040
:10219000B7494118022900D39CE06A46002717700E
:1021A000214600F0F7FA002800D093E06846007856
:1021B00028603E468EE00A222A6061491D31204691
:1021C000FEF77EF93E4685E00120286002F0E6FD3C
:1021D00020703E467EE013222A6059493F31204656
:1021E000FEF76EF93E4675E013222A6054490A3123
:1021F0002046FEF765F93E466CE00A222A60504907
:102200002046FEF75DF93E4664E0032028604C4816
:10221000014662318A78A270497861706221405C1F
:1022200020703E4656E004202860A3204449085C04
:10223000A3314A78CB788978A170E37020706270FE
:102240003E4647E01D222A603D4985312046FEF783
:1022500037F93E463EE01D222A6039496831204662
:10226000FEF72EF93E4635E00A222A603449DA317B
:102270002046FEF725F93E462CE00A222A60304926
:10228000D0312046FEF71CF93E4623E010222A609A
:102290002B4952312046FEF713F93E461AE0102230
:1022A0002A602749B8312046FEF70AF93E4611E078
:1022B00004202860C820224908582070010EE170CF
:1022C000010CA170000A60703E4603E00120286006
:1022D00020703E46304601B0F0BDC04619FA0000FD
:1022E00010B50123DC43144B98420AD0134B98429B
:1022F00020D1102A1CD11248B8301022FEF7E0F885
:102300000EE0042A14D108784A78120210188A784C
:10231000C9780902891809040818C821084A5050C8
:1023200000240749E4222046FFF712FEFFF700FED3
:10233000204610BD601C10BD99F1000098F100000E
:1023400044100020B0B50446074D286802680749CC
:1023500020469047002801D0C0B2B0BD286841682F
:1023600020468847C0B2B0BDC41B00205AA55AA55C
:1023700010B582B001AC002020707420214604F01A
:10238000D5FC21784842484102B010BD80B50449CF
:1023900008600448006880F308880868804780BDAA
:1023A0005008002000F8000880B503480168034881
:1023B000FFF794FB80BDC046603000200064004001
:1023C00010B507480021074ACB430124E406046006
:1023D00042608160C16001614161836110BDC0469E
:1023E000B40E0020409C0000F0B585B000920C4671
:1023F0000646002004900290039003A904AA3046E8
:1024000000F0C2F800282FD0304600F04FF8A0426C
:102410002AD90498002827D0002504980190039910
:10242000AA4A2E460295F0000B58134200D06D1CAC
:102430000F4F3B4008184768BB420ED2001DAC420C
:1024400006D0D3185B1C6D1C0768BB42F7D304E0B1
:10245000009803600120029025460298002803D1CD
:10246000761C01988642DED30298C0B205B0F0BD5A
:1024700000FEFFFFB0B500280BD00749074A084B04
:10248000084C094D056044608360C2600161012011
:10249000B0BD0020B0BDC0464D250008452600084F
:1024A000A12500085D2600087D250008F0B583B051
:1024B00000240294019402A901AA00F065F8002802
:1024C00010D0019800280DD00025019E029F2C46B7
:1024D00003CF091A083F00F009F8041908376D1CEA
:1024E000B542F5D3204603B0F0BD000010B502465A
:1024F000764B04461C40581C81420BD9480A1942AD
:1025000000D0401C002C0AD0891819408C4200D001
:10251000401C10BD6018991C884201D3022010BDD8
:10252000012010BD064907480268002904D0012394
:102530001A40491C002AF7D1034901607047C04680
:1025400000E0FFFF0C2002403C000100704700004B
:10255000002801D00020704703480860B7204002DF
:10256000106001207047C04600F600080023037089
:1025700081208000086004201060704780B500F062
:102580009DFC012080BD0000002801D00020704784
:1025900001201060014A0A607047C046A47D00080F
:1025A000F0B585B015460E4607460020C14303919D
:1025B0000291072114460C4072B624D0082D2AD966
:1025C00001911F4A2A403846314604F03FF8394607
:1025D0004742474100282FD10091019885430020B0
:1025E00001464219B25C02AB1A54491CC8B284427B
:1025F000F7D80098281802A9082204F027F8002824
:102600001AD1012718E0AAB23846314604F01EF864
:102610004742474110E0002D07D00146325C02AB33
:102620001A54491CC8B2A842F8D302A90822384655
:1026300004F00CF84742474162B6384605B0F0BD99
:10264000F8FF000001207047012253070360024891
:10265000086010467047C0460004002080B549025B
:10266000FFF770FE4142484180BD0000F0B583B0E5
:1026700000240294019402A901AA2046FFF784FFD6
:102680000121012816D1019B002B15D0DA000298F8
:102690008218019D0D4E076837420FD147683742B7
:1026A0000FD108305D1E2B46F5D10020019002921B
:1026B0000C4608E00C4606E00C4604E0019502904A
:1026C00001E001950290204603B0F0BDFF0100003B
:1026D00080B55A484121FDF70CFF80BDB0B5FFB071
:1026E00081B0012040026C4621460246FFF714FCEF
:1026F000524D1E48E864284604F031FBA86450227D
:1027000020462946FDF7DCFE204604F05DFB7FB045
:1027100001B0B0BD494870471D480178002908D173
:1027200001210170462045490A5CFF2A01D0521C54
:102730000A54704710B5164800210170434801241F
:10274000047004F02FFB002801D104F00DFB60029F
:102750003A4C50222146FFF7DFFB204604F0FFFAF7
:10276000A16C884201D00148E06410BD544C55462C
:1027700044213248425A054B9A4201D0521C4252DF
:10278000462100224254024802707047FFFF0000B9
:10279000401B0020F0B581B003460024E043204EEA
:1027A000B3420BDC01256F02BB4215D01F4FBB4269
:1027B0001DD0B34232D1157041201EE0194DAB42FD
:1027C00018D07D256D02AB421DD0174DAB4225D1EF
:1027D00001201070432010E00220107017480246BC
:1027E000443252780A704422805C487008E01570C8
:1027F000462002E0012010704220104A105C087050
:10280000204601B0F0BD40200C4B185C80001070D9
:10281000C2B208461946FDF753FE204601B0F0BD8E
:10282000EDF10000EEF1000019FA000001020000D5
:102830004120024900220A547047C046701B002004
:10284000411E8841014908707047C0463408002085
:10285000B0B582B00024019400F0C0FB012801D182
:10286000012413E00B48007801280FD1114D68783E
:1028700001280BD1A878012808D101242C7020212F
:1028800001AA2846FEF7BEFB01982862204602B046
:10289000B0BDC0465E30002006484178012251405C
:1028A000037853400B4381785140194348424841D3
:1028B0007047C0466C0A0020F0B583B002A800241F
:1028C0000470E520D54E355C6F1E032F1ED8B9006D
:1028D00001A251588F46C046E9280008F328000895
:1028E000FF2800084929000802A8047000F01AFE19
:1028F0000AE002A80121017001F06AF804E002A8D0
:102900000121017001F01CF8CA21705402A800785E
:10291000012817D1002D07D0E8257159002903D0CF
:10292000CA20305C88477451022F05D8CA20305C19
:10293000012801D000F09EFDFF2200200146034641
:1029400001F016FC03B0F0BD0C490A78022A06D04B
:10295000012ADBD101223254FF200870D6E7084853
:102960000470FF200190087000F084FD204621468D
:10297000019A234601F0FCFBC8E7C0464C08002042
:10298000910A002002480078002800D001487047D2
:10299000082700200C27002001208002704700003B
:1029A000F0B581B005460B200404204600F080F805
:1029B000002801D001B0F0BD274E3068022738430F
:1029C000306075603068402101433160204600F07E
:1029D0006FF83168B943316001B0F0BD1E4801683D
:1029E00080220A4302607047F0B583B015460E4658
:1029F000029001277C03204600F05AF8002801D0FD
:102A000003B0F0BD0194144C206838432060206866
:102A100012490840B107890A40182060606802988E
:102A20006060B0000EA1085821463031002208CD68
:102A300008C1521C8242FAD3206840210143216020
:102A4000019800F035F82168044A1140216021689E
:102A5000B943216003B0F0BD10200240FFFFCFFF5B
:102A60000200000004000000080000001000000048
:102A700008480068410707D4C10607D4C10707D139
:102A8000810B0420084070470220704703207047E4
:102A9000012070470C2002400248034901600349AD
:102AA000016070470420024023016745AB89EFCDE8
:102AB00070B5451EAE04FFF7DBFF0446002E01D1C2
:102AC00000F0ECFA00206D1E4041012C01D10028DD
:102AD000F0D1681C00D30524204670BDB0B584B089
:102AE0000124204601F0A0F8204601F095F801A944
:102AF0000020887008813F20088009480290A507BF
:102B0000284601F025FD2846214601F060FD0F20F2
:102B1000014600F031FC284601F054FD04B0B0BD80
:102B2000E703000070B582B000260196002A0AD0A3
:102B300014460D46002908D001A9224601F0D0FA1A
:102B40002078002805D002B070BD0420207002B0AB
:102B500070BD0198017A00290AD00129314608D1B7
:102B6000C18882888A4201D840888218511A00E0C0
:102B700041882980267002B070BD70B582B00026F1
:102B80000196002A0AD014460D46002908D001A952
:102B9000224601F0A5FA2078002805D002B070BDC9
:102BA0000420207002B070BD0198017A02290AD079
:102BB000012931460AD1C1888288914205D2891AF9
:102BC0004088091802E0418800E0891A29802670AF
:102BD00002B070BD10B582B0084C01940020009086
:102BE00001A96A46FFF7B4FC012800D001948120B6
:102BF00080000199085802B010BDC04600F60008D8
:102C0000A848704700487047F1A1DA18004870479B
:102C1000A1F1DA18E420E449085C7047AC0D00200B
:102C2000F0B585B00E460027049703A90F800A9CD3
:102C3000002C10D0002E10D01546002A0DD0002BED
:102C40000BD003A9029022460193FFF796FF02984A
:102C50002178002905D005B0F0BD0420207005B012
:102C6000F0BD04A9224601F03BFA019A2078002821
:102C7000F1D103A80188B14200D80E461680068023
:102C8000002E13D0049803E0761E6D1C002E0DD08C
:102C90008188C268515C29708188491C8180428882
:102CA0008BB29342F0D3891A8180EDE772B6049813
:102CB0008188C288511A4A1E9141017262B62770FA
:102CC00005B0F0BD10B582B00020019004480E217F
:102CD00001AC2246FEF796F9208802B010BDC0462E
:102CE000F07F00208162704770B50022134615E026
:102CF000032494400568A54305608D7895400668D7
:102D00002E430660C568A543C5604C799440C568EC
:102D10002543C560921C5B1C102B1BD001249C40DA
:102D20000D882C42F6D08D786D1E012DE0D803253C
:102D300095408668AE4386600D79954086682E433F
:102D400086604568A5434560CC789C40456825432E
:102D50004560CDE770BDB0B5082901D3242300E05C
:102D60002023C5588C00082901D31C210C400F21B9
:102D7000A1408D43C550C158A2400A43C250B0BDC6
:102D80008161704770470000F0B591B00124204682
:102D900000F030FF600600F03FFF600400F034FFF9
:102DA0000920C5060C210426019628463246FFF765
:102DB000D2FF0B2128463246FFF7CDFF02AF02209B
:102DC0000090787121200003029028463946FFF7D1
:102DD0008BFFE6023E8028463946FFF785FF2B4DE4
:102DE0002B492846FEF7B8FB2A492B4A00272846DC
:102DF0003B46FEF763FA29483146FDF77AFB0EADF4
:102E0000009EAE72200228810E970F971F48294618
:102E1000FEF7C2FDAE72FF200230288101980E90AD
:102E20000F941A4E30462946FEF7B6FD1C480C900A
:102E30001C480D9901431C480840A10740180D90FB
:102E40000CA928463A46FEF79BFD0725280208A94B
:102E500088810A970994102008903046FEF7DCFD1F
:102E6000079704A94D730697059460200490304697
:102E7000FEF7FEFDFEF786FA0C4B0D481860304653
:102E80003946044AFEF77CFC11B0F0BD00640040F6
:102E900018080020D00E002031160008005C004009
:102EA000F1A1DA38F133DB18F133DB38201B0020D5
:102EB000D81A002080B5FFF783FA80BD70B582B0C4
:102EC00000250195009501A86946FFF7BDFB019C0F
:102ED0000098021B0126900A00D0B2020848214641
:102EE000FDF7EEFA074806706059019940186051E5
:102EF0002D1D102DF8D104480199016002B070BD5C
:102F00000C27002008270020C41B0020B0B582B089
:102F10000125680400F078FE69460D7141208002A9
:102F200000900920C4062046FFF7DEFEA9022046D5
:102F3000FFF7D8FE02B0B0BD70B582B00125A8057C
:102F400000F062FE6C4625710B4800906D4D2846DE
:102F50002146FFF7C9FE10212846FFF711FF202662
:102F6000268028462146FFF7BFFE28463146FFF758
:102F700007FF02B070BDC0461000010070B50446E6
:102F80000020E1050ED1F825234E7159002909D002
:102F9000FFF7C8FA03F03CFA72B6725901212046D5
:102FA000904762B670BDC046AC0D002069480078FD
:102FB0007047C04610B50146401C0122002301287D
:102FC000104600D818460840034C0919890A5B29A5
:102FD00000D31A46104010BD0008FFF7B0B582B00C
:102FE000002401940094D4200B490D5801A869468F
:102FF000FFF72AFB01280BD100980124002185420C
:10300000204600D30846019A954200D20C4604405F
:10301000204602B0B0BDC046AC0D00204948407803
:10302000411E48424841704710B5094909780029B6
:1030300009D00022074B0C2454431C59844204D06D
:10304000521C8A42F7D3002010BD012010BDC0469B
:10305000FC7E00088C7D0008014908607047C0466E
:1030600004300040014908607047C0460830004005
:103070000C48014901607047CCCC00000948014967
:103080000160704755550000034909680140481E1A
:10309000814108467047C0460C3000400148024953
:1030A0000160704700300040AAAA000010B503F08C
:1030B00079F9012811D003F041F901280DD1FFF76A
:1030C000EBFB012809D1FFF785FD0446FFF772FFEE
:1030D000012802D12046FFF759F910BD02480168C6
:1030E00030224A40026070471414004810B5054C65
:1030F00010212046FFF7F6FD20212046FFF7F2FDC4
:1031000010BDC04600140048B0B584B0114800247A
:103110000470EE4DAC702C8003940B480290019427
:10312000202103AA2846FDF76DFF0398286202A913
:1031300001AA2046FFF70CFA0298FFF71FFF04B020
:10314000B0BDC0466C0A002000F60008014801210D
:103150000170704764300020084800680121014078
:103160004942024A0A40400850407047030020800C
:10317000002800D10120014908607047480800205C
:10318000F0B581B0082A2AD9431ADC0731D10023CF
:10319000C4071D4602D00C78047001254C19411952
:1031A0000091521B550809D000232646009F318804
:1031B0003980B61CBF1C5B1C9D42F8D10321C9435A
:1031C000891C59438A184CD059006318009C611817
:1031D0001C780C705B1C491C521EF9D141E0002A7E
:1031E0003FD003460C781C70491C5B1C521EF9D161
:1031F00037E09B0708D003460C781C70521E5B1CFE
:10320000491C002AF8D12CE0002384071D460446FF
:103210000BD0444200254E5D4655032627463740D5
:103220006D1C2E40BE42F6D1441949190091521B23
:10323000950807D00023009E274602CE02C75B1CDC
:103240009D42FAD10321C94359438A1809D09B00F2
:103250000099C918E3180C781C70491C5B1C521E9D
:10326000F9D101B0F0BD0000F0B581B016460A46B4
:103270000446062E23D900920027A0073D4620468B
:1032800009D00320204004210D1A20462946009A27
:10329000FDF728F96019711B8A0808D00C4B009DB6
:1032A0006B430027054608C57F1CBA42FBD1BB0013
:1032B000C91A009A09D0C018FDF714F905E0002ECC
:1032C00003D020463146FDF70DF9204601B0F0BD90
:1032D00001010101F0B583B0234C206880013CD48A
:1032E000E16A60688002000F204A424320481018BB
:1032F0000F273940491CFDF714F9A16809062CD5A0
:103300000126F2052168890329D402927506320646
:103310000192216891432160310462688A436260AE
:103320001449FDF7FEF880040721C9044018B904C8
:10333000084062688A431018606020680199084359
:10334000206020682842FCD0606802210143B1431C
:103350006160A06802990843A06003B0F0BDA06856
:103360001043A06003B0F0BD001002400024F40040
:103370000048E80100093D0010B5044603F088F953
:10338000204603F079F910BDF0B585B0144600224F
:103390000492002C37D003911E490E889B2109010D
:1033A0000291891B1C4B5F1803231F4005461435EF
:1033B0007919B14202D9237005B0F0BD0090019295
:1033C00004A90398224600F08BFE207800281CD028
:1033D000002F104B01D0F01B188018880299091A91
:1033E000039A0D4E7252401B1880701801990161AA
:1033F000009A42804160017201461431C16004901C
:10340000214600F00DF805B0F0BD0520207005B094
:10341000F0BDC0463608002028110020704700008B
:1034200010B500291ED0002810D00F4B1A68002AB2
:103430000ED01369002B0ED0824211D01C461B699E
:10344000002B2246F8D11034224605E0042208E081
:103450001860002205E0103210600022026100E0D6
:1034600005220A7010BDC046302B002080B5FEF743
:103470007FFC80BDF0B581B0C820284D00242C54BD
:10348000C926A85D012802D100F097FBAC5524485D
:103490000470204600F08EFEFF262046214632466C
:1034A000234600F065FEF020F94F2F50F43514222A
:1034B00028462146FFF7D8FE242238463146FFF73A
:1034C000D3FE1748047001B0F0BDC0466C0A00205E
:1034D000F0B581B0C820E74D00242C5400F06DFBFE
:1034E000C9202C54204600F065FEFF2620462146C8
:1034F0003246234600F03CFEF020E54F2F50F435D5
:10350000142228462146FFF7AFFE242238463146D2
:10351000FFF7AAFE0248047001B0F0BDAC0D002018
:10352000920A0020F0B58BB0064600240A94099454
:103530000894079402F002FC0D21FCF7F2FF074605
:10354000C920FD49085C012858D100253570CA4CB6
:10355000207802285CD0012867D0002870D101961D
:10356000C74E3560C84801240470C44F3D60C5484B
:103570000560C6480470284631463A46FFF704F80D
:10358000012800D065E1C4480078002833D1C4493F
:10359000097801290BD1C1490968002907D0C14A1E
:1035A00032603C60C04B1B685918136051600028A2
:1035B00021D1BD480068400ABC4988421BD02E4634
:1035C0000895BB480990B0480078401EC0B209A9D0
:1035D00008AAFEF7BDFF0998FFF7D0FC012800D02C
:1035E0003CE1AB4DAE702E80202107AA2846FDF7A6
:1035F00009FD07982862A04804702AE10120307074
:10360000FFF788F84121425C04231343435422E12D
:1036100002F0FEFE99480021016099480160994836
:10362000016001203070217013E195480168002984
:1036300008D003C9814205D9091AFEF757FF07E0F0
:10364000257006E190480078401EC0B2FEF72EFFBC
:10365000B84202950196039079D901214902069159
:10366000884C04972168814200D3BAE083480068FF
:10367000002800D1B5E002F0CBFE21688248007836
:10368000401EC0B20AAAFEF7AFFE012800D0A5E096
:103690007B48006806680A9DB54200D29EE04468F7
:1036A000AC4200D89AE077480068049F3946FCF79E
:1036B00038FF781A0590611B0A963046FEF716FF10
:1036C000B84206D9059DA84200D8049DBF4C6F4F53
:1036D0000DE0059DA842BD4C6C4F08D8674A1168A3
:1036E000491E1160664A1168083111600546F826C6
:1036F000A0590028059514D0002D14D002F088FEA2
:1037000072B6A2590A9801219047387062B638788B
:10371000012808D10A98069940180A906D1EEDD12B
:1037200001E00020387038780128564C59D12068C3
:1037300005994618266030460499FCF7F2FE039876
:1037400086428FD200298DD10020019948E04B4854
:103750000068002845D0012044024C4D484F38688D
:1037600001684068461A02F053FE38680068314626
:10377000FEF7BCFE0146F826E7488059002806916E
:1037800018D0386800680A90002915D0069F02F00A
:103790003FFE72B6E04882590A980121904728708E
:1037A00062B62878012807D10A9800190A907F1E6E
:1037B000EDD101E0029828702878012811D1314913
:1037C0000868069A801808602D4908680830086063
:1037D0002A490868401E0860C0D102E000202B4939
:1037E0000870284C206829490978019A1278002A23
:1037F000039A10D101290ED190420CD2E520042168
:10380000C54B1954EC201A58002A22D0CB20185C42
:10381000204990471DE001260129029F02D19042D4
:10382000304607D0FEF776FF4121425C0423134364
:1038300043543846B94DAE702F706870202107AAE6
:103840002846FDF7DFFB276002200B490870079828
:1038500028620E48047820460BB0F0BDFEF75AFFF0
:103860004121425C042313434354084806700198E5
:103870000470EEE7AC0D0020910A002058080020EB
:103880005C08002060080020540800200408002084
:103890006C0A0020C1410008900A0020182B00206B
:1038A000202B0020102B00201C2B002002020400E3
:1038B00000F60008F0B585B015460C460390FFF7FA
:1038C000A9F9064601277E40EDB204942046294618
:1038D00000F03EFA784030434442444100281CD175
:1038E00001970295039E049FC9208B4D285C0128F7
:1038F00003D1FEF7FFF9002814D0FEF7FBF90128E9
:1039000004D130463946029AFFF73AFCFF220020E4
:103910000146034600F02CFC01E0FFF7ABFD20461A
:1039200005B0F0BD02200549FF22002300F020FC75
:10393000CA2001992954F2E7AC0D0020CD5C0008A3
:10394000F0B581B00024009402F062FDFEF7D2F9D8
:10395000012808D1D820704A1158D42010586A463E
:10396000FDF74CFB10E0C9206B4D285C01280BD102
:10397000D826A959D427E8596A46FDF73FFBA8592C
:10398000AC51E9590818E85102F042FDDC20F84D2D
:1039900028580099884216D1FEF7ACF901280ED1BB
:1039A000C9260124AC552846F430FEF763FD0128F2
:1039B00007D1F4202958002905D0884703E00124C5
:1039C00001E00020A855204601B0F0BDAC0D00205C
:1039D000F0B583B0044600250295C920F94E305C4D
:1039E00001283CD10194E027F059802841D30024DC
:1039F000F54D0094202102AA2846FDF703FB286A12
:103A0000029988423AD16878012837D1A8780128EC
:103A100034D13D4602F0FCFCFC2170580027002800
:103A2000384609D072B6CC2030587358E1B2C9017B
:103A300071188022984762B6012867D1D021725848
:103A4000803A72502F46715980397151CC22B35847
:103A50008033B350641C7F29F84DCBD80FE0FEF7BC
:103A600059FE4121425C0823134343540120207036
:103A700049E001200024012803D031E0009801280A
:103A80002ED1F15900292BD04842072505402006A8
:103A9000440C08193018FF212A46FFF7E5FBF059BE
:103AA0004019F051FC21705800280AD072B6F25922
:103AB000CC20305873583119984762B601280FD17D
:103AC00002E0002001280BD1F1590022F251CC2252
:103AD000B3585B18B350D022B358691AC918B15003
:103AE000012805D1D44801250570019805700AE028
:103AF000012001990870FEF70DFE4121425C082368
:103B0000134343540025284603B0F0BD38462F46E2
:103B10000128B6D0E4E7C046AC0D00206C0A0020B6
:103B2000F0B583B00E4607460021029101A801803E
:103B3000002B0CD01C46002E0BD01546009101A97D
:103B400038462246FEF7EEFF2078002803D003B067
:103B5000F0BD04202EE001A80088A84201D2032075
:103B600028E002A93846224600F0BAFA2078002858
:103B7000EDD101E06D1E761C002D0FD00298C1889A
:103B8000C068327842540298C188491CC18042887A
:103B90008BB29342EED3891AC180EBE772B60298DA
:103BA0008188C2888A4201D0012100E0022101728D
:103BB00062B60098207003B0F0BD80B582B00020DE
:103BC0000190009001A86946FEF73EFD012805D14D
:103BD000019800990A1A0021FFF746FB02B080BD48
:103BE0000120000602490A6802430A607047C04685
:103BF00024100240012109034E4A13688B43C00779
:103C0000C00C18181060704702490A6802430A6025
:103C10007047C0461410024002490A6802430A6015
:103C20007047C0461C10024002490A6802430A60FD
:103C30007047C0461810024080B500F03BF80449B8
:103C400009680906090F03A2515CC84080BDC0463F
:103C50000410024000000000000000000102030404
:103C60000607080980B5FFF7E7FF04490968490519
:103C7000490F03A2515CC84080BDC04604100240F9
:103C80000000000001020304010A032906D00229F2
:103C900007D0002907D10649096804E00449496BA7
:103CA00001E00349496AC0B2C140012008407047A1
:103CB0000010024010B5104802680321114002298B
:103CC00003D001290CD10D4810BD01680268806A3B
:103CD0008902090F8C1CD10304D40948604310BD2C
:103CE000154810BD0F210840411C0448FCF719FC81
:103CF0004443204610BDC046041002400024F40096
:103D000000093D0080B50B490968002800D08908EA
:103D100003200840032806D0012806D0002807D138
:103D2000FFF7A0FF80BD044880BDFFF7C3FF80BD43
:103D3000002080BD3010024000127A0080B50A4693
:103D4000014631480078022801D800F043F880BDD0
:103D5000B0B50C46C82909D80146294D2846224647
:103D6000FFF70EFAE0202C500120B0BD0020B0BDBE
:103D7000AC0D0020034A116003490860034801218B
:103D800001707047182B00201C2B0020202B0020D6
:103D900010B582B00A46014600200190112A00D3D6
:103DA0001122F020F84B1858001DFFF7E9F9234CB9
:103DB000202101AA2046FDF725F90198206202B0D2
:103DC00010BDC046AC0D00206C0A0020DC21FB4A6F
:103DD0005050704770B5D823F84CE250D42561514B
:103DE000D026A251CC26A1512124E4004443054809
:103DF0000019C250415104480178491C017070BD3E
:103E0000AC0D0020940A0020920A002010B582B068
:103E100008480021017008480170084CA1702180F9
:103E20000191202101AA2046FDF7ECF801982062BB
:103E300002B010BD643000205E3000206C0A00200B
:103E40007D208001014908807047C046CA1B0020C0
:103E5000F0B583B00446476A05462835E81938218D
:103E60003940382901D0012100E0022102918E0160
:103E7000F11B226A0192FCF73CFB606A8021295405
:103E80000198C0194109AA19203A9177C100D17748
:103E9000410B5177400D107720462946029A00F0D9
:103EA00023F81F20C04321180A6ACB23CA54130ADF
:103EB000CA254B55130CC9254B55120EC823CA549D
:103EC000001DF0D1A834204603B0F0BD70B50549FF
:103ED000024678C978C278C978C20021016241627D
:103EE00070BDC0464C7C0008F0B5D8B00192012AE4
:103EF00000DAB1E0034600200090024604930292EB
:103F000000980C18E278A3781B029A1863781B04B7
:103F1000D3180A5C12069B1818AA1350001D4028DB
:103F2000EFD10391002018AA11184B6812241D46E6
:103F3000E5410724DE08E3416B4073408C6B132599
:103F40002646EE411125A70AEC4174407C404D6A9B
:103F500064191258A218D2180A64001DC028E2D1B0
:103F600010A804993CC93CC03CC93CC040200B90FF
:103F700018A80A9013980990129807901198069023
:103F800010980D9014AF89CF0C90179D334808906E
:103F900005950C980E930F970D9A069F07990D2380
:103FA0001446DC4102231546DD41654016231446C4
:103FB000DC416C400B230546DD4106230646DE410D
:103FC0006E4019230546DD4175400E9B0340059E5A
:103FD0009B195B190F9D85435B19089E20CE08969F
:103FE0005B190A9E20CE0A965B19E4180D463D40E7
:103FF0000E467E4016406E40A4190D94099CE318AD
:104000000C930B9B5B1E0B93059109913946079707
:1040100006920E9F03460F9DBAD13E462C46169738
:1040200015900C9814901795059813901291119271
:104030000D9810900020049B10A909581A58511887
:104040001950001D2028F7D103994031029A521CC3
:104050000198824200D052E758B0F0BDD07F0008EE
:10406000F0B583B015460E460446406A4021091A51
:104070009142174600D80F462018283031463A465C
:10408000FCF71EFA606A40193F2802D8606203B04C
:10409000F0BD029626462836012220463146FFF71B
:1040A00023FF0298C1190191EF1BBA092046FFF7BF
:1040B0001BFF3F25E9430291384608400199091842
:1040C0003D4030462A46FCF7FBF9656240370298CE
:1040D0000740206AC019206203B0F0BD704700009D
:1040E00010B5002A0DD000290CD00A4B1B68002BFC
:1040F00005D01C88844208D01B69002BF9D102200E
:10410000107010BD0420107010BD002010700B60E6
:1041100010BDC046302B002001094140C900484075
:1041200070470000F0B500BA002140220F4C0D4648
:104130006E092F0177407E198F073F0FE759CF197E
:10414000774038184609070177403E18064BC918D2
:104150004F0A0C233B40E358CB1873405D19521EA5
:104160001306E5D128BAF0BD1D0A758F3C7C000806
:10417000B0B5E824114D2951E5216854EC202B50AD
:10418000CB202A54B0BDC046AC0D002080B50449F8
:104190000870012802D10120FEF752FB80BDC04605
:1041A0004408002080B5FEF78DFD0149088080BDE0
:1041B000FE7F0020E421014A50547047AC0D0020DE
:1041C000002801D0022000E001200149087070475A
:1041D0004C08002080B50348A5210170FFF7E2FFDD
:1041E00080BDC046F07F002070470000F0B584B06D
:1041F00001210C043448021F1368234313604D044B
:10420000002316682E4204D1661E5F1CB3423B4653
:10421000F7D3136802932D4B1E68102737431F6096
:104220001E680E430E27BE431E601E6802270397BA
:104230003E430D27BE431E600368F026B343036070
:10424000072300931B0206689E4306600B0601933A
:104250004E0603680F46029929421AD1A343036010
:1042600003681B4C2340009CE4041C430460136857
:10427000019C2343136013683342FCD00268039B04
:104280001A43BA43026001680C220A40082AFAD194
:1042900018E02343036003680D490B40FC041C43F2
:1042A0000460136801990B43136013683342FCD018
:1042B0000268039B1A43BA43026001680C220A4059
:1042C000082AFAD104B0F0BD0410024000200240D8
:1042D000FFFFC3FF80B5FFF789FF80BDB0B5174C66
:1042E000206801252843206060681549014061600D
:1042F0002068144901402160A8042168814321609D
:104300003F20000461688143616060680F21884339
:104310006060FF205430216B81432163606BA843B0
:1043200060630020A060FFF7D5FFE8042168014327
:104330002160E80604490860B0BDC0460010024094
:104340000CB8FF08FFFFF6FE08ED00E018480188F2
:104350004A1C130400D0114601800E4801884A1CF3
:10436000130400D0114601807047C04600207047FA
:1043700080B5FEF7B3FB80BD064801880A46632975
:1043800000D9643A0280632901D8002070470120D7
:104390007047C046D61B002005490888002801D177
:1043A000024600E0421E0A80411E88417047C04616
:1043B000D81B002010B501218C07204600F00BF916
:1043C000012805D10121204600F0BCF8FFF7BEFF0F
:1043D00010BDF0B587B001931646074605A8002426
:1043E0000480049102970392150400F073F8002DE5
:1043F00024D0B84222D1542005A906AF3A46FEF790
:1044000091FB3878002819D130460C3005A909886D
:10441000884213D8542002A90C2206AF3B46FFF76E
:104420007FFB3878002809D1B2B2542006AC01993C
:104430002346FFF775FB207844424441204607B0ED
:10444000F0BDF0B589B017460391029007AD002486
:104450002C80522008AE29463246FEF78EFB30787B
:10446000002828D128880C2825D308AE0096522091
:104470000C2104AA07AD2B46FEF7D2FB30780028AA
:1044800019D128880C2816D104A8818808AD009578
:10449000522007AB3A46FEF7C3FB287800280AD122
:1044A00007A801880598884205D10499029A1160ED
:1044B000039908600124204609B0F0BD80B500F0E2
:1044C00095F880BD80B5FEF79BFB80BD80B5FEF7FB
:1044D00099FB80BD80B5FEF799FB80BD80B5FCF7E8
:1044E000BDFC80BD80B5FCF7E9FC80BDB0B584B0F3
:1044F0001C46154601AAFCF78BFD012803D1019942
:1045000029600299216004B0B0BD80B5FCF74AFE75
:1045100080BD0000084908607047C04680B5FCF7C0
:104520002BFD80BD10B5044C2168002902D08847BE
:104530000020206010BDC046C01B002080B5FCF7E5
:10454000ABFD80BD014A4A4002617047FFFF000099
:1045500010B5184A90421ED0174A90421BD0174AF5
:10456000904218D08A7803681024A343D207D20E51
:104570009A1802608A78120160231A4004689C43EA
:10458000A21802600A7A03231B0204689C43920764
:10459000920D121902604A68C2620A888262084A51
:1045A000904201D1497A1163416901220A43426173
:1045B00010BDC046001000400040014000440140D2
:1045C000002C0140016801220A4302607047C26862
:1045D0000A43C260704702690A4204D0C0680842B8
:1045E00001D00120704700207047000010B5044C36
:1045F0002068002802D080470020206010BDC046FF
:10460000241B002070B51546144E3268824223D117
:104610001C460846FCF745FE114908220A738D60C6
:10462000104A0023137111600F2303408879C025BD
:104630000540E8188871012080070B6803430320B8
:1046400080071840084BC018086072B60748084930
:10465000FDF7FEF862B6B460002070BD3808002097
:10466000281B0020381B0020A1F1DA18006400404C
:10467000D00E00201D480168491C01607047C046EB
:10468000F0B583B00C46054602A8002707700190DC
:10469000FFF76CFE154909680904014301910846BA
:1046A000FEF766FD601E21468141681E2A46824152
:1046B0000A400092012A16D102A807700BE002A856
:1046C00001780E4001AA921912786254491C0170B7
:1046D000CFB2AF4207D203263740032FEFD1FEF708
:1046E0003BFD0190EBE7009803B0F0BD04270020EC
:1046F000014800887047C046CE1B00200148008852
:104700007047C046D01B0020384800887047C0461C
:10471000014800887047C046CC1B0020917250723F
:104720007F2010720320506070470000014908701C
:104730007047C0464608002080B50146032001F0BE
:10474000B3F980BD80B50146052001F0ADF980BD0B
:1047500080B500210A4600F0DDFA80BD10B582B0B8
:104760000246002001900090002A12D00A490B68EE
:104770009C180ED201A96A46184600F0CBFA411ED9
:104780004842484100998C4201D9002100E00121B2
:10479000084002B010BDC046242B002080B5014661
:1047A000002001F081F980BD15480078411E484283
:1047B0004841704712480078811E4842484170477E
:1047C00080B50146022001F06FF980BD03490978E8
:1047D0000840411A484248417047C046C81B002063
:1047E000F1480188484248417047C046CA1B002032
:1047F000034909780840411A484248417047C04679
:104800004408002080B50146012001F04DF980BD2B
:1048100080B50146042001F047F980BDB0B50146DE
:104820004068032801D20020B0BD0831002007A253
:10483000034614780D78A54206D15C1C521C491C15
:10484000012B2346F5D90120B0BDC0462EF19900B9
:10485000B0B501464068032801D20020B0BD083140
:10486000002007A2034614780D78A54206D15C1CEF
:10487000521C491C012B2346F5D90120B0BDC0466E
:104880002EF19800B0B50C4605464868032802D8BA
:10489000287813211CE0607A0004A17A0902081824
:1048A000E17A40180C49884210D1FDF711FF2878B1
:1048B00078212246FFF732FF0B20C0010749215023
:1048C00000F0B6FF06A002F087FFB0BD28783121C6
:1048D0002246FFF723FFB0BDFFFFFF00D1510008C4
:1048E000307831343A204454432052414D20636C97
:1048F00065617265642C204E524320307837382031
:104900007468656E204E564D0000000080B50A4662
:10491000497A7F290CDC002917D0032910D1022104
:1049200051600078403010720CA002F055FF80BD3D
:10493000802901D0832903D100205060107280BDEE
:1049400000781221FFF7EAFE80BD02215160007855
:104950004030107207A002F03FFF80BD0D0A307892
:10496000323820307830332064697361626C65209E
:1049700054580D000D0A307832382030783030200D
:10498000656E61626C652054580D0000B0B58AB048
:1049900007A8002505810895079504A805810595B8
:1049A000049501A805810295019501F033FC0446A8
:1049B000FDF73EFA00283BD0028907A90A818288C8
:1049C000C3881B049A180892028840880004801843
:1049D000079019A0224602F0A5FC002107A8425C1E
:1049E000202013460343202B04D004AB5A54491C07
:1049F0000A29F3D10021625C13460343202B04D023
:104A000001AB5A54491C0A29F5D101A804A90A226C
:104A1000FBF77AFD0446002803D01D48002C03D480
:104A200003E011A0002C00D51AA002F0D5FEE51776
:104A300028460AB0B0BDC04656657273696F6E3ABB
:104A4000204C6F63616C3D5B252E3130735D2C20F3
:104A50006E65775F76657273696F6E3D5B252E318B
:104A600030735D0A0000000056657273696F6E3A1C
:104A70002053616D652076657273696F6E2C2061BD
:104A80006C6C6F772072652D666C61736800000036
:104A90001581000856657273696F6E3A2052656D14
:104AA0006F7465206973204C4F57455220746861BC
:104AB0006E204C6F63616C2C2072656A6563742193
:104AC0000000000080B5002800D080BD0220FFF764
:104AD0005DFB0120FFF72AFEFFF7B2F980BD000061
:104AE00070B50C4605464E7A022E0ED0012E19D115
:104AF0000120FDF7A5FE0220606028786672403034
:104B0000207218A002F068FE70BD0020FDF798FE2C
:104B10000220606028786672403020720BA002F09C
:104B20005BFE70BD30467F30C0B2012807D8813EA1
:104B300070427041FDF784FE0020606070BD2878EF
:104B400012212246FFF7EAFD70BDC0460D0A3078FB
:104B50003835203078303220636C6F7365204454D0
:104B6000430D00000D0A3078383520307830312080
:104B70006F70656E64204454430D00000248018844
:104B8000491E01807047C046CE1B002002480188A4
:104B9000491E01807047C046D01B00200248018892
:104BA000491E01807047C046CA1B00200248018888
:104BB000491E01807047C046CC1B002080B501F023
:104BC000BDFB012805D1FDF767FE411E4842484163
:104BD00080BD002080BD000080B532490422FEF770
:104BE000CFFA80BD70B582B00446002601960096CB
:104BF00000F026FE012C10D11F4800901FA002F0EB
:104C0000EBFD6C4604202071FFF764FC00210522B7
:104C10002346FFF7DEFB02B070BD0EA002F0DCFD04
:104C20006C462220A0701148208001252846FFF7FD
:104C3000ADFA2846FFF77AFDFEF71CFC0C4806701B
:104C4000FFF748FC0B4903222346FFF7C2FB02B0E3
:104C500070BDC04630783331204646303020657212
:104C6000617365204E472121210D00007F31000036
:104C7000D31B0020494D00087101FF00307833310B
:104C80002046463030206572617365204F4B2121EC
:104C9000210D000080B5034801210422FEF7E4FA4B
:104CA00080BDC04664080020C821C1700021817009
:104CB000322242700170704770B50C46054600F014
:104CC0006BFB01280FD0FDF7A5FF02280CD1FDF7E3
:104CD000BFFD01280AD10320FFF76CFA01206060B4
:104CE00028784030207270BD242600E02226FDF78F
:104CF00011FD4121425C0823134343542878314677
:104D00002246FFF70BFD0B20C00198492150FEF70A
:104D1000B1FB70BD70B500230A4C02E00833182BBC
:104D20000ED0E5588542F9D8E61876688642F5D95E
:104D3000002900D00D600120002A02D0166070BD4D
:104D4000002070BDB87F000880B5002800D080BD6D
:104D5000FDF7C4FCFDF752F880BD00000D48007857
:104D60007047C04610B503460020002911D0002A24
:104D70000FD0084C24789C420BD92120C000584306
:104D8000054B1818D423C3580B60D8214058106025
:104D9000012010BD920A0020940A002006480178E4
:104DA000042903D00120022904D102E003200229B2
:104DB00000D108467047C04644080020F0B583B0D3
:104DC0000C460546FFF73CF82046FFF7E7FC0128B4
:104DD00010D10020029001902846214600F0DCFA14
:104DE000012805D02846214600F0C8FA01283ED106
:104DF00003B0F0BD2046FFF79FFC012816D16048A4
:104E0000007800283DD05F4A101D6168814249D179
:104E100021460C315C48FEF7B3F928787821224608
:104E2000FFF77CFC0B20C001584967E02046FFF7E4
:104E3000EFFC012828D150480078002800D187E0F5
:104E4000FFF7A4FD052161602A78012363720B231B
:104E50005B01638140322272C0B2002800D104217C
:104E60002173414241414548017003B0F0BD02A9A0
:104E700001AA204600F0E0F8002828D00146287852
:104E80006AE02878332167E02046FFF75BFC0128C1
:104E90000BD1287878212246FFF740FC0B20C00177
:104EA00034492BE02878132156E02046FFF7AAFC6E
:104EB000012828D1E06800BAFEF788FF2878782119
:104EC0002246FFF72BFC0B20C001294916E0019E6A
:104ED000029F38463146FEF74DFF2DA03946324637
:104EE00002F020FAFDF7A4FCFDF716FC28787821E3
:104EF0002246FFF713FC0B20C0012D49215000F082
:104F000097FC03B0F0BD2046FFF75AFC0146287815
:104F1000012920D113496181012666724030207237
:104F200001F0E6FA012813D1FFF748FE0146287880
:104F3000012910D1042161600B490E7040302072AC
:104F4000FDF716FC0B20C0010849215003B0F0BD4D
:104F50002878222100E012212246FFF7DFFB03B070
:104F6000F0BDC046FF01000066300020494D00083A
:104F7000B5510008055200085F3000206A3000205B
:104F8000683000202A050000342B0020F95000086A
:104F900030783331204646303020657261736520A9
:104FA00030782578206C656E20307825780D0A00E1
:104FB0007152000880B5FFF7A7FB002801D0FFF76A
:104FC000EDFDFFF7A5FB002801D0FFF7EFFDFFF790
:104FD0008FFB002801D0FFF7D1FDFFF78FFB0028E2
:104FE00001D0FFF7D3FD80BD80B50A46497A00297C
:104FF00004D0802908D10020506080BD022151607A
:1050000000784030107280BD00781221FFF786FBD7
:1050100080BD0000034909780140091A484248410F
:105020007047C04646080020704700000D210170FF
:1050300000487047507F0008F0B582B003464468CE
:1050400013200D2C47D31C7B442C44D1587B0006E5
:105050009C7B24042018DC7B24020419187C26186D
:10506000587C00069D7C2D042818DD7C2D024019FB
:105070001B7DC31800279D1901977F413120002B0C
:1050800029D0002F27D1154BF3185B0A164FB62BEA
:1050900005D8134E731C9D4201D2124F08E02346DF
:1050A0003B40134FBB4216D1104E731C9D4212D28F
:1050B00000950D4D2C40BC4200D327460D4B009C63
:1050C000E4182C40B44200D82646BE4203D90F60F3
:1050D000F01B1060019802B0F0BDC046000AFFF757
:1050E0000064020800F6000800FEFFFF0006040846
:1050F00000040408FF01000080B5002800D080BD36
:1051000001F086F9184800F07FFF411C0AD0002802
:1051100018D11648012101701EA002F05DFB00238A
:1051200004221BE0114800210170FDF7F3FA412130
:10513000425C0123134343540DA002F04DFB144B7A
:1051400005220BE0094800210170FDF7E3FA412137
:10515000425C0123134343540D4B0622602000217F
:1051600000F0BAFA80BDC046342B00205F3000202A
:1051700073696E67696E666F202D2D2D2D2D2D4E56
:10518000472D2D2D2D2D2D2D3E3E3E0D00000000D6
:10519000494D000873696E67696E666F202D2D2D6D
:1051A0002D2D2D4F4B2D2D2D2D2D2D2D3E3E3E0DDC
:1051B0000000000080B5002800D080BD0320034916
:1051C0003122334BFEF7D4FF80BDC046C9540008DE
:1051D00010B582B0002101910091002801D002B0E9
:1051E00010BDFDF77BFA00F02BFB6C4654202070BD
:1051F000FFF770F9002101222346FFF7EAF802B019
:1052000010BD000080B5002800D080BD01F000F97D
:1052100000F058FE002804D0FDF776FF054B05226C
:1052200003E0FDF793FF002304220220032100F096
:1052300053FA80BD494D0008B0B50C460546FEF74F
:10524000BCFC09480078012801D1FEF7C3FF0B2000
:10525000C00106492150287878212246FFF75EFADE
:1052600000F0E6FAB0BDC046663000209552000856
:1052700080B5002800D080BDFDF730FA0120034939
:105280003122034BFEF774FF80BDC046E54B00089A
:10529000D559000880B5002800D080BD04A002F0D8
:1052A0009BFA012000060E49086001F0CFF8FEE7E6
:1052B00030783131204D43552072657365743C3C24
:1052C0003C3C3C3C3C3C3C2D2D2D2D2D2D2D2D2DA5
:1052D0002D2D2D3E3E3E3E3E3E3E3E3E0D0000000C
:1052E00024100240F0B581B00C46054648680228FB
:1052F00002D82878132116E0261D28784030207225
:10530000A07A617A0902081887B20CA0394602F027
:1053100009F821460B3138463246FCF761FE002879
:1053200006D0287831212246FFF7F8F901B0F0BD08
:105330003068C01C306001B0F0BDC046696E746555
:10534000722030783232203078253034580D0A00FF
:1053500080B50A4607490978012905D10649097827
:10536000002901D0002080BD00782221FFF7D6F966
:10537000012080BD693000206730002080B50A46DA
:1053800065490978002901D0002080BD00782221DC
:10539000FFF7C4F9012080BD80B50A4605490978A8
:1053A000002901D0002080BD00782221FFF7B6F946
:1053B000012080BD6A300020F0B581B00C46054662
:1053C000FFF7EAFF012871D028462146FFF7C0FF0A
:1053D00001286BD067680A2F01D9012605E02878DB
:1053E00013212246FFF79AF900260B2F009617D3B8
:1053F0003348002101600B2203681B020360A65C96
:105400009B190360521C0F2AF6D141600F2142689C
:1054100012024260635CD2184260491C1329F6D123
:10542000274E3068FFF794F9012809D17068FFF71B
:1054300095F90B2F21D30128214F009E04D109E0BB
:105440000B2F3746009E05D3287831212246FFF7DF
:1054500065F90026002E14D00120C0043968890A9D
:1054600081420ED0FDF7DAFD01280AD028782221EA
:105470002246FFF753F9002603E0114F009E002E4D
:10548000EAD1002E14D001263046FEF793FE03CF5A
:10549000FEF754FC042060602878412149026181B4
:1054A0002021617207490E704030207201B0F0BDBA
:1054B000FDF7E0FF0020FEF77DFE01B0F0BDC04625
:1054C000242B002001270020F0B583B006460024DD
:1054D00001940094401E4542454100F0B1F90E4848
:1054E00005700525012E01D0284600E004206F46F6
:1054F00038710A480090012E01D010A000E008A0E9
:1055000002F06AF9FEF7E6FF21462A463B46FEF71F
:1055100060FF03B0F0BDC04665300020710102029B
:10552000307833313A2030323032204352432063D6
:105530006865636B204F4B212121000030783331A7
:105540003A20303230322043524320636865636B27
:10555000204E47212121000070B506464C7A601E7E
:1055600011283AD80D46C046784400794000874457
:10557000081D34343434343434343434343434342E
:10558000081D30784030287204203549FFF778F83C
:10559000002823D028460A30FFF71EFB062068604B
:1055A00030A02F4A214601F0BDFE70BD28460A30CA
:1055B00000F04CFA002818D00220686030784030A3
:1055C0002872FFF767FB1148012101700320FFF7E4
:1055D000ADF80FA0214601F0A5FE70BD3078352151
:1055E0002A46FFF79BF828480BE008480021017085
:1055F0000120FFF79BF8307835212A46FFF78EF817
:105600000DA0214601F08EFE70BDC046683000201E
:10561000307832372030782578206B6579206D61BD
:105620007463682C20736563206163636573732002
:105630004F4B0D0A000000003078323720307825BB
:1056400078206B6579206D69736D617463682C20B7
:1056500073656320616363657373204E470D0A00B1
:105660006408002030783237203078257820637243
:10567000656174652073656564206F6B2C207365AC
:1056800065643D25730D0A00D0800008B0B5FFB0F9
:10569000FFB0E4B001ACE2492046FAF72AFF25202A
:1056A0000501FEF717FF2581022102910190204696
:1056B0000A30FFF7F9FA0B20C001064921500622F3
:1056C0000292019808342346FEF783FE7FB07FB034
:1056D00064B0B0BDC54A0008F0B585B00193164668
:1056E0000F46044600200390029000F0A9F802AD96
:1056F0002E71EF70AC70FF2072302880FEF7EAFE4A
:10570000052201992B46FEF764FE05B0F0BD0000AE
:1057100070B50C46054600F085F8287840302072B8
:10572000667A20460A30FFF7BFFA06206060802EB6
:1057300006DC012E0AD0022E20D0032E11D03AE032
:10574000832E0ED0822E19D0812E34D10120FEF767
:105750001DFD2EA002F040F8812E31D100206060A6
:1057600070BD0420FEF712FD16A002F035F8832E5E
:1057700001D100206060FEF763FB70BD0220FEF7E0
:1057800005FD16A002F028F8FEF740FB184900209E
:1057900008701849087018490870184908701849A5
:1057A00008701849087018490870822E00D160608E
:1057B000FEF746FB70BD287812212246FEF7AEFFA9
:1057C00070BDC046696E74657220455854454E449C
:1057D00045445F534553530D00000000696E7465E6
:1057E000722050524F4752414D5F534553530D0065
:1057F0005F3000206A3000206530002068300020D3
:10580000693000206730002066300020696E7465C2
:10581000722042415349435F53455353494F4E0D04
:10582000000000000148322101807047CE1B00209B
:105830000648012101707D2000010549088070475C
:10584000024800210170024801807047D21B0020ED
:10585000D01B002010B50446FEF738FEA04201D14F
:10586000012005E0FEF72EFE001B414241414800A9
:105870000149087010BDC046C81B0020F0B581B0BA
:105880000C460546FFF788FD012801D101B0F0BDA7
:105890004B480178002901D101210170607A494902
:1058A000087049480678FDF7B5F9012801D024228F
:1058B00000E00022411E4F424F41012805D161689E
:1058C000832902D3287813210FE03E490978012863
:1058D00012D13D48007888420ED0701E39490978AF
:1058E000C0B2884206D1287873212246FEF716FFFF
:1058F00001B0F0BD73220027002F1FD01646334899
:105900000068626821460A31921EFDF7D3FF012824
:1059100007D12D490878401C08703246002F04D169
:105920000CE022220027002F08D0284B186861685D
:10593000891E401818605868401A5860002F0BD014
:1059400022484068002807D100201F490870022023
:105950001646FEF72FFC3246002F0DD0C9201C49F9
:10596000095C2878002922D078212246FEF7D6FE4D
:10597000FFF75EFF01B0F0BD1646FCF7CBFE4121FC
:10598000425C082313434354287831462246FEF7ED
:10599000C5FEFDF76FFD00252846FEF70BFC0B202A
:1059A000C001E44921500848057001B0F0BD022152
:1059B000616040302072E0480078607201B0F0BD54
:1059C000680800206C30002001270020242B0020D4
:1059D000AC0D002070B5FFB0FFB0E4B00D46064638
:1059E00001AC0F492046FAF784FDFEF773FD0190E4
:1059F000782130462246FEF791FE0B20C601094869
:105A0000A051FFF715FF10480560A1590198029AAF
:105A100008342346FEF7DDFC7FB07FB064B070BD74
:105A200084050000295A0008B0B50446002801D1B9
:105A3000FEF706FA044D2968002903D0204688475E
:105A400000202860B0BDC0460C2B002010B50028F7
:105A500014D00446124801780906427812045118FD
:105A6000827812028918C07808180E49097802292C
:105A700006D0042902D1FEF74FFB03E0002010BD41
:105A8000FEF750FB21780906627812045118A278BB
:105A900012028918E2788918411A4842484110BD1B
:105AA0006408002044080020B0B5042804D840B29F
:105AB00080000DA2125800E00AA2486804280ED304
:105AC00008310020034614780D78A54208D15C1CEB
:105AD000491C521C022B2346F5D90120B0BD0020E1
:105AE000B0BDC04631010203488100086C7C00084B
:105AF000707C000811810008747C0008B0B5014674
:105B0000406803280FD30831002008A20346147808
:105B10000D78A54208D15C1C491C521C012B234660
:105B2000F5D90120B0BD0020B0BDC0462EF15A000D
:105B300070B50C4605464E68032E0AD3607AF128EC
:105B400007D1A07AEF2801D0902802D128783121FE
:105B500054E02046FFF7D2FF01280FD120460B303A
:105B6000F11EC9B2FEF714F90320606028785A21AB
:105B7000A172F12161724030207270BD2046FEF7A3
:105B800067FE012814D128462146FFF705FC0128AD
:105B900031D02079C01EC2B2102A2DD121460B313E
:105BA0003E48FCF79DFB00282CD001463CA018E0A5
:105BB0002046FEF733FE012818D128462146FFF77C
:105BC000EBFB012817D02079C01EC2B2042A13D1E2
:105BD00021460B311B48FCF783FB002822D00146ED
:105BE00019A001F09FFB2878222107E028781221D4
:105BF0002246FEF793FD70BD287813212246FEF75A
:105C00008DFD70BD0320606028789821A172F1217C
:105C100061722C4901220A70403020722A4801F03A
:105C2000DBFD70BD0320606028789921A172F1210D
:105C300061720E4901220A70403020720CA001F0FE
:105C4000CBFD70BD99F100003078324520307846A8
:105C50003139393A205772697465206661696C651B
:105C6000642C207265743D25640A000067300020B2
:105C700030783245203078463139393A20577269C8
:105C8000746520526570726F6772616D6D696E67C1
:105C90002044617465204F4B0000000098F1000023
:105CA00030783245203078463139383A2057726999
:105CB0007465206661696C65642C207265743D258D
:105CC000640A000069300020EF80000870B582B0DF
:105CD0000446002601960096FFF7B2FD012C0ED176
:105CE0006C4676202070144800786070FEF7F2FB56
:105CF000002102222346FEF76CFB02B070BD6C4609
:105D00002220A0700A48208001252846FEF73EFA8E
:105D10002846FEF70BFDFDF7ADFB66480670FEF763
:105D2000D9FB044903222346FEF753FB02B070BDA2
:105D30007F360000494D00086C300020E120400112
:105D400070477047F0B5FFB0FFB0E7B004A85849FE
:105D5000FAF7CFFB03A800270770FEF78BFCFEF7CE
:105D60003FFD01281AD1534D5348406800280AD0FE
:105D70002878022807D0012810D8FEF761F84F488C
:105D8000012101700AE001242046FEF7FFF92046B8
:105D9000FEF7CCFCFDF76EFB0020287004A8011D67
:105DA000064608363246FEF74CFB012878D1012022
:105DB000FFF73AF941480178012905D10021017026
:105DC0003C480178491C0170FEF7EEFC012801D027
:105DD000FEF736F80498FFF73DFD03A8FFF726F914
