:020000042000DA
:1000000011000000390000003D000000DB0000008E
:1000100010B504460748814208D100F061F8204637
:1000200000F096F8044600F067F800E0022420464D
:1000300010BDC0465AA55AA500207047F0B595B02E
:10004000002A47D014460546002005AAFF2717546A
:10005000401C4028F9D13F2008408E090490002818
:1000600000D0761C00F03CF8002E2DD00196701EBA
:1000700002900026402102988642049800D008464B
:100080000395049A002A00D10846002808D00021D0
:100090000A46635C05AD6B54521CD1B28842F8D855
:1000A000032105AA039D284600F078F8002205A93F
:1000B0008F54521C402AFAD1002806D1761C4034B5
:1000C000403501988642D5D10020044600F014F84E
:1000D000204600E0022015B0F0BD0020704700006F
:1000E000024803490160034901607047042002404F
:1000F00023016745AB89EFCD0248016880220A439E
:10010000026070471020024008480068410707D489
:10011000C10607D4C10707D1810B042008407047EE
:100120000220704703207047012070470C200240D6
:10013000B0B501210C1A651CFFF7E6FF012802D1BA
:10014000002C2C46F7D1012D00D10520B0BDC046B2
:10015000F0B581B0044601204002A10C814217D1C4
:100160000B2005042846FFF7E3FF002811D10A4EB3
:1001700030680227384330607460306840210143A2
:1001800031602846FFF7D4FF3168B943316000E0A1
:10019000022001B0F0BDC04610200240F0B583B08F
:1001A00015460E46029001277C032046FFF7C0FF4C
:1001B000002827D10194144C20683843206020681F
:1001C00012490840B107890A401820606068029807
:1001D0006060B0000EA1085821463031002208CDE1
:1001E00008C1521C8242FAD3206840210143216099
:1001F0000198FFF79DFF2168044A114021602168A2
:10020000B943216003B0F0BD10200240FFFFCFFFD3
:1002100002000000040000000800000010000000C0
:04000005200020C1F6
:00000001FF
