:020000040800F2
:10000000E07F002015040008292600087F22000850
:1000100000000000000000000000000000000000E0
:10002000000000000000000000000000F5300008A3
:1000300000000000000000007D2700089531000846
:100040000000000027040008270400082704000817
:1000500027040008270400082704000827040008D4
:1000600027040008270400082704000827040008C4
:10007000270400082704000827040008513300085B
:1000800027040008270400082704000827040008A4
:10009000000000002704000827040008451C000891
:1000A000270400082704000800000000D93F0008CA
:1000B000DB3F000827040008270400082704000885
:1000C0000000000000000000000000000000000030
:1000D0000000000000000000000000000000000020
:1000E0000000000000000000000000000000000010
:1000F0000000000000000000000000000000000000
:100400000348854600F058F800480047A14300081B
:10041000E07F00200448804704480047FEE7FEE7ED
:10042000FEE7FEE7FEE7FEE7793200080104000878
:1004300003460B439B0703D009E008C9121F08C0FD
:10044000042AFAD203E00B780370401C491C521EA8
:10045000F9D27047D2B201E00270401C491EFBD2B3
:1004600070470022F6E710B513460A4604461946BF
:10047000FFF7F0FF204610BD70B50446002903D0F9
:1004800000202022012310E0002801D00020C043DA
:10049000C046C0460DE02546D5408D4205D30D46E9
:1004A0009540641B1D46954040191546521E002D6F
:1004B000F1DC214670BD0000064C0125064E05E02A
:1004C000E36807CC2B430C3C98471034B442F7D375
:1004D000FFF79AFF3C4500086C450008704780B55F
:1004E00001F0CEFE01F04AFF80BDB0B5034600200A
:1004F000082B16D30B78F0241C40102C11D14C780B
:100500001B071B0D1B1908D1891C002423460D5DF8
:100510001B025B19641C042CF9D1082B01D3136056
:100520000120B0BDB0B503460020022B03D30C78E8
:1005300025062D0F00D0B0BD0F252C40092B09D367
:10054000002CF8D14C78611E3D29F4D8591EA142E7
:1005500006D2F0E7591E8C42EDD8611E0629EAD872
:1005600014600120B0BD0000F0B587B0054605AEAF
:1005700000243480542006AF31463A4601F090FD05
:10058000387800282BD130880C2828D306AF009764
:1005900054200C2102AA05AE334601F0C3FD387881
:1005A00000281CD130880C2819D102A8818806AFF8
:1005B0000097C24E32461032542005AB01F0B2FD16
:1005C000387800280BD105A801880398884206D105
:1005D0000299B1602870049802F068FF0124204657
:1005E00007B0F0BDF0B587B0074605A80026068025
:1005F000002928D00C460192522005A906AD2A46B2
:1006000001F026FD287800281DD105A80088214684
:100610000C31814217D80026049603940297522089
:1006200002A90C2206AD2B4602F0F6FB2878002822
:1006300009D1522006AD019922462B4602F0ECFB6F
:10064000287846424641304607B0F0BDF0B583B049
:100650000D460446774B9888002808D0277A002654
:10066000002F02D02078012805D130464AE0002032
:100670002870032046E0617A202903D200202870E8
:1006800006203FE0F0220A400920202A3AD1626881
:100690009B68934236D10F200140664B1878814207
:1006A0001DD102909A89781EC0B21118D889814252
:1006B00017D20192D649088A002825D05A7890424C
:1006C00022D8488B09781F46FFF7D6FE3B46D14912
:1006D0000860B88007202870B989277A25E00420AF
:1006E00010E01146821A1E46103670180A34214650
:1006F0001C4601F0F7FEA068E1893246FFF772FF61
:100700000020287003B0F0BDC88B09781D46FFF7A4
:10071000B3FE2B46A880DF4908600298401CC1B296
:100720000F2900D90020019918705818103021465F
:100730000A317A1E1D4601F0D5FEA889217A0818D3
:10074000401EA88191E7C046F0B583B001910646EE
:10075000CE4DA87B02A9087036480027A824394648
:10076000224601F02FFF28463946224601F02AFF93
:10077000EF480760384602F099FE307800280BD029
:1007800002A8FFF7F1FE012813D102A80078E88142
:10079000072809D906200AE0707A0009012805D047
:1007A000002806D1012002E0052000E00220019986
:1007B0000870002003B0F0BDF0B581B004460027FA
:1007C0000097007A0926002830D00D4621780129AB
:1007D0002CD0617AF0220A40102A27D12146093113
:1007E0006A46FFF782FE012820D1124E0098F08160
:1007F0006068B060DB49488B0978FFF73DFEB08048
:10080000DA490860227A3046103021460B31921EB8
:1008100001F068FEB089217A0818801EB081072097
:10082000287027726760012020703E46304601B074
:10083000F0BDC0463C12002070B50D46CA4EB188CE
:10084000002923D0017A0024002935D0017801291C
:1008500032D0417AF0220A40302A1BD10F221140B7
:10086000022919D001291BD0002922D1817A717067
:10087000C07A87490880EE49888B0978FFF7FCFD2C
:10088000B080EC4908600820287015E0002028702E
:10089000032411E009240FE00020287008240BE055
:1008A000E349088B0978FFF7E7FDE2490860B0806B
:1008B00002E0002028700524204670BDE4120020CC
:1008C000F0B581B0064600270097007A0924002879
:1008D00018D00D463178012914D0717A0F2911D81A
:1008E000314609316A46FFF71DFE01280AD16846E4
:1008F000018870680A363246FFF774FE002801D07E
:100900002F703C46204601B0F0BD000010B572B615
:100910000948017862B6022909D001290BD1074C98
:100920002068002807D080470020206010BD0349C0
:1009300000220A60027010BD98130020941300205A
:10094000F0B585B0002003900290E04F7A88002A2D
:1009500059D1B88800282CD00191022002AE31462E
:1009600000F068FA3078F0210140387808433070A0
:10097000FC89BD89032000F065FA244800F054FA90
:10098000641BE5B2B88939181031701C072D13D3D8
:10099000072201F0A7FDB868E2490A6A00924C6A92
:1009A000082102AACB4BA047012822D1B889C01D3B
:1009B00013E00220002525E02A4601F093FDB868E7
:1009C000D8490A6A00924E6A611CC9B202AAC14B98
:1009D000B04701280DD1B8894019B881D149888A1A
:1009E0000978FFF749FDB880CD4908600020092546
:1009F00007E0022000F026FA0025284600F014FA4D
:100A0000092001990D7005B0F0BDC046190A000813
:100A1000704500089C13002070B5AC4DE889A98989
:100A2000814220D21A480088BE4E34782146FFF712
:100A300023FD68806878002803D0401E6870000697
:100A400018D0A94808210170B08B2146FFF714FD8A
:100A5000A880B34908602878401CC1B20F2900D98A
:100A60000020287070BD0024204602F027FDEB48CE
:100A7000047070BDE94803210170308B2146FFF7F7
:100A8000FBFCA880A649086070BDC046E4120020A7
:100A9000901300209C130020F0B585B00E46002571
:100AA00003950295894CE089082832D301200196EC
:100AB00002AE314600F0BEF9E089717801437170F1
:100AC0003178F0220A40000A10433070032000F011
:100AD000B9F9164800F0A8F9B01C214610310622D9
:100AE00001F000FDA068CE4C216A0091676A0821E0
:100AF000784B3246019EB84701280DD1A08A217853
:100B0000FFF7BAFCE2490860E04988800020092527
:100B100009E00820052506E0022000F093F92846A8
:100B200000F082F90920357005B0F0BD350B0008E2
:100B30009C13002080B5B94803210170B849088B87
:100B40000978FFF799FCD14988808A89921D8A81AA
:100B5000CF4A10600878401CC2B20F2A00D900208A
:100B6000087080BD70450008E41200209C1300202E
:100B7000F0B585B0002503950295C34CA0880028E8
:100B80003CD10191032002AD294600F053F9A44F56
:100B9000388A6870002802D06078401C6070B87C89
:100BA00002AEB070F88A3978FFF766FCA080B849C9
:100BB00008602078401CC1B200250F29294600D8C2
:100BC00001462170032000F03DF90E4800F02CF999
:100BD000386A0090F8687C6A08213E4B3246A0478C
:100BE000012801D1092607E0022000F02BF9002698
:100BF000304600F019F9092501980670284605B01D
:100C0000F0BDC046090C000810B59F4CE08996283D
:100C100009D88349C88B0978FFF72EFC9C490860E6
:100C2000A080042000E000207C49087010BDC04670
:100C3000704500089C130020F0B585B0002603968F
:100C400002969248C0890925072801D9062639E06D
:100C5000002837D00191002602AF3046394600F017
:100C6000E9F80F20029C84438849CA8914433C70E8
:100C7000781C103101F036FC032000F0E3F8144832
:100C800000F0D2F881488068654A116A0091611CC1
:100C9000C9B2546A0F4B3A46A04701280BD16049AC
:100CA000888A0978FFF7E8FB7949086077498880E6
:100CB0000025092605E0022000F0C4F8304600F0C7
:100CC000B3F801990E70284605B0F0BDE41200207B
:100CD000D90C0008950E000810B50024204602F03B
:100CE000EDFB4E48047010BD38120020B0B56848C6
:100CF0000068002811D10C464948C06A002800D07D
:100D000080470225284602F0D9FB284600F09AF8D1
:100D10000025284600F088F825700020B0BDC046A8
:100D20009C1300207045000810B582B09620522117
:100D300001AC224601F0D0FC2078002800D0FEE76C
:100D40003220542101AC224601F0C6FC2078002854
:100D500000D0FEE74B208000722101AC224601F05A
:100D6000BBFC2078002800D0FEE76420742101AC91
:100D7000224601F0B1FC2078002800D0FEE702B046
:100D800010BD000070B586B01FA001A90CC80CC131
:100D90001CC81CC1214C2078092811D001AA101DA3
:100DA0001146083109321E4B9B6A9847012807D12A
:100DB000029803F0F3F9012802D101A80021017083
:100DC0000020184D0646F1006A5C2378934204D156
:100DD0006818426801A821469047C1B2002905D091
:100DE000062901D1002602E000212170761C0A2E7E
:100DF000E9D301A800210172012202700291FFF7DC
:100E000085FD06B070BDC046010000000000000076
:100E10000000000000000000000000003812002068
:100E200070450008C4450008014908607047C04685
:100E3000941300200A780F2313400001181808703B
:100E400070470000154908707047C0460E48418839
:100E5000002901D0491E41808188002901D0491E06
:100E600081800A484188002901D0491E418081883B
:100E7000002901D0491E818005480168002901D060
:100E8000491E01607047C0463C120020E412002059
:100E90009C13002001480121017070479813002025
:100EA00080B500F005F880BD80B500F001F880BD88
:100EB00070B5136800290BD0074C0578DEB26E4080
:100EC0007500655B1B0ADBB26B40401C491EF4D108
:100ED00002489843106070BD6C460008FFFF000098
:100EE00001207047F0B589B002920391074607AD23
:100EF00000242C80742008AE2946324601F0D0F838
:100F0000307800282BD128880D2828D308AE0096E9
:100F100074200C2104AA07AD2B4601F003F93078A8
:100F200000281CD128880C2819D108AC0094B9B22B
:100F3000742007AB039A01F0F5F82078012400280B
:100F40000DD107A80088B84209D10598B84206D843
:100F500004A8029D0EC80EC54D48069901602046A2
:100F600009B0F0BDF0B595B0054601A80024048095
:100F7000082901D9204629E00E460092722001A9D5
:100F800014AF3A4601F064F83978012000291DD1E8
:100F900001A90988324608328A4217D80296039579
:100FA000722002A9082214AD2B4601F035FF2878E3
:100FB000002820460AD102A80288722014AD0099A8
:100FC0002B4601F029FF29784842484115B0F0BD71
:100FD000F0B599B015460391029017A8002404803B
:100FE00016AE348004A84821FFF73BFA722018AFF0
:100FF00031463A4601F054F83878002832D130882A
:1010000008282FD318AE00967220082104AA17AB27
:1010100001F088F816A83178002923D10088082823
:1010200020D304AA118818A800900832722016ABA9
:1010300001F078F8059E304603F0B0F8012811D190
:10104000029806600498039908700124002809D0CA
:1010500000210A4604AB5B181B7A6B54521CD1B2B8
:101060008842F7D8204619B0F0BD00000749086053
:101070007047C04680B505480068002803D0804707
:1010800003480021016000F0C1FD80BD8C130020E9
:1010900008120020F0B58BB00D460027099708977D
:1010A00007A90F80082D33D8019302900392742072
:1010B00007AE0AAC3146224600F0CAFF2078012470
:1010C000002826D13088142823D3019806900820C0
:1010D00005900298049008A803992A4601F002FAA4
:1010E000742004A90C220AAD2B4601F095FE287845
:1010F000002809D1742008A908220AAD2B4601F066
:101100008BFE2878002804D074200AA903F01EF969
:101110003C4620460BB0F0BD01228A40D823C0587F
:101120001040C840704701228A40CC23C05810406C
:10113000C8407047016570473F290AD898301F2979
:1011400003D801228A4002607047203901228A4078
:1011500042607047192803D30F3000090B307047E5
:10116000092802D3C01C8008801D7047F0B585B0E7
:10117000049000293CD00F460293039217200001EF
:10118000081801901120000108183F21CC43214686
:101190002031421820230025D554491CF9D31320AF
:1011A00000013E18049800F093F8311940228D5444
:1011B000641CFAD301990D704D700006029901D19B
:1011C0000C480760039A3A6079600720C105002A3D
:1011D00003D0049800F01BF802E0049800F00CF82B
:1011E00017200F2101F070FA18200E2101F06CFA7F
:1011F00005B0F0BDBC130020426D8A4342657047C4
:1012000001228A40E0214358934343507047C26D06
:1012100001231343C365826D8A438265426D0A438D
:101220004265704701228A40E021435813434350EE
:101230007047000004480168012291430160016881
:10124000C907FCD07047C0461864004070B500293B
:1012500010D014461F2A0DD80D4606462146FFF72A
:10126000CFFF3046214600F022FC28191121090148
:101270000022425470BDB0B500290ED014463F2A5A
:101280000BD80D462146FFF757FFA0002818002174
:1012900081602819132212018154B0BDB0B5002A13
:1012A00014D014460D46012903D0002D0ED1012182
:1012B00000E01021FFF7A0FFA80020182121C9009D
:1012C000002242506019172109014254B0BD0000AC
:1012D00010B500228B4B14462146984203D00124BE
:1012E000D2072246F8D0084610BDC0463F2901D992
:1012F00000207047AC3002695205520F052A02D314
:1013000092000A3A00E0121D4A4391000068254A03
:10131000024088187047C0460146A031CB690722B9
:101320001A40052A03D39200074BD21800E0121D81
:10133000A023C05849688904890E51438900194A7D
:10134000024088187047C046F6FFFF3F0146B031A3
:10135000CA685206520F052A02D392000A3A00E0E8
:10136000121DB023C05849688909FC230B40534320
:101370000C490140581870471F2901D900207047B7
:10138000C030836807221A40052A02D392000A3A25
:1013900000E0121D4A4391000068024A024088188A
:1013A0007047C046FCFF0000F0B583B001910546D0
:1013B000002608240290F7B22846394600F0A6F825
:1013C000002818D0686D000315D5019D2A59029890
:1013D000394600F0ABF8029829463A46FFF74BFF32
:1013E0002F68029D002F06D00199486800900322C3
:1013F00028463346B847241D761C402EDBD103B067
:10140000F0BD0000F0B581B00D46044600F023F9B0
:10141000A87A01280BD1A06980210143A161A069AC
:1014200020210143A1612069102101432161E87A53
:10143000012807D1A06980210143A1612069102101
:10144000014321612E460E36287B012803D1A06975
:1014500020210143A1612046314600F07DF9287A20
:10146000012804D101200002A1690143A161687A29
:1014700001282CD101273802A1690143A16178021A
:10148000A1690143A1612046314600F08BF9A87A99
:1014900000281CD1E87A002819D1F805E168014339
:1014A000E160A16C0B480140A164E97D891CAA8A16
:1014B000531C4B437F210A02A16C7E2B05D80140AF
:1014C000180210400843A06401E01143A16401B078
:1014D000F0BDC046FF80FFFF80B5012A0CD0052A71
:1014E0000CD100F0C5F8064B7B4818600548002178
:1014F000054A00F08DF880BD00F02AFB80BDC04693
:101500000412002000640040D80C00203F2901D9BB
:101510000020704798301F2901D8026801E0203967
:101520004268CA40012010407047000070B5002A90
:101530001AD01446FFF7DAFEF049425822604118EB
:1015400048686060A0790F220240644B985C0028D4
:101550000CD008310834002005464E5D66559E5C6F
:101560006D1CB542F9D370BD012070BD002070BD67
:1015700070B5144602460120012947D8002C45D0F9
:101580001546A435002920D0296949063ED01046C9
:10159000FFF7DCFED949425822604018416861607B
:1015A000A2790F2111404D4A535C002B08D008301E
:1015B00008340023C65CE654565C5B1CB342F9D386
:1015C00028698004800E68611FE0296849061DD0E3
:1015D0001046FFF7A1FEC9494258226040184168F1
:1015E0006160A2790F2111403C4A535C002B08D066
:1015F000083008340023C65CE654565C5B1CB342DA
:10160000F9D328688004800E6860002070BDC04651
:10161000F0B581B0012401291AD8002A18D0002B76
:1016200016D0551817263601AF5D002F10D1AC1912
:10163000052525708C0012192124E4001B68135124
:10164000012901D1102100E00121FFF7E0FD002474
:10165000204601B0F0BD816901220A43826181699F
:10166000C907FCD0816902220A43826170470000E9
:10167000F0B593B001A808304021FEF7F2FE164DF8
:10168000A8790F2101401548445C01942E68144844
:101690000068400003D507204007864301E0F000C2
:1016A000460D0296002C13D0304600F0A9FE01280A
:1016B0000ED101AF08370835384629462246FEF7D5
:1016C000B7FE304621463A4601F004FF012801D119
:1016D00013B0F0BDFEE7C046BC1100200508002095
:1016E0000C120020F0B581B00124002931D016463B
:1016F000002A2ED0054630793F282AD80F460818F0
:1017000011210A01815C002923D180183168096800
:101710008900009201D5042100E0032101703268A4
:101720003179284600F0C8F93179002804D07818BA
:101730000021009A81540CE02846FFF773FD012038
:1017400041022846FFF763FD3179284600F0AAF9E7
:101750000024204601B0F0BDB0B500291FD0002202
:10176000C2610B797F221340C4699443E318C361BB
:10177000CB78FF242402C569A5431B02EB18C36183
:101780000B88C469064D2540DB05DB095B19C36185
:1017900089785206C369934349065918C161B0BD9F
:1017A000FFFF00FEF0B500282ED000292CD00F2618
:1017B000F443C2682240C260F022D543C2682A4086
:1017C000C260C268114B1A40C260C768104A174015
:1017D000C7600F7A3740C6682640F419C4608C7A17
:1017E000C6682E402407240E3419C4604C7AC5689C
:1017F0001D40E306DB0C5B19C360C988C368134056
:10180000C906C90AC918C160F0BDC046FFE0FFFFA4
:10181000FFFFE0FF70B54A7A0C7A8023C35880300E
:10182000002C11D001242240A3439A1802608A7A26
:1018300003680C24A3439207120F9A1802607F22B8
:1018400012040830114B10E00224A343D207920F78
:101850009A1802608A7A03683024A3439207920E92
:101860009A1804C0FF221204094B0C683D4D254014
:1018700004683D4E2640741904604968090411400B
:1018800002681A400A43026070BDC046FFFF80FF35
:10189000FFFF00FF70B50A68324B1340A022845846
:1018A000314D2540EB1883504B6884587F252E041A
:1018B000B4435B065B0AE31883508B6884582D069B
:1018C000AC435B065B08E31883500B7B845801250F
:1018D000ED07AC43DB07E3188350497B0722114037
:1018E000A030C36993435918C16170BD9200964BF3
:1018F000D2180968006811507047C046005C00406B
:10190000B0B54A688B689A18202A29D8C0300A686E
:10191000144B13400268144C1440E21802604A68E9
:101920003F231C040568A5439206920AAA18026088
:101930008A681B0604689C4392069208A2180260FB
:101940000A7B01239B0704689C43D20752081219A3
:101950000260497B072211408368934359188160D4
:10196000B0BDC046FCFF00000300FFFFF0B589B02A
:10197000002900D191E00C4605462120C00008183E
:1019800002902846C0300890286D01210391490239
:101990000491059506940721CE05064014D0102227
:1019A0000792059D28463146FFF7C4FB2768002FA4
:1019B00006D06068009028462146079A3346B8470B
:1019C000286D0028E7D168E0049E304211D1C1079C
:1019D00035D10107082200291646E1D4C1063DD4BD
:1019E00001064BD401034CD42D4908401122064670
:1019F000D6E7089800688002800E039AD0D00024B1
:101A00002746059DFEB228463146FFF785FB002894
:101A100009D00898006AE040C00704D0284606991B
:101A20003246FFF713FC7F1CFCB208980068800266
:101A3000800E8442E6D3039A049E069CB0E7029887
:101A40000268002628463146FFF792FD28463146B7
:101A50002246FFF723FC01260522A1E702984268EF
:101A60000126059D28463146FFF782FD284631466E
:101A70002246FFF713FC10260A2291E780260D224A
:101A80008EE70120C604059D28462146FFF78CFC01
:101A900028463146FFF74EFB92E709B0F0BDC0463D
:101AA00066FD77FC01228A40D02142507047012216
:101AB0008A40D42142507047F0B593B014460E4688
:101AC000074603A84021FEF7CCFC0125002C38D0A6
:101AD00038463146FFF727FB002832D138463146D9
:101AE000FFF74AFC2168184A8150801861684160FC
:101AF000A2790F210A40154B9B5C002B20D002914C
:101B00000830257B00221746AF42164601D2A66850
:101B1000F65D03A9CE557F1CBB42F5D1002B0FD03B
:101B2000002603AB0196029F084D02CB02C0A179AB
:101B30003940695C321DD6B28E42F6D3019D00E079
:101B40000025284613B0F0BD005C004005080020C9
:101B500010B5044CA068002802D080470020A06087
:101B600010BDC0463808002010B582B00024019492
:101B7000009401A8694600F097F9CC21084A515811
:101B8000019B994208D3D023D2585118009A914210
:101B900002D2401E44424441204602B010BDC0461D
:101BA000B40B002080B503480021017001F0D0FA89
:101BB00080BDC046F17F002080B50648002101604D
:101BC00005480160054801600548016001F0C0FA60
:101BD00080BDC046FC7F0020F87F0020F47F0020FD
:101BE000F07F0020B0B50446064D2868026806491B
:101BF00020469047002803D128684168204688473E
:101C0000C0B2B0BD281200205AA55AA510B582B0A6
:101C100001AC002020707420214602F097FB21784F
:101C20004842484102B010BD80B5044908600448EC
:101C3000006880F308880868804780BD500800204D
:101C400000F8000880B5034801680348FFF78EFEDE
:101C500080BDC046BC1300200064004010B507489A
:101C60000021074ACB430124E406046042608160FE
:101C7000C16001614161836110BDC046BC0C0020A0
:101C8000409C000003460020002B05D1002903D111
:101C9000052040061060012070470000F0B585B0B7
:101CA00014460D46074600260496039603A904AA87
:101CB00000F0A6F800282AD0384600F049F8A842DB
:101CC00025D90498002822D00194012800D80120A9
:101CD00002900021039A924B0F46CC0016591E42E7
:101CE00000D07F1C0B48064014196468A64205D238
:101CF000BD4209D09E19761C7F1CF7E7491C02984B
:101D00008142EAD1002602E00198066001263046B1
:101D100005B0F0BD00FEFFFFB0B500280BD00749AD
:101D2000074A084B084C094D056044608360C26057
:101D300001610120B0BD0020B0BDC046C51D000836
:101D4000A51E0008191E0008BD1E0008F51D00088C
:101D5000F0B583B000240294019402A901AA00F016
:101D60004FF800280FD0019D002D0CD00026029FB7
:101D7000344639687868411A00F008F804190837C1
:101D8000761CAE42F5D3204603B0F0BD10B5024636
:101D9000634B04461C40581C81420BD9480A194227
:101DA00000D0401C002C0AD0891819408C4200D069
:101DB000401C10BD6018991C884201D3022010BD40
:101DC000012010BD70470000002801D0002070479E
:101DD00003480860B7204002106001207047C046E9
:101DE00000F60008002303708120800008600420B2
:101DF0001060704780B500F0C5FA012080BD00007A
:101E0000002801D00020704701201060014A0A60BC
:101E10007047C046B8450008F0B585B015460E4677
:101E20000024E14303910291072117460F4072B647
:101E30000CD0082D0DD90191194A2A40314604468B
:101E400002F036FA002818D0002013E0AAB231467A
:101E50000BE0002D07D02146325D02AB1A55491C1C
:101E6000CCB2AC42F8D302A9082202F021FA014612
:101E70004042484162B605B0F0BD0198854300205C
:101E800001464219B25C02AB1A54491CC8B28742DF
:101E9000F7D8281902A9082202F00AFA0120E9E776
:101EA000F8FF000001207047012253070360024839
:101EB000086010467047C0460004002080B5490203
:101EC000FFF790FE4142484180BD03460020002BB1
:101ED00004D1002902D101204106116070470000A1
:101EE000B0B582B000240194009401A96A4620464E
:101EF000FFF786FF0146012001290FD10099002933
:101F00000CD0019A064B15681D4206D155681D423A
:101F100003D10832491EF6D100E0204602B0B0BD20
:101F2000FF01000075484178012251400378534079
:101F30000B43817851401943484248417047C0469D
:101F4000F0B581B0684600240470E520744E315C21
:101F50004F1E032F3AD8B90001A251588F46C046F0
:101F6000711F00087B1F0008931F0008D11F000885
:101F70006846047000F0C6FC04E068460121017068
:101F800000F0BEFECA21705468460078012807D0D0
:101F90001CE068460121017000F06AFECA217054FD
:101FA000E8257159002903D0CA20305C8847745154
:101FB000022F05D8CA20305C012801D000F04EFC69
:101FC000FF2200200146034601F0B0F801B0F0BD49
:101FD0000B490A78022A06D0012AF7D1012232548D
:101FE000FF200870D0E707480470FF250D7000F04F
:101FF00035FC204621462A46234601F097F8C3E7E0
:102000004C08002098080020B0B584B00124204678
:1020100000F086FF204600F07BFF01A900208870B9
:1020200008813F20088009480290A507284601F052
:102030005BFA2846214601F096FA0F20014600F08F
:1020400043FB284601F08AFA04B0B0BDE703000064
:1020500070B582B000260196002A1FD014460D46A6
:10206000002915D001A9224601F046F82078002861
:1020700014D10198017A00290DD0012931460BD1E4
:10208000C18882888A4201D840888218511A03E0A8
:102090000420207002E041882980267002B070BDC3
:1020A00070B582B000260196002A21D014460D4654
:1020B000002915D001A9224601F01EF82078002839
:1020C00016D10198017A02290DD0012931460DD18E
:1020D000C1888288914208D2891A4088091805E08F
:1020E0000420207004E0418800E0891A29802670CD
:1020F00002B070BD0148C0697047C0467408002036
:1021000000487047DF070000004870474C07000098
:10211000004870475C070000E4200149085C7047F4
:10212000B40B0020F0B585B00E460746002104919F
:1021300003A801800A9C002C42D0002E3ED01546F8
:10214000002A3BD0002B39D0019103A93846224602
:102150000293FFF7A5FF2078002831D104A9384663
:10216000224600F0C9FF029A2078002828D103A84F
:102170000188B14200D80E4616800680002E12D08B
:102180000498818889B2C268515C29708188491C91
:10219000818042888BB2934201D3891A8180761E56
:1021A0006D1C002EEED172B604988188C288511A37
:1021B0004A1E9141017262B6019800E0042020702D
:1021C00005B0F0BD10B582B00020019004480E218A
:1021D00001AC2246FEF768FE208802B010BDC04662
:1021E000F07F002000207047F0B500221346012543
:1021F0009D400C88254226D003249440E4438E78E9
:10220000761E012E0FD88668264086600E7996408D
:102210008768374387604668AE434660CD789D4007
:1022200046682E4346600568254005608D789540D8
:1022300006682E430660C5682540C5604C79944009
:10224000C5682543C560921C5B1C202ACFD1F0BD18
:10225000B0B5082901D3242300E02023C5588C0001
:10226000082901D31C210C400F21A1408D43C550EA
:10227000C158A2400A43C250B0BD81617047704747
:10228000F0B58FB00124204600F030FE600600F06B
:102290003FFEA00400F034FE2E4F092138462246AE
:1022A000FFF7D6FF082138462246FFF7D1FF01AEDF
:1022B0000220009070712848019038463146FFF79F
:1022C00093FF2502358038463146FFF78DFF234EB8
:1022D00023493046FFF796F82249234A0027304623
:1022E0003B46FEF743FFE1022048FEF7BAF80CAE8A
:1022F0000098B07235810C970D9418483146FFF75D
:1023000089FA1B480B900BA930463A46FFF7EEFAC4
:102310000725280207A988810997089410200790AB
:102320000E4E3046FFF7B6FA069703A94D73059790
:102330000494602003903046FFF7E2FAFEF77AFF3C
:102340000C4B0D48186030463946064AFFF760F9D5
:102350000FB0F0BD0004004800020200006400401D
:1023600018080020D80C0020D9140008005C004098
:10237000DF074C0F04120020BC11002080B5FFF7CE
:102380006DFC80BD80B582B000200190009001A856
:102390006946FFF789FD0198016809180160042169
:1023A0004258019BD2184250091D1029F8D1024809
:1023B0000199016002B080BD2812002070B582B082
:1023C0000126F00400F09CFD6C462671412080023D
:1023D00000900A4D28462146FFF706FFB102284625
:1023E000FFF74BFF3603268028462146FFF7FCFE09
:1023F00028463146FFF741FF02B070BD0008004893
:1024000010B50146074802780020002A07D0064B85
:102410001C688C4204D0521E0C33002AF8D110BD27
:10242000012010BDC0450008A04500080149086012
:102430007047C04604300040014908607047C046FC
:10244000083000400C48014901607047CCCC0000C6
:102450000948014901607047555500000349096862
:102460000140481E814108467047C0460C3000407C
:10247000014802490160704700300040AAAA0000EC
:1024800080B501F063FE01280DD001F02BFE01287C
:1024900009D1FFF747FD012805D100F08DFBFFF7BB
:1024A00029FEFFF7C1FB80BD0120800202490A68B6
:1024B00042400A607047C046140800480848006857
:1024C000012101404942024A0A40400850407047F9
:1024D00003002080002800D10120014908607047D6
:1024E00048080020F0B581B0082A06D9431ADC0755
:1024F0000DD1C30716D1002417E0002A5FD0034690
:102500000C781C70491C5B1C521EF9D157E09B07CC
:1025100029D003460C781C70521E5B1C491C002AF3
:10252000F8D14CE00B78037001240B190619141B29
:1025300062081D460096174629883180AD1CB61CDE
:102540007F1EF9D10321C943891C51430C1936D090
:1025500051005A18009B591813780B70521C491CD3
:10256000641EF9D12BE083070DD0434200240D5D9A
:10257000055503251E462E40641C2540B542F6D164
:102580000319009301E0002400900919141BA2080C
:1025900006D00D46009E174608CD08C67F1EFBD10B
:1025A0000323DB4353431C1909D092008918009B75
:1025B0009A180B781370491C521C641EF9D101B093
:1025C000F0BD0000F0B581B016460D460446062A5F
:1025D0000CD9A0070FD00320204004210F1A204659
:1025E00039462A46FDF736FFE01906E0002E15D0E1
:1025F000204631460FE000272046F11B8A0806D00E
:10260000084B6B430646174608C67F1EFCD1920056
:10261000891A03D080182A46FDF71CFF204601B016
:10262000F0BDC04601010101F0B583B0224C206825
:1026300080013FD4E16A60688002000F1F4A424374
:102640001F4810180F273940491CFDF715FFA168D6
:1026500009062FD50126F2052168890327D40292A5
:102660007506320601922168914321603104626847
:102670008A4362601349FDF7FFFE80040721C90405
:102680004018B904084062688A43101860602068E6
:1026900001990843206020682842FCD0606802212C
:1026A0000143B1436160A0680299084301E0A0685A
:1026B0001043A06003B0F0BD001002400024F400FD
:1026C0000048E80100093D0010B5044601F01EFE77
:1026D000204601F00FFE10BDF0B589B00026089627
:1026E000002A45D00792069122490A88372109011C
:1026F00003918C1A20490F1903231F4005900546AA
:1027000014357919914202D90798037030E001928B
:102710000494029608A90698079C224600F0ECFC57
:102720002078002822D0019EF01B002F029A03D0AF
:1027300081B2039B591A049106990F4B049C1953BB
:10274000002F05990B4B00D00646701B18800A48D5
:10275000049BC01842604180027201461431C1607E
:1027600002610890079900F00BF801E00520207045
:1027700009B0F0BD340800204C0E00207047000066
:1027800010B500291ED0002810D00F4B1A68002A5F
:102790000ED01369002B0ED0824211D01C461B694B
:1027A000002B2246F8D11034224605E0042208E02E
:1027B0001860002205E0103210600022026100E083
:1027C00005220A7010BDC046B813002080B500F085
:1027D00001F880BD70B586B00124600400F090FB64
:1027E000A00300F09DFB0921CD0628462246FFF7F5
:1027F0002FFD0A2128462246FFF72AFDFF2004303C
:1028000004AEB0801348049028463146FFF7ECFC34
:10281000A002308028463146FFF7E6FC69460020DA
:1028200088810C228A720881E12252020092019072
:10283000094C204601F0D2FB2021204601F037FC54
:102840001B200221FFF740FF204601F02BFC06B0C1
:1028500070BDC0460002020000380140F0B581B0F2
:10286000C820CC4D00242C54C926A85D012802D1D3
:1028700000F01EFBAC5522480470204600F070FCAE
:10288000FF26204621463246234600F04FFCF0202A
:10289000C74F2F50F435142228462146FFF792FEE9
:1028A000242238463146FFF78DFE1548047001B0EA
:1028B000F0BDC046F0B581B0C820EB4D00242C54CB
:1028C00000F0F6FAC9202C54204600F049FCFF26FF
:1028D000204621463246234600F028FCF020B44F23
:1028E0002F50F435142228462146FFF76BFE242290
:1028F00038463146FFF766FE0148047001B0F0BD6E
:1029000099080020F0B589B0054600240894079482
:1029100001F098FA0D21FDF7AFFD0746C920F749F0
:10292000085C012800D02EE1002605952E709A4DF6
:102930002878022816D0012821D000281DD19849D6
:102940000E60994801240470944A16609548066008
:10295000964804703046FFF753FA012800D010E182
:102960002C700EE101F026FC8C4806608C48066055
:102970008C4806600120059908702E7001E10196CF
:10298000894C2078401EC0B2FFF7E2F9B8420290AD
:1029900000D87CE083490E68012149020691039723
:1029A000864200D3BDE07D480068002800D1B8E031
:1029B00001F000FC7B4801682078401EC0B208AAE4
:1029C000FFF76CF9012800D0A8E075480068066898
:1029D000089DB54200D2A1E04468AC4200D89DE019
:1029E00070480068039F3946FDF746FD781A049049
:1029F000611B08963046FFF7C9F9B84207D9049D14
:102A0000A84200D8039DBD4A674C039F0EE0049D79
:102A1000A842FF4A644C039F08D8604B1968491EBE
:102A200019605F4B1968083119600546F8269059FE
:102A3000002873D0002D049514D001F0BBFB72B6B2
:102A4000F34882590898012190475849087062B6A6
:102A50000878012865D108980699401808906D1EDD
:102A6000EBD103E05148007801285AD14D4908685C
:102A7000049A86180E6030463946FDF7FDFC029830
:102A800086428DD200298BD10198059948E04348B0
:102A90000068002845D0424800680121490206919B
:102AA000424C01684068461A01F084FB3C4D28689E
:102AB00000683146FFF76AF90146F827D448C05943
:102AC000002863D02868066808960029049113D06E
:102AD0000D4601F06FFB72B6CD48C2590121304658
:102AE0009047207062B6207801281AD106983618CF
:102AF00008966D1EEDD102E02078012811D12949F8
:102B00000868049A80180860254908680830086039
:102B1000224A1168491E1160C3D102E0019823497D
:102B20000870204C216821480078059A1278002A04
:102B3000029B10D101280ED199420CD2E52004212C
:102B4000B34B1954EC201A58002A1AD0CB20185C29
:102B50001849904715E0AF4D0122AA70019E2E70D2
:102B6000594050400843414241416970202107AA21
:102B70002846FEF799F92660022007490870079851
:102B800028620A480478204609B0F0BD01982070F8
:102B9000C7E7C046B40B0020980800205808002062
:102BA0005C08002060080020540800200408002071
:102BB000740800206D310008B0B582B00025019581
:102BC0000095FFF70FFB044601AA2946FFF75AF8C4
:102BD000012804D100216A462046FFF776F902B0A9
:102BE000B0BD0000F0B585B015460C460390FFF768
:102BF00093FA064601277E40EDB20494204629460A
:102C000000F020FA784030434442444100281CD16F
:102C100001970295039E049FC9207D4D285C0128E1
:102C200003D1FEF7A1FF002814D0FEF79DFF012875
:102C300004D130463946029AFFF754FCFF220020A7
:102C40000146034600F072FA01E0FFF707FE204656
:102C500005B0F0BD02200549FF22002300F066FA0E
:102C6000CA2001992954F2E7B40B0020E93D00087D
:102C7000F0B581B00024009401F09CFAFEF774FFD7
:102C8000012808D1D820F74A1158D42010586A4694
:102C9000FEF706F910E0C920F24D285C01280BD19F
:102CA000D826A959D427E8596A46FEF7F9F8A85951
:102CB000AC51E9590818E85101F07CFADC20FA4DD2
:102CC00028580099884216D1FEF74EFF01280ED1F0
:102CD000C9260124AC552846F430FFF71DF8012819
:102CE00007D1F4202958002905D0884703E00124A2
:102CF00001E00020A855204601B0F0BDB40B002033
:102D0000F0B585B000240494C921F34F795C012902
:102D100000D078E0E021039179588029029034D3E3
:102D20000025DE4E0195202104AA3046FEF7BCF8AE
:102D3000306A0499884264D17078012861D1B078F2
:102D400001285ED101F036FAFC217858002858D0CD
:102D500072B6CC2438597B58E9B2C901791880225F
:102D6000984762B601284CD1D02039588039395063
:102D700003983958803939503859803038516D1C92
:102D80007F29D0D8E8B2C50100E0002500292AD06B
:102D900048193818494207260E40FF213246FFF7EE
:102DA00011FC039AB8588019B850FC2178580024B7
:102DB000002824D072B6BA58CC20019038587B58DD
:102DC0007919984762B6012802981CD1039AB8581D
:102DD0000021B950019AB9580918B950D0217A5830
:102DE000301A80187850AD4E0124347000200490C1
:102DF000202104AA3046FEF757F804983062029862
:102E000001E00298019C01210170204605B0F0BD4F
:102E1000B40B002074080020F0B583B00E460746BE
:102E20000021029101A80180002B14D01C46002E25
:102E30000FD01546009101A938462246FFF708F940
:102E40002078002807D101A80088A84205D20320D5
:102E500000E00420207003B0F0BD02A938462246ED
:102E600000F04AF920780028F5D1002D13D00298FF
:102E7000C188C068327889B242540298C188491C1E
:102E8000C18042888BB2934201D3891AC1806D1EE2
:102E9000761C002DEDD172B602988188C2888A42D4
:102EA00001D0012100E00221017262B60098D1E751
:102EB00080B582B000200190009001A86946FEF71D
:102EC000F3FF012805D1019800990A1A0021FFF7A4
:102ED00079FB02B080BD00000120000602490A68AB
:102EE00002430A607047C0462410024001210903D2
:102EF0004D4A13688B43C007C00C18181060704708
:102F000002490A6802430A607047C0461410024032
:102F100002490A6802430A607047C0461C1002401A
:102F200002490A6802430A607047C046181002400E
:102F300080B500F039F8044909680906090F03A2B1
:102F4000515CC84080BDC046041002400000000033
:102F500000000000010203040607080980B5FFF71E
:102F6000E7FF044909684905490F03A2515CC840BD
:102F700080BDC046041002400000000001020304AE
:102F8000010A032906D0022907D0002907D1D24916
:102F9000096804E0D049496B01E0CF49496AC0B2F1
:102FA000C14001200840704710B510480268032155
:102FB0001140022903D001290CD10D4810BD016830
:102FC0000268806A8902090F8C1CD10304D4094865
:102FD000604310BD154810BD0F210840411C044836
:102FE000FDF74AFA4443204610BDC0460410024093
:102FF0000024F40000093D0080B50B490968002851
:1030000000D0890803200840032806D0012806D0F4
:10301000002807D1FFF7A2FF80BD044880BDFFF75D
:10302000C3FF80BD002080BD3010024000127A0036
:1030300080B50A4601462A480078022801D800F0E7
:1030400035F880BDB0B50C46C82909D80146464DB3
:1030500028462246FFF746FAE0202C500120B0BD5A
:103060000020B0BDB40B002010B582B00A46014666
:1030700000200190112A00D31122F0203A4B185859
:10308000001DFFF72FFA054C202101AA2046FDF76D
:103090000BFF0198206202B010BDC04674080020EA
:1030A000DC21314A50507047B40B002070B5D82352
:1030B0002D4CE250D4256151D026A251CC26A151ED
:1030C0002124E400444305480019C25041510448FA
:1030D0000178491C017070BDB40B00209C080020D1
:1030E000990800207D208001014908807047C04672
:1030F0002E1200207047000010B5002A0ED00029C3
:103100000AD0094B1B68002B04D01C88844206D0CF
:103110001B69F8E7022000E00420107010BD0020B9
:1031200010700B6010BDC046B8130020B0B5E82485
:103130000D4D2951E5216854EC202B50CB202A5409
:10314000B0BDC046014908707047C0464408002021
:1031500080B5FFF737F80149088080BDFE7F002069
:10316000E421014A50547047B40B0020002801D0DC
:10317000022000E001200149087070474C0800203F
:1031800080B50348A5210170FFF7E2FF80BDC0466E
:10319000F07F002070470000F0B582B0D14A531C88
:1031A0004D48016800931943016001214C040368F4
:1031B000234203D1531E002A1A46F8D106682A4B2F
:1031C0001A68102515431D601A680A430E25AA4384
:1031D0001A601A68022501952A430D25AA431A6030
:1031E0004268F0239A43426007231A0245689543D8
:1031F00045600F064D064268264219D10C04A243D1
:1032000042604268194C2240DB0413434360026869
:103210003A43026002682A42FCD04268019B1A438A
:103220008A43426041680C220A40082AFAD118E019
:10323000009B1A43426042680C4B1A40CB04134374
:10324000436002683A43026002682A42FCD0426846
:10325000019B1A438A43426041680C220A40082AB3
:10326000FAD102B0F0BDC04600200240FFFFC3FF0C
:1032700080B5FFF791FF80BDB0B5174C20680125E0
:103280002843206060681549014061602068144946
:1032900001402160A8042168814321603F2000048F
:1032A00061688143616060680F2188436060FF202E
:1032B0005430216B81432163606BA843606300201D
:1032C000A060FFF7D5FFE804216801432160E8060C
:1032D00004490860B0BDC046001002400CB8FF08A9
:1032E000FFFFF6FE08ED00E0184801884A1C1304B1
:1032F00000D0114601800E4801884A1C130400D0FA
:10330000114601807047C0460020704780B5FEF727
:103310007BFE80BD064801880A46632900D9643ACD
:103320000280632901D80020704701207047C04601
:103330003412002005490888002801D1024600E027
:10334000421E0A80411E88417047C0463612002046
:1033500010B501218C07204600F009F9012805D19C
:103360000121204600F0BAF8FFF7BEFF10BDF0B50E
:1033700087B001931646074605A8002404800491EF
:1033800002970392150400F073F8002D24D0B84280
:1033900022D1542005A906AF3A46FEF759FE3878E7
:1033A000002819D130460C3005A90988884213D865
:1033B000542002A90C2206AF3B46FFF72DFD3878BA
:1033C000002809D1B2B2542006AC01992346FFF778
:1033D00023FD207844424441204607B0F0BDF0B5BB
:1033E00089B017460391029007AD00242C8052202B
:1033F00008AE29463246FEF753FE3078002828D121
:1034000028880C2825D308AE009652200C2104AA47
:1034100007AD2B46FEF786FE3078002819D12888A4
:103420000C2816D104A8818808AD0095522007AB5E
:103430003A46FEF777FE287800280AD107A80188C7
:103440000598884205D10499029A11600399086091
:103450000124204609B0F0BD80B500F093F880BD8E
:1034600080B5FEF74DFE80BD80B5FEF74DFE80BDF8
:1034700080B5FEF74DFE80BD80B5FDF755FC80BDE3
:1034800080B5FDF77FFC80BDB0B584B01C46154605
:1034900001AAFDF727FD019929600299216004B076
:1034A000B0BD80B5FDF7E2FD80BD000008490860B1
:1034B0007047C04680B5FDF7C9FC80BD10B5044C0F
:1034C0002168002902D088470020206010BDC04636
:1034D0002412002080B5FDF745FD80BD014A4A4019
:1034E00002617047FFFF000010B5184A90421ED0DD
:1034F000174A90421BD0174A904218D08A78036826
:103500001024A343D207D20E9A1802608A781201BF
:1035100060231A4004689C43A21802600A7A0323BD
:103520001B0204689C439207920D121902604A68BC
:10353000C2620A888262084A904201D1497A1163C4
:10354000416901220A43426110BDC046001000409B
:103550000040014000440140002C0140016801226C
:103560000A4302607047C2680A43C260704702693A
:103570000A4204D0C068084201D0012070470020F0
:103580007047000010B5044C2068002802D0804726
:103590000020206010BDC0460812002070B51546FE
:1035A000134E3268824220D11C460846FDF7D2FDF8
:1035B000104908220A738D600F4A002313711160AD
:1035C0000123DB070D681D400C4BEB180B600F232C
:1035D00003408879C0250540E818887172B608480C
:1035E0000849FEF77FF862B6B460002070BDC0469F
:1035F000380800200C1200201C1200200000701D52
:1036000000640040D80C00201C480168491C01607F
:103610007047C04680B500F05FFE002080BD00000E
:10362000F0B583B00C460546FFF76EFE13490968F6
:103630000904014302910846FEF74CFF601E214633
:103640008141681E2A4682410A400192012A12D114
:103650000027384603263040032802D1FEF72EFF0C
:1036600002903E4002A880190078F9B260547F1C95
:10367000F8B2A842EED3019803B0F0BDA413002025
:10368000454800887047C046474800887047C04694
:10369000917250727F2010720320506070470000BA
:1036A000AD4908707047C04680B50146002000F063
:1036B00045FB80BD11480078411E48424841704793
:1036C00080B50146022000F039FB80BD034909782E
:1036D0000840411A484248417047C0462C12002019
:1036E0002D480188484248417047C046034909783F
:1036F0000840411A484248417047C04644080020EB
:1037000080B50146012000F019FB80BD80B50A4656
:10371000497A7F2908DC002901D003290CD1022134
:1037200051600078403005E0802901D0832903D121
:1037300000205060107280BD00781221FFF7A8FFB2
:1037400080BD80B5002800D080BD0220FFF7FAFCC4
:103750000120FFF7A5FFFFF7C5FC80BD80B50A4635
:10376000497A0B46813B022B08D3491E012908D810
:103770000221516000784030107280BD00205060FE
:1037800080BD00781221FFF783FF80BD02480188C9
:10379000491E01807047C0462E1200200248018851
:1037A000491E01807047C0463012002080B500F0ED
:1037B00099FC012805D1FEF7B5FB411E484248415E
:1037C00080BD002080BD000080B5CB491022FEF7EF
:1037D00089FE80BDB0B582B0002501950095012815
:1037E0000BD16C4671202070601C1349491C0322C8
:1037F000FCF71EFE2571052410E068462221817029
:103800000B49018001242046FFF79CFC2046FFF76E
:1038100047FFFFF723F8074805700324FFF728FE4A
:1038200000216B462246FFF7A2FD02B0B0BDC046A4
:103830007F310000321200206C48000880B5AE488D
:1038400001211022FEF7BEFE80BDC046B0B50C4679
:103850000546FEF761FC022808D10320FFF780FC33
:1038600001206060287840302072B0BD2878242183
:103870002246FFF70DFFFEF7F1FFB0BDB0B50C46D5
:103880000546FFF72FFC2046FFF70EFF012807D162
:10389000287878212246FFF7FBFEA020174910E088
:1038A0002046FFF72DFF01280DD1A089000400BAA2
:1038B000FFF7F6FB287878212246FFF7E9FEA020E3
:1038C0000D492150B0BD2046FFF7FAFE01280CD16A
:1038D00000F09CFCFFF76AFF01462878012905D11A
:1038E0000421616040302072B0BD28781221224648
:1038F000FFF7CEFEB0BDC0466D390008AD390008F7
:1039000080B5FFF7BDFE002801D0FFF73FFFFFF7AE
:10391000BBFE002801D0FFF741FF80BD80B50A46FD
:10392000497A002904D0802908D10020506080BD48
:103930000221516000784030107280BD0078122161
:10394000FFF7A6FE80BD0000034909780840411A30
:10395000484248417047C046460800207047000072
:103960000B210170004870471446000880B50028FC
:1039700000D080BD032003493122134BFFF7D6FB53
:1039800080BDC046613A0008B0B50C460546FFF759
:103990008FFAFFF7F5FBA020034921502878782102
:1039A0002246FFF775FEB0BDCD39000880B500286E
:1039B00000D080BD012003493122034BFFF7B6FB45
:1039C00080BDC046D5370008A13C000880B500285E
:1039D00000D080BD012000060249086000F008FC0C
:1039E000FEE7C04624100240F0B581B00C46054603
:1039F00048680B2827D300210B20A74F0902396004
:103A0000225C89183960401C0F28F7D100210F2053
:103A100009027960225C89187960401C1328F7D16B
:103A200001263046FFF79CFB03CFFFF701FB032085
:103A3000606028788221A1721021617295490E7010
:103A40004030207209E0287813212246FFF720FE3B
:103A5000FEF704FF0020FFF783FB01B0F0BDC04676
:103A600070B582B0064600240194712000906D4626
:103A7000681CBF49491C0322FCF7DAFC701E411E7A
:103A800088412871FFF7F4FC052221462B46FFF7F9
:103A90006EFC02B070BDC046B0B50C460546487A13
:103AA000022811D0012820D128784030207210201F
:103AB000A149FFF7B5FD002818D020460A30FFF7CE
:103AC00083FE12206060B0BD20460A3000F01AF973
:103AD0000146287800290AD0022161604030207216
:103AE000FFF7ACFE0320FFF7DBFDB0BD28783521E2
:103AF0002246FFF7CDFDB0BD64080020B0B5AAB0E6
:103B000001ACA0212046FCF7ACFC25200501FFF705
:103B1000AFFC2581019005492991022202920834C7
:103B20002346FFF724FC2AB0B0BDC0464337000847
:103B3000B0B50C4602216160017840312172657A8E
:103B4000802D06DC012D0AD0022D1AD0032D0ED0B7
:103B50001DE0832D0BD0822D13D0812D17D1012094
:103B6000FFF7F0FA812D17D100206060B0BD04206E
:103B7000FFF7E8FA832D01D100206060FFF7B2FA69
:103B8000B0BD0220FFF7DEFA822DF5D0F6E700780F
:103B900012212246FFF77CFDB0BD000010B504469F
:103BA000FFF762FCA04201D1012005E0FFF758FCBD
:103BB000001B4142414148000149087010BDC04608
:103BC0002C120020F0B581B00D460446487A9C497D
:103BD0000870304F3E78FEF79FFA01281FD1324619
:103BE0000095974E30783978814220D1ED480646CD
:103BF0000068009D6A6829460A31921EFEF7F2FFAE
:103C000001282ED13878401C387030686968891EC8
:103C1000401830607068401A7060894E0FE020785C
:103C200024212A46FFF734FD8548007822E0501E03
:103C30003178C0B2884218D1DA484068009D002827
:103C400004D1002038700220FFF78AFAC9201349F6
:103C5000095C2078002916D078212A46FFF718FD44
:103C60000FE0207822212A4602E020782421009AC1
:103C7000FFF70EFDFEF7F2FD00242046FFF770FA75
:103C80003C7001B0F0BD022169604030287230788C
:103C90006872F6E7A1130020AC130020B40B0020DB
:103CA00070B5AAB00D46064601AC201D9C21FCF75C
:103CB000D8FBFFF7DDFB0190782130462246FFF765
:103CC000E7FC0F480560054929910198029A0834DC
:103CD0002346FFF74CFB2AB070BDC046E13C00080C
:103CE000B0B50446002801D1FFF7FCF9044D29685E
:103CF000002903D02046884700202860B0BDC04678
:103D0000A813002010B584B00024039402940194F9
:103D1000009410216A46FFF77DFC07482146425C6B
:103D20006B465B5C934203D1491C1029F7D10124F7
:103D3000204604B010BDC04664080020B0B501287C
:103D400001D00CA200E00A4A002800D10A4A4B68C0
:103D50000020042B0AD30823CC5CD518083D2D780D
:103D6000AC4203D15B1C0C2BF6D10120B0BDC04688
:103D70006C4500083101FF016C480008B0B50146F0
:103D800042680020032A0BD3082206A38C5C9D18EE
:103D9000083D2D78AC4203D1521C0B2AF6D10120EC
:103DA000B0BDC0462EF15A00B0B50C4605460846D7
:103DB000FFF7E4FF012810D1217920460B30C91EFE
:103DC000C9B2FFF751F90320606028785A21A17227
:103DD000F121617240302072B0BD28781221224654
:103DE000FFF756FCB0BD0000B0B582B000250195CC
:103DF0000095012806D168467621017010480078A8
:103E0000022411E06846222181707F210170012483
:103E10002046FFF797F92046FFF742FCFEF71EFD0C
:103E20005F480570032436206D466870FFF720FB5D
:103E3000002122462B46FFF79AFA02B0B0BDC046D9
:103E4000C0130020E120400170477047F0B5ABB0CF
:103E500002A8A421FCF705FB01A800270770FFF7C3
:103E6000D3FBFFF73DFC01281AD14D4D4D4840686A
:103E700000280AD02878022807D0012810D8FFF798
:103E800031F94948012101700AE001242046FFF779
:103E900059F92046FFF704FCFEF7E0FC00202870EB
:103EA00002A8011D064608363246FFF798FA012897
:103EB00073D10120FFF752FD3B480178012908D159
:103EC0000021017036480178491C017037A000F0CC
:103ED00025FBFFF7EFFB012801D0FFF703F902985C
:103EE000FFF75CFE01A8FFF73BFD05462C4902A841
:103EF000047A362C02D00878002805D1102C14D171
:103F00002E480078362810D1009601263046FFF75B
:103F100019F93046009EFFF7C3FBFEF79FFC002017
:103F20001F49087026A000F0F9FA2448047001A87F
:103F3000002D22D0007800281FD029788C4204D090
:103F40007F1C08358742F8D317E0A878FFF7BEFB3F
:103F5000012812D16878FFF7C9FB01280DD1E87854
:103F6000FFF7F2FC012808D100202A906A68002A95
:103F700003D002A92846904704E002AA107A112132
:103F8000FFF786FB0398002807D0FFF771FA02902D
:103F90002A99039A3346FFF7EAF92BB0F0BDC046E1
:103FA00032120020AC130020B4130020526574724A
:103FB000616E73202B31202121210D00A0130020E0
:103FC00053746172742061206E6577207472616E23
:103FD000732121210D00000070477047F0B581B0BA
:103FE0000D46044600680126B04320602068294938
:103FF0000140A87A084329890143A8880843206022
:10400000606825490140E88808436060A06823494A
:104010000140A8890843A0602148844204D0DF48B9
:10402000844205D1002000E00120FEF7E5FF01E019
:10403000FEF794FF21680904009601D5324600E09E
:10404000022229689140192242431046FCF714FAD3
:10405000074664263146FCF70FFA05466320C04345
:104060006843C0190099C90327680F4001D0032194
:1040700000E00421884032303146FCF7FDF9002F82
:1040800001D0072100E00F21084029014018E0601D
:1040900001B0F0BDF3E90000FFCF0000FFFC00001D
:1040A00000440040016801220A4302607047012277
:1040B0009202914203D0402903D0012903D1083054
:1040C00001E0001D402102680A4302607047C06998
:1040D0000840411E88417047014A0A408262704789
:1040E000FF01000010B584B0002003900290019001
:1040F00002A901AAFDF768FE01280AD10198242827
:1041000007D3029868491CC81CC11CC81CC11CC824
:104110001CC1654C202103AA2046FCF7C5FE206A7D
:104120000399411A4842484104B010BD80B500F0DF
:104130000DF8012807D1FDF735FDFFF7DFFC411E23
:104140004842484180BD002080BD000080B500F09D
:1041500019F8012805D1044801785A3948424841E4
:1041600080BD002080BDC046F17F002080B504489E
:10417000FEF706FFC0B2411E4842484180BDC0461E
:104180001B02000080B5FEF71DF803490988091AD3
:104190004842484180BDC046FE7F00200449421A83
:1041A000534253419331411A4842484118437047A2
:1041B0004C07000080B5FEF75BF980BD80B50A486A
:1041C000FEF7DEFE002801D0FEF786FEFEF740F97E
:1041D0000420FEF72BF90548FEF72EF9FEF748F903
:1041E000FEF730F980BDC0461D020000E204000069
:1041F00080B5FEF72DF90220FEF730F90128FAD03C
:104200000020FEF719F9FEF733F980BDB0B588B08C
:10421000002507950695059504950395029501954A
:1042200068460570204C202105AA2046FCF73CFE7C
:104230000598206203A904AA2846FDF7C5FD054696
:1042400001282DD1684606A907AAFDF7CBFD002558
:1042500001A902AA2846FDF7B7FD012816D1079843
:10426000A061039806990858E06100200590019923
:10427000C978491CCAB2FF2A00D00846E070202144
:1042800005AA2046FCF710FE05982062FC2007498D
:104290000B58002B04D00398034924229847054665
:1042A000284608B0B0BDC04674080020B40B0020FA
:1042B00070B50B460446074D2868866820461146AF
:1042C0001A46B047002803D12868C16820468847AD
:1042D000C0B270BD28120020012909DB0F230B405A
:1042E00006D103785B1E1370401C521C491EF8D186
:1042F00070470000002805D41F210840012181409B
:10430000014801607047C04600E100E0002805D484
:104310000322034693430C4A9A1806E00F220240F8
:10432000083A03239A43074BD2188007C00E89012D
:10433000C9B28140FF23834010689843084310604E
:104340007047C0461CED00E000E400E0B0B582B06C
:104350000025019500290ED00C4601A92246FEF742
:10436000CBFE2078002806D172B601980572C1886C
:10437000818062B6257002B0B0BD0000B0B50446C1
:1043800081B2064D2846FFF7A7FE80212846FFF799
:104390009EFE0028F9D02046B0BDC046003801403E
:1043A00086B00025039502950D480E4900F056F899
:1043B0000DA000F0B3F8154C00F02AF8082004A96D
:1043C00003AA02ABFFF760F80128F5D102A8017833
:1043D0000398009504AA2346FFF7E0F8ECE7C046EF
:1043E000DF040008DD040008456E74657220426F2A
:1043F0006F744C6F6164657220537563636573738A
:1044000066756C6C792121210D000000593400087B
:1044100080B5FEF78FFF002811D0FFF74BF8FFF7AC
:104420006FFA7D20C2000C480188491C8BB2934270
:1044300000D100210180080401D1FEF735F8FEF714
:1044400069FF002801D0FFF7B5FEFFF719F8FFF765
:10445000FDFCFDF775FD80BDC2130020B0B50C4614
:104460000546FFF783FE012801D1FDF7A5FBFEF706
:1044700007F8FDF7A3FF002D00D0A847FEF7A6F927
:10448000FCF72EFD002802D10CA000F047F8FEF743
:104490003DFFFFF793FEFEF7EFFFFDF721FD00283C
:1044A00002D10CA000F03AF8FFF7CFFCFFF73EFE78
:1044B0002046FEF7F6FFFEF7FDF9B0BD0A43524372
:1044C0005F48414C5F496E6974206661696C656440
:1044D000210000000A464C4153485F48414C5F416F
:1044E000505041646472436865636B206368656320
:1044F0006B206572726F72210000000002E008C834
:10450000121F08C1002AFAD170477047002001E04D
:1045100001C1121F002AFBD17047000010B50446EC
:1045200001E0FFF72BFF2078641C03490028F8D135
:104530000A20FFF723FF10BD000800207048000884
:104540000008002050000000FC440008C04800089B
:1045500050080020740B00000C450008C0480008FB
:10456000E0770020000800000C450008310102023D
:1045700001000000DF0700004C0700005C0700009E
:1045800000000100190019004B00000064009600B3
:104590003200000095100008D10F000875100008C7
:1045A000DF070000FFFFFFFF000000004C070000D6
:1045B000FFFFFFFF0000000000F600080064020893
:1045C0000200000000000000490700080100000090
:1045D000C108000802000000B90700080700000039
:1045E000710B0008040000004D06000805000000E3
:1045F000390C000806000000990A000803000000BA
:1046000039080008080000004109000809000000FE
:10461000ED0C000810070301313B000828070301D7
:104620000D370008850703015D37000827020101E7
:10463000993A00082E020103A93D00083402010343
:10464000E939000836020103C53B000837020103BF
:104650004D380008310201037D38000811020303C0
:10466000893900083E0703011D39000800005E3645
:10467000BC6CE25A78D926EFC4B59A8389FFD7C9B2
:1046800035936BA5F126AF104D4A137C6BB2358480
:10469000D7DE89E8136B4D5DAF07F131E24DBC7B8E
:1046A0005E2100179A94C4A226F878CEAF29F11F94
:1046B00013454D73D7F089C66B9C35AA26D678E092
:1046C0009ABAC48C5E0F0039E263BC55C49B9AADA4
:1046D00078F726C1BC42E274002E5E184D64135276
:1046E000F108AF3E35BD6B8B89D1D7E75E530065CE
:1046F000E23FBC09268A78BC9AE6C4D0D7AC899A36
:104700006BC035F6AF75F14313194D2F35E16BD7FB
:10471000898DD7BB4D38130EF154AF62BC1EE22811
:1047200000725E44C4C79AF178AB269DF17AAF4C13
:104730004D16132089A3D79535CF6BF9788526B30D
:10474000C4E99ADF005C5E6ABC30E2069AC8C4FE27
:1047500026A47892E211BC275E7D004B13374D01F1
:10476000AF5BF16D6BEE35D8D78289B4BCA6E29011
:1047700000CA5EFCC47F9A497813262535596B6FB1
:104780008935D7034D8013B6F1ECAFDAD7148922FF
:104790006B78354EAFCDF1FB13A14D975EEB00DD8D
:1047A000E287BCB1263278049A5EC468138F4DB993
:1047B000AFE3F1D56B563560D73A890C9A70C44691
:1047C000261C782AE2A9BC9F5EC500F3783D260B23
:1047D000C4519A6700E45ED2BC88E2BEF1C2AFF475
:1047E0004DAE1398891BD72D35776B41E2F5BCC3CD
:1047F0005E9900AF9A2CC41A264078766B0A353C35
:10480000D766895013D34DE5AFBFF1898947D7717A
:10481000352B6B1DF19EAFA84DF213C400B85E8E10
:10482000BCD4E2E278612657C40D9A3B4DDC13EA12
:10483000F1B0AF8635056B338969D75FC4239A150C
:10484000784F2679BCFAE2CC00965EA0266E7858A6
:104850009A02C4345EB70081E2DBBCEDAF91F1A7F0
:1048600013FD4DCBD748897E6B2435123101FF00F3
:1048700000000000010001020304050607080C10F7
:10488000141820304000000020A1070080841E0082
:1048900001010000000001000C310C000100020BBE
:1048A00002000000700300005C0700000000000030
:1048B000000000000100010078563412FF000000E3
:0400000508000401EA
:00000001FF
