:020000040800F2
:10F80000E07F002015FC0008C927010885220108B7
:10F8100000000000000000000000000000000000E8
:10F82000000000000000000000000000D5350108C5
:10F83000000000000000000011290108CD36010879
:10F840000000000027FC000827FC000827FC000837
:10F8500027FC000827FC000827FC000827FC0008FC
:10F8600027FC000827FC000827FC000827FC0008EC
:10F8700027FC000827FC000827FC0008993801082D
:10F8800027FC000827FC000827FC000827FC0008CC
:10F890000000000027FC000827FC0008D919010817
:10F8A00027FC000827FC000800000000594F010851
:10F8B0005B4F010827FC000827FC000827FC000814
:10F8C0000000000000000000000000000000000038
:10F8D0000000000000000000000000000000000028
:10F8E0000000000000000000000000000000000018
:10F8F0000000000000000000000000000000000008
:10FC00000348854600F0CEF8004800472D5A010809
:10FC1000E07F00200448804704480047FEE7FEE7F5
:10FC2000FEE7FEE7FEE7FEE7C137010801FC00083A
:10FC3000F0B51FB40646002082B00546402401916D
:10FC400000901BE0019922460F46304600F098F8DC
:10FC5000049A059B801A994110D3104619462246F2
:10FC600000F07EF8361A8F410197224601200021CC
:10FC7000009F00F075F838184D4100902046641E32
:10FC80000028DFDC019B00982946324607B0F0BD12
:10FC900030B5434351435C18010C130C0D465D43D2
:10FCA0002C1980B292B20546554351430A0C0904FF
:10FCB0004D1962415843010C00044019514130BDB7
:10FCC00003460B439B0703D009E008C9121F08C075
:10FCD000042AFAD203E00B780370401C491C521E20
:10FCE000F9D27047D2B201E00270401C491EFBD22B
:10FCF00070470022F6E710B513460A460446194637
:10FD0000FFF7F0FF204610BD30B504460020034643
:10FD100000E05B1C934203D2E05CCD5C401BF8D05A
:10FD200030BD70B50446002903D0002020220123F5
:10FD300010E0002801D00020C043C046C0460DE0BE
:10FD40002546D5408D4205D30D469540641B1D4682
:10FD5000954040191546521E002DF1DC214670BD1C
:10FD600010B5202A04DB0146203A9140002010BD46
:10FD7000914020239C1A0346E3401943904010BD54
:10FD800010B5202A04DB0846203AD040002110BDDF
:10FD90000B46D340D0402024A21A91400843194674
:10FDA00010BD0000064C0125064E05E0E36807CCB7
:10FDB0002B430C3C98471034B442F7D3FFF724FF91
:10FDC0000862010838620108704780B502F05CFAE9
:10FDD00002F0F0FA80BD10B503460020082B1CD3BA
:10FDE0000B78F0241C40102C17D148781B071B0DF2
:10FDF0001B1808D1881C00210B46445C1B021B19F0
:10FE0000491C0429F9D1072B03D80020082B04D35F
:10FE100002E00120082B00D3136010BDB0B50346EB
:10FE20000020022B03D30C7825062D0F00D0B0BD87
:10FE30000F200440092B0DD30020002C11D14C7849
:10FE4000611E3D290DD8581EA04209D3012000286B
:10FE5000EDD008E0601E062802D8581E844204D95E
:10FE600000200028E3D01460B0BD01200028DED0BF
:10FE7000F9E70000F0B587B0054605AE00243480F0
:10FE8000542006AF31463A4602F00DF93878002882
:10FE90002BD130880C2828D306AF009754200C2192
:10FEA00002AA05AE334602F03BF9387800281CD18F
:10FEB00030880C2819D102A8818806AF0097C54E5A
:10FEC00032461032542005AB02F02AF93878002867
:10FED0000BD105A801880398884206D10299B16028
:10FEE0002870049803F088FD0124204607B0F0BD77
:10FEF000F0B587B0074605A800260680002928D05F
:10FF00000C460192522005A906AD2A4602F0A0F83F
:10FF1000287800281DD105A8008821460C3181428F
:10FF200017D80026049603940297522002A90C22A7
:10FF300006AD2B4603F070F82878002809D152202E
:10FF400006AD019922462B4603F066F82878464212
:10FF50004641304607B0F0BDF0B581B00D460446CD
:10FF6000794FB888002809D0217A0026002902D0CC
:10FF70002078012807D1304601B0F0BD002028705C
:10FF8000032001B0F0BD627A202A04D2002028703C
:10FF9000062001B0F0BDF02313400920202BF0D142
:10FFA00063680093BB68009FBB42EAD10F20024008
:10FFB000654F3B789A4217D1B889491EC9B2421899
:10FFC000F9898A4213D2D949088A002820D07A7840
:10FFD00090421DD8488B0978FFF7A3FED4490860EA
:10FFE000B8800720287021E0042001B0F0BD0A1A73
:10FFF0003E46103630180A34214602F03BFBB86802
:020000040801F1
:10000000F9893246FFF774FF0020287001B0F0BD77
:10001000C88B09781D46FFF784FEB880E449086064
:10002000681CC1B20F2900D900203870B88938186F
:100030001030227A21460A31521E02F01BFBB88989
:10004000217A0818401EB88195E7C046F0B583B004
:1000500001910646D44DA87B02A90870B120C700C3
:100060003948002421463A4602F078FB28462146CA
:100070003A4602F073FBCE480460204603F0BCFC15
:10008000307800280DD002A8FFF7F4FE012819D11E
:1000900002A80078E88107280DD906200199087088
:1000A00010E0707A0009012809D000280AD1012047
:1000B0000199087006E005200199087002E002200D
:1000C00001990870002003B0F0BDC046F0B581B0C2
:1000D000044600270097007A0926002830D00D46F4
:1000E000217801292CD0617AF0220A40102A27D1E8
:1000F000214609316A46FFF76EFE012820D1124ED3
:100100000098F0816068B060DC49488B0978FFF79F
:1001100008FEB080DB490860227A30461030214664
:100120000B31921E02F0A6FAB089217A0818801EBF
:10013000B0810720287027726760012020703E463A
:10014000304601B0F0BDC046DC19002070B50D4648
:10015000CB4EB188002924D0017A0024002923D075
:100160000178012920D0417AF0220A40302A1DD19D
:100170000F22114002291BD001291DD0002925D1B1
:10018000817A7170C07A89490880E649888B09783C
:10019000FFF7C7FDB080E4490860082028702046BA
:1001A00070BD002028700324204670BD092070BD5A
:1001B00000202870082070BDE849088B0978FFF7F7
:1001C000B0FDE7490860B080204670BD002028706F
:1001D000052070BD641F0020F0B581B006460027E1
:1001E0000097007A0924002818D00D46317801299B
:1001F00014D0717A0F2911D8314609316A46FFF7B8
:100200000DFE01280AD16846018870680A36324618
:10021000FFF76EFE002801D02F703C46204601B04B
:10022000F0BD000010B572B60948017862B6022927
:1002300009D001290BD1074C2068002807D080473E
:100240000020206010BD034900220A60027010BD2A
:10025000F8240020F4240020F0B585B0002003909D
:100260000290E64F7A88002A01D005B0F0BDB88828
:1002700000282CD00191022002AE314600F070FA25
:100280003078F0210140387808433070FC89BD890E
:10029000032000F06DFA244800F05CFA641BE5B21C
:1002A000B88939181031701C072D13D3072202F0BA
:1002B000E1F9B868E8490A6A00924C6A082102AA82
:1002C000D04BA047012822D1B889C01D13E00220DD
:1002D000002525E02A4602F0CDF9B868DE490A6A11
:1002E00000924E6A611CC9B202AAC64BB0470128EF
:1002F0000DD1B8894019B881D749888A0978FFF7A4
:1003000010FDB880D34908600020092507E00220CD
:1003100000F02EFA0025284600F01CFA0920019969
:100320000D7005B0F0BDC0463503010898660108A0
:10033000FC24002070B5B14DE889A989814220D202
:100340001A480088C44E34782146FFF7EAFC6880DA
:100350006878002803D0401E6870000618D0AE48A8
:1003600008210170B08B2146FFF7DBFCA880B9495A
:1003700008602878401CC1B20F2900D900202870DD
:1003800070BD0024204603F03FFBEF48047070BDB1
:10039000ED4803210170308B2146FFF7C2FCA88095
:1003A000AC49086070BDC046641F0020F0240020E6
:1003B000FC240020F0B585B00E460025039502957B
:1003C0008E4CE089082832D30120019602AE3146D6
:1003D00000F0C6F9E0897178014371703178F0223C
:1003E0000A40000A10433070032000F0C1F916489B
:1003F00000F0B0F9B01C21461031062202F03AF9A3
:10040000A068D24C216A0091676A08217D4B324670
:10041000019EB84701280DD1A08A2178FFF781FC01
:10042000E6490860E44988800020092509E00820A1
:10043000052506E0022000F09BF9284600F08AF925
:100440000920357005B0F0BD4D04010880B5BE48E7
:1004500003210170BD49088B0978FFF762FCD6497A
:1004600088808A89921D8A81D44A10600878401C4D
:10047000C2B20F2A00D90020087080BD986601081A
:10048000641F0020FC240020F0B585B000250395F2
:100490000295C84CA088002841D10191032002ADEB
:1004A000294600F05DF9A94F388A6870002802D00B
:1004B0006078401C6070B87C02AEB0702078401C40
:1004C000C1B200250F29294600D801462170F01C31
:1004D0005521052202F042F9F88A3978FFF721FC0C
:1004E000A080B6490860032000F042F90F4800F0F0
:1004F00031F9386A0090F8687C6A0821414B32462D
:10050000A047012801D1092607E0022000F030F9B8
:100510000026304600F01EF909250198067028468D
:1005200005B0F0BD98660108FC24002031050108E3
:1005300010B5AF20C0009F4CE189814209D88349A2
:10054000C88B0978FFF7EDFB9C490860A080042068
:1005500000E000207C49087010BDC0469866010884
:10056000FC240020F0B585B0002603960296924840
:10057000C0890925072801D906263AE0002838D085
:100580000191002602AF3046394600F0E9F80F200D
:10059000029C84438849CA8914433C70781C1031FA
:1005A00002F068F8032000F0E3F8154800F0D2F8F4
:1005B00081488068654A116A0091611CC9B2546A19
:1005C000104B3A46A04701280CD16049888A097827
:1005D000FFF7A7FB7949086077498880002509263D
:1005E000019906E0022000F0C3F8304600F0B2F8AE
:1005F00001990E70284605B0F0BDC046641F00206A
:1006000009060108C107010810B50024204603F0BF
:10061000FBF94D48047010BDDA190020B0B56748E9
:100620000068002801D00020B0BD0C464748C06AD1
:10063000002800D080470225284603F0E5F9284627
:1006400000F096F80025284600F084F82570002078
:10065000B0BDC046FC2400209866010810B582B0E9
:100660001548522101AC224602F008F920780028F2
:1006700000D0FEE73220542101AC224602F0FEF801
:100680002078002800D0FEE74B208000722101ACCA
:10069000224602F0F3F82078002800D0FEE764201C
:1006A000742101AC224602F0E9F82078002800D03D
:1006B000FEE702B010BDC046DC05000070B586B094
:1006C000204801A90CC80CC11CC81CC11E4C2078B4
:1006D000092811D001AA101D1146083109321B4BFF
:1006E0009B6A9847012807D1029804F0F7FC01287B
:1006F00002D101A8002101700020154D064605E039
:1007000000212170761CF1B20A2911D2F1B2C90080
:100710006A5C2378934204D16818426801A8214694
:100720009047C1B20029EDD00629E9D10026EAE7B9
:1007300001A800210172012202700291FFF772FDEF
:1007400006B070BD38620108DA1900209866010809
:1007500020690108014908607047C046F424002060
:100760000A780F2313400001181808707047000022
:10077000154908707047C0460E484188002901D0CD
:10078000491E41808188002901D0491E81800A4884
:100790004188002901D0491E41808188002901D06B
:1007A000491E818005480168002901D0491E016069
:1007B0007047C046DC190020641F0020FC24002084
:1007C0000148012101707047F824002070B500290C
:1007D0000FD00023DB43084C0578DEB26E40B50035
:1007E00065591B0A6B40401C491EF5D1D843106067
:1007F00070BD0020106070BD4C62010880B5FFF72D
:10080000E5FF80BD80B5FFF7E1FF80BD01207047A7
:10081000F0B589B002920391074607AC0026268006
:10082000742008AD21462A4601F03DFC28780028B6
:100830002FD120880D282CD308AE009674200C24CC
:1008400004AA07AD21462B4601F06AFC28886040C7
:10085000317801434E424E4100291AD108AC009430
:10086000B9B2742007AB039A01F05AFC2078002833
:100870000FD107A80088B8420BD10598B84208D814
:1008800004980699059A029B05C319604E480160B9
:100890000126304609B0F0BDF0B595B0054601A877
:1008A00000240480082902D9204615B0F0BD0E4668
:1008B0000092722001A914AF3A4601F0C9FB3978C1
:1008C0000120002901D015B0F0BD01A909883246E8
:1008D00008328A42F7D802960395722002A90822AC
:1008E00014AD2B4602F098FB287800282046EAD168
:1008F00002A80288722014AD00992B4602F08CFBEE
:1009000029784842484115B0F0BDF0B599B0154678
:100910000391029017A80024048016AE348004A826
:100920004821FFF7E6F9722018AF31463A4601F048
:10093000BAFB3878002832D1308808282FD318AE77
:1009400000967220082104AA17AB01F0E9FB16A853
:100950003178002923D10088082820D304AA1188DF
:1009600018A800900832722016AB01F0D9FB059E42
:10097000304604F0B3FB012811D1029806600498B8
:10098000039908700124002809D000210A4604AB0D
:100990005B181B7A6B54521CD1B28842F7D82046A0
:1009A00019B0F0BD074908607047C04680B50548DA
:1009B0000068002803D0804703480021016000F050
:1009C000FDFF80BDEC24002024190020F0B58BB081
:1009D000039316460D46029008A8552108273A466B
:1009E00001F0BCFE07A800240480082D38D8019629
:1009F0000094742007AE0AAC3146224601F028FB71
:100A00002078012400282BD13088142828D303987B
:100A1000069005970298049008A801992A4601F0CB
:100A200029FE742004A90C220AAD2B4602F0F4FA28
:100A30002878002805D074200AA904F0E2FE009C62
:100A40000EE0742008A908220AAD2B4602F0E4FA51
:100A50002878002804D074200AA904F0D2FE009C53
:100A600020460BB0F0BD01228A40D823C058104068
:100A7000C840704701228A40CC23C0581040C8406B
:100A80007047016570473F290AD898301F2903D85D
:100A900001228A4002607047203901228A40426068
:100AA0007047192803D30F3000090B30704709280D
:100AB00002D3C01C8008801D70470000F0B585B0CF
:100AC000049000293CD00F460293039217200001A6
:100AD000081801901120000108183F21CC4321463D
:100AE0002031421820230025D554491CF9D3132066
:100AF00000013E18049800F093F8311940228D54FB
:100B0000641CFAD301990D704D700006029901D151
:100B10000C480760039A3A6079600720C105002AF3
:100B200003D0049800F01BF802E0049800F00CF8E1
:100B300017200F2101F09AFE18200E2101F096FED9
:100B400005B0F0BD602E0020426D8A4342657047BB
:100B500001228A40E0214358934343507047C26DBD
:100B600001231343C365826D8A438265426D0A4344
:100B70004265704701228A40E021435813434350A5
:100B80007047000004480168012291430160016838
:100B9000C907FCD07047C0461864004070B50029F2
:100BA00010D014461F2A0DD80D4606462146FFF7E1
:100BB000CFFF3046214600F038FC281911210901E9
:100BC0000022425470BDB0B500290ED014463F2A11
:100BD0000BD80D462146FFF756FFA000281800212C
:100BE00081602819132212018154B0BDB0B5002ACA
:100BF00014D014460D46012903D0002D0ED1012139
:100C000000E01021FFF7A0FFA80020182121C90053
:100C1000002242506019172109014254B0BD000062
:100C200010B500228D4B14462146984203D0012472
:100C3000D2072246F8D0084610BDC0463F2901D948
:100C400000207047AC3002695205520F052A02D3CA
:100C500092000A3A00E0121D4A4391000068254ABA
:100C6000024088187047C0460146A031CB69072270
:100C70001A40052A03D39200074BD21800E0121D38
:100C8000A023C05849688904890E51438900194A34
:100C9000024088187047C046F6FFFF3F0146B0315A
:100CA000CA685206520F052A02D392000A3A00E09F
:100CB000121DB023C05849688909FC230B405343D7
:100CC0000C490140581870471F2901D9002070476E
:100CD000C030836807221A40052A02D392000A3ADC
:100CE00000E0121D4A4391000068024A0240881841
:100CF0007047C046FCFF0000F0B583B00191054687
:100D000000260824029003E0241D761C402E20D0EB
:100D1000F7B22846394600F0A5F80028F4D0686DEF
:100D20000003F1D5019D2A590298394600F0AAF82E
:100D3000029829463A46FFF746FF2F68029D002F8A
:100D4000E2D0019948680090032228463346B8470C
:100D5000DAE703B0F0BD0000F0B581B00D460446FF
:100D600000F034F9A87A01280BD1A0698021014351
:100D7000A161A06920210143A161206910210143E3
:100D80002161E87A012807D1A06980210143A1618E
:100D900020691021014321612E460E36287B01284F
:100DA00003D1A06920210143A1612046314600F012
:100DB00089F9287A012804D101200002A1690143A0
:100DC000A161687A01280FD101273802A169014386
:100DD000A1617802A1690143A1612046314600F07A
:100DE00097F9A87A002801D001B0F0BDE87A002870
:100DF000FAD1F805E1680143E160A16C0B480140BC
:100E0000A164E97D891CAA8A531C4B437F210A02F5
:100E1000A16C7E2B06D80140180210400843A06444
:100E200001B0F0BD1143A16401B0F0BDFF80FFFF30
:100E300080B5012A0CD0052A0CD100F0D3F8064B5E
:100E40008148186005480021054A00F099F880BDE6
:100E500000F044FB80BDC046201900200064004023
:100E6000D00C00203F2901D90020704798301F295D
:100E700001D8026801E020394268CA4001201040D0
:100E80007047000070B5002A1ED01446FFF7D6FE4A
:100E9000C049411800200A582250001D0828FAD1E4
:100EA000A3790F200340694AD35C002B0ED0A379AD
:100EB000034008310834002005464E5D6655D65C77
:100EC0006D1CB542F9D370BD012070BD002070BD0E
:100ED00070B514460246012001292AD8002C28D0DA
:100EE0001546A435002925D02969490621D0104688
:100EF000FFF7D4FEA7494018002142586250091D4F
:100F00000829FAD1A2790F231A4050498A5C002A95
:100F10000AD0A2791A40083008340023C65CE6548F
:100F20008E5C5B1CB342F9D328698004800E686133
:100F3000002070BD29684906FBD01046FFF794FEDB
:100F400094494018002142586250091D0829FAD1DD
:100F5000A2790F231A403D498A5C002A0AD0A2795F
:100F60001A40083008340023C65CE6548E5C5B1CD3
:100F7000B342F9D328688004800E6860002070BDF9
:100F8000F0B581B0012401291DD8002A1BD0002B07
:100F900019D0551817263601AF5D002F13D1AC19A3
:100FA000052525708C0012192124E4001B681351BB
:100FB000012904D11021FFF7D2FD002403E0012113
:100FC000FFF7CDFD0024204601B0F0BD816901226C
:100FD0000A4382618169C907FCD0816902220A4300
:100FE00082617047F0B593B001A84821FEF781FEF9
:100FF000154DA8790F2101401448445C01942868DC
:10100000410003D507214907884301E0C000400D96
:101010000290002C14D0029E304601F06DFA012897
:101020000ED101AF08370835384629462246FEF76B
:1010300047FE304621463A4602F0F2FC012801D133
:1010400013B0F0BDFEE7C046D81800200608002007
:10105000F0B581B00124002931D01646002A2ED0E7
:10106000054630793F282AD80F46081811210A0171
:10107000815C002923D180183168096889000092B9
:1010800001D5042100E0032101703268317928463E
:1010900000F0D0F93179002804D078180021009AA6
:1010A00081540CE02846FFF765FD012041022846E7
:1010B000FFF755FD3179284600F0B2F900242046AB
:1010C00001B0F0BDB0B500291FD00022C2610B797C
:1010D0007F221340C4699443E318C361CB78FF2493
:1010E0002402C569A5431B02EB18C3610B88C469C0
:1010F000064D2540DB05DB095B19C3618978520683
:10110000C369934349065918C161B0BDFFFF00FE92
:10111000F0B500282ED000292CD00F26F443C26849
:101120002240C260F022D543C2682A40C260C26831
:10113000114B1A40C260C768104A1740C7600F7A47
:101140003740C6682640F419C4608C7AC6682E40C1
:101150002407240E3419C4604C7AC5681D40E30688
:10116000DB0C5B19C360C988C3681340C906C90A90
:10117000C918C160F0BDC046FFE0FFFFFFFFE0FF00
:101180000068D20010180A68D24BC250C0184968D3
:1011900041607047005C004070B54A7A0C7A802349
:1011A000C3588030002C11D001242240A3439A1848
:1011B00002608A7A03680C24A3439207120F9A18DC
:1011C00002607F2212040830114B10E00224A34376
:1011D000D207920F9A1802608A7A03683024A343D8
:1011E0009207920E9A1804C0FF221204094B0C6851
:1011F000384D25400468384E26407419046049680B
:101200000904114002681A400A43026070BDC046DA
:10121000FFFF80FFFFFF00FF70B50A682D4B1340F2
:10122000A02284582C4D2540EB1883504B688458DD
:101230007F252E04B4435B065B0AE31883508B685A
:1012400084582D06AC435B065B08E31883500B7B88
:1012500084580125ED07AC43DB07E3188350497B35
:1012600007221140A030C36993435918C16170BD72
:10127000B0B54A688B689A18202A29D8C0300A6805
:10128000144B13400268144C1440E21802604A6880
:101290003F231C040568A5439206920AAA1802601F
:1012A0008A681B0604689C4392069208A218026092
:1012B0000A7B01239B0704689C43D207520812193A
:1012C0000260497B0722114083689343591881606B
:1012D000B0BDC046FCFF00000300FFFFF0B587B0C3
:1012E0000591002900D196E005462120C00005990E
:1012F000081801902846C0300690286D012251023E
:1013000003910292D104049103E0286D002800D1DA
:1013100081E00721CF050024074015D01026002CBE
:10132000049900D139462846FFF7ABFB002CECD1DD
:1013300005980468002CE8D0059948680090284674
:1013400032463B46A047E0E7039F384211D1C10730
:1013500036D101070826002941D4C10641D401062F
:101360004ED4049908424ED12C4908401126074614
:10137000D5E7069800688002800E029ECFD0002636
:10138000374607E07F1CFEB2069800688002800E98
:10139000864211D2FCB228462146FFF764FB0028A2
:1013A000F0D00698006AF040C007EBD028460599B7
:1013B0002246FFF7F3FBE5E70024029E039FAEE71A
:1013C00001980268002428462146FFF781FD28463F
:1013D0002146059AFFF70AFC012705269FE73746B5
:1013E0009DE701984268012728463946FFF770FDBE
:1013F00028463946059AFFF7F9FB10270A268EE79B
:1014000080270D268BE728460599FFF775FC0027F6
:101410000326012483E707B0F0BDC04666FD77FCD4
:1014200001228A40D0214250704701228A40D421B3
:1014300042507047F0B593B014460E46074603A8D5
:101440004021FEF756FC0125002C40D0384631469D
:10145000FFF710FB00283AD138463146FFF734FC3D
:101460001C494118084608300022A3588B50121D11
:10147000082AFAD1A2790F2102910A4016498B5C01
:10148000002B0ED0257B0022174604E003A9CE5581
:101490007F1CBB4205D0AF421646F7D2A668F65D68
:1014A000F4E7A179029F39400B4D695C00290DD00A
:1014B000002603AB019602CB02C0A1793940695CDA
:1014C000321DD6B28E42F6D3019D00E0002528469B
:1014D00013B0F0BD005C00400608002010B5044CBD
:1014E000A068002802D080470020A06010BDC04640
:1014F0003808002010B582B000240194009401A89F
:10150000694600F0B1FBCC21084A5158019B994231
:1015100008D3D023D2585118009A914202D2401ECB
:1015200044424441204602B010BDC046AC0B0020EE
:1015300080B503480021017002F0B0F880BDC046BC
:10154000F17F002080B50648002101600548016058
:10155000054801600548016002F0A0F880BDC04662
:10156000FC7F0020F87F0020F47F0020F07F002027
:1015700070B586B00124A00401F0C2FDA00301F003
:10158000CFFD1B4D062100242846224600F063FEB5
:1015900007212846224600F05EFEFF20043004AEFC
:1015A000B080144804902846314600F01DFE80208B
:1015B00030802846314600F017FE69468C810C20A9
:1015C00088720C81E1204002009001940A4C204670
:1015D00003F0C4FC2021204603F02DFD1B20022136
:1015E00001F044F9204603F021FD06B070BDC0466D
:1015F000000400484000020000380140704700002D
:1016000010B5084804F082FA074804F07FFADF4C6E
:101610000649E4222046FEF753FBCF200121215446
:1016200010BDC0460000040800020408C866010896
:10163000F0B581B015460C460027FE435649884256
:1016400000DDB6E0554941189F2900D9C8E049009E
:101650007944898849008F44A300650165016501CB
:10166000650165016501650165016501650165014A
:10167000650165016501650165016501650165013A
:10168000650165016501650165016501650165012A
:10169000650165016501650165016501650165011A
:1016A000650165016501650165016501650165010A
:1016B0006501650165016501D6006501650165018A
:1016C00065016501DF00E600EF00F80000010E0192
:1016D0001D016501650165016501260165012F0197
:1016E00065013801650141014A0153016501650148
:1016F00065016501650165016501650165016501BA
:1017000065016501650165016501650165016501A9
:101710006501650165016501650165016501650199
:101720006501650165016501650165016501650189
:101730006501650165016501650165016501650179
:101740006501650165016501650165016501650169
:101750006501650165016501650165016501650159
:101760006501650165016501650165016501650149
:101770006501650165016501650165016501650139
:101780006501650165016501650165016501650129
:101790006501C800C800610118FA0000B00EFFFF23
:1017A0000A222A60794931312046FEF789FA3E46FD
:1017B000B8E05E49884218D0FF210902884200D073
:1017C000B0E0042028603B207049085C3B314A7837
:1017D000CB788978A170E370207062703E46A1E0FA
:1017E000AF494118022900D39CE06A4600271770D0
:1017F000214600F0A7FA002800D093E06846007860
:1018000028603E468EE00A222A6060491D3120464B
:10181000FEF756FA3E4685E00120286002F0F0FB14
:1018200020703E467EE013222A6058493F31204610
:10183000FEF746FA3E4675E013222A6053490A3104
:101840002046FEF73DFA3E466CE00A222A604F49E8
:101850002046FEF735FA3E4664E0032028604B48F8
:10186000014662318A78A270497861706221405CD9
:1018700020703E4656E004202860A3204349085CBF
:10188000A3314A78CB788978A170E37020706270B8
:101890003E4647E01D222A603C4985312046FEF73E
:1018A0000FFA3E463EE01D222A6038496831204644
:1018B000FEF706FA3E4635E00A222A603349DA315D
:1018C0002046FEF7FDF93E462CE00A222A602F4909
:1018D000D0312046FEF7F4F93E4623E010222A607C
:1018E0002A4952312046FEF7EBF93E461AE0102213
:1018F0002A602649B8312046FEF7E2F93E4611E05B
:1019000004202860C820214908582070010EE17089
:10191000010CA170000A60703E4603E001202860BF
:1019200020703E46304601B0F0BDC04619FA0000B6
:10193000B0B503460120C443601C002920D0114DDE
:10194000AB420CD0104DAB421AD1102A204617D111
:101950000E48B8301022FEF7B3F90020B0BD042ABB
:1019600020460DD108784A78120210188A78C97872
:101970000902891809040818C821044A5050002097
:10198000B0BDC04699F1000098F10000440E00205F
:10199000B0B50446074D28680268074920469047BD
:1019A000002801D0C0B2B0BD2868416820468847F1
:1019B000C0B2B0BDC41900205AA55AA510B582B056
:1019C00001AC002020707420214603F01AFF21781A
:1019D0004842484102B010BD80B503480168034841
:1019E000FFF77CFC80BDC046602E002000640040F4
:1019F00010B507480021074ACB430124E4060460E0
:101A000042608160C16001614161836110BDC04677
:101A1000B40C0020409C0000F0B585B000920C464C
:101A20000646002004900290039003A904AA3046C1
:101A300000F0BAF800282FD0304600F04FF8A0424E
:101A40002AD90498002827D00025049801900399EA
:101A5000A64A2E460295F0000B58134200D06D1C8A
:101A60000F4F3B4008184768BB420ED2001DAC42E6
:101A700006D0D3185B1C6D1C0768BB42F7D304E08B
:101A8000009803600120029025460298002803D1A7
:101A9000761C01988642DED30298C0B205B0F0BD34
:101AA00000FEFFFFB0B500280BD00749074A084BDE
:101AB000084C094D056044608360C26001610120EB
:101AC000B0BD0020B0BDC0467D1B0108651C0108EB
:101AD000C11B01087D1C01089D1B0108F0B583B0E6
:101AE00000240294019402A901AA00F05DF80028E4
:101AF00010D0019800280DD00025019E029F2C4691
:101B000003CF091A083F00F009F8041908376D1CC3
:101B1000B542F5D3204603B0F0BD000010B5024633
:101B2000724B04461C40581C81420BD9480A19428A
:101B300000D0401C002C0AD0891819408C4200D0DB
:101B4000401C10BD6018991C884201D3022010BDB2
:101B5000012010BD064907480268002904D001236E
:101B60001A40491C002AF7D1034901607047C0465A
:101B700000E0FFFF0C2002403C0001007047000025
:101B8000002801D00020704703480860B7204002B9
:101B9000106001207047C04600F6000880B500F0D4
:101BA0000DFC012080BD0000002801D000207047FE
:101BB00001201060014A0A607047C046C4670108EE
:101BC000F0B585B015460E4607460020C143039187
:101BD0000291072114460C4072B624D0082D2AD950
:101BE00001911F4A2A403846314603F0B1FA39467E
:101BF0004742474100282FD100910198854300209A
:101C000001464219B25C02AB1A54491CC8B2844264
:101C1000F7D80098281802A9082203F099FA00289A
:101C20001AD1012718E0AAB23846314603F090FADB
:101C30004742474110E0002D07D00146325C02AB1D
:101C40001A54491CC8B2A842F8D302A9082238463F
:101C500003F07EFA4742474162B6384605B0F0BD10
:101C6000F8FF00000120704701225307036002487B
:101C7000086010467047C0460004002080B5490245
:101C8000FFF786FE4142484180BD0000F0B583B0B9
:101C900000240294019402A901AA2046FFF784FFC0
:101CA0000121012816D1019B002B15D0DA000298E2
:101CB0008218019D0D4E076837420FD147683742A1
:101CC0000FD108305D1E2B46F5D100200190029205
:101CD0000C4608E00C4606E00C4604E00195029034
:101CE00001E001950290204603B0F0BDFF01000025
:101CF00080B53E484121FDF7FCFF80BD70470000E4
:101D00003A4870470D480178002908D10121017037
:101D1000462036490A5CFF2A01D0521C0A547047FB
:101D200080B50648002101703448012101702F4818
:101D300003495022FDF7C4FF80BDC0464019002072
:101D4000CC680108F0B581B003460024E043204E82
:101D5000B3420BDC01256F02BB4215D01F4FBB42C3
:101D60001DD0B34232D1157041201EE0194DAB4257
:101D700018D07D256D02AB421DD0174DAB4225D149
:101D800001201070432010E0022010701748024616
:101D9000443252780A704422805C487008E0157022
:101DA000462002E0012010704220104A105C0870AA
:101DB000204601B0F0BD40200C4B185C8000107034
:101DC000C2B208461946FDF77BFF204601B0F0BDC0
:101DD000EDF10000EEF1000019FA00000102000030
:101DE0004120024900220A547047C0467019002061
:101DF000411E8841014908707047C04634080020E0
:101E0000B0B582B00024019400F056FB012801D146
:101E1000012413E00B48007801280FD1114D687898
:101E200001280BD1A878012808D101242C70202189
:101E300001AA2846FEF7E6FC01982862204602B077
:101E4000B0BDC0465E2E00200648417801225140B8
:101E5000037853400B43817851401943484248412D
:101E60007047C0466C080020F0B583B002A800247B
:101E70000470E520A94E355C6F1E032F1ED8B900F3
:101E800001A251588F46C046991E0108A31E0108A1
:101E9000AF1E0108F91E010802A8047000F0BCFD85
:101EA0000AE002A80121017001F00EF804E002A886
:101EB0000121017000F0C0FFCA21705402A800780F
:101EC000012817D1002D07D0E8257159002903D02A
:101ED000CA20305C88477451022F05D8CA20305C74
:101EE000012801D000F040FDFF22002001460346FA
:101EF00001F0BAFB03B0F0BD0C490A78022A06D003
:101F0000012ADBD101223254FF200870D6E70848AD
:101F10000470FF200190087000F026FD2046214645
:101F2000019A234601F0A0FBC8E7C0464C080020F8
:101F30009108002002480078002800D0014870472E
:101F4000082500200C250020012080027047000099
:101F5000F0B581B005460B200404204600F03EF8A1
:101F6000002801D001B0F0BD0B4E30680227384385
:101F7000306075603068402101433160204600F0D8
:101F80002DF83168B943316001B0F0BD02480168F5
:101F900080220A430260704710200240084800680F
:101FA000410707D4C10607D4C10707D1810B04201C
:101FB0000840704702207047032070470120704797
:101FC0000C20024002480349016003490160704748
:101FD0000420024023016745AB89EFCD70B5451E53
:101FE000AE04FFF7DBFF0446002E01D100F0BEFA7D
:101FF00000206D1E4041012C01D10028F0D1681C49
:1020000000D30524204670BDB0B584B0012420461D
:1020100001F086F8204601F07BF801A900208870C5
:1020200008813F20088009480290A507284601F052
:1020300001FD2846214601F03CFD0F20014600F03D
:1020400015FC284601F030FD04B0B0BDE7030000E8
:1020500070B582B000260196002A0AD014460D46BB
:10206000002908D001A9224601F0B6FA20780028FC
:1020700005D002B070BD0420207002B070BD019880
:10208000017A00290AD00129314608D1C188828805
:102090008A4201D840888218511A00E0418829807C
:1020A000267002B070BD70B582B000260196002A7D
:1020B0000AD014460D46002908D001A9224601F095
:1020C0008BFA2078002805D002B070BD0420207063
:1020D00002B070BD0198017A02290AD00129314667
:1020E0000AD1C1888288914205D2891A408809188C
:1020F00002E0418800E0891A2980267002B070BD94
:10210000A848704700487047F1A1DA1800487047A6
:10211000A1F1DA18E420F749085C7047AC0B002005
:10212000F0B585B00E460027049703A90F800A9CDE
:10213000002C10D0002E10D01546002A0DD0002BF8
:102140000BD003A9029022460193FFF7ACFF02983F
:102150002178002905D005B0F0BD0420207005B01D
:10216000F0BD04A9224601F037FA019A2078002830
:10217000F1D103A80188B14200D80E46168006802E
:10218000002E13D0049803E0761E6D1C002E0DD097
:102190008188C268515C29708188491C818042888D
:1021A0008BB29342F0D3891A8180EDE772B604981E
:1021B0008188C288511A4A1E9141017262B6277005
:1021C00005B0F0BD10B582B00020019004480E218A
:1021D00001AC2246FEF716FB208802B010BDC046B7
:1021E000F07F00208162704770B50022134615E031
:1021F000032494400568A54305608D7895400668E2
:102200002E430660C568A543C5604C799440C568F7
:102210002543C560921C5B1C102B1BD001249C40E5
:102220000D882C42F6D08D786D1E012DE0D8032547
:1022300095408668AE4386600D79954086682E434A
:1022400086604568A5434560CC789C404568254339
:102250004560CDE770BDB0B5082901D3242300E067
:102260002023C5588C00082901D31C210C400F21C4
:10227000A1408D43C550C158A2400A43C250B0BDD1
:102280008161704770470000F0B591B0012420468D
:1022900000F02CFF600600F03BFF600400F030FF10
:1022A0000920C5060C210426019628463246FFF770
:1022B000D2FF0B2128463246FFF7CDFF02AF0220A6
:1022C0000090787121200003029028463946FFF7DC
:1022D0008BFFE6023E8028463946FFF785FF2B4DEF
:1022E0002B492846FEF738FD2A492B4A0027284665
:1022F0003B46FEF7E3FB29483146FDF7FAFC0EADFD
:10230000009EAE72200228810E970F971F48294623
:10231000FEF742FFAE72FF200230288101980E9036
:102320000F941A4E30462946FEF736FF1C480C9093
:102330001C480D9901431C480840A10740180D9006
:102340000CA928463A46FEF71BFF0725280208A9D4
:1023500088810A970994102008903046FEF75CFFA8
:10236000079704A94D7306970594602004903046A2
:10237000FEF77EFFFEF706FC0C4B0D48186030465A
:102380003946044AFEF7FCFD11B0F0BD0064004080
:1023900018080020D00C0020310E0108005C00401D
:1023A000F1A1DA38F133DB18F133DB3820190020E2
:1023B000D818002080B5FFF71BFB80BD70B582B038
:1023C00000250195009501A86946FFF74DFC019C89
:1023D0000098021B0126900A00D0B202084821464C
:1023E000FDF76EFC0748067060590199401860516E
:1023F0002D1D102DF8D104480199016002B070BD67
:102400000C25002008250020C4190020B0B582B09A
:102410000125680400F074FE69460D7141208002B8
:1024200000900920C4062046FFF7DEFEA9022046E0
:10243000FFF7D8FE02B0B0BD70B582B00125A80587
:1024400000F05EFE6C4625710B480090724D2846E8
:102450002146FFF7C9FE10212846FFF711FF20266D
:10246000268028462146FFF7BFFE28463146FFF763
:1024700007FF02B070BDC0461000010080B50248E1
:1024800000F004F880BDC04600F6000870B50446B0
:102490000020E1050ED1F825164E7159002909D00A
:1024A000FFF758FB02F028FE72B672590121204650
:1024B000904762B670BDC046B0B582B000240194AA
:1024C0000094D4200B490D5801A86946FFF7CCFBB6
:1024D00001280BD10098012400218542204600D319
:1024E0000846019A954200D20C460440204602B0AC
:1024F000B0BDC046AC0B002010B5094909780029D1
:1025000009D00022074B0C2454431C59844204D0A8
:10251000521C8A42F7D3002010BD012010BDC046D6
:102520001C690108AC670108014908607047C04692
:1025300004300040014908607047C0460830004040
:102540000C48014901607047CCCC000009480149A2
:102550000160704755550000034909680140481E55
:10256000814108467047C0460C300040014802498E
:102570000160704700300040AAAA000010B5264C48
:1025800010212046FFF77CFE20212046FFF778FE31
:1025900010BDC046F0B581B01C4801884A1C0280BD
:1025A0001B4992B24F2A04D80A78FF2A01D001B001
:1025B000F0BD00270780174800780870164C1025DA
:1025C00020462946FFF75CFE202620463146FFF7CD
:1025D00057FE1048007807280DD8C0467844007987
:1025E00040008744040804080803080335460A48E5
:1025F0002946FFF7F7FD074A1078401CC1B20929A8
:1026000000D80746177001B0F0BDC0465208002040
:1026100004080020500800200014004810B582B0C3
:10262000094800210170E64CA17021800191202110
:1026300001AA2046FEF7E6F80198206202B010BD1C
:102640000148012101707047642E0020084800688D
:10265000012101404942024A0A4040085040704767
:1026600003002080002800D1012001490860704744
:1026700048080020F0B581B0082A2AD9431ADC079F
:1026800031D10023C4071D4602D00C780470012507
:102690004C1941190091521B550809D000232646B8
:1026A000009F31883980B61CBF1C5B1C9D42F8D14D
:1026B0000321C943891C59438A184CD05900631817
:1026C000009C61181C780C705B1C491C521EF9D1CF
:1026D00041E0002A3FD003460C781C70491C5B1C6B
:1026E000521EF9D137E09B0708D003460C781C70C6
:1026F000521E5B1C491C002AF8D12CE000238407E1
:102700001D4604460BD0444200254E5D4655032627
:10271000274637406D1C2E40BE42F6D14419491958
:102720000091521B950807D00023009E274602CE39
:1027300002C75B1C9D42FAD10321C94359438A1841
:1027400009D09B000099C918E3180C781C70491C2B
:102750005B1C521EF9D101B0F0BD0000F0B581B094
:1027600016460A460446062E23D900920027A007E3
:102770003D46204609D00320204004210D1A204662
:102780002946009AFDF7AEFA6019711B8A0808D035
:102790000C4B009D6B430027054608C57F1CBA42C1
:1027A000FBD1BB00C91A009A09D0C018FDF79AFAEC
:1027B00005E0002E03D020463146FDF793FA20466F
:1027C00001B0F0BD01010101F0B583B0234C2068D8
:1027D00080013CD4E16A60688002000F204A4243D5
:1027E000204810180F273940491CFDF79AFAA168B4
:1027F00009062CD50126F2052168890329D4029205
:1028000075063206019221689143216031046268A5
:102810008A4362601449FDF784FA80040721C904E1
:102820004018B904084062688A4310186060206844
:1028300001990843206020682842FCD0606802218A
:102840000143B1436160A06802990843A06003B0EE
:10285000F0BDA0681043A06003B0F0BD00100240BE
:102860000024F4000048E80100093D0010B50446CA
:1028700002F090FC204602F081FC10BDF0B585B05E
:10288000144600220492002C37D003911E490E8872
:102890009B2109010291891B1C4B5F1803231F40D8
:1028A000054614357919B14202D9237005B0F0BD3F
:1028B0000090019204A90398224600F08DFE207832
:1028C00000281CD0002F104B01D0F01B1880188856
:1028D0000299091A039A0D4E7252401B1880701803
:1028E00001990161009A42804160017201461431F0
:1028F000C1600490214600F00DF805B0F0BD052040
:10290000207005B0F0BDC04636080020280F00201A
:102910007047000010B500291ED0002810D00F4BC2
:102920001A68002A0ED01369002B0ED0824211D0F3
:102930001C461B69002B2246F8D11034224605E0C4
:10294000042208E01860002205E010321060002226
:10295000026100E005220A7010BDC0463029002047
:1029600080B5FEF705FE80BDF0B581B0C820284DCA
:1029700000242C54C926A85D012802D100F099FB3F
:10298000AC5524480470204600F090FEFF262046F7
:1029900021463246234600F067FEF020FA4F2F50C2
:1029A000F435142228462146FFF7D8FE2422384663
:1029B0003146FFF7D3FE1748047001B0F0BDC046A2
:1029C0006C080020F0B581B0C820E84D00242C54DC
:1029D00000F06FFBC9202C54204600F067FEFF2654
:1029E000204621463246234600F03EFEF020E64FC8
:1029F0002F50F435142228462146FFF7AFFE24223B
:102A000038463146FFF7AAFE0248047001B0F0BD17
:102A1000AC0B002092080020F0B58BB005460024D6
:102A20000A9409940894079402F050F80D21FDF7D8
:102A300078F90646C920FE49085C012859D10027CB
:102A40002F70CB4C207802285DD0012868D0002858
:102A500072D10195C84E3760C948012404703846C8
:102A6000C44F3860C5490860C6490C7005463146F8
:102A70003A46FFF799F8012800D071E1C448007880
:102A800000280FD1C449097801290BD1C14909682F
:102A9000002907D0C14A32603C60C14B1B685918FD
:102AA00013605160002822D1BD480068BD4940181C
:102AB000400AB6281BD82E460895BB480990B04856
:102AC0000078401EC0B209A908AAFFF759F8099872
:102AD000FFF7DCFC012800D037E1AB4DAE702E8053
:102AE000202107AA2846FDF78DFE07982862A048F6
:102AF00035E101202870FFF703F94121425C0423EE
:102B0000134343542EE102F0F7FA9A480021016082
:102B100099480160994801600120287021701FE1E7
:102B2000954801680029019508D003C9814205D95B
:102B3000091AFEF7F3FF07E0277011E190480078CB
:102B4000401EC0B2FEF7CAFF0297B04203907AD986
:102B50000496012149020691884C8A4F21688142DE
:102B600000D3B9E083480068002800D1B4E002F047
:102B7000C3FA216882480078401EC0B20AAAFEF754
:102B80004BFF012800D0A5E07B48006806680A9D3D
:102B9000B54200D29EE04468AC4200D89AE0774843
:102BA0000068049F3946FDF7BCF8781A0590611B50
:102BB0000A963046FEF7B2FFB84205D9059DA842F5
:102BC000C04C0ED83D460CE0059DA842BD4C08D82F
:102BD000684A1168491E1160674A1168083111601E
:102BE0000546F826A0590028664F059514D0002DFB
:102BF00014D002F081FA72B6A2590A9801219047C6
:102C0000387062B63878012808D10A9806994018B9
:102C10000A906D1EEDD101E000203870387801284F
:102C2000564C59D1206805994618266030460499BB
:102C3000FDF777F80398864290D200298ED10020C4
:102C40000199087048E04B480068002844D00120F2
:102C500044024C4D484F386801684068461A02F0FB
:102C60004BFA386800683146FEF758FF0146F826EF
:102C7000E74880590028069118D0386800680A9003
:102C8000002915D0069F02F037FA72B6E048825943
:102C90000A9801219047287062B62878012807D148
:102CA0000A9800190A907F1EEDD101E00298287061
:102CB0002878012810D131490868069A80180860E0
:102CC0002D490868083008602A490868401E0860D5
:102CD000C0D101E000203870284C206829490978CB
:102CE000019A1278002A039A10D101290ED190423C
:102CF0000CD2E5200421C64B1954EC201A58002AA6
:102D00002ED0CB20185C2149904729E001260129CB
:102D1000029F02D19042304607D0FEF7F1FF4121D9
:102D2000425C0423134343543846BA4DAE702F70AF
:102D30006870202107AA2846FDF764FD276002205D
:102D40000B490870079828620AE0FEF7D9FF412175
:102D5000425C0423134343540A48067001980470EC
:102D60000848047820460BB0F0BDC046AC0B0020EC
:102D700091080020580800205C080020600800200E
:102D800054080020050800206C080020B93601080E
:102D90009008002018290020202900201029002058
:102DA0001C290020000AFFF700F60008F0B585B0E6
:102DB00015460C460390FFF7ADF9064601277E4005
:102DC000EDB204942046294600F03EFA78403043A4
:102DD0004442444100281CD101970295039E049F60
:102DE000C9208B4D285C012803D1FEF783FB002806
:102DF00014D0FEF77FFB012804D130463946029AF1
:102E0000FFF738FCFF2200200146034600F02CFCAF
:102E100001E0FFF7A9FD204605B0F0BD02200549FD
:102E2000FF22002300F020FCCA2001992954F2E778
:102E3000AC0B00205D4A0108F0B581B0002400947D
:102E400002F05AF9FEF756FB012808D1D820704A43
:102E50001158D42010586A46FDF7D0FC10E0C92064
:102E60006B4D285C01280BD1D826A959D427E859E5
:102E70006A46FDF7C3FCA859AC51E9590818E85156
:102E800002F03AF9DC20F84D28580099884216D112
:102E9000FEF730FB01280ED1C9260124AC55284687
:102EA000F430FEF7FFFD012807D1F420295800294E
:102EB00005D0884703E0012401E00020A855204602
:102EC00001B0F0BDAC0B0020F0B583B00446002586
:102ED0000295C920F94E305C01283CD10194E027CD
:102EE000F059802841D30024F54D0094202102AAF6
:102EF0002846FDF787FC286A029988423AD168780B
:102F0000012837D1A878012834D13D4602F0F4F8E1
:102F1000FC21705800270028384609D072B6CC2012
:102F200030587358E1B2C90171188022984762B6CF
:102F3000012867D1D0217258803A72502F467159BA
:102F400080397151CC22B3588033B350641C7F292F
:102F5000F84DCBD80FE0FEF7D3FE4121425C0823A9
:102F6000134343540120207049E00120002401282C
:102F700003D031E0009801282ED1F15900292BD03F
:102F80004842072505402006440C08193018FF2147
:102F90002A46FFF7E3FBF0594019F051FC21705825
:102FA00000280AD072B6F259CC2030587358311923
:102FB000984762B601280FD102E0002001280BD10A
:102FC000F1590022F251CC22B3585B18B350D022F1
:102FD000B358691AC918B150012805D1D448012540
:102FE0000570019805700AE0012001990870FEF74C
:102FF00087FE4121425C08231343435400252846A1
:1030000003B0F0BD38462F460128B6D0E4E7C046ED
:10301000AC0B00206C080020F0B583B00E460746CC
:103020000021029101A80180002B0CD01C46002E2B
:103030000BD01546009101A938462246FFF708F843
:103040002078002803D003B0F0BD04202EE001A8B2
:103050000088A84201D2032028E002A9384622466F
:1030600000F0BAFA20780028EDD101E06D1E761C40
:10307000002D0FD00298C188C0683278425402985F
:10308000C188491CC18042888BB29342EED3891A11
:10309000C180EBE772B602988188C2888A4201D06B
:1030A000012100E00221017262B60098207003B095
:1030B000F0BD80B582B000200190009001A8694663
:1030C000FEF7D2FD012805D1019800990A1A0021C6
:1030D000FFF744FB02B080BD0120000602490A68E8
:1030E00002430A607047C0462410024001210903D0
:1030F0004E4A13688B43C007C00C18181060704705
:1031000002490A6802430A607047C0461410024030
:1031100002490A6802430A607047C0461C10024018
:1031200002490A6802430A607047C046181002400C
:1031300080B500F03BF8044909680906090F03A2AD
:10314000515CC84080BDC046041002400000000031
:1031500000000000010203040607080980B5FFF71C
:10316000E7FF044909684905490F03A2515CC840BB
:1031700080BDC046041002400000000001020304AC
:10318000010A032906D0022907D0002907D10649E0
:10319000096804E00449496B01E00349496AC0B287
:1031A000C1400120084070470010024010B510488F
:1031B000026803211140022903D001290CD10D48D6
:1031C00010BD01680268806A8902090F8C1CD10356
:1031D00004D40948604310BD154810BD0F210840B4
:1031E000411C0448FCF79DFD4443204610BDC046E9
:1031F000041002400024F40000093D0080B50B4992
:103200000968002800D0890803200840032806D058
:10321000012806D0002807D1FFF7A0FF80BD044891
:1032200080BDFFF7C3FF80BD002080BD301002408D
:1032300000127A0080B50A4601463148007802281B
:1032400001D800F043F880BDB0B50C46C82909D8B4
:103250000146294D28462246FFF70CFAE0202C5063
:103260000120B0BD0020B0BDAC0B0020034A1160AE
:1032700003490860034801210170704718290020A4
:103280001C2900202029002010B582B00A460146E2
:1032900000200190112A00D31122F020F84B185879
:1032A000001DFFF7E7F9234C202101AA2046FDF776
:1032B000A9FA0198206202B010BDC046AC0B0020F4
:1032C0006C080020DC21FB4A5050704770B5D823B1
:1032D000F84CE250D4256151D026A251CC26A15100
:1032E0002124E400444305480019C25041510448D8
:1032F0000178491C017070BDAC0B002094080020BF
:103300009208002010B582B00848002101700848DA
:103310000170084CA17021800191202101AA204652
:10332000FDF770FA0198206202B010BD642E0020F3
:103330005E2E00206C0800207D208001014908805D
:103340007047C046CA190020F0B583B00446476AEA
:1033500005462835E81938213940382901D001219E
:1033600000E0022102918E01F11B226A0192FCF71A
:10337000C0FC606A802129540198C0194109AA192A
:10338000203A9177C100D177410B5177400D1077EA
:1033900020462946029A00F023F81F20C043211836
:1033A0000A6ACB23CA54130ACA254B55130CC925E4
:1033B0004B55120EC823CA54001DF0D1A834204624
:1033C00003B0F0BD70B50549024678C978C278C926
:1033D00078C200210162416270BDC0466C6601087E
:1033E000F0B5D8B00192012A00DAB1E0034600201E
:1033F000009002460493029200980C18E278A37899
:103400001B029A1863781B04D3180A5C12069B18D7
:1034100018AA1350001D4028EFD10391002018AACC
:1034200011184B6812241D46E5410724DE08E341CC
:103430006B4073408C6B13252646EE411125A70A7D
:10344000EC4174407C404D6A64191258A218D2189D
:103450000A64001DC028E2D110A804993CC93CC0F0
:103460003CC93CC040200B9018A80A9013980990C2
:10347000129807901198069010980D9014AF89CF6C
:103480000C90179D3348089005950C980E930F9754
:103490000D9A069F07990D231446DC410223154619
:1034A000DD41654016231446DC416C400B23054684
:1034B000DD4106230646DE416E4019230546DD4107
:1034C00075400E9B0340059E9B195B190F9D85431C
:1034D0005B19089E20CE08965B190A9E20CE0A969C
:1034E0005B19E4180D463D400E467E4016406E4086
:1034F000A4190D94099CE3180C930B9B5B1E0B9372
:10350000059109913946079706920E9F03460F9D34
:10351000BAD13E462C46169715900C9814901795E4
:1035200005981390129111920D9810900020049B11
:1035300010A909581A5851181950001D2028F7D100
:1035400003994031029A521C0198824200D052E7FE
:1035500058B0F0BDD8690108F0B583B015460E46E5
:103560000446406A4021091A9142174600D80F4686
:103570002018283031463A46FCF7A2FB606A401911
:103580003F2802D8606203B0F0BD02962646283676
:10359000012220463146FFF723FF0298C11901910D
:1035A000EF1BBA092046FFF71BFF3F25E9430291B5
:1035B00038460840019909183D4030462A46FCF734
:1035C0007FFB6562403702980740206AC01920627D
:1035D00003B0F0BD7047000010B5002A0DD00029DF
:1035E0000CD00A4B1B68002B05D01C88844208D0E5
:1035F0001B69002BF9D10220107010BD042010703F
:1036000010BD002010700B6010BDC0463029002096
:1036100001094140C900484070470000F0B500BAB8
:10362000002140220F4C0D466E092F0177407E1974
:103630008F073F0FE759CF19774038184609070120
:1036400077403E18064BC9184F0A0C233B40E358FD
:10365000CB1873405D19521E1306E5D128BAF0BD90
:103660001D0A758F4C660108B0B5E824114D29512B
:10367000E5216854EC202B50CB202A54B0BDC04625
:10368000AC0B002080B504490870012802D101204C
:10369000FEF7AEFB80BDC0464408002080B5FEF7B3
:1036A00091FD0149088080BDFE7F0020E421014A90
:1036B00050547047AC0B0020002801D0022000E0DD
:1036C00001200149087070474C0800207047000035
:1036D000F0B584B001210C043448021F1368234361
:1036E00013604D04002316682E4204D1661E5F1C31
:1036F000B3423B46F7D3136802932D4B1E68102745
:1037000037431F601E680E430E27BE431E601E68AF
:10371000022703973E430D27BE431E600368F02631
:10372000B3430360072300931B0206689E430660B1
:103730000B0601934E0603680F46029929421AD1DF
:10374000A343036003681B4C2340009CE4041C4318
:1037500004601368019C2343136013683342FCD058
:103760000268039B1A43BA43026001680C220A40B4
:10377000082AFAD118E02343036003680D490B407F
:10378000FC041C430460136801990B431360136825
:103790003342FCD00268039B1A43BA4302600168BB
:1037A0000C220A40082AFAD104B0F0BD04100240ED
:1037B00000200240FFFFC3FF80B5FFF789FF80BDF7
:1037C000B0B5174C20680125284320606068154972
:1037D000014061602068144901402160A80421680B
:1037E000814321603F20000461688143616060681B
:1037F0000F2188436060FF205430216B8143216397
:10380000606BA84360630020A060FFF7D5FFE80469
:10381000216801432160E80604490860B0BDC04644
:10382000001002400CB8FF08FFFFF6FE08ED00E0B4
:10383000184801884A1C130400D0114601800E4824
:1038400001884A1C130400D0114601807047C0460D
:103850000020704780B5FEF7D7FB80BD0648018881
:103860000A46632900D9643A0280632901D80020FE
:10387000704701207047C046D619002005490888C6
:10388000002801D1024600E0421E0A80411E884104
:103890007047C046D819002010B501218C0720467A
:1038A00000F00BF9012805D10121204600F0BCF8F9
:1038B000FFF7BEFF10BDF0B587B00193164607466F
:1038C00005A800240480049102970392150400F0D7
:1038D00073F8002D24D0B84222D1542005A906AF98
:1038E0003A46FEF7B5FB3878002819D130460C303F
:1038F00005A90988884213D8542002A90C2206AFD2
:103900003B46FFF789FB3878002809D1B2B2542032
:1039100006AC01992346FFF77FFB207844424441DF
:10392000204607B0F0BDF0B589B01746039102906C
:1039300007AD00242C80522008AE29463246FEF7FF
:10394000B2FB3078002828D128880C2825D308AE6F
:10395000009652200C2104AA07AD2B46FEF7E0FB8F
:103960003078002819D128880C2816D104A881881D
:1039700008AD0095522007AB3A46FEF7D1FB2878F8
:1039800000280AD107A801880598884205D1049922
:10399000029A1160039908600124204609B0F0BD25
:1039A00080B500F095F880BD80B5FEF7A9FB80BD1D
:1039B00080B5FEF7A7FB80BD80B5FEF7A7FB80BDF5
:1039C00080B5FCF74BFE80BD80B5FCF777FE80BD6F
:1039D000B0B584B01C46154601AAFCF719FF0128B2
:1039E00003D1019929600299216004B0B0BD80B56E
:1039F000FCF7D8FF80BD0000084908607047C0464A
:103A000080B5FCF7B9FE80BD10B5044C21680029D3
:103A100002D088470020206010BDC046C019002099
:103A200080B5FCF739FF80BD014A4A40026170470A
:103A3000FFFF000010B5184A90421ED0174A90426E
:103A40001BD0174A904218D08A7803681024A343E9
:103A5000D207D20E9A1802608A78120160231A40A7
:103A600004689C43A21802600A7A03231B020468BC
:103A70009C439207920D121902604A68C2620A883A
:103A80008262084A904201D1497A11634169012258
:103A90000A43426110BDC046001000400040014092
:103AA00000440140002C0140016801220A430260E9
:103AB0007047C2680A43C260704702690A4204D074
:103AC000C068084201D00120704700207047000004
:103AD00010B5044C2068002802D0804700202060E8
:103AE00010BDC0462419002070B51546144E32682A
:103AF000824223D11C460846FCF7D3FF1149082215
:103B00000A738D60104A0023137111600F23034064
:103B10008879C0250540E8188871012080070B6866
:103B20000343032080071840084BC018086072B692
:103B300007480849FDF78CFA62B6B460002070BDF2
:103B4000380800202819002038190020A1F1DA18BF
:103B500000640040D00C00201D480168491C016031
:103B60007047C046F0B583B00C46054602A8002752
:103B700007700190FFF76CFE1549096809040143BD
:103B800001910846FEF76EFD601E21468141681EC8
:103B90002A4682410A400092012A16D102A80770E3
:103BA0000BE002A801780E4001AA92191278625423
:103BB000491C0170CFB2AF4207D203263740032F12
:103BC000EFD1FEF743FD0190EBE7009803B0F0BDA5
:103BD000042500209D4800887047C0469F48008803
:103BE0007047C046A14800887047C046A348008877
:103BF0007047C046917250727F201072032050604F
:103C000070470000014908707047C0464608002010
:103C100080B50146032000F07BFE80BD80B50146E3
:103C2000052000F075FE80BD80B500210A4600F039
:103C3000A3F980BD10B582B002460020019000902B
:103C4000002A12D00A490B689C180ED201A96A46B4
:103C5000184600F091F9411E4842484100998C42B3
:103C600001D9002100E00121084002B010BDC0468A
:103C70002429002080B50146002000F049FE80BDC7
:103C8000E6480078411E48424841704780B50146E9
:103C9000022000F03DFE80BD034909780840411A2A
:103CA000484248417047C046C81900206F48018803
:103CB000484248417047C046D84909780840411AEF
:103CC000484248417047C04680B50146012000F097
:103CD0001FFE80BD80B50146042000F019FE80BDA6
:103CE000B0B501464068032801D20020B0BD0831BC
:103CF000002007A2034614780D78A54206D15C1C6B
:103D0000521C491C012B2346F5D90120B0BDC046E9
:103D10002EF19900B0B501464068032801D2002079
:103D2000B0BD0831002007A2034614780D78A542E3
:103D300006D15C1C521C491C012B2346F5D90120DD
:103D4000B0BDC0462EF19800B0B50C460546486897
:103D5000032802D82878132119E0607A0004A17A98
:103D600009020818E17A40180B4988420DD1FDF785
:103D7000BFFF287878212246FFF73CFF0B20C001C7
:103D80000649215000F090FCB0BD28783121224630
:103D9000FFF730FFB0BDC046FFFFFF00FD42010846
:103DA00080B50A46497A7F2909DC002901D0032918
:103DB0000DD10221516000784030107280BD802901
:103DC00001D0832903D100205060107280BD00789B
:103DD0001221FFF70FFF80BD80B5002800D080BD05
:103DE0000220FFF74FFC0120FFF70CFFFFF7A4FABA
:103DF00080BD70B50C4605464E7A022E03D0012ECA
:103E00000BD1012000E00020FDF7F2FF02206060EE
:103E1000287866724030207270BD30467F30C0B264
:103E2000012807D8813E70427041FDF7E1FF002074
:103E3000606070BD287812212246FFF7DBFE70BD5E
:103E400002480188491E01807047C046CE190020F3
:103E500002480188491E01807047C046D0190020E1
:103E600002480188491E01807047C046CA190020D7
:103E700002480188491E01807047C046CC190020C5
:103E800080B522490422FEF7F5FB80BD70B582B0F3
:103E9000044600260196009600F00EFC012C0DD180
:103EA0006C460420207114480090FFF785FD002126
:103EB00005222346FFF7FFFC02B070BD6C462220AE
:103EC000A0700B48208001252846FFF7DBFB284621
:103ED000FFF798FEFEF748FD06480670FFF76CFDF9
:103EE000244903222346FFF7E6FC02B070BDC0461A
:103EF0007F310000D31900207101FF0080B5034815
:103F000001210422FEF72AFC80BDC046640800207F
:103F1000C821C17000218170322242700170704747
:103F200070B50C460546FEF7F5F802280CD1FDF7F2
:103F300067FF01280AD10320FFF7B8FB012060606A
:103F400028784030207270BD242600E02226FDF73C
:103F5000D7FE4121425C082313434354287831465D
:103F60002246FFF747FE0B20C001DC492150FEF737
:103F7000FBFC70BDAD3F010870B500230A4C02E0A8
:103F80000833102B0ED0E5588542F9D8E61876682C
:103F90008642F5D9002900D00D600120002A02D008
:103FA000166070BD002070BD5C66010880B50028F9
:103FB00000D080BDFDF7A2FEFDF720FB80BD000014
:103FC0000D4800787047C04610B503460020002910
:103FD00011D0002A0FD0084C24789C420BD9212004
:103FE000C0005843054B1818D423C3580B60D82180
:103FF00040581060012010BD920800209408002055
:1040000006480178042903D00120022904D102E0E6
:104010000320022900D108467047C046440800200A
:10402000B0B582B00C460546FFF786F92046FFF78B
:1040300021FE01280CD100200190009001A96A46C0
:10404000204600F0D7F800282DD0014628783DE022
:104050002046FFF7DDFD012812D1424A101D61689C
:10406000814231D121460C319B48FEF703FB287871
:1040700078212246FFF7BEFD0B20C0013A4949E0F6
:104080002046FFF727FE012825D10520606028780B
:10409000042121730B2149016181012161724030AA
:1040A000207202B0B0BD00990198FFF7DFF8FDF76C
:1040B00097FEFDF727FE287878212246FFF79AFD24
:1040C0000B20C001294925E0287813212246FFF75B
:1040D00091FD02B0B0BD2046FFF7A0FD012808D138
:1040E000287878212246FFF785FD0B20C0011C4966
:1040F00010E02046FFF7E8FD012810D1E06800BA83
:10410000FFF7E0F8287878212246FFF773FD0B20AF
:10411000C0011249215000F0C7FA02B0B0BD2046DC
:10412000FFF7B4FD01462878012912D15849618171
:104130000121617240302072FDF786FE01280AD10C
:10414000FEF79CF901462878012905D10421616018
:10415000A5E71221BAE728782221B7E7E142010852
:10416000314301082A050000954201088D430108EA
:1041700080B5FFF737FD002801D0FFF771FEFFF78C
:1041800035FD002801D0FFF773FEFFF723FD00285F
:1041900001D0FFF755FEFFF721FD002801D0FFF702
:1041A00057FE80BD80B50A46497A002904D080298F
:1041B00008D10020506080BD02215160007840305D
:1041C000107280BD00781221FFF714FD80BD000041
:1041D000034909780140091A484248417047C046DE
:1041E00046080020704700000D210170004870470C
:1041F00070690108F0B581B00346446813200D2CA6
:1042000040D31C7B442C3DD1587B00069C7B24046E
:104210002018DC7B24020419187C2618587C000620
:104220009D7C2D042818DD7C2D0240191B7DC518AE
:104230000023A81900901F465F413120002D21D096
:10424000002F1FD11F25ED0675196D0A7A2D19D87B
:104250000D4E751C009FAF4214D20C4D2C40012511
:10426000EF06BC4200D83C46094D009F7D19074F20
:104270003D40B54200D33546A54203D90C60281B0A
:104280001060184601B0F0BD00F6000800FEFFFF08
:10429000FF01000010B5002800D010BD00F02CFF79
:1042A0000D4800F04FFD411C04D0002804D100232C
:1042B00004240AE0052400E00624FDF721FD412145
:1042C000425C012313434354254B602000212246C6
:1042D00000F086F910BDC04634290020AD3F01082A
:1042E00080B5002800D080BD0320034931222F4B28
:1042F000FFF7BAF980BDC046DD44010810B582B0B1
:10430000002101910091002801D002B010BDFDF7FD
:10431000F5FC00F0D1F96C4654202070FFF74CFBFF
:10432000002101222346FFF7C6FA02B010BD0000AB
:1043300080B5002800D080BD00F0DEFE00F08AFCD1
:10434000002804D0FEF76AF9054B052203E0FEF7CA
:1043500077F9002304220220032100F041F980BDF7
:10436000AD3F0108B0B50C460546FEF7A2FE0B2096
:10437000C00105492150287878212246FFF73AFCF0
:1043800000F092F9B0BDC046B143010880B50028E5
:1043900000D080BDFDF7B2FC012003493122034B60
:1043A000FFF762F980BDC0468D3E01083D48010817
:1043B00080B5002800D080BD0120000602490860B9
:1043C00000F0B8FEFEE7C0462410024070B50C466F
:1043D00005464868022802D82878132111E0261DD6
:1043E000287840302072A07A617A0902081880B2D9
:1043F00021460B313246FDF71BF9002805D02878FD
:1044000031212246FFF7F6FB70BD3068C01C3060DA
:1044100070BD0000F0B581B00C464F680A2F0090C7
:1044200003D901260B2F08D21FE000781321224662
:10443000FFF7E0FB00260B2F17D327480021016070
:104440000B2203681B020360A55C5B190360521C0E
:104450000F2AF6D141600F21426812024260635C6C
:10446000D2184260491C1329F6D1F24D2868FFF793
:10447000DBFB012807D16868FFF7DCFB0B2F0BD3B0
:10448000012802D108E00B2F06D3009800783121D3
:104490002246FFF7AFFB0026002E15D0012630463E
:1044A000FFF704F903CDFEF7C5FE04206060009815
:1044B000007841214902618120216172DC490E703E
:1044C0004030207201B0F0BDFEF74EFA0020FFF739
:1044D000EDF801B0F0BDC04624290020F0B583B04E
:1044E0000024019400940525012801D02F4600E006
:1044F000042700F0E1F86E46377105480090FFF799
:104500005BFA21462A463346FFF7D5F903B0F0BDE2
:1045100071010202B0B50546487A401E11282ED816
:104520000C46C04678440079400087440818282883
:1045300028282828282828282828282808182878DB
:10454000403020720420F049FFF70CFB00281AD0FD
:1045500020460A30FFF794FC06206060B0BD20467C
:104560000A3000F0A7F900280AD0022060602878FD
:1045700040302072FFF7C2FC0320FFF743FBB0BDC1
:104580000120FFF73FFB287835212246FFF732FB59
:10459000B0BDC046B0B5FFB0FFB0E4B001ACBA49A1
:1045A0002046FBF7A6FB25200501FFF705FA25812C
:1045B00002210291019020460A30FFF7A9FC0B204E
:1045C000C001064921500622029201980834234670
:1045D000FFF771F97FB07FB064B0B0BDD93D01087D
:1045E000F0B585B0019316460F46044600200390AF
:1045F000029000F061F802AD2E71EF70AC70FF20F8
:1046000072302880FFF7D8F9052201992B46FFF771
:1046100052F905B0F0BD70B50C46054600F03EF805
:10462000287840302072667A20460A30FFF770FC06
:1046300006206060802E06DC012E0AD0022E1AD0E1
:10464000032E0ED023E0832E0BD0822E13D0812E8A
:104650001DD10120FFF716F8812E1DD100206060CA
:1046600070BD0420FFF70EF8832E01D1002060609A
:10467000FEF762FE70BD0220FFF704F8FEF742FE6F
:10468000822E01D100206060FEF756FE70BD2878B2
:1046900012212246FFF7AEFA70BD00000148322118
:1046A00001807047CE1900200648012101707D204D
:1046B0000001054908807047024800210170024846
:1046C00001807047D2190020D019002010B504468F
:1046D000FFF76EF9A04201D1012005E0FFF764F970
:1046E000001B4142414148000149087010BDC046CD
:1046F000C8190020F0B581B00C4605464B4801783A
:10470000002901D101210170607AEF490870484801
:104710000678FDF7FFFC012801D0242200E00022EA
:10472000411E4F424F41012805D16168832902D3C0
:10473000287813210FE0E4490978012812D13C4878
:10474000007888420ED0701EDF490978C0B28842D6
:1047500006D1287873212246FFF74CFA01B0F0BD4C
:1047600073220027002F1FD0164632480068626867
:1047700021460A31921EFEF719FB012807D12C4968
:104780000878401C08703246002F04D10CE0222229
:104790000027002F08D0274B18686168891E401831
:1047A00018605868401A5860002F0BD021484068A4
:1047B000002807D100201E49087002201646FEF787
:1047C00075FF3246002F0DD0C9201B49095C28789F
:1047D000002922D078212246FFF70CFAFFF764FF68
:1047E00001B0F0BD1646FDF78BFA4121425C08236B
:1047F00013434354287831462246FFF7FBF9FEF76E
:10480000B3F800252846FEF751FF0B20C001AD4943
:1048100021500748057001B0F0BD022161604030B1
:104820002072A9480078607201B0F0BD68080020CD
:104830000125002024290020AC0B002070B5FFB01A
:10484000FFB0E4B00D46064601ACFD492046FBF73B
:1048500050FAFFF7B1F80190782130462246FFF771
:10486000C9F90B20C6010948A051FFF71DFF1048E8
:104870000560A1590198029A08342346FFF71BF8F6
:104880007FB07FB064B070BD84050000914801081E
:10489000B0B50446002801D1FEF74EFD044D29684D
:1048A000002903D02046884700202860B0BDC046BC
:1048B0000C29002010B5002814D0044612480178B5
:1048C0000906427812045118827812028918C078B9
:1048D00008180E490978022906D0042902D1FEF7EA
:1048E00097FE03E0002010BDFEF798FE2178090630
:1048F000627812045118A27812028918E278891895
:10490000411A4842484110BD640800204408002074
:10491000B0B5042804D840B280000DA2125800E0BF
:104920000AA2486804280ED30831002003461478F0
:104930000D78A54208D15C1C491C521C022B234651
:10494000F5D90120B0BD0020B0BDC0463101020341
:10495000DC6A01088C66010890660108D86A0108C3
:1049600094660108B0B50146406803280FD30831AA
:10497000002008A2034614780D78A54208D15C1CDB
:10498000491C521C012B2346F5D90120B0BD002043
:10499000B0BDC0462EF15A0070B50C4605464E68B3
:1049A000032E0AD3607AF12807D1A07AEF2801D02C
:1049B000902802D12878312141E02046FFF7D2FF2C
:1049C00001280FD120460B30F11EC9B2FEF75CFC66
:1049D0000320606028785A21A172F1216172403071
:1049E000207270BD2046FFF795F901280ED1F01E08
:1049F000C2B2102A1ED121460B311748FCF798FF8E
:104A000001462878002913D198211DE02046FFF7A0
:104A100067F9012811D1F01EC2B2042A0AD1214639
:104A20000B310C48FCF784FF0146287800290AD096
:104A3000222104E02878132101E02878122122465F
:104A4000FFF7D8F870BD9921A172F121617203219D
:104A50006160C4E799F1000098F1000070B582B080
:104A60000446002601960096FFF726FE012C0ED183
:104A70006C4676202070144800786070FEF79CFF2A
:104A8000002102222346FEF716FF02B070BD6C46DD
:104A90002220A0700A48208001252846FEF7F2FD5A
:104AA0002846FFF7AFF8FDF75FFF66480670FEF790
:104AB00083FF044903222346FEF7FDFE02B070BDCA
:104AC0007F360000AD3F0108652E0020E120400147
:104AD00070477047F0B5FFB0FFB0E7B004A8584981
:104AE000FBF707F903A800270770FFF735F8FFF772
:104AF000DDF801281AD1534D5348406800280AD0E8
:104B00002878022807D0012810D8FEF715FC4F4856
:104B1000012101700AE001242046FEF7B3FD204682
:104B2000FFF770F8FDF720FF0020287004A8011D92
:104B3000064608363246FEF7F6FE012878D10120F7
:104B4000FFF750FB41480178012905D10021017090
:104B50003C480178491C0170FFF792F8012801D008
:104B6000FEF7EAFB0498FFF7B1FD03A8FFF73CFB53
:104B70000546344904A8047A362C02D00878002867
:104B800005D1102C11D13248007836280DD102966B
:104B900001263046FEF776FD3046029EFFF732F8DA
:104BA000FDF7E2FE0020274908702948047003A899
:104BB000002D2AD00078002827D003A80078F9001B
:104BC0006A5C944205D0002D1FD07F1C8742F6D32B
:104BD0001BE06D18A878FFF75FF8012815D16878F9
:104BE000FFF76AF8012810D1E878FFF7F1FA0128F9
:104BF00022D10B20C00104A900220A506A68002AB1
:104C000003D004A92846904704E004AA107A112191
:104C1000FEF7F0FF059800280AD0FEF7CDFE0490BD
:104C20000B21C90104AA5158059A3346FEF743FEE9
:104C30007FB07FB067B0F0BD04AA107A3321E7E7F8
:104C400084050000D3190020242900202C290020ED
:104C500000250020F0B5C1B0002540953F953E9558
:104C60003D953C953B953A95399506950595FDF70B
:104C700061F9EC4300F066F900285FD00190FFF77E
:104C80009FF900285AD00746009407A8FEF79AFB20
:104C90000AE00026002E50D0059A07A82146FEF70C
:104CA0005BFC6D1CAF422CD006A905AA2846FFF775
:104CB0008BF90128F5D1069C002CF2D0059800282C
:104CC000EFD00126F004A10A8142E5D1FDF732F9C7
:104CD0000028DED0039007204007069909180598A0
:104CE000029140180490FDF72FF9049A824202D9EC
:104CF0008242CED8CEE70399029BCC188242C8D814
:104D0000C8E707A8FEF720FB014639AC202520465E
:104D10002A46FAF7D5FF204601992A46FAF7F4FF0A
:104D2000002808D0FCF7ECFF4121425C022313432A
:104D30004354009C02E0002400E0009C204641B067
:104D4000F0BD0000F0B57C4FBD44074681208400D3
:104D5000FFA8443009902146FAF7CBFF8FA82146DF
:104D6000FAF7C7FF00268D968C968B968A968996C1
:104D70008896879686960125290246A80A91FAF711
:104D8000B8FF4596449643964296419640963F9684
:104D90003E963D960BA8C821FAF7ABFF089720373F
:104DA000AC023EAA3846214600F0F6FCF14300284A
:104DB00000D0B4E0079106958CAA3846214600F051
:104DC0000DFE002801D00799A9E0049403975648E6
:104DD00009990D18069FF802059059496944086021
:104DE000FFA844300990001D50490A9C2246FAF75A
:104DF00067FFEC532F708CA883888C9A09980090D9
:104E000046A83DA900F000FF002801D0079986E0E0
:104E1000059F3DA8018846A88AAA00F03FFD00280A
:104E200001D007997BE08A983EA92022FAF76CFF0F
:104E3000002801D0079972E088AA86AB039C20461F
:104E4000049D294600F074FD0799491E002866D18B
:104E500007910898411908462A300990203102919B
:104E60008F9788A8828888998FAF0597381DFAF7A1
:104E700027FF86A882880A98801A3818412189005D
:104E800040188699FAF71CFF0BAD2846FEF79AFAF0
:104E90002027284608993A46FEF75EFB2846214619
:104EA000049A029CFEF758FB0A2228462146FEF788
:104EB00053FB2846FEF748FA01463EA83A46FAF761
:104EC000FFFE0598009046A83DA9099A0A9B00F0AC
:104ED0009BFE002801D0079921E03DA8018846A843
:104EE0008AAA00F0DBFC002801D0079917E08A9815
:104EF0003EA92022FAF708FF002807990FD115488C
:104F000020220899FAF7DCFE1148069D0570084832
:104F10000A222146FAF7D4FE0648057031460846B3
:104F2000064FBD44F0BDC04601020000CC67010839
:104F300064190020D4190020BCF9FFFF44060000CA
:104F40004004000002480078002800D00148704763
:104F5000411900204419002070477047F0B581B016
:104F60000D46044600680126B043206020682A49A7
:104F70000140A87A084329890143A8880843206092
:104F8000606826490140E88808436060A0682449B9
:104F90000140A8890843A0602248844206D02248E4
:104FA000844207D10020FEF729F905E00120FEF731
:104FB00025F901E0FEF7D2F821680904009601D531
:104FC000324600E0022229689140192242431046ED
:104FD000FAF7A7FE074664263146FAF7A2FE054611
:104FE0006320C0436843C0190099C90327680F4074
:104FF00001D0032100E00421884032303146FAF725
:1050000090FE002F01D0072100E00F210840290168
:105010004018E06001B0F0BDF3E90000FFCF0000F0
:10502000FFFC0000004400400038014001680122FC
:105030000A430260704701229202914203D0402944
:1050400003D0012903D1083001E0001D402102688E
:105050000A4302607047C0690840411E884170479A
:10506000014A0A4082627047FF01000080B500F0EB
:105070000DF8012807D1FCF75BFAFFF78BFA411E08
:105080004842484180BD002080BD000080B500F04E
:1050900019F8012805D1044801785A394842484195
:1050A00080BD002080BDC046F17F002080B504484F
:1050B000FEF766F8C0B2411E4842484180BDC04676
:1050C0001B02000080B5FDF77DF803490988091A25
:1050D0004842484180BDC046FE7F00200449411837
:1050E0004A424A41034941184842484110437047E7
:1050F0000FCC24E70F5E25E780B5FDF737FA80BDBA
:1051000080B50A48FEF73CF8002801D0FDF7E4FF1F
:10511000FDF71CFA0420FDF707FA0548FDF70AFA27
:10512000FDF724FAFDF70CFA80BDC0461D02000011
:10513000E204000080B5FDF709FA0220FDF70CFA41
:105140000128FAD00020FDF7F5F9FDF70FFA80BD30
:1051500070B50B460446084D2868866820461146FF
:105160001A46B047002801D0C0B270BD2868C16897
:1051700020468847C0B270BDC4190020002805D45D
:105180001F21084001218140014801607047C0464D
:1051900000E100E0002805D40322034693430C4AB3
:1051A0009A1806E00F220240083A03239A43074B5D
:1051B000D2188007C00E8901C9B28140FF23834005
:1051C00010689843084310607047C0461CED00E02B
:1051D00000E400E0F0B585B000250192002A26D059
:1051E0000A9E002E23D00C460025009504E0551899
:1051F00080C0761E049C1AD0029001CB0393009FBE
:105200003946019A3B46FAF743FD224610CA0492FA
:1052100065193A467A412F18A54201D2022400E0CE
:105220000124039B0298AF42E1D22246DFE72846E1
:1052300005B0F0BD002A03D008C908C0521EFBD13A
:10524000704780B5002902D08900FAF752FD80BD71
:1052500070B593001C1F03190C190020C143521E86
:105260000AD48D005E19651924681B68A34204D80E
:1052700033462C46F3D2084670BD012070BDF0B510
:1052800081B05C1E0023002C1AD4002918D0002302
:105290000093002C0CD400273E46155DBD402E43E4
:1052A000641E06DB3D460835182F2F46F5D300E077
:1052B000009E9D0046515B1C002C01D48B42E8D31C
:1052C0008B4205D29A008018C91A8900FAF711FD9D
:1052D00001B0F0BD002808D00022511C400802D0C7
:1052E0001F2A0A46F9D3084670470020704710B5B8
:1052F0000024E2434B1E93420A4600DB22469B00F9
:10530000C318481C811E06D4191F401E1B68002BA1
:105310000B46F7D010BD104610BDF0B5FFB0CEB0B3
:10532000089307920F460646D298D39904460391F4
:10533000FFF7DDFF00287FD0054602978000001FA1
:10534000069004942058FFF7C5FF04464AAF38463C
:105350002946FFF776FF20200596089E041B384655
:1053600007992246334600F091F9B100785009AF11
:1053700038460499019422462B4600F087F9069896
:105380003C5805983146FFF75CFF771B3ED4621C02
:1053900004927819002A06900AD080004AAB195866
:1053A0001818001F00680023FAF742FC044602E0C8
:1053B00080004AA90C5800950897B8004AAE07909B
:1053C000371809AB38463946224600F0B3F906993A
:1053D0008900761806E009AA384639462B4600F0BF
:1053E00093F9641C3168081A3060F4D109A9384671
:1053F0002A46FFF72DFF0028EDD505980799445060
:105400000899481E00290746049AC2DC029E3046CD
:105410000399FFF716FF4AAC30462146019A2B4606
:1054200000F04DF9832081002046FAF762FC41200C
:10543000810009A8FAF75DFC7FB04EB0F0BDF0B571
:1054400081B0491E16D4002B14D0002400290CD49E
:10545000A500555900262F46F7404754491E04DB46
:1054600037460837182E3E46F5D3002902D4641C6F
:105470009C42EBD3002902D4491CFAF73AFC01B054
:10548000F0BDF0B5FFB088B01E460492039104460B
:105490004120C50005AF38462946FAF72AFC8C980A
:1054A0000096019038462146039A049BFFF735FF8A
:1054B00038462946FAF71DFC7FB008B0F0BD000061
:1054C000F0B5FFB0FFB091B00993069203904CAED7
:1054D000434F6F443F6830460D463A46FFF7AAFEF9
:1054E00000974124A0000890314605963018079097
:1054F0003C4E6E4436682A46334600F075F80097F5
:10550000E0000599081807992A46334600F06CF820
:105510000BA83946FFF795FE01240B9406980999CC
:10552000FFF7E5FE401E059044D4A207059B0A96AE
:10553000049205E00799481E00290346049A39DDC4
:10554000980006990C58202105988342079306D1AC
:10555000944204D22021891EA400A242FBD8002933
:10556000E8D00025099104E0AD1CA40009998D4202
:10557000E0D200973E460BAF384639463A460A9B82
:1055800000F032F80096384639463A4637460A9EC9
:10559000334600F029F8A00FE6D000970899484359
:1055A0004CA940180D4942180BA80146334600F09B
:1055B0001BF8D9E70BAD039829463A46FFF73AFEA8
:1055C000C32081004CA8FAF794FB28460899FAF703
