:020000040800F2
:10F80000E07F002015FC0008D11C010877190108D1
:10F8100000000000000000000000000000000000E8
:10F82000000000000000000000000000F9250108B1
:10F830000000000000000000251E010889260108C4
:10F840000000000027FC000827FC000827FC000837
:10F8500027FC000827FC000827FC000827FC0008FC
:10F8600027FC000827FC000827FC000827FC0008EC
:10F8700027FC000827FC000827FC00084128010895
:10F8800027FC000827FC000827FC000827FC0008CC
:10F890000000000027FC000827FC00080D140108E8
:10F8A00027FC000827FC000800000000652E010866
:10F8B000672E010827FC000827FC000827FC000829
:10F8C0000000000000000000000000000000000038
:10F8D0000000000000000000000000000000000028
:10F8E0000000000000000000000000000000000018
:10F8F0000000000000000000000000000000000008
:10FC00000348854600F058F8004800470D310108C8
:10FC1000E07F00200448804704480047FEE7FEE7F5
:10FC2000FEE7FEE7FEE7FEE76D27010801FC00089E
:10FC300003460B439B0703D009E008C9121F08C005
:10FC4000042AFAD203E00B780370401C491C521EB0
:10FC5000F9D27047D2B201E00270401C491EFBD2BB
:10FC600070470022F6E710B513460A4604461946C7
:10FC7000FFF7F0FF204610BD70B50446002903D001
:10FC800000202022012310E0002801D00020C043E2
:10FC9000C046C0460DE02546D5408D4205D30D46F1
:10FCA0009540641B1D46954040191546521E002D77
:10FCB000F1DC214670BD0000064C0125064E05E032
:10FCC000E36807CC2B430C3C98471034B442F7D37D
:10FCD000FFF79AFF6C3201089C32010880B5034897
:10FCE0005A21017002F0B8FC80BDC046F17F0020AF
:10FCF000704780B501F040FE01F0BCFE80BDB0B59C
:10FD000003460020082B16D30B78F0241C40102C3F
:10FD100011D14C781B071B0D1B1908D1891C00241D
:10FD200023460D5D1B025B19641C042CF9D1082BC2
:10FD300001D313600120B0BDB0B503460020022BF3
:10FD400003D30C7825062D0F00D0B0BD0F252C4015
:10FD5000092B09D3002CF8D14C78611E3D29F4D829
:10FD6000591EA14206D2F0E7591E8C42EDD8611E01
:10FD70000629EAD814600120B0BD0000F0B587B0B4
:10FD8000054605AE00243480542006AF31463A467D
:10FD900001F010FD387800282BD130880C2828D3AA
:10FDA00006AF009754200C2102AA05AE334601F09D
:10FDB00037FD387800281CD130880C2819D102A8CA
:10FDC000818806AF0097C24E32461032542005ABF0
:10FDD00001F026FD387800280BD105A8018803988A
:10FDE000884206D10299B1602870049802F0D6FDCD
:10FDF0000124204607B0F0BDF0B587B0074605A83E
:10FE000000260680002928D00C460192522005A920
:10FE100006AD2A4601F0A6FC287800281DD105A8C9
:10FE2000008821460C31814217D80026049603949D
:10FE30000297522002A90C2206AD2B4602F0DCFAF2
:10FE40002878002809D1522006AD019922462B4678
:10FE500002F0D2FA287846424641304607B0F0BD5B
:10FE6000F0B583B00D460446774B9888002808D03B
:10FE7000277A0026002F02D02078012805D13046AD
:10FE80004AE000202870032046E0617A202903D24E
:10FE90000020287006203FE0F0220A400920202A96
:10FEA0003AD162689B68934236D10F200140664B7D
:10FEB000187881421DD102909A89781EC0B211181B
:10FEC000D889814217D20192D649088A002825D0C4
:10FED0005A78904222D8488B09781F46FFF7CCFE0B
:10FEE0003B46D1490860B88007202870B989277A35
:10FEF00025E0042010E01146821A1E4610367018C4
:10FF00000A3421461C4601F041FEA068E1893246D0
:10FF1000FFF772FF0020287003B0F0BDC88B09788E
:10FF20001D46FFF7A9FE2B46A880DF49086002980E
:10FF3000401CC1B20F2900D900200199187058182F
:10FF4000103021460A317A1E1D4601F01FFEA88995
:10FF5000217A0818401EA88191E7C046F0B583B009
:10FF600001910646CE4DA87B02A9087036480027AD
:10FF7000A8243946224601F079FE28463946224611
:10FF800001F074FEEF480760384602F007FD307854
:10FF900000280BD002A8FFF7F1FE012813D102A818
:10FFA0000078E881072809D906200AE0707A00095C
:10FFB000012805D0002806D1012002E0052000E03C
:10FFC000022001990870002003B0F0BDF0B581B0A7
:10FFD000044600270097007A0926002830D00D46F5
:10FFE000217801292CD0617AF0220A40102A27D1E9
:10FFF000214609316A46FFF782FE012820D1124EC0
:020000040801F1
:100000000098F0816068B060DB49488B0978FFF7A1
:1000100033FEB080DA490860227A3046103021463B
:100020000B31921E01F0B2FDB089217A0818801EB2
:10003000B0810720287027726760012020703E463B
:10004000304601B0F0BDC046040B002070B50D462F
:10005000CA4EB188002923D0017A0024002935D066
:100060000178012932D0417AF0220A40302A1BD18E
:100070000F221140022919D001291BD0002922D1B9
:10008000817A7170C07A87490880EE49888B097837
:10009000FFF7F2FDB080EC4908600820287015E0F9
:1000A00000202870032411E009240FE000202870AC
:1000B00008240BE0E349088B0978FFF7DDFDE249EE
:1000C0000860B08002E0002028700524204670BD42
:1000D000AC0B0020F0B581B0064600270097007AEF
:1000E0000924002818D00D463178012914D0717ADE
:1000F0000F2911D8314609316A46FFF71DFE012844
:100100000AD16846018870680A363246FFF774FEE5
:10011000002801D02F703C46204601B0F0BD000001
:1001200010B572B60948017862B6022909D00129D2
:100130000BD1074C2068002807D0804700202060A2
:1001400010BD034900220A60027010BD600C00203F
:100150005C0C0020F0B585B0002003900290E04FC9
:100160007A88002A59D1B88800282CD00191022021
:1001700002AE314600F068FA3078F021014038785C
:1001800008433070FC89BD89032000F065FA2448DB
:1001900000F054FA641BE5B2B88939181031701CAC
:1001A000072D13D3072201F0F1FCB868E2490A6A6F
:1001B00000924C6A082102AACB4BA047012822D109
:1001C000B889C01D13E00220002525E02A4601F071
:1001D000DDFCB868D8490A6A00924E6A611CC9B24F
:1001E00002AAC14BB04701280DD1B8894019B88186
:1001F000D149888A0978FFF73FFDB880CD4908606A
:100200000020092507E0022000F026FA00252846F4
:1002100000F014FA092001990D7005B0F0BDC04638
:100220002D0201089C320108640C002070B5AC4D11
:10023000E889A989814220D21A480088BE4E3478C4
:100240002146FFF719FD68806878002803D0401E1A
:100250006870000618D0A94808210170B08B2146AB
:10026000FFF70AFDA880B34908602878401CC1B296
:100270000F2900D90020287070BD0024204602F00C
:1002800095FBEB48047070BDE94803210170308B89
:100290002146FFF7F1FCA880A649086070BDC04662
:1002A000AC0B0020580C0020640C0020F0B585B089
:1002B0000E46002503950295894CE089082832D323
:1002C0000120019602AE314600F0BEF9E089717856
:1002D000014371703178F0220A40000A10433070F7
:1002E000032000F0B9F9164800F0A8F9B01C214627
:1002F0001031062201F04AFCA068CE4C216A009120
:10030000676A0821784B3246019EB84701280DD113
:10031000A08A2178FFF7B0FCE2490860E0498880B4
:100320000020092509E00820052506E0022000F04C
:1003300093F9284600F082F90920357005B0F0BD28
:1003400049030108640C002080B5B94803210170FD
:10035000B849088B0978FFF78FFCD14988808A89D2
:10036000921D8A81CF4A10600878401CC2B20F2AC1
:1003700000D90020087080BD9C320108AC0B002021
:10038000640C0020F0B585B0002503950295C34CA0
:10039000A08800283CD10191032002AD294600F03D
:1003A00053F9A44F388A6870002802D06078401C46
:1003B0006070B87C02AEB070F88A3978FFF75CFCE8
:1003C000A080B84908602078401CC1B200250F29E0
:1003D000294600D801462170032000F03DF90E485F
:1003E00000F02CF9386A0090F8687C6A08213E4BCE
:1003F0003246A047012801D1092607E0022000F07B
:100400002BF90026304600F019F9092501980670ED
:10041000284605B0F0BDC0461D04010810B59F4C2C
:10042000E089962809D88349C88B0978FFF724FC0E
:100430009C490860A080042000E000207C490870EE
:1004400010BDC0469C320108640C0020F0B585B098
:100450000026039602969248C0890925072801D9EB
:10046000062639E0002837D00191002602AF304639
:10047000394600F0E9F80F20029C84438849CA8974
:1004800014433C70781C103101F080FB032000F015
:10049000E3F8144800F0D2F881488068654A116A90
:1004A0000091611CC9B2546A0F4B3A46A04701281B
:1004B0000BD16049888A0978FFF7DEFB794908602B
:1004C000774988800025092605E0022000F0C4F85D
:1004D000304600F0B3F801990E70284605B0F0BD23
:1004E000AC0B0020ED040108A906010810B500249A
:1004F000204602F05BFA4E48047010BD020B00204B
:10050000B0B568480068002811D10C464948C06A57
:10051000002800D080470225284602F047FA2846E6
:1005200000F09AF80025284600F088F82570002091
:10053000B0BDC046640C00209C32010810B582B0EA
:100540009620522101AC224601F01AFC20780028A6
:1005500000D0FEE73220542101AC224601F010FC0D
:100560002078002800D0FEE74B208000722101ACEB
:10057000224601F005FC2078002800D0FEE7642028
:10058000742101AC224601F0FBFB2078002800D04A
:10059000FEE702B010BD000070B586B01FA001A933
:1005A0000CC80CC11CC81CC1214C2078092811D0D2
:1005B00001AA101D1146083109321E4B9B6A98474B
:1005C000012807D1029802F0FFFC012802D101A8FE
:1005D000002101700020184D0646F1006A5C237866
:1005E000934204D16818426801A821469047C1B2DD
:1005F000002905D0062901D1002602E00021217042
:10060000761C0A2EE9D301A8002101720122027092
:100610000291FFF785FD06B070BDC04601000000E5
:1006200000000000000000000000000000000000CA
:10063000020B00209C320108F032010801490860D9
:100640007047C0465C0C00200A780F23134000015D
:100650001818087070470000154908707047C046A8
:100660000E484188002901D0491E41808188002917
:1006700001D0491E81800A484188002901D0491EC5
:1006800041808188002901D0491E81800548016888
:10069000002901D0491E01607047C046040B0020AC
:1006A000AC0B0020640C0020014801210170704750
:1006B000600C002080B500F005F880BD80B500F02A
:1006C00001F880BD70B5136800290BD0074C057880
:1006D000DEB26E407500655B1B0ADBB26B40401CEE
:1006E000491EF4D102489843106070BD6033010880
:1006F000FFFF000001207047F0B589B0029203911E
:10070000074607AD00242C80742008AE29463246E7
:1007100001F050F8307800282BD128880D2828D3F4
:1007200008AE009674200C2104AA07AD2B4601F0F8
:1007300077F8307800281CD128880C2819D108AC0B
:100740000094B9B2742007AB039A01F069F82078DD
:10075000012400280DD107A80088B84209D10598C6
:10076000B84206D804A8029D0EC80EC54D48069989
:100770000160204609B0F0BDF0B595B0054601A86E
:1007800000240480082901D9204629E00E46009261
:10079000722001A914AF3A4600F0E4FF3978012035
:1007A00000291DD101A90988324608328A4217D88A
:1007B00002960395722002A9082214AD2B4601F07F
:1007C0001BFE2878002820460AD102A80288722041
:1007D00014AD00992B4601F00FFE2978484248419C
:1007E00015B0F0BDF0B599B015460391029017A869
:1007F0000024048016AE348004A84821FFF731FAA3
:10080000722018AF31463A4600F0D4FF38780028FD
:1008100032D1308808282FD318AE009672200821D4
:1008200004AA17AB00F0FCFF16A83178002923D1E9
:100830000088082820D304AA118818A8009008323C
:10084000722016AB00F0ECFF059E304602F0BCFBB8
:10085000012811D1029806600498039908700124B8
:10086000002809D000210A4604AB5B181B7A6B54A0
:10087000521CD1B28842F7D8204619B0F0BD000012
:10088000074908607047C04680B5054800680028E1
:1008900003D0804703480021016000F0A9FD80BD1E
:1008A000540C0020D40A0020F0B58BB00D46002770
:1008B0000997089707A90F80082D33D80193029054
:1008C0000392742007AE0AAC3146224600F04AFF7C
:1008D00020780124002826D13088142823D30198B9
:1008E0000690082005900298049008A803992A46CB
:1008F00001F04CF9742004A90C220AAD2B4601F03A
:100900007BFD2878002809D1742008A908220AADA7
:100910002B4601F071FD2878002804D074200AA924
:1009200002F0CAFB3C4620460BB0F0BD01228A40D3
:10093000D823C0581040C840704701228A40CC23B9
:10094000C0581040C8407047016570473F290AD819
:1009500098301F2903D801228A400260704720394D
:1009600001228A4042607047192803D30F300009E2
:100970000B307047092802D3C01C8008801D7047C7
:10098000F0B585B0049000293CD00F460293039245
:1009900017200001081801901120000108183F21BC
:1009A000CC4321462031421820230025D554491C30
:1009B000F9D3132000013E18049800F093F8311980
:1009C00040228D54641CFAD301990D704D700006BD
:1009D000029901D10C480760039A3A6079600720B8
:1009E000C105002A03D0049800F01BF802E0049827
:1009F00000F00CF817200F2101F0BAF918200E2191
:100A000001F0B6F905B0F0BD700C0020426D8A43CC
:100A10004265704701228A40E02143589343435086
:100A20007047C26D01231343C365826D8A4382659B
:100A3000426D0A434265704701228A40E0214358D3
:100A4000134343507047000004480168012291435A
:100A500001600168C907FCD07047C04618640040B7
:100A600070B5002910D014461F2A0DD80D46064631
:100A70002146FFF7CFFF3046214600F022FC28191F
:100A8000112109010022425470BDB0B500290ED0D9
:100A900014463F2A0BD80D462146FFF757FFA0000A
:100AA0002818002181602819132212018154B0BD39
:100AB000B0B5002A14D014460D46012903D0002DEC
:100AC0000ED1012100E01021FFF7A0FFA80020189F
:100AD0002121C90000224250601917210901425406
:100AE000B0BD000010B500228B4B14462146984241
:100AF00003D00124D2072246F8D0084610BDC046D4
:100B00003F2901D900207047AC3002695205520FCD
:100B1000052A02D392000A3A00E0121D4A439100CE
:100B20000068254A024088187047C0460146A03137
:100B3000CB6907221A40052A03D39200074BD2182B
:100B400000E0121DA023C05849688904890E514352
:100B50008900194A024088187047C046F6FFFF3FD7
:100B60000146B031CA685206520F052A02D39200DC
:100B70000A3A00E0121DB023C05849688909FC23D5
:100B80000B4053430C490140581870471F2901D9A5
:100B900000207047C030836807221A40052A02D31C
:100BA00092000A3A00E0121D4A4391000068024A8E
:100BB000024088187047C046FCFF0000F0B583B0C3
:100BC00001910546002608240290F7B228463946CE
:100BD00000F0A6F8002818D0686D000315D5019D17
:100BE0002A590298394600F0ABF8029829463A464D
:100BF000FFF74BFF2F68029D002F06D00199486830
:100C00000090032228463346B847241D761C402E08
:100C1000DBD103B0F0BD0000F0B581B00D46044655
:100C200000F023F9A87A01280BD1A06980210143A3
:100C3000A161A06920210143A16120691021014324
:100C40002161E87A012807D1A06980210143A161CF
:100C500020691021014321612E460E36287B012890
:100C600003D1A06920210143A1612046314600F053
:100C70007DF9287A012804D101200002A1690143ED
:100C8000A161687A01282CD101273802A1690143AA
:100C9000A1617802A1690143A1612046314600F0BB
:100CA0008BF9A87A00281CD1E87A002819D1F80518
:100CB000E1680143E160A16C0B480140A164E97D5A
:100CC000891CAA8A531C4B437F210A02A16C7E2BEC
:100CD00005D80140180210400843A06401E0114308
:100CE000A16401B0F0BDC046FF80FFFF80B5012ABE
:100CF0000CD0052A0CD100F0C5F8064B7B481860D3
:100D000005480021054A00F08DF880BD00F02AFB5F
:100D100080BDC046D00A002000640040A405002029
:100D20003F2901D90020704798301F2901D8026857
:100D300001E020394268CA4001201040704700009D
:100D400070B5002A1AD01446FFF7DAFEF04942586F
:100D50002260411848686060A0790F220240644B0D
:100D6000985C00280CD008310834002005464E5D00
:100D700066559E5C6D1CB542F9D370BD012070BDF7
:100D8000002070BD70B5144602460120012947D8E5
:100D9000002C45D01546A435002920D029694906E4
:100DA0003ED01046FFF7DCFED94942582260401879
:100DB00041686160A2790F2111404D4A535C002BBC
:100DC00008D0083008340023C65CE654565C5B1C2F
:100DD000B342F9D328698004800E68611FE0296856
:100DE00049061DD01046FFF7A1FEC94942582260AE
:100DF000401841686160A2790F2111403C4A535C60
:100E0000002B08D0083008340023C65CE654565C3A
:100E10005B1CB342F9D328688004800E6860002010
:100E200070BDC046F0B581B0012401291AD8002A4E
:100E300018D0002B16D0551817263601AF5D002F9D
:100E400010D1AC19052525708C0012192124E4005D
:100E50001B681351012901D1102100E00121FFF786
:100E6000E0FD0024204601B0F0BD816901220A4363
:100E700082618169C907FCD0816902220A438261CB
:100E800070470000F0B593B001A808304021FEF78C
:100E9000E8FE164DA8790F2101401548445C0194E5
:100EA0002E6814480068400003D507204007864399
:100EB00001E0F000460D0296002C13D0304600F001
:100EC0001BFE01280ED101AF0837083538462946E8
:100ED0002246FEF7ADFE304621463A4601F072FD4D
:100EE000012801D113B0F0BDFEE7C046880A0020FA
:100EF00005040020D80A0020F0B581B001240029A3
:100F000031D01646002A2ED0054630793F282AD8FF
:100F10000F46081811210A01815C002923D180188D
:100F2000316809688900009201D5042100E003219D
:100F3000017032683179284600F0C8F9317900280B
:100F400004D078180021009A81540CE02846FFF75D
:100F500073FD012041022846FFF763FD31792846E1
:100F600000F0AAF90024204601B0F0BDB0B5002978
:100F70001FD00022C2610B797F221340C4699443C1
:100F8000E318C361CB78FF242402C569A5431B0283
:100F9000EB18C3610B88C469064D2540DB05DB09EE
:100FA0005B19C36189785206C3699343490659188E
:100FB000C161B0BDFFFF00FEF0B500282ED00029B2
:100FC0002CD00F26F443C2682240C260F022D543E1
:100FD000C2682A40C260C268114B1A40C260C7682A
:100FE000104A1740C7600F7A3740C6682640F41988
:100FF000C4608C7AC6682E402407240E3419C4605D
:101000004C7AC5681D40E306DB0C5B19C360C988D8
:10101000C3681340C906C90AC918C160F0BDC046FB
:10102000FFE0FFFFFFFFE0FF70B54A7A0C7A8023F4
:10103000C3588030002C11D001242240A3439A18B9
:1010400002608A7A03680C24A3439207120F9A184D
:1010500002607F2212040830114B10E00224A343E7
:10106000D207920F9A1802608A7A03683024A34349
:101070009207920E9A1804C0FF221204094B0C68C2
:101080003D4D254004683D4E264074190460496872
:101090000904114002681A400A43026070BDC0464C
:1010A000FFFF80FFFFFF00FF70B50A68324B13405F
:1010B000A0228458314D2540EB1883504B6884584A
:1010C0007F252E04B4435B065B0AE31883508B68CC
:1010D00084582D06AC435B065B08E31883500B7BFA
:1010E00084580125ED07AC43DB07E3188350497BA7
:1010F00007221140A030C36993435918C16170BDE4
:101100009200964BD2180968006811507047C0468B
:10111000005C0040B0B54A688B689A18202A29D82C
:10112000C0300A68144B13400268144C1440E21893
:1011300002604A683F231C040568A5439206920A90
:10114000AA1802608A681B0604689C4392069208EB
:10115000A21802600A7B01239B0704689C43D20704
:10116000520812190260497B072211408368934399
:1011700059188160B0BDC046FCFF00000300FFFFAE
:10118000F0B589B0002900D191E00C460546212038
:10119000C000081802902846C0300890286D012130
:1011A000039149020491059506940721CE05064056
:1011B00014D010220792059D28463146FFF7C4FB44
:1011C0002768002F06D06068009028462146079ABD
:1011D0003346B847286D0028E7D168E0049E3042C6
:1011E00011D1C10735D10107082200291646E1D4E3
:1011F000C1063DD401064BD401034CD42D4908400F
:1012000011220646D6E7089800688002800E039AED
:10121000D0D000242746059DFEB228463146FFF770
:1012200085FB002809D00898006AE040C00704D078
:10123000284606993246FFF713FC7F1CFCB208983B
:1012400000688002800E8442E6D3039A049E069CC6
:10125000B0E702980268002628463146FFF792FD63
:10126000284631462246FFF723FC01260522A1E746
:10127000029842680126059D28463146FFF782FD07
:10128000284631462246FFF713FC10260A2291E732
:1012900080260D228EE70120C604059D28462146A2
:1012A000FFF78CFC28463146FFF74EFB92E709B06A
:1012B000F0BDC04666FD77FC01228A40D021425035
:1012C000704701228A40D42142507047F0B593B054
:1012D00014460E46074603A84021FEF7C2FC01252E
:1012E000002C38D038463146FFF727FB002832D192
:1012F00038463146FFF74AFC2168184A8150801869
:1013000061684160A2790F210A40154B9B5C002B5C
:1013100020D002910830257B00221746AF421646A6
:1013200001D2A668F65D03A9CE557F1CBB42F5D15C
:10133000002B0FD0002603AB0196029F084D02CB75
:1013400002C0A1793940695C321DD6B28E42F6D313
:10135000019D00E00025284613B0F0BD005C004070
:101360000504002010B5044CA068002802D0804776
:101370000020A06010BDC0463804002010B582B027
:1013800000240194009401A8694600F04FF9CC2193
:10139000DF4A5158019B994208D3D023D2585118A3
:1013A000009A914202D2401E44424441204602B07B
:1013B00010BDC04680B503480021017001F04CF912
:1013C00080BDC046F07F0020B0B50446064D2868B9
:1013D0000268064920469047002803D128684168E2
:1013E00020468847C0B2B0BDF40A00205AA55AA5CD
:1013F00010B582B001AC002020707420214601F0AD
:101400005BFE21784842484102B010BD80B50348D8
:1014100001680348FFF7B4FE80BDC046700C002091
:101420000064004010B507480021074ACB4301245F
:10143000E406046042608160C160016141618361D2
:1014400010BDC04688050020409C0000F0B585B066
:1014500014460D46074600260496039603A904AADF
:1014600000F090F800282AD0384600F049F8A84249
:1014700025D90498002822D00194012800D8012001
:1014800002900021039A3B4B0F46CC0016591E4296
:1014900000D07F1C0B48064014196468A64205D290
:1014A000BD4209D09E19761C7F1CF7E7491C0298A3
:1014B0008142EAD1002602E001980660012630460A
:1014C00005B0F0BD00FEFFFFB0B500280BD0074906
:1014D000074A084B084C094D056044608360C260B0
:1014E00001610120B0BD0020B0BDC04679150108E2
:1014F000291601089D150108411601087B150108F0
:10150000F0B583B000240294019402A901AA00F06E
:1015100039F800280FD0019D002D0CD00026029F25
:10152000344639687868411A00F008F80419083719
:10153000761CAE42F5D3204603B0F0BD10B502468E
:101540000C4B04461C40581C81420BD9480A1942D6
:1015500000D0401C002C0AD0891819408C4200D0C1
:10156000401C10BD6018991C884201D3022010BD98
:10157000012010BDFF010000704780B500F07EFA29
:10158000012080BD002801D000207047012010609C
:10159000014A0A607047C046E4320108F0B585B0E0
:1015A00015460E460024E143039102910721174698
:1015B0000F4072B60CD0082D0DD90191194A2A405E
:1015C0003146044601F038FD002818D0002013E011
:1015D000AAB231460BE0002D07D02146325D02ABA6
:1015E0001A55491CCCB2AC42F8D302A9082201F02A
:1015F00023FD01464042484162B605B0F0BD019866
:101600008543002001464219B25C02AB1A54491CC2
:10161000C8B28742F7D8281902A9082201F00CFDA8
:101620000120E9E7F8FF000001207047012253077D
:1016300003600248086010467047C046000400205E
:1016400080B54902FFF7C0FE4142484180BD00001D
:10165000F0B581B0684600240470E5202C4E315C62
:101660004F1E032F3AD8B90001A251588F46C046E9
:10167000811601088B160108A3160108E11601085E
:101680006846047000F08CFC04E06846012101709B
:1016900000F026FECA21705468460078012807D061
:1016A0001CE068460121017000F0D2FDCA2170548F
:1016B000E8257159002903D0CA20305C884774514D
:1016C000022F05D8CA20305C012801D000F01AFC96
:1016D000FF2200200146034600F0AAFF01B0F0BD42
:1016E0000C490A78022A06D0012AF7D10122325485
:1016F000FF200870D0E708480470FF250D7000F047
:1017000001FC204621462A46234600F091FFC3E70C
:1017100080040020470400207C040020B0B584B081
:101720000124204600F0D8FE204600F0CDFE01A99D
:101730000020887008813F20088009480290A50792
:10174000284601F049F92846214601F084F90F2086
:10175000014600F00DFB284601F078F904B0B0BD59
:10176000E703000070B582B000260196002A1FD062
:1017700014460D46002915D001A9224600F03EFF6F
:101780002078002814D10198017A00290DD0012970
:1017900031460BD1C18882888A4201D8408882189C
:1017A000511A03E00420207002E04188298026704D
:1017B00002B070BD70B582B000260196002A21D01B
:1017C00014460D46002915D001A9224600F016FF47
:1017D0002078002816D10198017A02290DD001291C
:1017E00031460DD1C1888288914208D2891A408839
:1017F000091805E00420207004E0418800E0891AFF
:101800002980267002B070BD00487047DF070000D5
:10181000004870474C070000004870475C07000014
:10182000F0B585B00E4607460021049103A801805B
:101830000A9C002C42D0002E3ED01546002A3BD0F8
:10184000002B39D0019103A9384622460293FFF7B5
:10185000B1FF2078002831D104A93846224600F093
:10186000CDFE029A2078002828D103A80188B14231
:1018700000D80E4616800680002E12D0049881886B
:1018800089B2C268515C29708188491C8180428874
:101890008BB2934201D3891A8180761E6D1C002E73
:1018A000EED172B604988188C288511A4A1E9141BD
:1018B000017262B6019800E00420207005B0F0BD0E
:1018C00010B582B00020019004480E2101AC2246E0
:1018D000FEF7F4FE208802B010BDC046F07F002065
:1018E000F0B50022134601259D400C88254226D0E4
:1018F00003249440E4438E78761E012E0FD8866828
:10190000264086600E799640876837438760466830
:10191000AE434660CD789D4046682E4346600568DC
:10192000254005608D78954006682E430660C568A1
:101930002540C5604C799440C5682543C560921C1C
:101940005B1C202ACFD1F0BDB0B5082901D32423D8
:1019500000E02023C5588C00082901D31C210C402D
:101960000F21A1408D43C550C158A2400A43C25027
:10197000B0BD816170477047F0B58FB0012420463B
:1019800000F090FD600600F09FFDA00400F094FDC3
:101990002E4F092138462246FFF7D6FF0821384648
:1019A0002246FFF7D1FF01AE022000907071284857
:1019B000019038463146FFF793FF250235803846BF
:1019C0003146FFF78DFF234E23493046FFF724F9B8
:1019D0002249234A002730463B46FEF7D1FFE10269
:1019E0002048FEF73EF90CAE0098B07235810C9796
:1019F0000D9418483146FFF717FB1B480B900BA9B5
:101A000030463A46FFF77CFB0725280207A9888164
:101A100009970894102007900E4E3046FFF744FBBC
:101A2000069703A94D7305970494602003903046F0
:101A3000FFF770FBFFF708F80C4B0D4818603046B5
:101A40003946064AFFF7EEF90FB0F0BD0004004832
:101A5000000202000064004018040020A4050020D9
:101A6000ED0C0108005C0040DF074C0FD00A00209D
:101A7000880A002080B5FFF7D5FC80BD80B582B014
:101A800000200190009001A86946FFF7CFFD019862
:101A900001680918016004214258019BD218425084
:101AA000091D1029F8D102480199016002B080BDDA
:101AB000F40A002070B582B00126F00400F0FCFCAE
:101AC0006C4626712120C00200900A4D284621460E
:101AD000FFF706FFF1022846FFF74BFF360326808B
:101AE00028462146FFF7FCFE28463146FFF741FF16
:101AF00002B070BD0008004810B5014607480278E2
:101B00000020002A07D0064B1C688C4204D0521ECD
:101B10000C33002AF8D110BD012010BDEC320108B1
:101B2000CC320108014908607047C04604300040CB
:101B3000014908607047C046083000400C48014920
:101B400001607047CCCC0000094801490160704732
:101B500055550000034909680140481E8141084667
:101B60007047C0460C300040014802490160704790
:101B700000300040AAAA00000120C00202490A6801
:101B800042400A607047C04614080048F0B581B072
:101B9000082A06D9431ADC070DD1C30716D1002441
:101BA00017E0002A5FD003460C781C70491C5B1CB0
:101BB000521EF9D157E09B0729D003460C781C70C0
:101BC000521E5B1C491C002AF8D14CE00B780370B4
:101BD00001240B190619141B62081D4600961746AE
:101BE00029883180AD1CB61C7F1EF9D10321C94361
:101BF000891C51430C1936D051005A18009B5918B2
:101C000013780B70521C491C641EF9D12BE083071A
:101C10000DD0434200240D5D055503251E462E4080
:101C2000641C2540B542F6D10319009301E000245D
:101C300000900919141BA20806D00D46009E1746F5
:101C400008CD08C67F1EFBD10323DB4353431C1979
:101C500009D092008918009B9A180B781370491CC0
:101C6000521C641EF9D101B0F0BD0000F0B581B086
:101C700016460D460446062A0CD9A0070FD00320AD
:101C8000204004210F1A204639462A46FDF7E2FF7C
:101C9000E01906E0002E15D0204631460FE000275F
:101CA0002046F11B8A0806D0084B6B4306461746B0
:101CB00008C67F1EFCD19200891A03D080182A46DC
:101CC000FDF7C8FF204601B0F0BDC046010101018B
:101CD000F0B583B0224C206880013FD4E16A60688F
:101CE0008002000F1F4A42431F4810180F27394037
:101CF000491CFDF7C1FFA16809062FD50126F20591
:101D00002168890327D40292750632060192216860
:101D100091432160310462688A4362601349FDF790
:101D2000ABFF80040721C9044018B9040840626869
:101D30008A43101860602068019908432060206879
:101D40002842FCD0606802210143B1436160A06871
:101D50000299084301E0A0681043A06003B0F0BD01
:101D6000001002400024F4000048E80100093D0092
:101D700010B5044601F080F9204601F071F910BD5C
:101D8000F0B589B000260896002A45D00792069142
:101D900022490A883721090103918C1A20490F1919
:101DA00003231F400590054614357919914202D945
:101DB0000798037030E001920494029608A90698EF
:101DC000079C224600F01AFC2078002822D0019EB1
:101DD000F01B002F029A03D081B2039B591A049181
:101DE00006990F4B049C1953002F05990B4B00D0FB
:101DF0000646701B18800A48049BC0184260418048
:101E0000027201461431C16002610890079900F026
:101E10000BF801E00520207009B0F0BD340400206B
:101E2000180700207047000010B500291ED00028B8
:101E300010D00F4B1A68002A0ED01369002B0ED059
:101E4000824211D01C461B69002B2246F8D1103467
:101E5000224605E0042208E01860002205E0103266
:101E600010600022026100E005220A7010BDC04629
:101E70006C0C002080B500F001F880BD70B586B014
:101E80000124600400F018FBA00300F025FB0921E9
:101E9000CD0628462246FFF757FD0A21284622464E
:101EA000FFF752FDFF20043004AEB08013480490C9
:101EB00028463146FFF714FDA002308028463146FF
:101EC000FFF70EFD6946002088810C228A72088186
:101ED000E122520200920190094C204600F0C4FF1A
:101EE0002021204601F029F81B200221FFF740FFA6
:101EF000204601F01DF806B070BDC0460002020089
:101F000000380140F0B581B0C820F44D00242C54B5
:101F1000C920295C012900D12C5420480470204696
:101F200000F0A2FBFF26204621463246234600F061
:101F30007FFBF020C44F2F50F43514222846214651
:101F4000FFF794FE242238463146FFF78FFE1348F0
:101F5000047001B0F0BDC046F0B581B0C820DF4EBE
:101F600000243452204600F07FFBFF252046214606
:101F70002A46234600F05CFBF020B34F3750F4367E
:101F8000142230462146FFF771FE242238462946A6
:101F9000FFF76CFE0148047001B0F0BD7D04002025
:101FA000F0B589B0054600240894079400F0ECFED3
:101FB0000D21FDF761FE0746C920C849085C0128CC
:101FC00000D02EE1002605952E70994D2878022824
:101FD00016D0012821D000281DD197490E609848BD
:101FE00001240470934A1660944806609548047072
:101FF0003046FFF7C7FA012800D010E12C700EE13F
:1020000000F0EEFF8B4806608B4806608B48066048
:102010000120059908702E7001E10196884C207806
:10202000401EC0B2FFF76CFAB842029000D87CE0C4
:1020300082490E680121490206910397864200D326
:10204000BDE07C480068002800D1B8E000F0C8FF7F
:102050007A4801682078401EC0B208AAFFF7F6F956
:10206000012800D0A8E0744800680668089DB542C1
:1020700000D2A1E04468AC4200D89DE06F480068FF
:10208000039F3946FDF7F8FD781A0490611B089606
:102090003046FFF753FAB84207D9049DA84200D84A
:1020A000039DD34A664C039F0EE0049DA842D04A8C
:1020B000634C039F08D85F4B1968491E19605E4B3B
:1020C0001968083119600546F8269059002873D020
:1020D000002D049514D000F083FF72B6C4488259D5
:1020E0000898012190475749087062B6087801287E
:1020F00065D108980699401808906D1EEBD103E051
:102100005048007801285AD14C490868049A86182A
:102110000E6030463946FDF7AFFD029886428DD2FB
:1021200000298BD10198059948E0424800680028B1
:1021300045D041480068012149020691414C01689F
:102140004068461A00F04CFF3B4D28680068314655
:10215000FFF7F4F90146F827A548C059002863D0D5
:102160002868066808960029049113D00D4600F0EF
:1021700037FF72B69E48C259012130469047207001
:1021800062B6207801281AD10698361808966D1E76
:10219000EDD102E02078012811D128490868049A7D
:1021A000801808602449086808300860214A1168CE
:1021B000491E1160C3D102E00198224908701F4CEA
:1021C000216820480078059A1278002A029B10D1D5
:1021D00001280ED199420CD2E5200421844B1954D8
:1021E000EC201A58002A1AD0CB20185C17499047C7
:1021F00015E0804D0122AA70019E2E70594050407A
:102200000843414241416970202107AA2846FEF750
:1022100055FA266002200649087007982862094886
:102220000478204609B0F0BD01982070C7E7C04689
:102230007C0400204C0400205004002054040020A2
:1022400048040020040400205804002075260108DA
:10225000F0B581B00024009400F0C2FEFFF78EF8C4
:10226000012808D1D820F84A1158D42010586A46BD
:10227000FEF720FA10E0C920F34D285C01280BD1AD
:10228000D826A959D427E8596A46FEF713FAA8595F
:10229000AC51E9590818E85100F0A2FEDC20F44DD9
:1022A00028580099884216D1FFF768F801280ED106
:1022B000C9260124AC552846F430FFF705F901285A
:1022C00007D1F4202958002905D0884703E00124CC
:1022D00001E00020A855204601B0F0BD8004002098
:1022E000F0B585B000240494C921E14F795C01293F
:1022F00000D078E0E021039179588029029034D30E
:1023000000253C4E0195202104AA3046FEF7D6F95F
:10231000306A0499884264D17078012861D1B0781C
:1023200001285ED100F05CFEFC217858002858D0CE
:1023300072B6CC2438597B58E9B2C9017918802289
:10234000984762B601284CD1D0203958803939508D
:1023500003983958803939503859803038516D1CBC
:102360007F29D0D8E8B2C50100E0002500292AD095
:1023700048193818494207260E40FF213246FFF718
:1023800075FC039AB8588019B850FC21785800247D
:10239000002824D072B6BA58CC20019038587B5807
:1023A0007919984762B6012802981CD1039AB85847
:1023B0000021B950019AB9580918B950D0217A585A
:1023C000301A801878500B4E01243470002004908D
:1023D000202104AA3046FEF771F904983062029871
:1023E00001E00298019C01210170204605B0F0BD7A
:1023F0008004002058040020F0B583B00E46074644
:102400000021029101A80180002B14D01C46002E4F
:102410000FD01546009101A938462246FFF7A2F9D0
:102420002078002807D101A80088A84205D20320FF
:1024300000E00420207003B0F0BD02A93846224617
:1024400000F0DCF820780028F5D1002D13D0029898
:10245000C188C068327889B242540298C188491C48
:10246000C18042888BB2934201D3891AC1806D1E0C
:10247000761C002DEDD172B602988188C2888A42FE
:1024800001D0012100E00221017262B60098D1E77B
:102490000120000602490A6802430A607047C046EC
:1024A00024100240012109034D4A13688B43C007E1
:1024B000C00C18181060704702490A6802430A608D
:1024C0007047C0461410024002490A6802430A607D
:1024D0007047C0461C10024002490A6802430A6065
:1024E0007047C0461810024080B500F039F8044922
:1024F00009680906090F03A2515CC84080BDC046A7
:10250000041002400000000000000000010203046B
:102510000607080980B5FFF7E7FF04490968490580
:10252000490F03A2515CC84080BDC0460410024060
:102530000000000001020304010A032906D0022959
:1025400007D0002907D1A149096804E09F49496BD8
:1025500001E09E49496AC0B2C1400120084070476D
:1025600010B51048026803211140022903D0012947
:102570000CD10D4810BD01680268806A8902090FFC
:102580008C1CD10304D40948604310BD154810BD0C
:102590000F210840411C0448FDF76EFB44432046D0
:1025A00010BDC046041002400024F40000093D00A4
:1025B00080B50B490968002800D08908032008402D
:1025C000032806D0012806D0002807D1FFF7A2FF74
:1025D00080BD044880BDFFF7C3FF80BD002080BDE3
:1025E0003010024000127A007D20800101490880ED
:1025F0007047C046FA0A00207047000010B5002A54
:102600000ED000290AD0094B1B68002B04D01C886F
:10261000844206D01B69F8E7022000E00420107015
:1026200010BD002010700B6010BDC0466C0C002067
:10263000B0B5E8240E4D2951E5216854EC202B500B
:10264000CB202A54B0BDC046800400200149087048
:102650007047C0464404002080B5FFF731F90149B6
:10266000088080BDFE7F0020E421014A505470475D
:1026700080040020002801D0022000E00120014950
:10268000087070474704002070470000F0B582B022
:10269000D04A531C4D480168009319430160012141
:1026A0004C040368234203D1531E002A1A46F8D172
:1026B00006682A4B1A68102515431D601A680A43DC
:1026C0000E25AA431A601A68022501952A430D2592
:1026D000AA431A604268F0239A43426007231A0211
:1026E0004568954345600F064D064268264219D15C
:1026F0000C04A24342604268194C2240DB0413439D
:10270000436002683A43026002682A42FCD0426891
:10271000019B1A438A43426041680C220A40082AFE
:10272000FAD118E0009B1A43426042680C4B1A40F1
:10273000CB041343436002683A43026002682A42B2
:10274000FCD04268019B1A438A43426041680C22D4
:102750000A40082AFAD102B0F0BDC046002002406B
:10276000FFFFC3FF80B5FFF791FF80BDB0B5174CE9
:102770002068012528432060606815490140616098
:102780002068144901402160A80421688143216028
:102790003F20000461688143616060680F218843C5
:1027A0006060FF205430216B81432163606BA8433C
:1027B00060630020A060FFF7D5FFE80421680143B3
:1027C0002160E80604490860B0BDC0460010024020
:1027D0000CB8FF08FFFFF6FE08ED00E0174801887F
:1027E0004A1C130400D0114601800D4801884A1C80
:1027F000130400D0114601807047C04680B5FEF733
:102800008DFF80BD064801880A46632900D9643AD5
:102810000280632901D80020704701207047C0461C
:10282000FE0A002005490888002801D1024600E080
:10283000421E0A80411E88417047C046000B00209E
:1028400010B501218C07204600F009F9012805D1B7
:102850000121204600F0BAF8FFF7C0FF10BDF0B527
:1028600087B001931646074605A80024048004910A
:1028700002970392150400F073F8002D24D0B8429B
:1028800022D1542005A906AF3A46FEF76BFF3878EF
:10289000002819D130460C3005A90988884213D880
:1028A000542002A90C2206AF3B46FFF7A5FD38785D
:1028B000002809D1B2B2542006AC01992346FFF793
:1028C0009BFD207844424441204607B0F0BDF0B55E
:1028D00089B017460391029007AD00242C80522046
:1028E00008AE29463246FEF765FF3078002828D129
:1028F00028880C2825D308AE009652200C2104AA63
:1029000007AD2B46FEF78CFF3078002819D12888B8
:102910000C2816D104A8818808AD0095522007AB79
:102920003A46FEF77DFF287800280AD107A80188DB
:102930000598884205D10499029A116003990860AC
:102940000124204609B0F0BD80B500F093F880BDA9
:1029500080B5FEF759FF80BD80B5FEF759FF80BDF9
:1029600080B5FEF759FF80BD80B5FDF7E7FD80BD5E
:1029700080B5FDF711FE80BDB0B584B01C4615468C
:1029800001AAFDF7B9FE019929600299216004B0FE
:10299000B0BD80B5FDF774FF80BD00000849086038
:1029A0007047C04680B5FDF75BFE80BD10B5044C96
:1029B0002168002902D088470020206010BDC04651
:1029C000F00A002080B5FDF7D7FE80BD014A4A40DD
:1029D00002617047FFFF000010B5184A90421ED0F8
:1029E000174A90421BD0174A904218D08A78036841
:1029F0001024A343D207D20E9A1802608A781201DB
:102A000060231A4004689C43A21802600A7A0323D8
:102A10001B0204689C439207920D121902604A68D7
:102A2000C2620A888262084A904201D1497A1163DF
:102A3000416901220A43426110BDC04600100040B6
:102A40000040014000440140002C01400168012287
:102A50000A4302607047C2680A43C2607047026955
:102A60000A4204D0C068084201D00120704700200B
:102A70007047000010B5044C2068002802D0804741
:102A80000020206010BDC046D40A002070B5154655
:102A9000134E3268824220D11C460846FDF764FF7F
:102AA000104908220A738D600F4A002313711160C8
:102AB0000123DB070D681D400C4BEB180B600F2347
:102AC00003408879C0250540E818887172B6084827
:102AD0000849FEF711FA62B6B460002070BDC04626
:102AE00038040020D80A0020E80A00200000701DE9
:102AF00000640040A405002002480168491C0160F0
:102B00007047C046680C0020354800887047C046B2
:102B1000374800887047C046917250727F2010720B
:102B20000320506070470000484908707047C04655
:102B30000D480078411E4842484170479149097844
:102B40000840411A484248417047C046244801881D
:102B5000484248417047C046034909780840411A35
:102B6000484248417047C0464404002080B50A46A8
:102B7000497A7F2908DC002901D003290CD10221E0
:102B800051600078403005E0802901D0832903D1CD
:102B900000205060107280BD00781221FFF7BCFF4A
:102BA00080BD80B50A46497A0B46813B022B08D38B
:102BB000491E012908D80221516000784030107266
:102BC00080BD0020506080BD00781221FFF7A4FF77
:102BD00080BD000002480188491E01807047C04640
:102BE000FA0A002002480188491E01807047C04649
:102BF000FC0A002080B5FFF787FF002801D0FFF70F
:102C0000E9FFFFF785FF002801D0FFF7EBFF80BD4C
:102C100080B50A46497A002904D0802908D10020CD
:102C2000506080BD0221516000784030107280BD3C
:102C300000781221FFF770FF80BD0000034909787A
:102C40000840411A484248417047C04646040020A7
:102C500004210170004870474033010880B5002806
:102C600000D080BD012000060249086000F0D6F9BE
:102C7000FEE7C04624100240B0B5AAB001ACA021C6
:102C80002046FCF7EEFFFF255235FFF769FE258150
:102C90000190002129910222029208342346FFF775
:102CA000DEFD2AB0B0BD000070B50C46054602201E
:102CB00048602878403008724E7A802E06DC012E5B
:102CC0000AD0022E1AD0032E0ED02EE0832E0BD067
:102CD000822E13D0812E28D10120FFF7B7FC812E40
:102CE00028D10020606070BD0420FFF7AFFC832E68
:102CF00001D100206060FFF777FC70BD0220FFF774
:102D0000A5FC822E01D100206060FFF76DFCFCF76E
:102D1000E5FFA02008492150287878212246FFF7B6
:102D2000FBFE06A000F092FA70BD28781221224620
:102D3000FFF7F2FE70BDC0465D2C010841707020A7
:102D40005265717565737420456E74657220626F8B
:102D50006F746C6F61646572206D6F6465210D0026
:102D600010B50446FFF7F8FDA04201D1012005E0AF
:102D7000FFF7EEFD001B4142414148000149087048
:102D800010BDC046F80A0020E1204001704770479E
:102D9000F0B5ABB002A8A421FCF763FF01A800279F
:102DA0000770FFF7A9FEFFF7D1FE012808D1012423
:102DB0002046FFF74BFC2046FFF7B6FEFFF7A2F8D0
:102DC00002A8011D044608342246FFF780FD0128B1
:102DD00046D1FFF7ADFE012801D0FFF705FC0298B0
:102DE000FFF7BEFF01AE3046FFF732FF054602A8EF
:102DF000007A002D09D03178002906D02A78904237
:102E000006D07F1C08358F42F8D3112102AA1AE0A0
:102E1000A878FFF793FE012812D16878FFF79CFE8F
:102E200001280DD1E878FFF709FF012808D100201B
:102E30002A906A68002A03D002A92846904704E035
:102E400002AA107A1121FFF767FE0398002807D025
:102E5000FFF786FD02902A99039A2346FFF7FFFCAD
:102E60002BB0F0BD70477047F0B581B00D460446F9
:102E700000680126B0432060206829490140A87AF3
:102E8000084329890143A8880843206060682549D0
:102E90000140E88808436060A06823490140A88990
:102EA0000843A0602148844204D09748844205D159
:102EB000002000E00120FFF77BFB01E0FFF72AFB89
:102EC00021680904009601D5324600E002222968F3
:102ED0009140192242431046FCF7CEFE0746642675
:102EE0003146FCF7C9FE05466320C0436843C0195C
:102EF0000099C90327680F4001D0032100E0042195
:102F0000884032303146FCF7B7FE002F01D0072150
:102F100000E00F21084029014018E06001B0F0BD39
:102F2000F3E90000FFCF0000FFFC00000044004078
:102F3000016801220A430260704701229202914215
:102F400003D0402903D0012903D1083001E0001D3E
:102F5000402102680A4302607047C0690840411E70
:102F600088417047014A0A4082627047FF010000B1
:102F700080B500F00DF8012807D1FEF71BFAFFF726
:102F80007BFE411E4842484180BD002080BD0000BC
:102F900080B500F00DF8012805D104480178A53965
:102FA0004842484180BD002080BDC046F07F0020DF
:102FB00080B5FEF785FC03490988091A4842484153
:102FC00080BDC046FE7F00200449421A534253414F
:102FD0009331411A48424841184370474C0700005A
:102FE00080B5FEF7C1FD80BD80B50A48FFF7A4FAA1
:102FF000002801D0FFF74CFAFEF7A6FD0420FEF7EB
:1030000091FD0548FEF794FDFEF7AEFDFEF796FD37
:1030100080BDC0461D020000E204000080B5FEF73E
:1030200093FD0220FEF796FD0128FAD00020FEF75E
:103030007FFDFEF799FD80BD70B50B460446074D38
:1030400028688668204611461A46B047002803D1F2
:103050002868C16820468847C0B270BDF40A0020C5
:10306000002805D41F21084001218140014801604A
:103070007047C04600E100E0002805D40322034663
:1030800093430C4A9A1806E00F220240083A0323A1
:103090009A43074BD2188007C00E8901C9B28140FC
:1030A000FF23834010689843084310607047C04670
:1030B0001CED00E000E400E0B0B582B00025019511
:1030C00000290ED00C4601A92246FFF797FA207876
:1030D000002806D172B601980572C188818062B657
:1030E000257002B0B0BD0000B0B5044681B2064DF7
:1030F0002846FFF737FF80212846FFF72EFF0028DC
:10310000F9D02046B0BDC0460038014086B0002549
:1031100003950F480F49016002950F480F4900F0D1
:1031200057F80FA000F092F8154C00F02BF808208B
:1031300004A903AA02ABFFF71FFC0128F5D102A8DE
:1031400001780398009504AA2346FFF79FFCECE75B
:1031500008ED00E000F80008F3FC0008F1FC0008AE
:10316000456E746572204170705F412053756363D2
:1031700065737366756C6C792121210D0000000068
:103180004929010880B5FFF74DFB002811D0FFF752
:1031900009FCFFF72FFD7D20C2000C480188491C67
:1031A0008BB2934200D100210180080401D1FEF7C7
:1031B000E3FCFFF727FB002801D0FFF711FFFFF723
:1031C000D7FBFFF7E5FDFEF743FA80BD740C002046
:1031D000B0B50C460546FEF76DFC002D00D0A847A3
:1031E000FEF748FEFDF786FA002802D109A000F09C
:1031F0002DF8FFF703FBFFF7F7FEFFF7B5FBFFF72F
:10320000C6FDFFF7B5FE2046FFF7C3FBFEF7A4FEA1
:10321000B0BDC0460A4352435F48414C5F496E69A6
:1032200074206661696C65642100000002E008C8D2
:10323000121F08C1002AFAD170477047002001E030
:1032400001C1121F002AFBD17047000010B50446CF
:1032500001E0FFF749FF2078641C03490028F8D1FA
:103260000A20FFF741FF10BD00040020603501086F
:1032700000040020480000002C320108A835010895
:1032800048040020300800003C320108A83501083D
:10329000E0770020000800003C3201080100000037
:1032A000DF0700004C0700005C0700000000010081
:1032B000190019004B000000640096003200000065
:1032C000A9080108E507010889080108DF070000CF
:1032D000FFFFFFFF000000004C070000FFFFFFFFA3
:1032E0000000000000F60008006402080200000070
:1032F000000000005DFF000801000000D50001088B
:1033000002000000CDFF000807000000850301084F
:103310000400000061FE0008050000004D040108E3
:1033200006000000AD020108030000004D00010886
:10333000080000005501010809000000010501080E
:1033400010070301A92C0108280703016D2B0108B0
:1033500085070301A32B01083E070301112C010877
:1033600000005E36BC6CE25A78D926EFC4B59A8369
:1033700089FFD7C935936BA5F126AF104D4A137C51
:103380006BB23584D7DE89E8136B4D5DAF07F13141
:10339000E24DBC7B5E2100179A94C4A226F878CE39
:1033A000AF29F11F13454D73D7F089C66B9C35AA21
:1033B00026D678E09ABAC48C5E0F0039E263BC5519
:1033C000C49B9AAD78F726C1BC42E274002E5E1809
:1033D0004D641352F108AF3E35BD6B8B89D1D7E7F1
:1033E0005E530065E23FBC09268A78BC9AE6C4D0E9
:1033F000D7AC899A6BC035F6AF75F14313194D2FD1
:1034000035E16BD7898DD7BB4D38130EF154AF62C0
:10341000BC1EE22800725E44C4C79AF178AB269DB8
:10342000F17AAF4C4D16132089A3D79535CF6BF9A0
:10343000788526B3C4E99ADF005C5E6ABC30E20698
:103440009AC8C4FE26A47892E211BC275E7D004B88
:1034500013374D01AF5BF16D6BEE35D8D78289B470
:10346000BCA6E29000CA5EFCC47F9A497813262568
:1034700035596B6F8935D7034D8013B6F1ECAFDA50
:10348000D71489226B78354EAFCDF1FB13A14D9740
:103490005EEB00DDE287BCB1263278049A5EC46838
:1034A000138F4DB9AFE3F1D56B563560D73A890C20
:1034B0009A70C446261C782AE2A9BC9F5EC500F318
:1034C000783D260BC4519A6700E45ED2BC88E2BE08
:1034D000F1C2AFF44DAE1398891BD72D35776B41F0
:1034E000E2F5BCC35E9900AF9A2CC41A26407876E8
:1034F0006B0A353CD766895013D34DE5AFBFF189D0
:103500008947D771352B6B1DF19EAFA84DF213C4BF
:1035100000B85E8EBCD4E2E278612657C40D9A3BB7
:103520004DDC13EAF1B0AF8635056B338969D75F9F
:10353000C4239A15784F2679BCFAE2CC00965EA097
:10354000266E78589A02C4345EB70081E2DBBCED87
:10355000AF91F1A713FD4DCBD748897E6B2435126F
:1035600000000000010001020304050607080C101A
:10357000141820304000000020A1070080841E00A5
:1035800001010000000001000C310C000100020BE1
:1035900002000000700300005C0700000000000053
:0835A00000000000010001FF22
:040000050800FC01F2
:00000001FF
