:020000040800F2
:10F8000068120020D5F800088D55010859520108EA
:10F8100000000000000000000000000000000000E8
:10F82000000000000000000000000000E168010886
:10F830000000000000000000455D0108816B010828
:10F8400000000000E7F80008695F0108E7F8000819
:10F85000E7F80008E7F80008E7F80008D9470108CA
:10F86000E7F80008E7F80008E7F80008E7F80008FC
:10F87000E7F80008E7F80008E7F80008E7F80008EC
:10F88000E7F800089D6D0108E7F80008E7F80008B0
:10F8900000000000E7F80008E7F800082F49010819
:10F8A000E7F80008E7F800080000000045840108B8
:10F8B000E7F80008E7F80008E7F80008374901080A
:10F8C0000348854600F0CCFB00480047DDB2010844
:10F8D000681200200448804704480047FEE7FEE71E
:10F8E000FEE7FEE7FEE7FEE7096D0108C1F8000844
:10F8F00003460B439B0703D009E008C9121F08C049
:10F90000042AFAD203E00B780370401C491C521EF3
:10F91000F9D27047D2B201E00270401C491EFBD2FE
:10F9200070470022F6E710B513460A46044619460A
:10F93000FFF7F0FF204610BD30B504460020034617
:10F9400000E05B1C934203D2E05CCD5C401BF8D02E
:10F9500030BDF8B502464A40D40F42004B00520871
:10F960005B089A4202D20246084611464A0023D05A
:10F97000C30D4A00DDB2120EAD1A202D35DA490250
:10F980000126490AF6058A19002C00D0524220218E
:10F990004F1B1146B9402A411018C20D9A4221D07E
:10F9A000002C17D0012D08DCDA05801AD20F80193F
:10F9B000D207DBB200F054F9F8BDDA05801A012352
:10F9C00040001B06C01880185A428018CA0F104306
:10F9D000490007E04908C2071143DA05801A801977
:10F9E0004008801800F034F9F8BD61000122511A76
:10F9F000001BF7E70122D2075140AAE70122D207F4
:10FA00005040A6E7024670B54A40D30FDB074000DE
:10FA10002DD04A002AD0010E140E0002120209193C
:10FA2000400A520A8418E50104465443000A120AA7
:10FA30002E045043A4194219200CC543AA18120CD5
:10FA40000125AD03521C521912047F39240400D041
:10FA5000521C104301D44000491EC2B20C06C0091A
:10FA60002018401C4008802A02D003E0002070BD0E
:10FA700040084000002900DA0020184370BD70B52E
:10FA800002464A40D50F40004A00ED0740085208A0
:10FA9000002814D0002A12D0C40DD30D4102012039
:10FAA000C0055202490A520AE41A091812187D3494
:10FAB000914201D3641C00E04900002C01DA0020CF
:10FAC00070BD0023914201D3891A034340084900C5
:10FAD0000028F7D100290AD0914202D10121C9079B
:10FAE00005E0914201D2012101E00121C943E00575
:10FAF000C018401900F0ACF870BD0122D2070028F0
:10FB000000DB101A002900DB511A814201D80120C4
:10FB10007047002070470122D207002800DB101A2E
:10FB2000002900DB511A814201D2012070470020D8
:10FB300070470122D207002800DB101A002900DBE1
:10FB4000511A814201D301207047002070470122E1
:10FB5000D207002800DB101A002900DB511A81426D
:10FB600001D90120704700207047C217C10F5040D3
:10FB700010B54018CA079623002100F071F810BD97
:10FB8000C20F410040020123400ADB05D207090EE3
:10FB9000C0187F2901DA00207047962903DC9623DC
:10FBA000591AC84001E096398840002AF4D04042F2
:10FBB000704770B50446002903D00020202201239D
:10FBC00010E0002801D00020C043C046C0460DE030
:10FBD0002546D5408D4205D30D469540641B1D46F4
:10FBE000954040191546521E002DF1DC214670BD8E
:10FBF000F0B51FB40646002082B0054640240191AE
:10FC000000901BE0019922460F46304600F04AFA68
:10FC1000049A059B801A994110D310461946224632
:10FC200000F030FA361A8F41019722460120002158
:10FC3000009F00F027FA38184D4100902046641EBE
:10FC40000028DFDC019B00982946324607B0F0BD52
:10FC5000002904DA401C490001D1400840007047E7
:10FC600070B40024050C05D11024000402D1002931
:10FC700021D01124050E01D100020834050F01D155
:10FC80000001241D850F01D18000A41C002801DB88
:10FC90004000641C002908D020252E1B0D46F5408D
:10FCA000A14000D001212943084301061B1B000A83
:10FCB000DB1D02D5002070BC7047DB0518188018CA
:10FCC0000029F8DA401C4900F5D170BC400840001A
:10FCD00070470000F0B507460846584087B0C00F8F
:10FCE000049048000E46590040084908BC1A884153
:10FCF00005D2384631461E4617460B460246580086
:10FD0000400810434CD0300D039040055900400D81
:10FD1000490D0590401A0290402872DA180301211B
:10FD2000000B09050843019004980092002805D0B3
:10FD3000019952420020884100920190029840218E
:10FD40000A1A0199009800F09DF905460C466B4689
:10FD500007CB00F0B8F9C0197141039A0E0D0023CA
:10FD6000D71756401A467A40164344D0049A002AC0
:10FD70002DD0029A012A039A15DC1205C01A91416E
:10FD800001263605001C7141D20F059ED207009353
:10FD9000019202962A46234600F0B5F907B0F0BD5D
:10FDA00038463146FAE71605224A0F46B218C01AFD
:10FDB000B74101210905001C4F4100187F41114640
:10FDC00018187941E20F10436D19644113E0E207FE
:10FDD0006D0815436408C2071443039A01261205EF
:10FDE000C01A91413605001C7141CE0740083043CE
:10FDF0004908C01851412A46234600F077F9CDE75B
:10FE0000FFE7049801224000C117121A00238B411A
:10FE100004983146C417381AA141EEE730B40124E2
:10FE2000E407634030BC55E730B40124E407614087
:10FE300030BC4FE70000E0FFF0B51FB488B00B996D
:10FE40000998002448400999C00F490049080991C0
:10FE5000C0070B990090490049080B91099908982F
:10FE6000A64608431CD00B990A98084318D0099855
:10FE700001244000420D4800410D0998240500036B
:10FE8000000B204309900B980003000B20430B90BC
:10FE900050181C494018002201901446104605E0F5
:10FEA000002001460DB0F0BD032801DA034600E052
:10FEB00003239C46C11A0AAE0AE05F0008ADED5B61
:10FEC0004F00F75B7D430027AA187C41491C5B1E4D
:10FED0006145F2DD410004AB5A522104120C0A4381
:10FEE000240C401C0828DFDB019802900099704622
:10FEF00001910090059B049A0799069800F003F978
:10FF0000D0E700000DFCFFFFF0B50C465C4085B06B
:10FF1000E40FE40703944C0000266408590094465B
:10FF2000490802460296224321D062460A431ED067
:10FF30006200570D4A000E032303550D01240246AB
:10FF40002C492405781B1B0B360B401823432643F2
:10FF5000614600901C46501AB44103D30098401CDF
:10FF6000009002E0921800985B41002803DA00201C
:10FF7000014605B0F0BD002001210905074686466F
:10FF800011E064461D46141BB54106D36546521B5D
:10FF9000B341744607430C43A646CD0740084908C1
:10FFA000284392185B4105460D43EAD11046184399
:10FFB00013D06046194650407140084306D0604651
:10FFC000101AB34106D20122002306E000220123C9
:10FFD000DB0702E00122D24353100098744601056A
:10FFE000381C6141029C039D0019694100F07EF8B4
:10FFF000BFE70000FD0300004A0009030123090BCD
:020000040801F1
:100000001B0519430A4B10B5520D9A4202DA002023
:10001000014610BD064B34339A4203DC9A1A00F0B5
:1000200041F810BD034BD21800F02CF810BD0000B1
:10003000FF030000CDFBFFFF10B5002904DB012406
:10004000E40740428C412146002B04DB1C4601237F
:10005000DB075242A341994200D1904210BD0000FB
:10006000064C0125064E05E0E36807CC2B430C3C0B
:1000700098471034B442F7D3FFF726FC3CD101086F
:100080005CD1010810B5202A04DB0146203A9140DA
:10009000002010BD914020239C1A0346E3401943E1
:1000A000904010BD10B5202A04DB0846203AD0400D
:1000B000002110BD0B46D340D0402024A21A91400D
:1000C0000843194610BD10B5202A06DBCB17084699
:1000D000203A1041C1170B4306E00B461341D040B4
:1000E0002024A21A91400843194610BD10B5002BD8
:1000F00008DA0024401C614192185B411A4301D187
:100100004008400010BDF0B51FB482B005460C0099
:1001100003D008460CF034F902E00CF031F920303D
:100120000246009021462846FFF7ACFF049B059A43
:1001300004460F4618431143084314D01846104391
:100140001BD0009840210A1A18460599FFF7AAFF0C
:1001500005460E46009A05990498FFF793FF084359
:1001600005D0012004E02046394607B0F0BD00204C
:10017000C11705430E432C43374300990E9863057E
:10018000401A7905E40A00220C43FD0A0A3002D520
:1001900000200146E9E70105101969410C9C0D9DFD
:1001A00000196941FFF7A2FFDFE730B58C1802782C
:1001B000401C13071B0F01D10378401C120906D104
:1001C0000278401C03E005780D70401C491C5B1E42
:1001D000F9D101E00B70491C521EFBD1A142E6D3BC
:1001E000002030BD81B00090009802783A4908683C
:1001F0009207D20E1823984380180860009842781E
:100200000868D207920E202398438018086000984F
:1002100082780868D207520F042398438018086038
:100220000098C2780868D207920C01235B039843B8
:10023000801808600098427908689207120D03231D
:100240009B0298438018086000980279086852075A
:10025000D20D07239B0198438018086001B07047B6
:1002600082B0019068460170019B054A11681943EC
:1002700011600278034908681043086002B07047B3
:1002800028240140142401405049086802221043E8
:100290000860704710490868012290430860704761
:1002A00081B001466846017002780B490868D207A0
:1002B000920F022398438018086001B07047C0462F
:1002C00042490868012210430860704702490868E3
:1002D00001221043086070470C24014084B00020C4
:1002E000039002900190394908680122D207104317
:1002F0000860FFE735480068C00F01900298401C75
:100300000290FFE7029900200F2212039142009011
:1003100005D0FFE70198411E88410090FFE7009853
:10032000C0070028E6D1FFE728480068C00F002872
:1003300004D1FFE704480068039002E00020039026
:10034000FFE7039804B070474024014083B0029057
:10035000002001906946087002A8C078C0070028F4
:1003600007D0FFE71948006801210906884301907A
:1003700003E0094800680190FFE7019802990842EC
:1003800004D0FFE769460120087000E0FFE76846F7
:10039000007803B07047C0460024014080B582B0A9
:1003A00001204002019005F065FE019805F02CFE49
:1003B00002B080BD054908680422104308607047F8
:1003C0000249086810221043086070470824014061
:1003D00080B503495A20087006F0CEFA80BDC046A9
:1003E000F17F002087B005900491039202A90020BC
:1003F00008700190694608700598082845D3FFE702
:1004000004980078000901283FD1FFE70499087893
:100410000007000D4978401801900198002801D08C
:10042000FFE718E0694600200870FFE7684600789B
:1004300003280FD8FFE7019800020190049A69464B
:100440000878801882780198104301900098401C29
:100450000870EBE7FFE70198072804D8FFE702A937
:100460000020087003E002A901200870FFE702A83D
:100470000078012801D0FFE703E0019803990860A4
:10048000FFE7029806A9087003E006A9002008709B
:10049000FFE706A8007807B070478AB00890079178
:1004A000069205A9002008700490089802285AD3E3
:1004B000FFE7079800780009002854D1FFE7089863
:1004C000092826D3FFE7079800780F2108400490F9
:1004D0000498002801D0FFE71AE0079840780490BC
:1004E00004983E2813D8FFE7049800280FD0FFE7B0
:1004F00004990898421E0120002302939142039020
:1005000001D902980390039805A90870FFE7FFE757
:100510001CE0079800780F210840049004980728F1
:1005200013D8FFE7049800280FD0FFE70499089834
:10053000421E0120002300939142019001D90098AE
:100540000190019805A90870FFE7FFE705A800786A
:10055000012804D1FFE7049806990860FFE7059891
:1005600009A9087003E009A900200870FFE709A89D
:1005700000780AB0704780B58EB00C900B910A924B
:1005800008A900200880542009AA049204F08CFCD9
:1005900004980078002847D1FFE708A800880028C1
:1005A00042D0FFE708A800880C283DD3FFE709A840
:1005B0000390009054200C2105AA08AB04F0D6FC4F
:1005C0000398007800282BD1FFE708A800880C28A2
:1005D00026D1FFE705A881880A9A09A80290009011
:1005E000542008AB04F0C2FC02980078002813D114
:1005F000FFE7069808A9098888420DD1FFE705980A
:100600000C99086006980B990870079806F0D8FCBA
:100610000DA9012008700BE00DA90020087007E06B
:100620000DA90020087003E00DA900200870FFE765
:100630000DA800780EB080BD80B58CB00A9009A8D6
:100640000180089206AA002111800088002843D06A
:10065000FFE7522006A907AA029204F0D2FB0298F3
:100660000078002834D1FFE706A8008809A9098886
:100670000C3188422CD3FFE70A98039009A8008820
:10068000049000200590522003A90C2207AB01938F
:1006900005F0E9FB01980078002815D1FFE70899DB
:1006A00009A80288522007AB009305F0DCFB0098F4
:1006B0000078002804D1FFE70BA9012008700FE0A3
:1006C0000BA9002008700BE00BA90020087007E0C0
:1006D0000BA90020087003E00BA900200870FFE7B9
:1006E0000BA800780CB080BD80B58AB00890079147
:1006F000D5488088002800D1C4E00898007A0028F6
:1007000000D1BBE008980078012800D1B6E0089835
:10071000407A0009002800D1A9E00898407A000931
:10072000012800D1A3E0C848806808994968884238
:1007300000D098E00898407A0009022800D08EE0A6
:10074000C14800780899497A0F221140884200D0A8
:1007500081E0BD498889089A127A521ED2B2801867
:10076000C989884217DBFFE7B74A0592938910468B
:1007700010300690C01808990A31D289D21A04F0B4
:1007800099FD0599069A8868C989FFF755FF079969
:10079000002008705BE0EC48018A002000290490EA
:1007A0000FD0FFE7A8484178E748028A01200023DC
:1007B00002939142039001DA029803900398049007
:1007C000FFE70498C00700281CD1FFE7FFE79E4819
:1007D0000178491C01700078102804D3FFE79A497A
:1007E00000200870FFE7FFE7FFE7D749C88B0978CB
:1007F000FFF7DFF90146944881808088D34908607B
:10080000FFE710E0FFE7D049488B0978FFF7D1F9FF
:1008100001468D4881808088CC490860FFE70799B0
:1008200007200870FFE78848019081894018103040
:10083000089A11460A31127A521E04F03BFD0199C2
:100840000898007A8A898018401E8881FFE709A9E4
:10085000002008701DE009A90420087019E009A90A
:100860000920087015E009A90920087011E007990E
:100870000020087009A9062008700AE009A90020D4
:10088000087006E007990020087009A90320087085
:10089000FFE709A800780AB080BDC04680B586B0E1
:1008A00005900491A748807B03A90870334800781D
:1008B000002818D1FFE764480021029150220192DC
:1008C00004F0EEFD019A02999E4804F0E9FD0298B9
:1008D0009E49086006F074FB0298284A01211170B5
:1008E00003A90870FFE7059800780090002804D05D
:1008F000FFE70098012817D017E00598407A000913
:10090000002804D1FFE70499012008700BE0059846
:10091000407A0009012804D1FFE7049902200870F9
:1009200000E0FFE7FFE71DE0FFE7864A10460830DA
:10093000103203A9FFF71FFE012801D0FFE710E0E6
:1009400003A801787F48C181C089072804D8FFE740
:1009500004990520087003E0049906200870FFE759
:10096000FFE7FFE704980078002804D0FFE7034979
:1009700000200870FFE7002006B080BD680100205D
:1009800080B586B004900391002002900498007A0C
:10099000002851D0FFE70498007801284CD0FFE7E9
:1009A0000498407A0009012842D1FFE70499087AA7
:1009B000093102AAFFF716FD012835D1FFE7049897
:1009C0004068214988600298C881FFE7F849488B50
:1009D0000978FFF7EEF801461B4881808088F549C9
:1009E0000860FFE7049801460B31007A821E164822
:1009F0000190103004F05EFC01990498007A8A8915
:100A00008018801E8881039907200870FFE70499E9
:100A10000120087004990020087204994860FFE7DB
:100A200005A9002008700BE005A90920087007E05F
:100A300005A90920087003E005A909200870FFE74F
:100A400005A8007806B080BDF808002080B584B005
:100A500002900191D4488088002868D0FFE702986E
:100A6000007A00285FD0FFE70298007801285AD06A
:100A7000FFE70298407A0009032850D1FFE7029867
:100A8000417A0F20014068460170007802283FD06B
:100A9000FFE768460078012829D0FFE7684600781C
:100AA000002816D1FFE70298807AF1494870029831
:100AB000C07AF0490880FFE7EF49888B0978FFF793
:100AC00078F80146EA4881808088EC490860FFE7B1
:100AD00006E001990020087003A9052008702DE0A8
:100AE00001990820087003A90020087026E0FFE79C
:100AF000E149088B0978FFF75CF80146DC48818002
:100B00008088DE490860FFE703A90020087015E02F
:100B100001990020087003A9082008700EE003A9BD
:100B2000092008700AE003A90020087006E0019976
:100B30000020087003A903200870FFE703A80078CD
:100B400004B080BD48090020D8CC0108A8090020C5
:100B500080B584B002900191002000900298007A44
:100B6000002830D0FFE70298007801282BD0FFE75B
:100B70000298407A0009002821D1FFE70299087AFB
:100B800009316A46FFF789FC012814D1FFE7029A70
:100B90005068694609880A32FFF74EFD002806D0E2
:100BA000FFE701990020087003A908700FE003A96E
:100BB000092008700BE003A90920087007E003A9C9
:100BC0000920087003E003A909200870FFE703A8C3
:100BD000007804B080BD000080B584B003A8002177
:100BE000017072B612490978017062B600780290FD
:100BF000012804D0FFE7029802280FD014E00D4826
:100C00000068002801D1FFE707E00A48019000686A
:100C10008047019900200860FFE706E004490020B2
:100C200008700449086000E0FFE704B080BDC046DA
:100C3000A4090020A009002010B590B00E900D91DD
:100C400000200C900B900AA9087009A90870DE48D2
:100C50004088002800D09EE0DB488088002800D132
:100C600092E002200BA9079100F0E8FB079AD64911
:100C700008781378F024234018431070C8898989B4
:100C8000401A0AA908910870032000F007FC4748A1
:100C900000F0CAFB0898007807282DD3FFE70BA8BF
:100CA0000590401CC84906918A8908318918083185
:100CB000072204F0FFFA059A0698C4494C6A806836
:100CC000096A0091AC4B0821A047012805D1FFE734
:100CD000BD498889C01D88810DE0022000F0DEFB3F
:100CE0000020049000F0A0FB04980D9908700FA953
:100CF0000920087053E033E00BA80290401CB24971
:100D000003918A890831891808310AAA127804F0F7
:100D1000D1FA029A03980A994B1C09A90B70EF4B60
:100D20005C6A806809781B6A0093EE4BA047012833
:100D300007D1FFE70AA80278A3498889801888812B
:100D40000DE0022000F0AAFB0020019000F06CFBF7
:100D500001980D9908700FA9092008701FE0FFE79E
:100D6000FFE7F349888A0978FEF723FF0146964892
:100D700081808088EF490860FFE70D99092008709D
:100D80000FA9002008700AE00D99002008700FA933
:100D90000220087003E00FA900200870FFE70FA8E9
:100DA000007810B010BDC04648090020B90D0108F8
:100DB000D8CC0108A809002080B583498889C98951
:100DC000884209DBFFE7002006F006F9FFE7D74974
:100DD00000200870FFE749E026480088D4490978D8
:100DE000FEF7E7FE014678484180407800281CD095
:100DF000FFE775484178491E41704078002813D1BB
:100E0000FFE7FFE7C94903200870FFE7FFE7C8498C
:100E1000088B0978FEF7CDFE01466B4881808088FB
:100E2000C4490860FFE721E0FFE7FFE76648017873
:100E3000491C01700078102804D3FFE762490020A4
:100E40000870FFE7FFE7FFE7B949888B0978FEF7ED
:100E5000B0FE0146F54881808088B6490860FFE70A
:100E6000FFE7B24908200870FFE7FFE780BDC046F2
:100E7000480900209C090020D8CC0108A8090020BE
:100E800010B58EB00C900B91002006900A9009903E
:100E9000E648C189079101200729089001D80698E2
:100EA0000890079808990591082856D3FFE70598F8
:100EB000012853D1FFE7012009A900F0BFFAFFE79D
:100EC00009A90878F02210400870D848C37B099A15
:100ED0001A430A70827B487810434870FFE703206A
:100EE00000F0DCFA234800F09FFA09A80390801C68
:100EF000CE4904911031062204F0DCF9039A0498DB
:100F0000E7494C6A8068096A0091CA4B0821A047EA
:100F1000012814D1FFE7FFE7E149888A0978FEF745
:100F200048FE0146C14881808088DC490860FFE7AF
:100F30000B99092008700DA90020087015E0022007
:100F400000F0ACFA0020029000F06EFA02980B99C3
:100F500008700DA90920087007E0FFE70B9905202C
:100F600008700DA908200870FFE70DA800780EB0E2
:100F700010BDC0467D0F01082915010880B5AB4999
:100F80008889801D8881FFE7C549088B0978FEF7AD
:100F900010FE0146A54881808088C0490860FFE7AF
:100FA000FFE7A2480178491C01700078102804D39B
:100FB000FFE79E4900200870FFE7FFE7FFE7A3492E
:100FC00003200870FFE780BD48090020D8CC010845
:100FD00010B588B006900591002004900390524807
:100FE0008088002871D1FFE7032003A900F026FACA
:100FF0004D48C089412807D3FFE703A94878F0226C
:101000001040801C487005E003A94878F022104089
:101010004870FFE7A248007C03A94870FFE7A0489A
:10102000008A002805D0FFE73F494878401C4870F7
:10103000FFE7FFE7FFE73C480178491C01700078B3
:10104000102804D3FFE7384900200870FFE7FFE7C6
:10105000F348817C03A88170C01C5521052204F04F
:101060001FFAFFE7EE49C88A0978FEF7A2FD01469C
:101070002D488180808889490860FFE7032000F0BF
:101080000DFA174800F0D0F9E5494C6AC868096ABA
:101090000091684B082103AAA04701280ED0FFE762
:1010A000022000F0FBF90020029000F0BDF9029848
:1010B0000599087007A9092008700AE00599092018
:1010C000087007A90020087003E007A90020087035
:1010D000FFE707A8007808B010BDC046D8CC0108CB
:1010E000E91001082915010880B50F48C08940287A
:1010F00013D8FFE7FFE7CA49C88B0978FEF759FD07
:10110000014609488180808864490860FFE7FFE75D
:10111000C24904200870FFE705E0FFE7BF4900204F
:101120000870FFE7FFE780BDF8080020F408002002
:10113000D8CC0108A809002010B58CB00A900991FC
:1011400000200890079006A90870F548C089072874
:1011500060D8FFE7F248C089002854D0FFE700209C
:1011600007A900F06BF9FFE707A90878F022104003
:101170000870EB48C289079810430870FFE707988A
:10118000401C06A90491087007A80590401CE4497A
:101190000391CA89103104F08DF8032000F07EF924
:1011A000234800F041F903980499059A9C4B5C6A26
:1011B000806809781B6A00931E4BA047012814D150
:1011C000FFE7FFE79649888A0978FEF7F2FC0146B7
:1011D000D34881808088D3490860FFE709990920B6
:1011E00008700BA9002008701BE0022000F056F9DF
:1011F0000020029000F018F90298099908700BA9D4
:10120000092008700DE00999002008700BA9092039
:10121000087006E00999062008700BA909200870DB
:10122000FFE70BA800780CB010BDC04648090020AD
:10123000391201082915010880B5002005F0CCFEFF
:10124000FFE7764900200870FFE780BDF408002022
:1012500080B584B003900291B2480068002801D0A4
:10126000FFE718E06E48C06A002801D1FFE703E0FD
:101270006B48C06A8047FFE70220009005F0ACFE93
:10128000009800F00BF90020019000F0CDF80198D3
:1012900002990870FFE7002004B080BDA809002073
:1012A000D8CC010880B586B06020522105AA0492EE
:1012B00004F00EFA04980078002801D1FFE701E05D
:1012C000FFE7FEE76020542105AA039204F000FA2C
:1012D00003980078002801D1FFE701E0FFE7FEE76F
:1012E0006020722105AA029204F0F2F902980078B7
:1012F000002801D1FFE701E0FFE7FEE7402074216D
:1013000005AA019204F0E4F901980078002801D1BF
:10131000FFE701E0FFE7FEE706B080BDB0B588B0AB
:1013200007A90020087006AA0A2111703A4A01A9EB
:1013300018CA18C138CA38C16946087037480078D9
:10134000092801D1FFE718E03548836A01AA101D7A
:101350001146083109329847012801D0FFE70BE018
:10136000029807F0B3F9012801D0FFE703E001A9D3
:1013700000200870FFE7FFE7FFE7FFE707A8007816
:1013800009283DDCFFE72548007807A90978CA004D
:101390002449895C884201D0FFE716E007A800785D
:1013A000C100204840184068002801D1FFE70BE049
:1013B00007A80078C1001B4840184268174901A8D7
:1013C000904769460870FFE7FFE7684600780628FF
:1013D00004D1FFE707A90020087010E068460078F4
:1013E000002801D1FFE705E0FFE70C490020087065
:1013F000FFE7FFE70798401C07A90870FFE7BDE774
:10140000FFE701A901200870002008720290FFE7A1
:10141000FFF7E2FB08B0B0BD78CC0108F40800206B
:10142000D8CC01087CCE010881B000900098024918
:10143000086001B07047C046A009002083B0024692
:1014400001A8027000910078002813D0FFE701A8DE
:10145000007801280ED0FFE701A80078032809D002
:10146000FFE701A80078022804D0FFE702A90020C6
:1014700008700EE0009908780F221040087001985B
:101480000201009908781043087002A90120087031
:10149000FFE702A8007803B07047000081B06946FA
:1014A000087000982249087001B070471B484088B6
:1014B000002801D1FFE704E018494888401E488011
:1014C000FFE716488088002801D1FFE704E01349B0
:1014D0008888401E8880FFE711484088002801D195
:1014E000FFE704E00E494888401E4880FFE70C48AB
:1014F0008088002801D1FFE704E009498888401E60
:101500008880FFE707480068002801D1FFE704E072
:1015100004490868401E0860FFE77047F80800208B
:1015200048090020A80900200149012008707047DF
:10153000A409002080B584B0039002910192039821
:10154000002804D0FFE70198002801D1FFE706E05A
:101550000398029907F0AAFE01990860FFE704B01A
:1015600080BD80B500F002F880BD000080B5A848BD
:101570000068002801D1FFE70DE0A5480068807EE3
:10158000002801D1FFE706E0A249012008720020EF
:1015900000F018F8FFE780BD82B00190009101983B
:1015A00000680099884206D9FFE7009A0199086807
:1015B000801A086003E0019900200860FFE702B08C
:1015C0007047000080B58CB00BA908709048006887
:1015D000002801D1FFE7BCE00BA800780A9004289E
:1015E00000D9B5E00A98810001A040588746C0465E
:1015F00005160108351601086F160108E3160108E3
:101600001B17010883490891002009900870487051
:101610000871C8704872887288714871C871887082
:10162000086148618861C8610884488450480AF0AC
:1016300097FE8EE0774906910120087048700020DF
:1016400007900871C8704872887288714871C871B3
:101650000872887008614861C861088448846C48D1
:1016600000684089886141480AF07AFE71E0694863
:101670000590022101704170002141728172C17197
:101680000172634A1368DB88036112681289426140
:1016900081610079012810D1FFE75E4904910020A3
:1016A000087130480AF05CFE049959480268128AB1
:1016B0004A840068808908840AE029480AF050FEBC
:1016C00054490020488452480068C0890884FFE7D4
:1016D00050490020C86124480AF042FE00F0D8FEBC
:1016E00037E04C4902910220087003204870002026
:1016F00003900871C87048728872C8710872444AB1
:1017000013689B8ACB611268D2890A840861886158
:10171000488412480AF024FE1BE03E490091022052
:10172000087004204870002001900871C870487249
:101730008872C8710872364A126812894A61086153
:101740008861C8610884488403480AF009FE00E003
:10175000FFE70CB080BDC04668D001085DD001082D
:1017600008D1010822D10108FBD0010851D001089D
:1017700046D00108274800787047C0462548407881
:101780007047C04682B001900091009A01990868A4
:101790008018086002B0704780B582B0019001984F
:1017A000002801D1FFE731E001981949086000F0F5
:1017B0005FFD0198407E17492C228854694600201D
:1017C0000870FFE7684600780199497E884217DA79
:1017D000FFE768460078801C07280BD8FFE70198D0
:1017E0006946097840182C22805C0A4A891826220A
:1017F0008854FFE7FFE70098401C69460870E1E75E
:1018000000F062FF0020FFF7DDFEFFE702B080BDC1
:101810006C0100207801002007480168491C016024
:1018200000680649884205D3FFE703497D20C000D0
:101830000860FFE77047C046F4090020E903000094
:10184000B0B592B011A90020087010A908700FA9B6
:1018500008700EA908700DA908700C904E48006819
:10186000002801D1FFE75AE24C4800680C900C9820
:1018700049490968C98A884201D2FFE74FE24648D0
:1018800000682021405C01286FD1FFE742480068D2
:10189000806A002869D0FFE73F4800682621415C44
:1018A0000EA801700078022804DBFFE70EA90120D2
:1018B0000870FFE711A900200870FFE711A8007861
:1018C0000EA9097888424FDAFFE733480168896A30
:1018D00011AB1D78032214466C4309194C7810A9EA
:1018E0000C700068806A1B785A43801882780FA8B1
:1018F00002700A782A498918497800780140481E00
:1019000081410DA801700078002808D1FFE711A8D7
:101910000078810022484118002048601EE011A88C
:101920000A9001781E48001D0B90890040180C9900
:10193000FFF732FE0A990B98097889004058002871
:101940000BD1FFE7F7480068806A11A90A780321E4
:101950005143405C00F01AFCFFE7FFE7FFE71198F6
:10196000401C11A90870A9E7FFE700F0ADFEEF48A1
:1019700040780990042800D9CCE10998810001A0A1
:1019800040588746A5190108DB1901084B1A0108C0
:101990006B1B0108651C01086C010020F409002084
:1019A00070010020E148807B012809D1FFE7DF4971
:1019B00001208870887108710220FFF703FEAAE1F8
:1019C000DA48C07B012807D1FFE7D8490020087119
:1019D0000220FFF7F7FD9EE19DE10C99D3480890A6
:1019E0001830FFF7D9FD08988069002812D1FFE769
:1019F000D4480AF0B5FCCD48807B002809D1FFE728
:101A0000CA48C07B002804D1FFE70020FFF7DAFDB9
:101A1000FFE780E1C548807B012809D1FFE7C34982
:101A200001208870887108710220FFF7CBFDFFE765
:101A3000BE48C07B012807D1FFE7BC4900200871E0
:101A40000220FFF7BFFDFFE765E10C99B74807905B
:101A50001430FFF7A1FD07984069002814D1FFE773
:101A6000B3480AF07DFCFC4800682021405C012856
:101A700004D0FFE7AD490020C873FFE7F6480068CF
:101A80000089AA494861FFE70C99A84806901030E0
:101A9000FFF782FD06980069002816D1FFE7A848E5
:101AA0000AF05EFCA148807B012805D0FFE79F4833
:101AB000C07B012804D1FFE70320FFF783FD03E08B
:101AC0000420FFF77FFDFFE725E10C99974805907B
:101AD0001C30FFF757FE0599C869098C88422BD343
:101AE000FFE7924904910020C86192480AF038FC4F
:101AF00092480AF035FC00F0CBFC0498F5490968DF
:101B000009894161408C00280FD0FFE78748418C4C
:101B1000491E4184408C002806D1FFE7ED4800684B
:101B2000C08982490884FFE705E0EA480068C08967
:101B30007E490884FFE7FFE77C48407A012801D10D
:101B4000FFE7FFE77948807A012801D1FFE7FFE747
:101B50007648807B012801D1FFE7FFE77348C07B0F
:101B6000012801D1FFE7FFE7D5E00C996F4803900A
:101B70001430FFF711FD03984069002814D1FFE7E6
:101B80006B480AF0EDFBD34800682021405C012837
:101B900004D0FFE765490020C873FFE7CD4800681F
:101BA000008962494861FFE70C99604802901C3047
:101BB000FFF7E8FD0298C069C6490968C9898842EB
:101BC0001BD3FFE75B480AF0CBFB58480021C161FB
:101BD0004079002805D0FFE75448807B01280BD1CD
:101BE000FFE755480AF0BCFB00F052FCB94800681A
:101BF00000894E494861FFE7FFE74C48407A0128D9
:101C000008D1FFE7494901200871C8700220FFF799
:101C1000D9FC80E04548807A012808D1FFE7434994
:101C200000200871C8700220FFF7CCFC73E03F4829
:101C3000807B012801D1FFE7FFE73C48C07B0128FA
:101C400001D1FFE7FFE73948807B002809D1FFE792
:101C50003648C07B002804D1FFE70420FFF7B2FC20
:101C600059E058E00C99314801901430FFF794FC8A
:101C700001984069002823D1FFE7EC480068202143
:101C8000405C012804D0FFE728490020C873FFE723
:101C90002648807B00280CD1FFE72448C07B002821
:101CA00007D1FFE722480AF05BFB0120FFF78AFC1F
:101CB00005E0DE48006800891C494861FFE7FFE74E
:101CC0001A48407A012808D1FFE718490120087115
:101CD000C8700220FFF776FC1DE01448807A0128C6
:101CE00008D1FFE7114900200871C8700220FFF7F2
:101CF00069FC10E00D48807B012804D1FFE7032038
:101D0000FFF760FC07E00948C07B012801D1FFE72D
:101D1000FFE700E0FFE7044900200860FFE712B09A
:101D2000B0BDC0466C010020F409002078010020FD
:101D3000BBD001088DD00108E5D00108CFD0010843
:101D400073D00108A2D0010884B002A90870F44839
:101D50000068002806D0FFE7F1480068806A002884
:101D600004D1FFE703A90120087033E0EC480068C4
:101D70002621415C684601700078022804DBFFE7F9
:101D8000694601200870FFE701A900200870FFE7FD
:101D900001A8007869460978884217DAFFE7F94810
:101DA0000068806A01A90A7803215143405C02A9B6
:101DB0000978884204D1FFE7019803A9087009E077
:101DC000FFE70198401C01A90870E1E703A9012081
:101DD0000870FFE703A8007804B0704783B0E948B3
:101DE0000068002804D1FFE702A9002008702EE057
:101DF000E44800682221415C6846017000780228AE
:101E000004DBFFE7694601200870FFE701A9002015
:101E10000870FFE701A8007869460978884212DA5D
:101E2000FFE701A80178D84840184078002804D07E
:101E3000FFE702A90120087009E0FFE70198401CB4
:101E400001A90870E6E702A900200870FFE702A8D0
:101E5000007803B07047C0466C01002083B0C948C9
:101E60000068002804D1FFE702A9002008702DE0D7
:101E7000C44800682221415C68460170007802284D
:101E800004DBFFE7694601200870FFE701A9002095
:101E90000870FFE701A8007869460978884211DADE
:101EA000FFE701A80178F148405C002804D0FFE773
:101EB00002A90120087009E0FFE70198401C01A970
:101EC0000870E7E702A900200870FFE702A8007881
:101ED00003B070476C01002081B069460020087093
:101EE000FFE768460078002811DCFFE76A461378B0
:101EF000DE490020C8541378CB185870127889181E
:101F00008870FFE70098401C69460870E9E7694659
:101F100000200870FFE768460078002810DCFFE723
:101F20006A461078D1490B180020D87012789200B8
:101F300089184860FFE70098401C69460870EAE786
:101F400001B07047B0B586B0059004A8017003A930
:101F50000020087002A9087001A90870694608707D
:101F60000598002801D1FFE75DE0BF480068002820
:101F700001D1FFE757E0BC480068806A002801D122
:101F8000FFE750E003A900200870FFE703A80078EE
:101F9000B54909682622895C884241DAFFE7B249DF
:101FA0000868806A03AB1D78032214466C4300194D
:101FB0004478684604700968896A1B785A4389180E
:101FC000897802AA1170007804A90978884201DB97
:101FD000FFE720E0059869460978415C01A8017097
:101FE000007802A909780840884213D1FFE7029BD4
:101FF000684600789D490A185078184350709A48EE
:102000000068808C03AA127892008918486000F05A
:1020100089F8FFE7FFE70398401C03A90870B5E7BC
:1020200000F052FBFFE706B0B0BDC0466C010020D7
:1020300070B58AB0009101460098099108A908700E
:1020400007A80023037006AD2B7005A8037004AA2F
:10205000137003AC237002AC237001AC2370824B6D
:102060001C682626A45D2C701C682125645D047004
:102070001B6822241B5D1370007812788018097881
:10208000884201DDFFE748E007A900200870FFE76C
:1020900007A8007806A9097888423EDAFFE7FA48DF
:1020A00001688B6A07AA157803210C466C431B193B
:1020B0005B7802AC23700068806A12785143401844
:1020C000807803A9087005980299411801A8017049
:1020D000007808A90978884201DBFFE718E0039B34
:1020E000099901A80278885C9843885402A801786D
:1020F0005E48405C03A90978084208D0FFE7039BCB
:10210000099901A80278885C18438854FFE7FFE723
:102110000798401C07A90870BAE70AB070BDC0460E
:102120006C01002082B0D8480068002801D1FFE788
:1021300026E0D54800682221415C6846017000789D
:10214000022804DBFFE7694601200870FFE701A9C8
:1021500000200870FFE701A80078694609788842E6
:102160000EDAFFE701A8027840488118805C4A78BF
:1021700010438870FFE70198401C01A90870EAE746
:1021800002B070476C01002070010020B0B588B02B
:1021900006A90870BC480068002804D1FFE707A919
:1021A000012008705CE0B84800682021405C0128EC
:1021B00004D0FFE707A90120087051E006A80078C5
:1021C000FFF7C2FD014605A801700078012804D17F
:1021D000FFE707A90120087042E0AB480168896A5F
:1021E00005AB1D78032214466C430919497804ACE9
:1021F00021700168896A1B785A438918897803AA73
:10220000117000682221415C02A801700078022848
:1022100004DBFFE702A901200870FFE704A80078AB
:1022200002A90978884204DBFFE707A901200870AA
:1022300016E0039B04A801780C4842185178994392
:10224000517005A909788900411800200190486063
:10225000FFF768FF00F038FA019807A90870FFE758
:1022600007A8007808B0B0BD6C0100207001002004
:1022700080B584B085490191002002908870087172
:10228000C87048728872C872087348738873C873BC
:1022900048718871C8710872086148618861C861B5
:1022A000088448842C22885403A90870FFE703A8F7
:1022B000007807280DD8FFE703A80178F3484118F4
:1022C000242200208854FFE70398401C03A90870CB
:1022D000EDE7FFF701FE04B080BDC04680B582B0D7
:1022E00001AA108000910098002801D1FFE703E0C7
:1022F000009800F003F8FFE702B080BD80B588B019
:10230000079006A90020087005A9087004A90870A4
:1023100003A9087002A9087001A90870694608702D
:10232000E8480068002801D1FFE7ABE007980028E3
:1023300001D1FFE7A6E007980068002801D1FFE778
:10234000A0E00798007A012801D8FFE79AE0F94851
:1023500000682021405C01280FD1FFE7F5480068A4
:102360002621405C002806D0FFE7F2480068806A1A
:10237000002801D1FFE785E0FFE7079800680078B3
:1023800004A9087007980068417805A801700078D2
:102390000121084001A90870E64800682021405C3E
:1023A000012810D1FFE705A8007840210840402807
:1023B00004D0FFE702A90020087003E002A9012071
:1023C0000870FFE7FFE7DB4800682021405C012838
:1023D0001BD1FFE702A80078012815D1FFE7079875
:1023E0000068D449096821228A5C80182222895C0D
:1023F000FFF7A8FDD048407B012804D1FFE76946DC
:1024000001200870FFE7FFE703E06946012008703C
:10241000FFE768460078012834D1FFE701A800787B
:10242000012804D1FFE7C44901208872FFE7C148B1
:1024300000682021405C012804D0FFE7BE4901204C
:10244000C873FFE7BC480078002805D0FFE7BA480A
:10245000007801280AD1FFE7B7488078012804D026
:10246000FFE7B54902208870FFE7FFE7B248007830
:10247000022806D1FFE7AF4800680089AE494861ED
:10248000FFE7FFE708B080BD6C0100207801002065
:1024900080B586B003A8019003A900200870A54864
:1024A0000068002804D1FFE705A901200870E8E0D2
:1024B000A0480068007E092804D3FFE705A9012091
:1024C0000870DEE09B4800682021405C012812D1A2
:1024D000FFE7984800682621405C002806D0FFE707
:1024E00094480068806A002804D1FFE705A901200C
:1024F0000870C6E0FFE790484079012809D1FFE75E
:102500008D48807B002804D1FFE705A901200870D1
:10251000B7E088480068807E012809D1FFE7864837
:10252000007A012804D1FFE705A901200870A8E07E
:102530008148C079012804D1FFE705A9012008706E
:102540009FE07C48006801797B4824228154C07850
:10255000012807D1FFE7019800680121084303A97A
:102560000870FFE774488079012807D1FFE70198D8
:1025700000681021084303A90870FFE76D48006850
:102580002021405C012807D1FFE701980068402125
:10259000084303A90870FFE70198016866482522EF
:1025A00081542430634900910968097EFFF740FD9A
:1025B000009800682021405C01283BD1FFE75E487D
:1025C000407802280CD1FFE75A480068C069437878
:1025D0000178594841182422885C184388540BE03C
:1025E00054480068C0694378017853484118242250
:1025F000885C98438854FFE74F48807801280CD1C5
:10260000FFE74C480068C069C37881784A484118A0
:102610002422885C184388540BE046480068C0694F
:10262000C3788178444841182422885C98438854B0
:10263000FFE7FFE740488078002804D0FFE73E49E5
:1026400000208870FFE73C4A0120D07139480168BA
:102650000868097E243200F071F8014604A8017070
:102660000078002804D0FFE733490020C87103E058
:10267000314900208871FFE70198406805A908707A
:10268000FFE705A8007806B080BDC04678010020AD
:1026900080B582B0014601A80180008800F002F8F0
:1026A00002B080BD81B069460880224800680028D9
:1026B00001D1FFE703E020490020C871FFE701B026
:1026C0007047C0466C01002080B582B01948006890
:1026D000002801D1FFE72BE0164800682021405C6C
:1026E00001280CD1FFE7FFF7B9FB134901910873EB
:1026F000FFF774FB01994873487BC87304E00E49E7
:10270000002008734873FFE70B48C17A01200129B4
:10271000009007D0FFE70848007B401E4142484137
:102720000090FFE700980121084003498873FFE704
:1027300002B080BD6C0100207801002080B586B019
:10274000049003A8017002920298002804D1FFE7C8
:1027500005A90120087013E0049903A803780298E2
:1027600000900022104606F00DFA012804D1FFE780
:1027700005A90020087003E005A901200870FFE703
:1027800005A8007806B080BD80B58EB00D900C9184
:102790000B9209A90020087008A908800C20049059
:1027A00074200AAA039202F07FFB039800780028A5
:1027B0004FD1FFE708A800880D2849D3FFE70AA8F2
:1027C0000290009074200C2105AA08AB02F0CEFB09
:1027D0000298007800280AD1FFE708A800880C2892
:1027E00004D1FFE709A901200870FFE7FFE709A866
:1027F000007801282BD1FFE70DA801880C9A0AA8C0
:1028000001900090742008AB02F0B0FB01980078B2
:1028100000281BD1FFE708A800880D99884214D131
:10282000FFE70D98069988420ED3FFE709A901201A
:1028300008700B99079888600698486005980860AA
:10284000079879490860FFE7FFE7FFE7FFE7FFE741
:10285000FFE709A800780EB080BDC04680B58EB0F5
:102860000D900C910B9209A90120087004A9002079
:102870000880082003900C98092804D3FFE709A9D1
:10288000002008703AE0722004A90AAA029202F01D
:10289000B8FA0298007800282FD1FFE70C9808308A
:1028A00004A90988884227D8FFE70D9806900C985C
:1028B0000590722005A908220AAB019303F0D3FA10
:1028C00001980078002804D0FFE709A900200870CB
:1028D00011E00B9905A8028872200AAB009303F05F
:1028E000C2FA00980078002804D0FFE709A9002068
:1028F0000870FFE7FFE7FFE7FFE7FFE709A80078B9
:102900000EB080BD80B590B00E900D910C920BA9C9
:102910000020087009A9088008A90880079006907F
:10292000059004900820039072200AAA029202F0F7
:10293000BBFA0298007800284CD1FFE708A800886D
:10294000082847D3FFE70AA80190009072200821C9
:1029500004AA09AB02F00AFB01980078002838D1DC
:10296000FFE708A80088082832D3FFE704AA1188E7
:1029700008320AA80090722008AB02F0F7FA059816
:1029800005F0A4FE012804D0FFE70FA9002008707D
:1029900024E005980E99086004980D9908700BA919
:1029A00000200870FFE70BA80078049988420BD23A
:1029B000FFE70BA90B7804A8C018007A0C9AD05432
:1029C0000B98401C0870EEE70FA90120087005E085
:1029D000FFE7FFE70FA900200870FFE70FA80078C6
:1029E00010B080BD80B582B001A9002008700D48EC
:1029F0000068002801D1FFE706E00A480068804728
:102A0000094900200860FFE701F082FF014601A8A4
:102A100001700078012801D1FFE700E0FFE702B074
:102A200080BDC046980900201C06002010B592B059
:102A3000149C10900FA8049001800E920D930AA888
:102A40005521082202F02CFD049809AA00211180CA
:102A5000142105910088092804D3FFE711A900205B
:102A600008704BE0742009A90CAA039202F0C9F97E
:102A700003980078002805D1FFE709A800881328EB
:102A800004D8FFE711A90120087037E010980690DC
:102A9000082007900D9808900E990FA802880AA8A0
:102AA00002F008FC742006A90C220CAB029303F080
:102AB000DAF902980078002808D0FFE774200CA902
:102AC00007F0E7FE11A90020087017E074200AA99A
:102AD00008220CAB019303F0C6F901980078002896
:102AE00008D0FFE774200CA907F0D3FE11A900203D
:102AF000087003E011A901200870FFE711A8007811
:102B000012B010BD83B0009101460098029101A956
:102B100008700298D8228058097801228A40104013
:102B2000C84003B0704783B00091014600980291FD
:102B300001A908700298CC228058097801228A40A5
:102B40001040C84003B0704781B00090009A03491C
:102B500008681040086001B07047C0460458004043
:102B600082B00190009100980199086502B0704709
:102B700082B00190684601700078402801D3FFE7D9
:102B800016E0684600781F2808D8FFE768460178F5
:102B90000120884001999822885008E06846017811
:102BA00020390120884001999C228850FFE7FFE7E7
:102BB00002B0704782B0014601A801706A46002148
:102BC00011700078192808D3FFE701A800780F30AA
:102BD00000090B306946087011E001A80078092847
:102BE00008D3FFE701A80078C01C8008801D694653
:102BF000087003E0019869460870FFE7FFE7684640
:102C0000007802B07047000080B586B0059004914E
:102C10000392029301A90020087069460870049885
:102C2000002801D1FFE766E0059800F067F901A9E7
:102C30000870FFE7684600781F280ED8FFE7049861
:102C40006946097841181120020100208854FFE7E5
:102C50000098401C69460870ECE76946002008703F
:102C6000FFE7684600783F280ED8FFE704986946DA
:102C7000097841181320020100208854FFE70098CA
:102C8000401C69460870ECE70499172002010020F7
:102C900088540499FF227232885401A800780028D1
:102CA00007D1FFE7049801A909788A0013498850E1
:102CB00000E0FFE7039804990860029804994860CF
:102CC00004980068002807D0FFE705980721CA0587
:102CD000002100F039F805E005980721C90500F04A
:102CE0000FF8FFE717200F2102F0DDFC18200E215E
:102CF00002F0D9FCFFE706B080BDC046C80900203D
:102D000082B001900091009A0199486D9043486506
:102D100002B0704782B001906846017000780123CC
:102D200083400199E02288589843885002B0704748
:102D300081B00090009A034908681043086001B010
:102D40007047C0460058004083B002900191009245
:102D50000198012282400299C86D1043C86501980C
:102D6000002806D1FFE7009A0299886D9043886594
:102D700005E0009A0299886D10438865FFE7009A84
:102D80000299486D1043486503B0704782B00190C6
:102D9000684601700078012383400199E022885839
:102DA0001843885002B0704781B00090009988693C
:102DB000012210438861FFE700988069C00700285E
:102DC00001D1FFE7F8E70099886902221043886182
:102DD00001B0704781B0009000998869012290434A
:102DE0008861FFE700988069C007002801D1FFE7EC
:102DF000F8E701B0704780B584B00390029101A854
:102E000002700298002805D0FFE701A8007820286A
:102E100001D3FFE713E0039801A900910978FFF7B8
:102E200079FF00990398097800F0C2FF0099029891
:102E3000097841181120020100208854FFE704B0EE
:102E400080BD80B584B00390029101A80270029801
:102E5000002805D0FFE701A80078402801D3FFE74C
:102E600013E0039801A900910978FFF781FE009A09
:102E70000298117889004118002088600299127820
:102E80008918132212018854FFE704B080BD80B571
:102E900084B0039002A801700192019800280AD022
:102EA000FFE702A80078002806D0FFE702A8007814
:102EB000012801D0FFE71EE002A80078012805D113
:102EC000FFE703981021FFF71BFF04E0039801219F
:102ED000FFF716FFFFE7019802AA11788900411851
:102EE0002120C3000020C8500199127889181722A8
:102EF00012018854FFE704B080BD000082B0019049
:102F000000200090FFE7009800280FD1FFE700980D
:102F10008100084840580199884201D1FFE705E047
:102F2000FFE7FFE70098401C0090ECE7009802B034
:102F30007047C04660CF010884B0039002A80170BA
:102F40000021019100910078402803D3FFE7002081
:102F500000901FE00398BC2140584005400F0190AD
:102F60000198042804D8FFE70198001D019004E0AF
:102F7000019880000A380190FFE70398AC2140587F
:102F80004B49084002A90A78019951438900401829
:102F90000090FFE7009804B07047C04683B00290ED
:102FA0000020019000900298BC2140580721084061
:102FB00000900098042804D8FFE70098001D0090B6
:102FC00004E0009880000A380090FFE70298A021F2
:102FD00040583749084001900298A4214058800485
:102FE000810E009848438100019840180190019893
:102FF00003B0704783B002900020019000900298C7
:10300000BC2140584006400F00900098042804D886
:10301000FFE70098001D009004E0009880000A3847
:103020000090FFE70298B0214058214908400190E4
:103030000298B42140588004810E009848438100D2
:10304000019840180190019803B0704784B0039034
:1030500002A801700021019100910078202803D37B
:10306000FFE7002000901FE00398C8214058072187
:10307000084001900198042804D8FFE70198001D3A
:10308000019004E0019880000A380190FFE703985E
:10309000C02140580649084002A90A7801995143C5
:1030A000890040180090FFE7009804B07047C046C0
:1030B000FCFF0000B0B588B00790069105A911206B
:1030C00008700020049003A90870FFE703A80078A7
:1030D0003F283FD8FFE7079803A9097800F09AF93D
:1030E000002830D0FFE70798406D0003C00F00288C
:1030F00027D0FFE7079803A902910978069A8B0069
:10310000D218926800F0BEF9029A079806991278D0
:10311000FFF797FE02980078049005A90320087035
:103120000698006800280AD0FFE706990C680798FF
:1031300005AA1278049B4D680095A04700E0FFE7C0
:1031400000E0FFE700E0FFE7FFE70398401C03A96A
:103150000870BBE708B0B0BD80B584B003900291A1
:1031600002980E300190039800F0F7FA0298807AE6
:10317000012810D1FFE703998869802210438861F4
:1031800003998869202210438861039908691022F5
:103190001043086100E0FFE70298C07A01280BD1D4
:1031A000FFE70399886980221043886103990869C1
:1031B00010221043086100E0FFE70298007B01281D
:1031C00006D1FFE70399886920221043886100E057
:1031D000FFE70398019900F047FB0298007A012865
:1031E00007D1FFE703998869012212021043886121
:1031F00000E0FFE70298407A012848D1FFE70399F1
:103200008869012213021843886103998869520270
:10321000104388610398019900F06EFB0298807A50
:10322000002832D1FFE70298C07A00282DD1FFE7AD
:103230000399C8680122D2051043C8600399886CBD
:103240007F221202904388640198417A891CC088C9
:10325000401C48437E2810D8FFE70199487A801C1B
:10326000C9884A1C42430399886C5206520C7F233A
:103270001B0298438018886406E00399886C7F22BB
:10328000120210438864FFE700E0FFE700E0FFE779
:1032900004B080BDB0B588B00C9C0790069105A81D
:1032A0000270049303AA00211170049902AA1170FC
:1032B00000780190012808D0FFE7019803283ED04C
:1032C000FFE7019810287AD089E003A90020087050
:1032D000FFE703A80078092830DCFFE703A800789F
:1032E000C1004548405C002822D0FFE7069803A9AA
:1032F0000978401811210901405C002818D1FFE726
:1033000003A80078C2003C49002088543B4800686C
:1033100000280CD0FFE73948046803A80078C200F1
:1033200035498918496800231A46A047FFE7FFE797
:10333000FFE70398401C03A90870CAE750E007980C
:1033400002A90978284A294B00F0C2F928480068E8
:10335000002833D0FFE7254800684000C00F002850
:1033600011D1FFE72248046802A800781F4B1968B2
:10337000204A1140890C9D790F221540D34A525D95
:103380000833A04719E0194800684000C00F002822
:1033900011D0FFE71648046802A80078134B19689B
:1033A0000722520791439D790F221540C74A525D6B
:1033B0000833A04700E0FFE7FFE7FFE710E006F073
:1033C00035FB08480068002808D0FFE70548046876
:1033D0000023184619461A46A047FFE700E0FFE71A
:1033E00008B0B0BDB8010020E401002008080020AA
:1033F000BC0100200000FC1F50080020C00100207C
:1034000081B00090024800680099084001B0704700
:103410000458004083B0029001A801706A46002160
:1034200011700078402801D3FFE726E001A800785A
:103430001F2810D8FFE702989821405801A9097861
:10344000C840C007002804D0FFE769460120087083
:1034500000E0FFE710E002989C21405801A909789C
:103460002039C840C007002804D0FFE76946012082
:10347000087000E0FFE7FFE7FFE76846007803B069
:103480007047000080B586B0059004A801700392D3
:103490000020029001A90870694601200870039875
:1034A000002804D1FFE76946012008703EE0059836
:1034B00004A90978FFF740FD83494018029001A94B
:1034C00000200870FFE701A8007801280DD8FFE769
:1034D000029801A909788A00805803998850FFE76B
:1034E0000198401C01A90870EDE701A900200870AF
:1034F000FFE701A8007803998A790F210A407349F0
:10350000895C88420EDAFFE7029801A90A788018E0
:10351000007A039989180872FFE70198401C01A9F5
:103520000870E6E7694600200870FFE76846007803
:1035300006B080BD80B586B0059004A801700392E6
:103540000021029101AA11706A46012111700078D0
:10355000002805D0FFE704A80078012804D1FFE780
:103560000398002804D1FFE7694601200870A7E00E
:1035700004A80078002851D1FFE70598A4214058FD
:103580004006002845D0FFE70598FFF707FD4E49A4
:103590004018029001A900200870FFE701A80078F8
:1035A00001280DD8FFE7029801A909788A00805800
:1035B00003998850FFE70198401C01A90870EDE7C6
:1035C00001A900200870FFE701A8007803998A7913
:1035D0000F210A403D49895C88420EDAFFE70298D4
:1035E00001A90A788018007A039989180872FFE700
:1035F0000198401C01A90870E6E70598A4214058ED
:103600008004800E0599A822885069460020087021
:1036100003E0694601200870FFE750E00598B421F7
:1036200040584006002845D0FFE70598FFF7E2FC28
:10363000E6494018029001A900200870FFE701A8A0
:10364000007801280DD8FFE7029801A909788A00BF
:10365000805803998850FFE70198401C01A9087021
:10366000EDE701A900200870FFE701A800780399A1
:103670008A790F210A401549895C88420EDAFFE7F2
:10368000029801A90A788018007A039989180872AB
:10369000FFE70198401C01A90870E6E70598B421EE
:1036A00040588004800E0599B82288506946002051
:1036B000087003E0694601200870FFE7FFE7FFE7B5
:1036C0006846007806B080BD005C00401400002011
:1036D00010B586B0059004A801700392029301AA68
:1036E0000121117000783F2808DCFFE703980028CB
:1036F00004D0FFE70298002804D1FFE701A90120C8
:10370000087026E0039804A90978401813210901DC
:10371000405C002818D1FFE7039804AB19784018E3
:1037200013210A01012181540298039A1B789B00FE
:10373000D21890600598CA0400210091FFF704FB9D
:10374000009801A9087003E001A901200870FFE7B3
:10375000FFE701A8007806B010BD81B00090009985
:103760008869012210438861FFE700988069C007DB
:10377000002801D1FFE7F8E7009988690222104389
:10378000886101B0704780B586B0059004910392BE
:1037900002A9012008700498002809D0FFE70398C7
:1037A000002805D0FFE703980079402804D3FFE7FD
:1037B00002A90120087053E0049803990979401880
:1037C00011210901405C002845D1FFE703980068FA
:1037D00000688000C00F002809D0FFE70498039913
:1037E00009794118112002010420885408E0049846
:1037F0000399097941181120020103208854FFE739
:103800000598039A1179126800F0DEFA002815D1A4
:10381000FFE7059803990979FFF7B8FA05980121A0
:103820004A0200210191FFF78FFA0598039909795F
:1038300000F0B2FA019802A908700BE0049803990D
:1038400009794118112002010020885402A90120A1
:103850000870FFE703E002A901200870FFE7FFE717
:1038600002A8007806B080BD10B582B0019000912A
:103870000098002801D1FFE729E001990020C861E4
:10388000009802790199C8697F231A4098438018EB
:10389000C8610098C2780199C8691202FF24240205
:1038A000A0438018C861009802880199C869D205B0
:1038B000D209084C20408018C8610098827801998C
:1038C000C86952065B0698438018C861FFE702B0DA
:1038D00010BDC046FFFF00FE82B001906846017037
:1038E000027801998869D207520E402398438018C4
:1038F000886102B070470000F0B582B0019000917D
:103900000098002804D0FFE70198002801D1FFE7C4
:1039100039E00199C8680F27FE433040C86001991B
:10392000C868F022D5432840C8600199C868174C80
:103930002040C8600199C868154B1840C8600098BD
:10394000027A0199C8683A4030408018C8600098EF
:10395000827A0199C8681207120E28408018C86040
:103960000098427A0199C868D206D20C204080188B
:10397000C8600098C2880199C868D206D20A184067
:103980008018C860FFE702B0F0BDC046FFE0FFFF4F
:10399000FFFFE0FF85B00490039102A802700021B0
:1039A000019100780090049800680099C9004018BF
:1039B00053494018019003980068019908600398E2
:1039C00040680199486005B07047C046005C0040FF
:1039D00010B582B0019000910098007A00282BD198
:1039E000FFE70098437A019980228858DB079B0FF4
:1039F0000224A043C01888500098837A01998858FF
:103A00009B079B0E3024A043C01888500098036881
:103A10000199842288585E4C23405E4C2040C01897
:103A2000885000980379019988581B04FF242404C6
:103A3000A043C01888502AE00098437A0199802258
:103A4000885801242340A043C01888500098837AE6
:103A5000019988589B071B0F0C24A043C01888505D
:103A600000980368019988228858494C2340494CA2
:103A70002040C018885000984368019988585B0618
:103A80005B0A7F242404A043C0188850FFE702B0DB
:103A900010BDC04610B582B0019000910098036837
:103AA0000199AC2288583A4C23403A4C2040C01827
:103AB0008850009803790199BC2288585B075B0DF8
:103AC00007242402A043C018885002B010BDC0468D
:103AD00085B00490039102A8027000210191007842
:103AE0000090049800680099890040180449401823
:103AF0000190039800680199086005B07047C046BE
:103B0000005C0040B0B583B0029001910199486813
:103B100089684018212801D3FFE736E0019803683F
:103B20000299C02200928858194C2340194C204019
:103B3000C018885001984368029988589B069B0AD0
:103B40003F242504A843C01888500198836802992F
:103B500088589B069B082406A043C01888500198EB
:103B6000037B02998858DB075B080124A407A04364
:103B7000C01888500198437B0299C82288580724AE
:103B80002340A043C0188850FFE703B0B0BDC04633
:103B9000FCFF00000300FFFFB0B58AB00990089158
:103BA00007A91120087000200690059004A908704C
:103BB0000898002801D1FFE7EAE00998006D069017
:103BC000FFE706A840888005400F002809D0FFE7DE
:103BD00006980721C9050840059007A9102008701C
:103BE000A1E006A840788007002836D5FFE704A9A1
:103BF00000200870FFE704A800780999C0228958BE
:103C00008902890E884222DAFFE7099804A9097817
:103C1000FEF778FF002813D0FFE70998E02140580D
:103C200004A90978C840C007002807D0FFE7099811
:103C3000089904AA1278FFF7DEF800E0FFE700E039
:103C4000FFE7FFE70498401C04A90870D3E70120B0
:103C50004102059107A9087064E006A80078C00732
:103C6000002814D0FFE7099808992122D2008A5829
:103C700000210391FFF75EFC03990120059007AA3C
:103C8000052010700998089AFFF701F949E006A885
:103C900000780007002805D5FFE70820059007A950
:103CA00008703DE006A80078C006002814D5FFE79C
:103CB00009980899432292008A5801210291FFF73E
:103CC00039FC02991020059007AA0A201070099863
:103CD000089AFFF7DCF822E006A800780006002822
:103CE00006D5FFE78020059007A90D20087015E094
:103CF00006A880780007002808D5FFE709980899EA
:103D0000FFF7D8F907A90320087006E00698059088
:103D10000598204908400590FFE7FFE7FFE7FFE728
:103D2000FFE7FFE7FFE707A80078032806D1FFE7D2
:103D300009980121C904FEF713FF04E009980599C9
:103D4000FEF70EFFFFE707A80078032811D0FFE772
:103D50000898006800280AD0FFE708990C680998BD
:103D600007AA1278059B4D680095A04700E0FFE781
:103D700000E0FFE707A911200870002005900998CE
:103D8000006D0690FFE70698002800D019E7FFE7CE
:103D90000AB0B0BD66FD77FC82B001906846017044
:103DA0000178012088400199D022885002B07047E4
:103DB00082B0019068460170017801208840019925
:103DC000D422885002B0704780B59CB01B901AA8CE
:103DD0000170199218A90120087000200190179015
:103DE000169015A9087014A9087013A9087003A8E3
:103DF0004021FBF796FD019802901998002804D104
:103E0000FFE718A9012008707CE01B981AA909781F
:103E1000FEF789FE002870D1FFE71B981AA90978E0
:103E2000FFF714F939494018179017980830169081
:103E300015A900200870FFE715A8007801280DD803
:103E4000FFE7199815A909788A00805817998850B2
:103E5000FFE71598401C15A90870EDE719988179BE
:103E60000F2001402A48405C14A90870FFE714A8FD
:103E7000007813A9097888421ADDFFE713A80078B3
:103E80001999097B884208DAFFE71998806813A915
:103E90000A78805C03A9885405E013A8027803A976
:103EA00000208854FFE71398401C13A90870DEE730
:103EB00003A8029015A900200870FFE715A8007854
:103EC00019998A790F210A401149895C884210DAD0
:103ED000FFE702980068169908601698001D169072
:103EE0000298001D0290FFE71598001D15A90870A3
:103EF000E4E718A90020087003E018A90120087061
:103F0000FFE7FFE718A800781CB080BD005C004008
:103F10001400002080B503490020087002F02CFD39
:103F200080BDC046F07F00205A48704780B588B0F9
:103F30005748069057480590574900200870059843
:103F40000699E422FBF7D4FC7D20800007A9042217
:103F500000F0B6F807985149884210D0FFE705995C
:103F60000020E42200F0F4F84C4807907D20800007
:103F700007A9042200F0ECF800F0CAF881E00599E6
:103F80000A310A2004901322009200F089F8009A66
:103F900005993F313F2000F083F80599683168208A
:103FA0001D22019200F07CF80599853185201E22A2
:103FB00000F076F80599A331A3200422039200F0C3
:103FC0006FF80599A731A720112200F069F805992B
:103FD000B831B8201022029200F062F8039A0599D5
:103FE000C831C82000F05CF80198049A05991D3189
:103FF00000F056F8049B0599069A002000F0F6FAA6
:10400000029B05995231069A5232522000F0EEFA84
:10401000039B05993B31069A3B323B2000F0E6FAC0
:10402000049B05992731069A2732272000F0DEFAF3
:1040300005996231069A62326220062300F0D6FAB0
:10404000049B05993131069A3132312000F0CEFAC5
:10405000049B0599D031069AD032D02000F0C6FAE0
:10406000049B0599DA31069ADA32DA2000F0BEFABA
:1040700009480078002803D0FFE700F049F8FFE77F
:10408000FFE70599CF220020885408B080BDC046C4
:1040900008CD010858030020CE090020214D564EBE
:1040A00080B584B00092024600980392029101AA62
:1040B000107003980299127800F002F804B080BDE5
:1040C00085B00490039102A8028004985D494018CD
:1040D00001900398002801D1FFE716E0694600200F
:1040E0000880FFE76846008802A9098888420CDA40
:1040F000FFE7019869460A88805C03998854FFE7C6
:104100000098401C69460880ECE705B07047C0463F
:1041100080B584B07D2081004A4805F0C7F803903F
:104120003F20C00003A9042200F012F8014602A8B3
:1041300001700078002804D0FFE702A80078019001
:1041400002E000200190FFE7019804B080BDC04666
:1041500010B5FFB08FB08C908B918AA8027089A99E
:1041600000200870102084904020839008208290C6
:104170008B98002808D0FFE78C988AA90978401806
:104180002F49884204D3FFE78DA90120087052E02F
:104190000120420202A800902A490191FBF7A8FBE6
:1041A00000988C9940188B998AAA1278FBF7A0FB8B
:1041B00072B600F0EBFD07F089FC019800F004FDF9
:1041C000014688A801700078002804D0FFE789A97B
:1041D00001200870FFE789A80078002824D1FFE7B4
:1041E00002A885901748869000208790FFE787985F
:1041F000072818D8FFE78698859A032100F01CFD50
:10420000002805D0FFE78998401C89A90870FFE7BE
:10421000869840308690859840308590FFE7879853
:10422000401C8790E3E7FFE700F000FD62B6899845
:104230008DA90870FFE78DA800787FB00FB010BD82
:10424000010200000000040880B588B006AB1880A9
:1042500005910492FFF768FE039002A90020087000
:104260000398002808D0FFE70598002804D0FFE74E
:104270000498002804D1FFE70020C043079050E1D4
:1042800006A800880190A8494018022800D22FE112
:104290000198A649884200D188E00198A449884243
:1042A00072D0FFE70198A349884276D0FFE70198D2
:1042B000A149884200D1E7E00198A049884200D195
:1042C0008EE001989E49884255D0FFE701989D49AC
:1042D000884248D0FFE701989B49884200D191E08D
:1042E00001989A49884200D1ADE0019898498842E6
:1042F00000D19FE00198F549884200D1B4E00198CF
:104300009449884200D18CE001989349884200D1B9
:10431000CBE001989149884200D1BDE001989049D5
:10432000884266D0FFE701988E49884200D1C5E0F7
:1043300001988D49884200D1C9E001988B49401805
:10434000022800D2D4E001988949884200D194E043
:1043500001988849884200D1CAE00198FF210902EA
:1043600088422CD0D6E004980A220260059803996E
:10437000FBF7BEFAD2E00498132202600598039975
:104380000A31FBF7B5FAC9E004980A2202600598E1
:1043900003991D31FBF7ACFAC0E004980A220260D1
:1043A000059803992731FBF7A3FAB7E004980A228E
:1043B0000260059803993131FBF79AFAAEE004994F
:1043C000042008600599039A10463B303B23D25CD9
:1043D0000A70C278CA7082788A70407848709DE00E
:1043E000049813220260059803993F31FBF780FA85
:1043F00094E0049810220260059803995231FBF76B
:1044000077FA8BE00499032008600599039A104617
:1044100062306223D25C0A7082788A704078487079
:104420007CE004981D220260059803996831FBF72F
:104430005FFA73E004981D220260059803998531A4
:10444000FBF756FA6AE00499042008600599039A7C
:104450001046A330A323D25C0A70C278CA70827857
:104460008A704078487059E00498112202600598DB
:104470000399A731FBF73CFA50E00499012008604A
:1044800005990020087049E004990120086003F0B4
:104490004FFA0599087041E004980A2202600598D5
:1044A0000399D031FBF724FA38E004980A2202601D
:1044B00005980399DA31FBF71BFA2FE004981022D4
:1044C000026005980399B831FBF712FA26E00499C7
:1044D000042008600599039A1046C830C823D25CAE
:1044E0000A70C278CA7082788A704078487015E085
:1044F00006A80088059902AA00F0DEFA002804D078
:10450000FFE70020C04307900BE002A80078049961
:10451000086003E00020C043079002E000200790FD
:10452000FFE7079808B080BD00FEFFFF50F10000D4
:1045300080F1000082F1000086F1000087F10000A8
:1045400088F1000089F100008AF100008BF1000081
:104550008CF1000091F1000093F1000095F1000052
:1045600097F1000098F1000099F10000130EFFFF91
:10457000EFF1000019FA000080B584B019480190ED
:104580001949A731A7201122FFF7E2FD014602A831
:1045900001700078002804D0FFE70020C04303909A
:1045A0001CE07D20800001A90422FFF7D1FD014617
:1045B00002A801700078002804D0FFE70020C04363
:1045C00003900BE0FFF7A4FD002804D0FFE70020D4
:1045D000C043039002E000200390FFE7039804B07B
:1045E00080BDC046214D564E5803002010B58EB0F8
:1045F0000D900C910B920AA803700078212801DB22
:10460000FFE720E00D980AA900910A7802A901911C
:10461000FFF756FD009A0C980B991278FBF768F992
:10462000009A01980B991278FBF786F900280AD0B6
:10463000FFE70D980B990AAA1278FFF789FD034945
:1046400001200870FFE70EB010BDC046CE09002063
:1046500080B586B004AB1880039102A80270FFF702
:1046600063FC01900198002804D0FFE7039800281C
:1046700004D1FFE70020C043059024E004A800888F
:104680001249884204D0FFE70020C04305901AE099
:1046900002A80078112804D0FFE70120C04305904C
:1046A00011E00198A73003991122FBF721F9FFF7D8
:1046B00063FF002804D0FFE70220C043059002E01A
:1046C00000200590FFE7059806B080BD90F100003E
:1046D00081B00090009A0F200007824302490868C9
:1046E0001043086001B070470400024010B582B06A
:1046F000019000910098027A01990868D207D20EC1
:1047000010239843801808600098027D019908687A
:10471000D207920E20239843801808600098827D6B
:1047200001990868D207520C01239B039843801813
:1047300008600098427D019908689207920C032353
:104740001C03A043801808600098827C01990868C7
:10475000D207120E8024A043801808600098C27C03
:1047600001990868D207520E4024A04380180860BF
:104770000098027C019908689207120D9C02A043E0
:10478000801808600098427C019908689207920D91
:104790001B029843801808600098C068019948601F
:1047A000009800680199C860009840680199886085
:1047B00002B010BD81B000900099086801229043BA
:1047C000086001B0704781B000900099086801222C
:1047D0001043086001B0704780B505F0C1F980BD95
:1047E00081B0009000984949086001B07047C04608
:1047F00081B0009000984549086001B07047C046FC
:1048000081B000900098807900281BD1FFE70098C4
:104810000079002807D1FFE7009802682C49086852
:10482000904308600DE000980079012807D1FFE768
:1048300000980268254908689043086000E0FFE797
:10484000FFE740E000980079002807D1FFE70098D3
:1048500002681F490868104308600DE0009800795D
:10486000012807D1FFE7009802681849086810433B
:10487000086000E0FFE7FFE700984079002807D1D3
:10488000FFE700980268134908681043086019E0C0
:1048900000984079012807D1FFE7009802680E4987
:1048A0000868104308600CE000980268094908682D
:1048B00010430860009802680749086810430860C0
:1048C000FFE7FFE7FFE701B07047C046040401407F
:1048D00000040140080401400C04014082B0019032
:1048E000694600200870094800680199084204D010
:1048F000FFE769460120087003E069460020087060
:10490000FFE76846007802B07047C04614040140D3
:1049100080B582B001A9009100200870742005F0D4
:10492000B8FF009800784142484102B080BD80B590
:1049300004F0C0FF80BD80B504F0C6FF80BD80B527
:1049400082B000F039F80190019A402100205054C3
:104950000198FAF7E6FF02B080BD704780B586B0D7
:10496000059004A80190018000F026F801990390B9
:1049700003984022805C0988884205DAFFE70398A3
:104980004021405C009003E004A800880090FFE70D
:10499000009802A908800598002808D0FFE705982C
:1049A000039902AA12889200FAF7A2FFFFE702A871
:1049B000008806B080BD00002548704780B584B0EF
:1049C000014602A801800088019000F015F8014618
:1049D0000198884203DBFFE70020039006E002A86D
:1049E00000888100034840580390FFE7039804B013
:1049F00080BDC046ECCD01080D20704780B582B067
:104A000070490120087011490020087010481149B0
:104A10005022FAF76DFF05F06DFF002801D1FFE786
:104A200012E00B490191012040025022FFF748FBA0
:104A3000019805F053FF0199896C884204D0FFE783
:104A400003490548C864FFE702B080BD2006002086
:104A5000A008002020CE0108544C554680B584B0F3
:104A60000290FFF7A9FF0190694600200870FFE758
:104A70006846007801994022895C884213DAFFE792
:104A8000019869460978890040580299884204D102
:104A9000FFE703A90120087009E0FFE70098401C28
:104AA00069460870E4E703A900200870FFE703A83F
:104AB000007804B080BD000080B586B004AB1880DB
:104AC00003910292FFF778FF01900398002808D025
:104AD000FFE70298002804D0FFE70198002804D1DE
:104AE000FFE70020C043059054E004A80088009030
:104AF0000121490288422FD0FFE7009827498842C8
:104B000038D0FFE70098264988420AD0FFE700988E
:104B1000244988420ED0FFE700982349884212D0EA
:104B200031E002990120087001984121405C03990D
:104B300008702CE002990120087001984221405C25
:104B40000399087023E0029901200870019843211D
:104B5000405C039908701AE00299022008700198DD
:104B60004521405C0399087001984421405A0399FB
:104B700048700CE002990120087001984621405CC1
:104B80000399087003E00020C043059002E0002074
:104B90000590FFE7059806B080BDC0460102000001
:104BA000EDF10000EEF1000019FA000081B00146BD
:104BB000684601700078411E88410249087001B0C2
:104BC0007047C0464400002080B586B0059004A917
:104BD0000391002008700B20000400F0E3F8014668
:104BE00003980170007800281AD1FFE74849029124
:104BF000086802220192104308600598454A106037
:104C000008684022104308600B20000400F0CAF836
:104C1000019A029904AB187008689043086000E09C
:104C2000FFE704A8007806B080BDC0463849086890
:104C3000802210430860704780B58EB00D900C91B3
:104C40000B923148C1680A918168099141680891C5
:104C50000068079006A90391002008702B49059170
:104C600004900120400300F09DF801460398017074
:104C70000078002843D1FFE7254908680122104346
:104C800008600C9A08689207920A03231B05984350
:104C9000801808600D981F490A6808600020049079
:104CA000FFE704980C998A0007A9895888420ED218
:104CB000FFE70B980499890040580599086005980A
:104CC000001D0590FFE70498401C0490E9E7104997
:104CD00002910868402210430860012001904003BF
:104CE00000F060F8019A029906AB18700868032377
:104CF0001B059843086008689043086000E0FFE7E0
:104D000006A800780EB080BDC8CC01084020024043
:104D1000102002401420024082B000200190694619
:104D2000087019480068019001A800784007002821
:104D300004D5FFE769460220087021E001A8007849
:104D4000C006002804D5FFE769460320087016E076
:104D500001A80078C007002804D0FFE769460120B9
:104D600008700BE001A88078C007002804D0FFE796
:104D700069460420087000E0FFE7FFE7FFE7FFE770
:104D80006846007802B070470C2002400249034890
:104D9000086003480860704704200240230167450B
:104DA000AB89EFCD80B584B0039002A900200870D4
:104DB00003980190FFE7FFF7AFFF02A90870019881
:104DC000401E0190FFE702A8017800200129009011
:104DD00005D1FFE70198411E88410090FFE7009848
:104DE000C0070028E7D1FFE70198002804D1FFE7BA
:104DF00002A90520087000E0FFE702A8007804B0CF
:104E000080BD80B586B005AB188004910392002068
:104E100002900398002801D1FFE743E0049800289E
:104E200004D1FFE70399042008703BE005A800883F
:104E3000039A02A901F056FD03980078002801D0DA
:104E4000FFE72FE00298007A012818D1FFE70299C6
:104E50008888C988884206DDFFE702998888C98862
:104E6000401A019007E0029948888A888018C9880A
:104E7000401A0190FFE70198049908800EE002981B
:104E8000007A002805D1FFE702984088049908803D
:104E900003E0049900200880FFE7FFE70399002062
:104EA0000870FFE706B080BD80B586B005AB1880FE
:104EB00004910392002002900398002801D1FFE79B
:104EC00043E00498002804D1FFE703990420087008
:104ED0003BE005A80088039A02A901F003FD0398AE
:104EE0000078002801D0FFE72FE00298007A01281F
:104EF00018D1FFE702998888C988884208DDFFE752
:104F0000029948888A88801AC9884018019005E06B
:104F10000299C8888988401A0190FFE7019804998E
:104F200008800EE00298007A022805D1FFE7029877
:104F300040880499088003E0049900200880FFE776
:104F4000FFE7039900200870FFE706B080BD00006E
:104F5000054840687047C046034880687047C046AF
:104F60000148C0687047C046D8CC010810B588B069
:104F70000A9C07AC208006A80180059204930020BB
:104F8000039002A9088001A908800A98002801D18D
:104F9000FFE77EE00598002809D0FFE70498002885
:104FA00005D0FFE706A80088002804D1FFE70A998A
:104FB000042008706DE007A800880A9A01A9FFF78D
:104FC00073FF0A980078002801D0FFE761E007A886
:104FD00000880A9A03A901F085FC0A980078002845
:104FE00001D0FFE755E001A8008806A9098888429A
:104FF00004DDFFE706A80088009003E001A8008810
:105000000090FFE7009801A90880019804990880A2
:1050100002A900200880FFE702A8008801A90988EA
:10502000884220DAFFE70399C8688988405C0599BF
:1050300002AA12888854FFE703998888401C888058
:10504000039988884988884206DBFFE703994A88E4
:105050008888801A8880FFE7FFE7FFE70298401CF6
:1050600002A90880D8E7FFE772B60399C888898843
:10507000884204D1FFE703990020087203E00399F6
:1050800001200872FFE762B6FFE70A990020087066
:10509000FFE708B010BD82B001906846018000882B
:1050A0000199886202B0704784B003900291002099
:1050B000019000900190FFE701980F285FD8FFE76B
:1050C00001990120884000900298008800990842C8
:1050D0004FD0FFE702988078012805D0FFE70298BB
:1050E0008078022821D1FFE7019840000322824006
:1050F000039988689043886002980279019840007B
:105100008240039988681043886001980122824098
:1051100003994868904348600298C2780198824099
:10512000039948681043486000E0FFE70198400099
:105130000322134683400399086898430860029845
:1051400083780198400083400399086818430860F9
:105150000198400082400399C8689043C860029853
:1051600042790198400082400399C8681043C860A2
:1051700000E0FFE7FFE70198401C01909CE704B0C6
:10518000704785B0049003A8017002A90A7000213D
:10519000019100910078072815D8FFE702A801784F
:1051A00003A80278920091400191007880000F22BC
:1051B00082400499086A90430862019A0499086A37
:1051C0001043086216E002A8017803A8027852078B
:1051D000D20E9140009100784007C00E0F2282400D
:1051E0000499486A90434862009A0499486A1043B7
:1051F0004862FFE705B0704784B00091014600980F
:10520000039102A9088001AA002010700398006988
:105210000988084204D0FFE701A90120087003E0D3
:1052200001A900200870FFE701A8007804B07047CA
:1052300082B001906846018000880199886102B0BF
:10524000704782B0019068460180028801994869E0
:105250005040486102B070477047000081B001467D
:105260006846017000780249086001B07047C04686
:105270000430004081B00146684601800088024940
:10528000086001B07047C046083000400749014837
:1052900008607047CCCC00000449014808607047A2
:1052A0005555000001490248086070470030004031
:1052B000AAAA00008CB00B900A91099208A90020BC
:1052C0000870079006900B990591049003900A9935
