:020000042000DA
:100000001100000099000000AB0000005501000045
:1000100080B582B000AF78601C4B1D4A5A601B4B04
:100020001C4A5A60194B194AD26814210A43DA60F3
:10003000164B164A126902210A431A61134B7A6859
:100040005A61124B114A126940210A431A61C04693
:100050000E4BDB6801221340FAD10C4B0B4A12699C
:1000600002218A431A61094BDB681422134007D02E
:10007000064B064AD26814210A43DA60012300E0E5
:1000800000231800BD4602B080BDC04600200240DB
:1000900023016745AB89EFCD80B582B000AF7860B2
:1000A00000231800BD4602B080BD80B584B000AF0B
:1000B000F860B9607A60BB68073307229343BB607E
:1000C000234B234AD26804210A43DA6038E0204BEC
:1000D0001F4A126901210A431A611D4BFA685A61CD
:1000E0001B4A7B681B681364194A7B685B6853640E
:1000F000174B174A126940210A431A61C046144B34
:10010000DB6801221340FAD1114B114A1269012117
:100110008A431A610E4BDB681422134007D00C4B44
:100120000B4AD26814210A43DA6001230CE0FB6811
:100130000833FB607B6808337B60BB68083BBB60AF
:10014000BB68002BC3D100231800BD4604B080BD9E
:100150000020024080B582B000AF78600023180014
:08016000BD4602B080BDC0469F
:0400000300000411E4
:00000001FF
